{
	"AddContract.sol": {
		"Add": {
			"abi": [
				{
					"inputs": [
						{
							"internalType": "int256",
							"name": "_a",
							"type": "int256"
						},
						{
							"internalType": "int256",
							"name": "_b",
							"type": "int256"
						}
					],
					"stateMutability": "nonpayable",
					"type": "constructor"
				},
				{
					"inputs": [],
					"name": "add",
					"outputs": [
						{
							"internalType": "int256",
							"name": "",
							"type": "int256"
						}
					],
					"stateMutability": "view",
					"type": "function"
				}
			],
			"devdoc": {
				"kind": "dev",
				"methods": {},
				"version": 1
			},
			"evm": {
				"assembly": "    /* \"AddContract.sol\":58:319  contract Add{... */\n  mstore(0x40, 0x80)\n    /* \"AddContract.sol\":140:239  constructor(int _a, int _b){... */\n  callvalue\n  dup1\n  iszero\n  tag_1\n  jumpi\n  revert(0x00, 0x00)\ntag_1:\n  pop\n  mload(0x40)\n  sub(codesize, bytecodeSize)\n  dup1\n  bytecodeSize\n  dup4\n  codecopy\n  dup2\n  dup2\n  add\n  0x40\n  mstore\n  dup2\n  add\n  swap1\n  tag_2\n  swap2\n  swap1\n  tag_3\n  jump\t// in\ntag_2:\n    /* \"AddContract.sol\":182:184  _a */\n  dup2\n    /* \"AddContract.sol\":178:179  a */\n  0x01\n    /* \"AddContract.sol\":178:184  a = _a */\n  dup2\n  swap1\n  sstore\n  pop\n    /* \"AddContract.sol\":198:200  _b */\n  dup1\n    /* \"AddContract.sol\":194:195  b */\n  0x02\n    /* \"AddContract.sol\":194:200  b = _b */\n  dup2\n  swap1\n  sstore\n  pop\n    /* \"AddContract.sol\":219:224  add() */\n  tag_6\n    /* \"AddContract.sol\":219:222  add */\n  shl(0x20, tag_7)\n    /* \"AddContract.sol\":219:224  add() */\n  0x20\n  shr\n  jump\t// in\ntag_6:\n    /* \"AddContract.sol\":210:216  result */\n  0x00\n    /* \"AddContract.sol\":210:224  result = add() */\n  dup2\n  swap1\n  sstore\n  pop\n    /* \"AddContract.sol\":140:239  constructor(int _a, int _b){... */\n  pop\n  pop\n    /* \"AddContract.sol\":58:319  contract Add{... */\n  jump(tag_8)\n    /* \"AddContract.sol\":245:316  function add() public view returns (int) {... */\ntag_7:\n    /* \"AddContract.sol\":281:284  int */\n  0x00\n    /* \"AddContract.sol\":308:309  b */\n  sload(0x02)\n    /* \"AddContract.sol\":304:305  a */\n  sload(0x01)\n    /* \"AddContract.sol\":304:309  a + b */\n  tag_10\n  swap2\n  swap1\n  tag_11\n  jump\t// in\ntag_10:\n    /* \"AddContract.sol\":296:309  return  a + b */\n  swap1\n  pop\n    /* \"AddContract.sol\":245:316  function add() public view returns (int) {... */\n  swap1\n  jump\t// out\n    /* \"#utility.yul\":88:205   */\ntag_13:\n    /* \"#utility.yul\":197:198   */\n  0x00\n    /* \"#utility.yul\":194:195   */\n  0x00\n    /* \"#utility.yul\":187:199   */\n  revert\n    /* \"#utility.yul\":334:410   */\ntag_15:\n    /* \"#utility.yul\":370:377   */\n  0x00\n    /* \"#utility.yul\":399:404   */\n  dup2\n    /* \"#utility.yul\":388:404   */\n  swap1\n  pop\n    /* \"#utility.yul\":334:410   */\n  swap2\n  swap1\n  pop\n  jump\t// out\n    /* \"#utility.yul\":416:536   */\ntag_16:\n    /* \"#utility.yul\":488:511   */\n  tag_25\n    /* \"#utility.yul\":505:510   */\n  dup2\n    /* \"#utility.yul\":488:511   */\n  tag_15\n  jump\t// in\ntag_25:\n    /* \"#utility.yul\":481:486   */\n  dup2\n    /* \"#utility.yul\":478:512   */\n  eq\n    /* \"#utility.yul\":468:530   */\n  tag_26\n  jumpi\n    /* \"#utility.yul\":526:527   */\n  0x00\n    /* \"#utility.yul\":523:524   */\n  0x00\n    /* \"#utility.yul\":516:528   */\n  revert\n    /* \"#utility.yul\":468:530   */\ntag_26:\n    /* \"#utility.yul\":416:536   */\n  pop\n  jump\t// out\n    /* \"#utility.yul\":542:683   */\ntag_17:\n    /* \"#utility.yul\":598:603   */\n  0x00\n    /* \"#utility.yul\":629:635   */\n  dup2\n    /* \"#utility.yul\":623:636   */\n  mload\n    /* \"#utility.yul\":614:636   */\n  swap1\n  pop\n    /* \"#utility.yul\":645:677   */\n  tag_28\n    /* \"#utility.yul\":671:676   */\n  dup2\n    /* \"#utility.yul\":645:677   */\n  tag_16\n  jump\t// in\ntag_28:\n    /* \"#utility.yul\":542:683   */\n  swap3\n  swap2\n  pop\n  pop\n  jump\t// out\n    /* \"#utility.yul\":689:1192   */\ntag_3:\n    /* \"#utility.yul\":766:772   */\n  0x00\n    /* \"#utility.yul\":774:780   */\n  0x00\n    /* \"#utility.yul\":823:825   */\n  0x40\n    /* \"#utility.yul\":811:820   */\n  dup4\n    /* \"#utility.yul\":802:809   */\n  dup6\n    /* \"#utility.yul\":798:821   */\n  sub\n    /* \"#utility.yul\":794:826   */\n  slt\n    /* \"#utility.yul\":791:910   */\n  iszero\n  tag_30\n  jumpi\n    /* \"#utility.yul\":829:908   */\n  tag_31\n  tag_13\n  jump\t// in\ntag_31:\n    /* \"#utility.yul\":791:910   */\ntag_30:\n    /* \"#utility.yul\":949:950   */\n  0x00\n    /* \"#utility.yul\":974:1037   */\n  tag_32\n    /* \"#utility.yul\":1029:1036   */\n  dup6\n    /* \"#utility.yul\":1020:1026   */\n  dup3\n    /* \"#utility.yul\":1009:1018   */\n  dup7\n    /* \"#utility.yul\":1005:1027   */\n  add\n    /* \"#utility.yul\":974:1037   */\n  tag_17\n  jump\t// in\ntag_32:\n    /* \"#utility.yul\":964:1037   */\n  swap3\n  pop\n    /* \"#utility.yul\":920:1047   */\n  pop\n    /* \"#utility.yul\":1086:1088   */\n  0x20\n    /* \"#utility.yul\":1112:1175   */\n  tag_33\n    /* \"#utility.yul\":1167:1174   */\n  dup6\n    /* \"#utility.yul\":1158:1164   */\n  dup3\n    /* \"#utility.yul\":1147:1156   */\n  dup7\n    /* \"#utility.yul\":1143:1165   */\n  add\n    /* \"#utility.yul\":1112:1175   */\n  tag_17\n  jump\t// in\ntag_33:\n    /* \"#utility.yul\":1102:1175   */\n  swap2\n  pop\n    /* \"#utility.yul\":1057:1185   */\n  pop\n    /* \"#utility.yul\":689:1192   */\n  swap3\n  pop\n  swap3\n  swap1\n  pop\n  jump\t// out\n    /* \"#utility.yul\":1198:1378   */\ntag_18:\n    /* \"#utility.yul\":1246:1323   */\n  0x4e487b7100000000000000000000000000000000000000000000000000000000\n    /* \"#utility.yul\":1243:1244   */\n  0x00\n    /* \"#utility.yul\":1236:1324   */\n  mstore\n    /* \"#utility.yul\":1343:1347   */\n  0x11\n    /* \"#utility.yul\":1340:1341   */\n  0x04\n    /* \"#utility.yul\":1333:1348   */\n  mstore\n    /* \"#utility.yul\":1367:1371   */\n  0x24\n    /* \"#utility.yul\":1364:1365   */\n  0x00\n    /* \"#utility.yul\":1357:1372   */\n  revert\n    /* \"#utility.yul\":1384:1759   */\ntag_11:\n    /* \"#utility.yul\":1423:1426   */\n  0x00\n    /* \"#utility.yul\":1442:1461   */\n  tag_36\n    /* \"#utility.yul\":1459:1460   */\n  dup3\n    /* \"#utility.yul\":1442:1461   */\n  tag_15\n  jump\t// in\ntag_36:\n    /* \"#utility.yul\":1437:1461   */\n  swap2\n  pop\n    /* \"#utility.yul\":1475:1494   */\n  tag_37\n    /* \"#utility.yul\":1492:1493   */\n  dup4\n    /* \"#utility.yul\":1475:1494   */\n  tag_15\n  jump\t// in\ntag_37:\n    /* \"#utility.yul\":1470:1494   */\n  swap3\n  pop\n    /* \"#utility.yul\":1517:1518   */\n  dup3\n    /* \"#utility.yul\":1514:1515   */\n  dup3\n    /* \"#utility.yul\":1510:1519   */\n  add\n    /* \"#utility.yul\":1503:1519   */\n  swap1\n  pop\n    /* \"#utility.yul\":1715:1716   */\n  dup3\n    /* \"#utility.yul\":1710:1713   */\n  dup2\n    /* \"#utility.yul\":1706:1717   */\n  slt\n    /* \"#utility.yul\":1699:1718   */\n  iszero\n    /* \"#utility.yul\":1695:1696   */\n  0x00\n    /* \"#utility.yul\":1692:1693   */\n  dup4\n    /* \"#utility.yul\":1688:1697   */\n  slt\n    /* \"#utility.yul\":1684:1719   */\n  and\n    /* \"#utility.yul\":1667:1668   */\n  dup4\n    /* \"#utility.yul\":1662:1665   */\n  dup3\n    /* \"#utility.yul\":1658:1669   */\n  slt\n    /* \"#utility.yul\":1653:1654   */\n  0x00\n    /* \"#utility.yul\":1650:1651   */\n  dup5\n    /* \"#utility.yul\":1646:1655   */\n  slt\n    /* \"#utility.yul\":1639:1656   */\n  iszero\n    /* \"#utility.yul\":1635:1670   */\n  and\n    /* \"#utility.yul\":1619:1729   */\n  or\n    /* \"#utility.yul\":1616:1752   */\n  iszero\n  tag_38\n  jumpi\n    /* \"#utility.yul\":1732:1750   */\n  tag_39\n  tag_18\n  jump\t// in\ntag_39:\n    /* \"#utility.yul\":1616:1752   */\ntag_38:\n    /* \"#utility.yul\":1384:1759   */\n  swap3\n  swap2\n  pop\n  pop\n  jump\t// out\n    /* \"AddContract.sol\":58:319  contract Add{... */\ntag_8:\n  dataSize(sub_0)\n  dup1\n  dataOffset(sub_0)\n  0x00\n  codecopy\n  0x00\n  return\nstop\n\nsub_0: assembly {\n        /* \"AddContract.sol\":58:319  contract Add{... */\n      mstore(0x40, 0x80)\n      callvalue\n      dup1\n      iszero\n      tag_1\n      jumpi\n      revert(0x00, 0x00)\n    tag_1:\n      pop\n      jumpi(tag_2, lt(calldatasize, 0x04))\n      shr(0xe0, calldataload(0x00))\n      dup1\n      0x4f2be91f\n      eq\n      tag_3\n      jumpi\n    tag_2:\n      revert(0x00, 0x00)\n        /* \"AddContract.sol\":245:316  function add() public view returns (int) {... */\n    tag_3:\n      tag_4\n      tag_5\n      jump\t// in\n    tag_4:\n      mload(0x40)\n      tag_6\n      swap2\n      swap1\n      tag_7\n      jump\t// in\n    tag_6:\n      mload(0x40)\n      dup1\n      swap2\n      sub\n      swap1\n      return\n    tag_5:\n        /* \"AddContract.sol\":281:284  int */\n      0x00\n        /* \"AddContract.sol\":308:309  b */\n      sload(0x02)\n        /* \"AddContract.sol\":304:305  a */\n      sload(0x01)\n        /* \"AddContract.sol\":304:309  a + b */\n      tag_9\n      swap2\n      swap1\n      tag_10\n      jump\t// in\n    tag_9:\n        /* \"AddContract.sol\":296:309  return  a + b */\n      swap1\n      pop\n        /* \"AddContract.sol\":245:316  function add() public view returns (int) {... */\n      swap1\n      jump\t// out\n        /* \"#utility.yul\":7:83   */\n    tag_11:\n        /* \"#utility.yul\":43:50   */\n      0x00\n        /* \"#utility.yul\":72:77   */\n      dup2\n        /* \"#utility.yul\":61:77   */\n      swap1\n      pop\n        /* \"#utility.yul\":7:83   */\n      swap2\n      swap1\n      pop\n      jump\t// out\n        /* \"#utility.yul\":89:204   */\n    tag_12:\n        /* \"#utility.yul\":174:197   */\n      tag_17\n        /* \"#utility.yul\":191:196   */\n      dup2\n        /* \"#utility.yul\":174:197   */\n      tag_11\n      jump\t// in\n    tag_17:\n        /* \"#utility.yul\":169:172   */\n      dup3\n        /* \"#utility.yul\":162:198   */\n      mstore\n        /* \"#utility.yul\":89:204   */\n      pop\n      pop\n      jump\t// out\n        /* \"#utility.yul\":210:428   */\n    tag_7:\n        /* \"#utility.yul\":301:305   */\n      0x00\n        /* \"#utility.yul\":339:341   */\n      0x20\n        /* \"#utility.yul\":328:337   */\n      dup3\n        /* \"#utility.yul\":324:342   */\n      add\n        /* \"#utility.yul\":316:342   */\n      swap1\n      pop\n        /* \"#utility.yul\":352:421   */\n      tag_19\n        /* \"#utility.yul\":418:419   */\n      0x00\n        /* \"#utility.yul\":407:416   */\n      dup4\n        /* \"#utility.yul\":403:420   */\n      add\n        /* \"#utility.yul\":394:400   */\n      dup5\n        /* \"#utility.yul\":352:421   */\n      tag_12\n      jump\t// in\n    tag_19:\n        /* \"#utility.yul\":210:428   */\n      swap3\n      swap2\n      pop\n      pop\n      jump\t// out\n        /* \"#utility.yul\":434:614   */\n    tag_13:\n        /* \"#utility.yul\":482:559   */\n      0x4e487b7100000000000000000000000000000000000000000000000000000000\n        /* \"#utility.yul\":479:480   */\n      0x00\n        /* \"#utility.yul\":472:560   */\n      mstore\n        /* \"#utility.yul\":579:583   */\n      0x11\n        /* \"#utility.yul\":576:577   */\n      0x04\n        /* \"#utility.yul\":569:584   */\n      mstore\n        /* \"#utility.yul\":603:607   */\n      0x24\n        /* \"#utility.yul\":600:601   */\n      0x00\n        /* \"#utility.yul\":593:608   */\n      revert\n        /* \"#utility.yul\":620:995   */\n    tag_10:\n        /* \"#utility.yul\":659:662   */\n      0x00\n        /* \"#utility.yul\":678:697   */\n      tag_22\n        /* \"#utility.yul\":695:696   */\n      dup3\n        /* \"#utility.yul\":678:697   */\n      tag_11\n      jump\t// in\n    tag_22:\n        /* \"#utility.yul\":673:697   */\n      swap2\n      pop\n        /* \"#utility.yul\":711:730   */\n      tag_23\n        /* \"#utility.yul\":728:729   */\n      dup4\n        /* \"#utility.yul\":711:730   */\n      tag_11\n      jump\t// in\n    tag_23:\n        /* \"#utility.yul\":706:730   */\n      swap3\n      pop\n        /* \"#utility.yul\":753:754   */\n      dup3\n        /* \"#utility.yul\":750:751   */\n      dup3\n        /* \"#utility.yul\":746:755   */\n      add\n        /* \"#utility.yul\":739:755   */\n      swap1\n      pop\n        /* \"#utility.yul\":951:952   */\n      dup3\n        /* \"#utility.yul\":946:949   */\n      dup2\n        /* \"#utility.yul\":942:953   */\n      slt\n        /* \"#utility.yul\":935:954   */\n      iszero\n        /* \"#utility.yul\":931:932   */\n      0x00\n        /* \"#utility.yul\":928:929   */\n      dup4\n        /* \"#utility.yul\":924:933   */\n      slt\n        /* \"#utility.yul\":920:955   */\n      and\n        /* \"#utility.yul\":903:904   */\n      dup4\n        /* \"#utility.yul\":898:901   */\n      dup3\n        /* \"#utility.yul\":894:905   */\n      slt\n        /* \"#utility.yul\":889:890   */\n      0x00\n        /* \"#utility.yul\":886:887   */\n      dup5\n        /* \"#utility.yul\":882:891   */\n      slt\n        /* \"#utility.yul\":875:892   */\n      iszero\n        /* \"#utility.yul\":871:906   */\n      and\n        /* \"#utility.yul\":855:965   */\n      or\n        /* \"#utility.yul\":852:988   */\n      iszero\n      tag_24\n      jumpi\n        /* \"#utility.yul\":968:986   */\n      tag_25\n      tag_13\n      jump\t// in\n    tag_25:\n        /* \"#utility.yul\":852:988   */\n    tag_24:\n        /* \"#utility.yul\":620:995   */\n      swap3\n      swap2\n      pop\n      pop\n      jump\t// out\n\n    auxdata: 0xa2646970667358221220bd118a3097260878e25ea1175bf6651a7d40244d306ffc4d901b5a0fbf8301aa64736f6c634300081e0033\n}\n",
				"bytecode": {
					"linkReferences": {},
					"object": "608060405234801561000f575f5ffd5b50604051610281380380610281833981810160405281019061003191906100a6565b816001819055508060028190555061004d61005960201b60201c565b5f819055505050610152565b5f60025460015461006a9190610111565b905090565b5f5ffd5b5f819050919050565b61008581610073565b811461008f575f5ffd5b50565b5f815190506100a08161007c565b92915050565b5f5f604083850312156100bc576100bb61006f565b5b5f6100c985828601610092565b92505060206100da85828601610092565b9150509250929050565b7f4e487b71000000000000000000000000000000000000000000000000000000005f52601160045260245ffd5b5f61011b82610073565b915061012683610073565b92508282019050828112155f8312168382125f84121516171561014c5761014b6100e4565b5b92915050565b6101228061015f5f395ff3fe6080604052348015600e575f5ffd5b50600436106026575f3560e01c80634f2be91f14602a575b5f5ffd5b60306044565b604051603b9190606e565b60405180910390f35b5f6002546001546053919060b2565b905090565b5f819050919050565b6068816058565b82525050565b5f602082019050607f5f8301846061565b92915050565b7f4e487b71000000000000000000000000000000000000000000000000000000005f52601160045260245ffd5b5f60ba826058565b915060c3836058565b92508282019050828112155f8312168382125f84121516171560e65760e56085565b5b9291505056fea2646970667358221220bd118a3097260878e25ea1175bf6651a7d40244d306ffc4d901b5a0fbf8301aa64736f6c634300081e0033",
					"opcodes": "PUSH1 0x80 PUSH1 0x40 MSTORE CALLVALUE DUP1 ISZERO PUSH2 0xF JUMPI PUSH0 PUSH0 REVERT JUMPDEST POP PUSH1 0x40 MLOAD PUSH2 0x281 CODESIZE SUB DUP1 PUSH2 0x281 DUP4 CODECOPY DUP2 DUP2 ADD PUSH1 0x40 MSTORE DUP2 ADD SWAP1 PUSH2 0x31 SWAP2 SWAP1 PUSH2 0xA6 JUMP JUMPDEST DUP2 PUSH1 0x1 DUP2 SWAP1 SSTORE POP DUP1 PUSH1 0x2 DUP2 SWAP1 SSTORE POP PUSH2 0x4D PUSH2 0x59 PUSH1 0x20 SHL PUSH1 0x20 SHR JUMP JUMPDEST PUSH0 DUP2 SWAP1 SSTORE POP POP POP PUSH2 0x152 JUMP JUMPDEST PUSH0 PUSH1 0x2 SLOAD PUSH1 0x1 SLOAD PUSH2 0x6A SWAP2 SWAP1 PUSH2 0x111 JUMP JUMPDEST SWAP1 POP SWAP1 JUMP JUMPDEST PUSH0 PUSH0 REVERT JUMPDEST PUSH0 DUP2 SWAP1 POP SWAP2 SWAP1 POP JUMP JUMPDEST PUSH2 0x85 DUP2 PUSH2 0x73 JUMP JUMPDEST DUP2 EQ PUSH2 0x8F JUMPI PUSH0 PUSH0 REVERT JUMPDEST POP JUMP JUMPDEST PUSH0 DUP2 MLOAD SWAP1 POP PUSH2 0xA0 DUP2 PUSH2 0x7C JUMP JUMPDEST SWAP3 SWAP2 POP POP JUMP JUMPDEST PUSH0 PUSH0 PUSH1 0x40 DUP4 DUP6 SUB SLT ISZERO PUSH2 0xBC JUMPI PUSH2 0xBB PUSH2 0x6F JUMP JUMPDEST JUMPDEST PUSH0 PUSH2 0xC9 DUP6 DUP3 DUP7 ADD PUSH2 0x92 JUMP JUMPDEST SWAP3 POP POP PUSH1 0x20 PUSH2 0xDA DUP6 DUP3 DUP7 ADD PUSH2 0x92 JUMP JUMPDEST SWAP2 POP POP SWAP3 POP SWAP3 SWAP1 POP JUMP JUMPDEST PUSH32 0x4E487B7100000000000000000000000000000000000000000000000000000000 PUSH0 MSTORE PUSH1 0x11 PUSH1 0x4 MSTORE PUSH1 0x24 PUSH0 REVERT JUMPDEST PUSH0 PUSH2 0x11B DUP3 PUSH2 0x73 JUMP JUMPDEST SWAP2 POP PUSH2 0x126 DUP4 PUSH2 0x73 JUMP JUMPDEST SWAP3 POP DUP3 DUP3 ADD SWAP1 POP DUP3 DUP2 SLT ISZERO PUSH0 DUP4 SLT AND DUP4 DUP3 SLT PUSH0 DUP5 SLT ISZERO AND OR ISZERO PUSH2 0x14C JUMPI PUSH2 0x14B PUSH2 0xE4 JUMP JUMPDEST JUMPDEST SWAP3 SWAP2 POP POP JUMP JUMPDEST PUSH2 0x122 DUP1 PUSH2 0x15F PUSH0 CODECOPY PUSH0 RETURN INVALID PUSH1 0x80 PUSH1 0x40 MSTORE CALLVALUE DUP1 ISZERO PUSH1 0xE JUMPI PUSH0 PUSH0 REVERT JUMPDEST POP PUSH1 0x4 CALLDATASIZE LT PUSH1 0x26 JUMPI PUSH0 CALLDATALOAD PUSH1 0xE0 SHR DUP1 PUSH4 0x4F2BE91F EQ PUSH1 0x2A JUMPI JUMPDEST PUSH0 PUSH0 REVERT JUMPDEST PUSH1 0x30 PUSH1 0x44 JUMP JUMPDEST PUSH1 0x40 MLOAD PUSH1 0x3B SWAP2 SWAP1 PUSH1 0x6E JUMP JUMPDEST PUSH1 0x40 MLOAD DUP1 SWAP2 SUB SWAP1 RETURN JUMPDEST PUSH0 PUSH1 0x2 SLOAD PUSH1 0x1 SLOAD PUSH1 0x53 SWAP2 SWAP1 PUSH1 0xB2 JUMP JUMPDEST SWAP1 POP SWAP1 JUMP JUMPDEST PUSH0 DUP2 SWAP1 POP SWAP2 SWAP1 POP JUMP JUMPDEST PUSH1 0x68 DUP2 PUSH1 0x58 JUMP JUMPDEST DUP3 MSTORE POP POP JUMP JUMPDEST PUSH0 PUSH1 0x20 DUP3 ADD SWAP1 POP PUSH1 0x7F PUSH0 DUP4 ADD DUP5 PUSH1 0x61 JUMP JUMPDEST SWAP3 SWAP2 POP POP JUMP JUMPDEST PUSH32 0x4E487B7100000000000000000000000000000000000000000000000000000000 PUSH0 MSTORE PUSH1 0x11 PUSH1 0x4 MSTORE PUSH1 0x24 PUSH0 REVERT JUMPDEST PUSH0 PUSH1 0xBA DUP3 PUSH1 0x58 JUMP JUMPDEST SWAP2 POP PUSH1 0xC3 DUP4 PUSH1 0x58 JUMP JUMPDEST SWAP3 POP DUP3 DUP3 ADD SWAP1 POP DUP3 DUP2 SLT ISZERO PUSH0 DUP4 SLT AND DUP4 DUP3 SLT PUSH0 DUP5 SLT ISZERO AND OR ISZERO PUSH1 0xE6 JUMPI PUSH1 0xE5 PUSH1 0x85 JUMP JUMPDEST JUMPDEST SWAP3 SWAP2 POP POP JUMP INVALID LOG2 PUSH5 0x6970667358 0x22 SLT KECCAK256 0xBD GT DUP11 ADDRESS SWAP8 0x26 ADDMOD PUSH25 0xE25EA1175BF6651A7D40244D306FFC4D901B5A0FBF8301AA64 PUSH20 0x6F6C634300081E00330000000000000000000000 "
				},
				"gasEstimates": {
					"creation": {
						"codeDepositCost": "58000",
						"executionCost": "infinite",
						"totalCost": "infinite"
					},
					"external": {
						"add()": "infinite"
					}
				},
				"methodIdentifiers": {
					"add()": "4f2be91f"
				}
			},
			"storageLayout": {
				"storage": [
					{
						"astId": 3,
						"contract": "AddContract.sol:Add",
						"label": "result",
						"offset": 0,
						"slot": "0",
						"type": "t_int256"
					},
					{
						"astId": 5,
						"contract": "AddContract.sol:Add",
						"label": "a",
						"offset": 0,
						"slot": "1",
						"type": "t_int256"
					},
					{
						"astId": 7,
						"contract": "AddContract.sol:Add",
						"label": "b",
						"offset": 0,
						"slot": "2",
						"type": "t_int256"
					}
				],
				"types": {
					"t_int256": {
						"encoding": "inplace",
						"label": "int256",
						"numberOfBytes": "32"
					}
				}
			},
			"userdoc": {
				"kind": "user",
				"methods": {},
				"version": 1
			}
		}
	}
}