{
	"Bank.sol": {
		"Bank": {
			"abi": [
				{
					"inputs": [],
					"stateMutability": "nonpayable",
					"type": "constructor"
				},
				{
					"inputs": [
						{
							"internalType": "uint256",
							"name": "_amount",
							"type": "uint256"
						},
						{
							"internalType": "uint256",
							"name": "lockPeriod",
							"type": "uint256"
						}
					],
					"name": "createFixedDeposit",
					"outputs": [
						{
							"components": [
								{
									"internalType": "uint256",
									"name": "amount",
									"type": "uint256"
								},
								{
									"internalType": "uint256",
									"name": "lockPeriod",
									"type": "uint256"
								},
								{
									"internalType": "uint256",
									"name": "interestRate",
									"type": "uint256"
								}
							],
							"internalType": "struct Bank.FixedDeposit",
							"name": "",
							"type": "tuple"
						}
					],
					"stateMutability": "payable",
					"type": "function"
				},
				{
					"inputs": [],
					"name": "deposit",
					"outputs": [],
					"stateMutability": "payable",
					"type": "function"
				},
				{
					"inputs": [
						{
							"internalType": "address",
							"name": "",
							"type": "address"
						}
					],
					"name": "fixedDeposits",
					"outputs": [
						{
							"internalType": "uint256",
							"name": "amount",
							"type": "uint256"
						},
						{
							"internalType": "uint256",
							"name": "lockPeriod",
							"type": "uint256"
						},
						{
							"internalType": "uint256",
							"name": "interestRate",
							"type": "uint256"
						}
					],
					"stateMutability": "view",
					"type": "function"
				},
				{
					"inputs": [],
					"name": "getContractBalance",
					"outputs": [
						{
							"internalType": "uint256",
							"name": "",
							"type": "uint256"
						}
					],
					"stateMutability": "view",
					"type": "function"
				},
				{
					"inputs": [
						{
							"internalType": "address",
							"name": "clientAddress",
							"type": "address"
						},
						{
							"internalType": "uint256",
							"name": "_timeperiod",
							"type": "uint256"
						}
					],
					"name": "grantLoan",
					"outputs": [
						{
							"internalType": "uint256",
							"name": "",
							"type": "uint256"
						}
					],
					"stateMutability": "payable",
					"type": "function"
				},
				{
					"inputs": [
						{
							"internalType": "address",
							"name": "",
							"type": "address"
						}
					],
					"name": "interestDate",
					"outputs": [
						{
							"internalType": "uint256",
							"name": "",
							"type": "uint256"
						}
					],
					"stateMutability": "view",
					"type": "function"
				},
				{
					"inputs": [],
					"name": "joinAsClient",
					"outputs": [
						{
							"components": [
								{
									"internalType": "int256",
									"name": "client_id",
									"type": "int256"
								},
								{
									"internalType": "address",
									"name": "client_address",
									"type": "address"
								},
								{
									"internalType": "uint256",
									"name": "client_balance_in_ether",
									"type": "uint256"
								}
							],
							"internalType": "struct Bank.client_account",
							"name": "",
							"type": "tuple"
						}
					],
					"stateMutability": "payable",
					"type": "function"
				},
				{
					"inputs": [
						{
							"internalType": "address",
							"name": "",
							"type": "address"
						}
					],
					"name": "loans",
					"outputs": [
						{
							"internalType": "uint256",
							"name": "amount",
							"type": "uint256"
						},
						{
							"internalType": "uint256",
							"name": "interestRate",
							"type": "uint256"
						},
						{
							"internalType": "uint256",
							"name": "totalPayable",
							"type": "uint256"
						},
						{
							"internalType": "uint256",
							"name": "timePeriod",
							"type": "uint256"
						},
						{
							"internalType": "bool",
							"name": "approved",
							"type": "bool"
						}
					],
					"stateMutability": "view",
					"type": "function"
				},
				{
					"inputs": [],
					"name": "sendInterest",
					"outputs": [],
					"stateMutability": "payable",
					"type": "function"
				},
				{
					"inputs": [],
					"name": "setManager",
					"outputs": [
						{
							"internalType": "string",
							"name": "",
							"type": "string"
						}
					],
					"stateMutability": "nonpayable",
					"type": "function"
				},
				{
					"inputs": [
						{
							"internalType": "uint256",
							"name": "_amount",
							"type": "uint256"
						},
						{
							"internalType": "uint256",
							"name": "lockPeriod",
							"type": "uint256"
						}
					],
					"name": "updateFixedDeposit",
					"outputs": [
						{
							"internalType": "string",
							"name": "",
							"type": "string"
						}
					],
					"stateMutability": "payable",
					"type": "function"
				},
				{
					"inputs": [
						{
							"internalType": "uint256",
							"name": "amount",
							"type": "uint256"
						}
					],
					"name": "withdraw",
					"outputs": [],
					"stateMutability": "payable",
					"type": "function"
				},
				{
					"stateMutability": "payable",
					"type": "receive"
				}
			],
			"devdoc": {
				"kind": "dev",
				"methods": {},
				"version": 1
			},
			"evm": {
				"assembly": "    /* \"Bank.sol\":90:4945  contract Bank {... */\n  mstore(0x40, 0x80)\n    /* \"Bank.sol\":776:781  false */\n  0x00\n    /* \"Bank.sol\":756:781  bool isManagerSet = false */\n  0x06\n  exp(0x0100, 0x00)\n  dup2\n  sload\n  dup2\n  0xff\n  mul\n  not\n  and\n  swap1\n  dup4\n  iszero\n  iszero\n  mul\n  or\n  swap1\n  sstore\n  pop\n    /* \"Bank.sol\":1407:1455  constructor() {... */\n  callvalue\n  dup1\n  iszero\n  tag_1\n  jumpi\n  revert(0x00, 0x00)\ntag_1:\n  pop\n    /* \"Bank.sol\":1447:1448  0 */\n  0x00\n    /* \"Bank.sol\":1431:1444  clientCounter */\n  0x01\n    /* \"Bank.sol\":1431:1448  clientCounter = 0 */\n  dup2\n  swap1\n  sstore\n  pop\n    /* \"Bank.sol\":90:4945  contract Bank {... */\n  dataSize(sub_0)\n  dup1\n  dataOffset(sub_0)\n  0x00\n  codecopy\n  0x00\n  return\nstop\n\nsub_0: assembly {\n        /* \"Bank.sol\":90:4945  contract Bank {... */\n      mstore(0x40, 0x80)\n      jumpi(tag_1, lt(calldatasize, 0x04))\n      shr(0xe0, calldataload(0x00))\n      dup1\n      0xa4092174\n      gt\n      tag_15\n      jumpi\n      dup1\n      0xa4092174\n      eq\n      tag_9\n      jumpi\n      dup1\n      0xb247334d\n      eq\n      tag_10\n      jumpi\n      dup1\n      0xd0e30db0\n      eq\n      tag_11\n      jumpi\n      dup1\n      0xd507b6f7\n      eq\n      tag_12\n      jumpi\n      dup1\n      0xd93330fd\n      eq\n      tag_13\n      jumpi\n      dup1\n      0xd9dca6c5\n      eq\n      tag_14\n      jumpi\n      jump(tag_2)\n    tag_15:\n      dup1\n      0x1dfec85f\n      eq\n      tag_3\n      jumpi\n      dup1\n      0x2e1a7d4d\n      eq\n      tag_4\n      jumpi\n      dup1\n      0x6f9fb98a\n      eq\n      tag_5\n      jumpi\n      dup1\n      0x73b4086b\n      eq\n      tag_6\n      jumpi\n      dup1\n      0x8d258104\n      eq\n      tag_7\n      jumpi\n      dup1\n      0x9e0a5d68\n      eq\n      tag_8\n      jumpi\n      jump(tag_2)\n    tag_1:\n      jumpi(tag_2, calldatasize)\n      stop\n    tag_2:\n      revert(0x00, 0x00)\n        /* \"Bank.sol\":3577:3976  function updateFixedDeposit(uint _amount, uint lockPeriod) public payable onlyClients isExactAmount(_amount) isBeyondLockPeriod returns(string memory){... */\n    tag_3:\n      tag_18\n      0x04\n      dup1\n      calldatasize\n      sub\n      dup2\n      add\n      swap1\n      tag_19\n      swap2\n      swap1\n      tag_20\n      jump\t// in\n    tag_19:\n      tag_21\n      jump\t// in\n    tag_18:\n      mload(0x40)\n      tag_22\n      swap2\n      swap1\n      tag_23\n      jump\t// in\n    tag_22:\n      mload(0x40)\n      dup1\n      swap2\n      sub\n      swap1\n      return\n        /* \"Bank.sol\":2120:2241  function withdraw(uint amount) public payable onlyClients {... */\n    tag_4:\n      tag_24\n      0x04\n      dup1\n      calldatasize\n      sub\n      dup2\n      add\n      swap1\n      tag_25\n      swap2\n      swap1\n      tag_26\n      jump\t// in\n    tag_25:\n      tag_27\n      jump\t// in\n    tag_24:\n      stop\n        /* \"Bank.sol\":4841:4943  function getContractBalance() public view returns (uint) {... */\n    tag_5:\n      callvalue\n      dup1\n      iszero\n      tag_28\n      jumpi\n      revert(0x00, 0x00)\n    tag_28:\n      pop\n      tag_29\n      tag_30\n      jump\t// in\n    tag_29:\n      mload(0x40)\n      tag_31\n      swap2\n      swap1\n      tag_32\n      jump\t// in\n    tag_31:\n      mload(0x40)\n      dup1\n      swap2\n      sub\n      swap1\n      return\n        /* \"Bank.sol\":713:750  mapping(address => Loan) public loans */\n    tag_6:\n      callvalue\n      dup1\n      iszero\n      tag_33\n      jumpi\n      revert(0x00, 0x00)\n    tag_33:\n      pop\n      tag_34\n      0x04\n      dup1\n      calldatasize\n      sub\n      dup2\n      add\n      swap1\n      tag_35\n      swap2\n      swap1\n      tag_36\n      jump\t// in\n    tag_35:\n      tag_37\n      jump\t// in\n    tag_34:\n      mload(0x40)\n      tag_38\n      swap6\n      swap5\n      swap4\n      swap3\n      swap2\n      swap1\n      tag_39\n      jump\t// in\n    tag_38:\n      mload(0x40)\n      dup1\n      swap2\n      sub\n      swap1\n      return\n        /* \"Bank.sol\":1539:1691  function setManager() public managerSet returns (string memory) {... */\n    tag_7:\n      callvalue\n      dup1\n      iszero\n      tag_40\n      jumpi\n      revert(0x00, 0x00)\n    tag_40:\n      pop\n      tag_41\n      tag_42\n      jump\t// in\n    tag_41:\n      mload(0x40)\n      tag_43\n      swap2\n      swap1\n      tag_23\n      jump\t// in\n    tag_43:\n      mload(0x40)\n      dup1\n      swap2\n      sub\n      swap1\n      return\n        /* \"Bank.sol\":2247:2757  function sendInterest() public payable onlyManager {... */\n    tag_8:\n      tag_44\n      tag_45\n      jump\t// in\n    tag_44:\n      stop\n        /* \"Bank.sol\":1697:2003  function joinAsClient() public payable returns (client_account memory) {... */\n    tag_9:\n      tag_46\n      tag_47\n      jump\t// in\n    tag_46:\n      mload(0x40)\n      tag_48\n      swap2\n      swap1\n      tag_49\n      jump\t// in\n    tag_48:\n      mload(0x40)\n      dup1\n      swap2\n      sub\n      swap1\n      return\n        /* \"Bank.sol\":3270:3571  function createFixedDeposit(uint _amount, uint lockPeriod) public payable onlyClients returns (FixedDeposit memory){... */\n    tag_10:\n      tag_50\n      0x04\n      dup1\n      calldatasize\n      sub\n      dup2\n      add\n      swap1\n      tag_51\n      swap2\n      swap1\n      tag_20\n      jump\t// in\n    tag_51:\n      tag_52\n      jump\t// in\n    tag_50:\n      mload(0x40)\n      tag_53\n      swap2\n      swap1\n      tag_54\n      jump\t// in\n    tag_53:\n      mload(0x40)\n      dup1\n      swap2\n      sub\n      swap1\n      return\n        /* \"Bank.sol\":2009:2114  function deposit() public payable onlyClients {... */\n    tag_11:\n      tag_55\n      tag_56\n      jump\t// in\n    tag_55:\n      stop\n        /* \"Bank.sol\":4142:4835  function grantLoan(address clientAddress, uint _timeperiod) public payable onlyManager doesFDexists(clientAddress) returns (uint){... */\n    tag_12:\n      tag_57\n      0x04\n      dup1\n      calldatasize\n      sub\n      dup2\n      add\n      swap1\n      tag_58\n      swap2\n      swap1\n      tag_59\n      jump\t// in\n    tag_58:\n      tag_60\n      jump\t// in\n    tag_57:\n      mload(0x40)\n      tag_61\n      swap2\n      swap1\n      tag_32\n      jump\t// in\n    tag_61:\n      mload(0x40)\n      dup1\n      swap2\n      sub\n      swap1\n      return\n        /* \"Bank.sol\":654:707  mapping(address => FixedDeposit) public fixedDeposits */\n    tag_13:\n      callvalue\n      dup1\n      iszero\n      tag_62\n      jumpi\n      revert(0x00, 0x00)\n    tag_62:\n      pop\n      tag_63\n      0x04\n      dup1\n      calldatasize\n      sub\n      dup2\n      add\n      swap1\n      tag_64\n      swap2\n      swap1\n      tag_36\n      jump\t// in\n    tag_64:\n      tag_65\n      jump\t// in\n    tag_63:\n      mload(0x40)\n      tag_66\n      swap4\n      swap3\n      swap2\n      swap1\n      tag_67\n      jump\t// in\n    tag_66:\n      mload(0x40)\n      dup1\n      swap2\n      sub\n      swap1\n      return\n        /* \"Bank.sol\":604:648  mapping(address => uint) public interestDate */\n    tag_14:\n      callvalue\n      dup1\n      iszero\n      tag_68\n      jumpi\n      revert(0x00, 0x00)\n    tag_68:\n      pop\n      tag_69\n      0x04\n      dup1\n      calldatasize\n      sub\n      dup2\n      add\n      swap1\n      tag_70\n      swap2\n      swap1\n      tag_36\n      jump\t// in\n    tag_70:\n      tag_71\n      jump\t// in\n    tag_69:\n      mload(0x40)\n      tag_72\n      swap2\n      swap1\n      tag_32\n      jump\t// in\n    tag_72:\n      mload(0x40)\n      dup1\n      swap2\n      sub\n      swap1\n      return\n        /* \"Bank.sol\":3577:3976  function updateFixedDeposit(uint _amount, uint lockPeriod) public payable onlyClients isExactAmount(_amount) isBeyondLockPeriod returns(string memory){... */\n    tag_21:\n        /* \"Bank.sol\":3713:3726  string memory */\n      0x60\n        /* \"Bank.sol\":1113:1126  bool isclient */\n      0x00\n        /* \"Bank.sol\":1129:1134  false */\n      0x00\n        /* \"Bank.sol\":1113:1134  bool isclient = false */\n      swap1\n      pop\n        /* \"Bank.sol\":1149:1155  uint i */\n      0x00\n        /* \"Bank.sol\":1158:1159  0 */\n      0x00\n        /* \"Bank.sol\":1149:1159  uint i = 0 */\n      swap1\n      pop\n        /* \"Bank.sol\":1144:1326  for (uint i = 0; i < clients.length; i++) {... */\n    tag_74:\n        /* \"Bank.sol\":1165:1172  clients */\n      0x00\n        /* \"Bank.sol\":1165:1179  clients.length */\n      dup1\n      sload\n      swap1\n      pop\n        /* \"Bank.sol\":1161:1162  i */\n      dup2\n        /* \"Bank.sol\":1161:1179  i < clients.length */\n      lt\n        /* \"Bank.sol\":1144:1326  for (uint i = 0; i < clients.length; i++) {... */\n      iszero\n      tag_75\n      jumpi\n        /* \"Bank.sol\":1233:1243  msg.sender */\n      caller\n        /* \"Bank.sol\":1204:1243  clients[i].client_address == msg.sender */\n      0xffffffffffffffffffffffffffffffffffffffff\n      and\n        /* \"Bank.sol\":1204:1211  clients */\n      0x00\n        /* \"Bank.sol\":1212:1213  i */\n      dup3\n        /* \"Bank.sol\":1204:1214  clients[i] */\n      dup2\n      sload\n      dup2\n      lt\n      tag_77\n      jumpi\n      tag_78\n      tag_79\n      jump\t// in\n    tag_78:\n    tag_77:\n      swap1\n      0x00\n      mstore\n      keccak256(0x00, 0x20)\n      swap1\n      0x03\n      mul\n      add\n        /* \"Bank.sol\":1204:1229  clients[i].client_address */\n      0x01\n      add\n      0x00\n      swap1\n      sload\n      swap1\n      0x0100\n      exp\n      swap1\n      div\n      0xffffffffffffffffffffffffffffffffffffffff\n      and\n        /* \"Bank.sol\":1204:1243  clients[i].client_address == msg.sender */\n      0xffffffffffffffffffffffffffffffffffffffff\n      and\n      sub\n        /* \"Bank.sol\":1200:1316  if (clients[i].client_address == msg.sender) {... */\n      tag_81\n      jumpi\n        /* \"Bank.sol\":1274:1278  true */\n      0x01\n        /* \"Bank.sol\":1263:1278  isclient = true */\n      swap2\n      pop\n        /* \"Bank.sol\":1296:1301  break */\n      jump(tag_75)\n        /* \"Bank.sol\":1200:1316  if (clients[i].client_address == msg.sender) {... */\n    tag_81:\n        /* \"Bank.sol\":1181:1184  i++ */\n      dup1\n      dup1\n      0x01\n      add\n      swap2\n      pop\n      pop\n        /* \"Bank.sol\":1144:1326  for (uint i = 0; i < clients.length; i++) {... */\n      jump(tag_74)\n    tag_75:\n      pop\n        /* \"Bank.sol\":1343:1351  isclient */\n      dup1\n        /* \"Bank.sol\":1335:1383  require(isclient, \"Only clients can call this!\") */\n      tag_82\n      jumpi\n      mload(0x40)\n      0x08c379a000000000000000000000000000000000000000000000000000000000\n      dup2\n      mstore\n      0x04\n      add\n      tag_83\n      swap1\n      tag_84\n      jump\t// in\n    tag_83:\n      mload(0x40)\n      dup1\n      swap2\n      sub\n      swap1\n      revert\n    tag_82:\n        /* \"Bank.sol\":3677:3684  _amount */\n      dup4\n        /* \"Bank.sol\":3127:3135  uint amt */\n      0x00\n        /* \"Bank.sol\":3138:3151  fixedDeposits */\n      0x04\n        /* \"Bank.sol\":3138:3172  fixedDeposits[address(msg.sender)] */\n      0x00\n        /* \"Bank.sol\":3160:3170  msg.sender */\n      caller\n        /* \"Bank.sol\":3138:3172  fixedDeposits[address(msg.sender)] */\n      0xffffffffffffffffffffffffffffffffffffffff\n      and\n      0xffffffffffffffffffffffffffffffffffffffff\n      and\n      dup2\n      mstore\n      0x20\n      add\n      swap1\n      dup2\n      mstore\n      0x20\n      add\n      0x00\n      keccak256\n        /* \"Bank.sol\":3138:3179  fixedDeposits[address(msg.sender)].amount */\n      0x00\n      add\n      sload\n        /* \"Bank.sol\":3127:3179  uint amt = fixedDeposits[address(msg.sender)].amount */\n      swap1\n      pop\n        /* \"Bank.sol\":3204:3211  _amount */\n      dup2\n        /* \"Bank.sol\":3197:3200  amt */\n      dup2\n        /* \"Bank.sol\":3197:3211  amt == _amount */\n      eq\n        /* \"Bank.sol\":3189:3246  require(amt == _amount, \"Amount sent to FD is not exact\") */\n      tag_86\n      jumpi\n      mload(0x40)\n      0x08c379a000000000000000000000000000000000000000000000000000000000\n      dup2\n      mstore\n      0x04\n      add\n      tag_87\n      swap1\n      tag_88\n      jump\t// in\n    tag_87:\n      mload(0x40)\n      dup1\n      swap2\n      sub\n      swap1\n      revert\n    tag_86:\n        /* \"Bank.sol\":2803:2813  uint lockP */\n      0x00\n        /* \"Bank.sol\":2816:2829  fixedDeposits */\n      0x04\n        /* \"Bank.sol\":2816:2850  fixedDeposits[address(msg.sender)] */\n      0x00\n        /* \"Bank.sol\":2838:2848  msg.sender */\n      caller\n        /* \"Bank.sol\":2816:2850  fixedDeposits[address(msg.sender)] */\n      0xffffffffffffffffffffffffffffffffffffffff\n      and\n      0xffffffffffffffffffffffffffffffffffffffff\n      and\n      dup2\n      mstore\n      0x20\n      add\n      swap1\n      dup2\n      mstore\n      0x20\n      add\n      0x00\n      keccak256\n        /* \"Bank.sol\":2816:2861  fixedDeposits[address(msg.sender)].lockPeriod */\n      0x01\n      add\n      sload\n        /* \"Bank.sol\":2803:2861  uint lockP = fixedDeposits[address(msg.sender)].lockPeriod */\n      swap1\n      pop\n        /* \"Bank.sol\":2978:2979  0 */\n      0x00\n        /* \"Bank.sol\":2970:2975  lockP */\n      dup2\n        /* \"Bank.sol\":2970:2979  lockP > 0 */\n      gt\n        /* \"Bank.sol\":2970:3006  lockP > 0 && lockP < block.timestamp */\n      dup1\n      iszero\n      tag_90\n      jumpi\n      pop\n        /* \"Bank.sol\":2991:3006  block.timestamp */\n      timestamp\n        /* \"Bank.sol\":2983:2988  lockP */\n      dup2\n        /* \"Bank.sol\":2983:3006  lockP < block.timestamp */\n      lt\n        /* \"Bank.sol\":2970:3006  lockP > 0 && lockP < block.timestamp */\n    tag_90:\n        /* \"Bank.sol\":2962:3056  require(lockP > 0 && lockP < block.timestamp, \"Lock period isnt over yet so you need to wait\") */\n      tag_91\n      jumpi\n      mload(0x40)\n      0x08c379a000000000000000000000000000000000000000000000000000000000\n      dup2\n      mstore\n      0x04\n      add\n      tag_92\n      swap1\n      tag_93\n      jump\t// in\n    tag_92:\n      mload(0x40)\n      dup1\n      swap2\n      sub\n      swap1\n      revert\n    tag_91:\n        /* \"Bank.sol\":3738:3755  uint interestRate */\n      0x00\n        /* \"Bank.sol\":3758:3759  5 */\n      0x05\n        /* \"Bank.sol\":3738:3759  uint interestRate = 5 */\n      swap1\n      pop\n        /* \"Bank.sol\":3769:3784  uint currAmount */\n      0x00\n        /* \"Bank.sol\":3787:3800  fixedDeposits */\n      0x04\n        /* \"Bank.sol\":3787:3821  fixedDeposits[address(msg.sender)] */\n      0x00\n        /* \"Bank.sol\":3809:3819  msg.sender */\n      caller\n        /* \"Bank.sol\":3787:3821  fixedDeposits[address(msg.sender)] */\n      0xffffffffffffffffffffffffffffffffffffffff\n      and\n      0xffffffffffffffffffffffffffffffffffffffff\n      and\n      dup2\n      mstore\n      0x20\n      add\n      swap1\n      dup2\n      mstore\n      0x20\n      add\n      0x00\n      keccak256\n        /* \"Bank.sol\":3787:3828  fixedDeposits[address(msg.sender)].amount */\n      0x00\n      add\n      sload\n        /* \"Bank.sol\":3769:3828  uint currAmount = fixedDeposits[address(msg.sender)].amount */\n      swap1\n      pop\n        /* \"Bank.sol\":3867:3927  FixedDeposit(currAmount + _amount, lockPeriod, interestRate) */\n      mload(0x40)\n      dup1\n      0x60\n      add\n      0x40\n      mstore\n      dup1\n        /* \"Bank.sol\":3893:3900  _amount */\n      dup11\n        /* \"Bank.sol\":3880:3890  currAmount */\n      dup4\n        /* \"Bank.sol\":3880:3900  currAmount + _amount */\n      tag_95\n      swap2\n      swap1\n      tag_96\n      jump\t// in\n    tag_95:\n        /* \"Bank.sol\":3867:3927  FixedDeposit(currAmount + _amount, lockPeriod, interestRate) */\n      dup2\n      mstore\n      0x20\n      add\n        /* \"Bank.sol\":3902:3912  lockPeriod */\n      dup10\n        /* \"Bank.sol\":3867:3927  FixedDeposit(currAmount + _amount, lockPeriod, interestRate) */\n      dup2\n      mstore\n      0x20\n      add\n        /* \"Bank.sol\":3914:3926  interestRate */\n      dup4\n        /* \"Bank.sol\":3867:3927  FixedDeposit(currAmount + _amount, lockPeriod, interestRate) */\n      dup2\n      mstore\n      pop\n        /* \"Bank.sol\":3839:3852  fixedDeposits */\n      0x04\n        /* \"Bank.sol\":3839:3864  fixedDeposits[msg.sender] */\n      0x00\n        /* \"Bank.sol\":3853:3863  msg.sender */\n      caller\n        /* \"Bank.sol\":3839:3864  fixedDeposits[msg.sender] */\n      0xffffffffffffffffffffffffffffffffffffffff\n      and\n      0xffffffffffffffffffffffffffffffffffffffff\n      and\n      dup2\n      mstore\n      0x20\n      add\n      swap1\n      dup2\n      mstore\n      0x20\n      add\n      0x00\n      keccak256\n        /* \"Bank.sol\":3839:3927  fixedDeposits[msg.sender] = FixedDeposit(currAmount + _amount, lockPeriod, interestRate) */\n      0x00\n      dup3\n      add\n      mload\n      dup2\n      0x00\n      add\n      sstore\n      0x20\n      dup3\n      add\n      mload\n      dup2\n      0x01\n      add\n      sstore\n      0x40\n      dup3\n      add\n      mload\n      dup2\n      0x02\n      add\n      sstore\n      swap1\n      pop\n      pop\n        /* \"Bank.sol\":3937:3969  return \"Fixed Deposited Updated\" */\n      mload(0x40)\n      dup1\n      0x40\n      add\n      0x40\n      mstore\n      dup1\n      0x17\n      dup2\n      mstore\n      0x20\n      add\n      0x4669786564204465706f73697465642055706461746564000000000000000000\n      dup2\n      mstore\n      pop\n      swap7\n      pop\n      pop\n      pop\n        /* \"Bank.sol\":2792:3074  {... */\n      pop\n        /* \"Bank.sol\":3116:3264  {... */\n      pop\n        /* \"Bank.sol\":1393:1394  _ */\n      pop\n        /* \"Bank.sol\":1103:1401  {... */\n      pop\n        /* \"Bank.sol\":3577:3976  function updateFixedDeposit(uint _amount, uint lockPeriod) public payable onlyClients isExactAmount(_amount) isBeyondLockPeriod returns(string memory){... */\n      swap3\n      swap2\n      pop\n      pop\n      jump\t// out\n        /* \"Bank.sol\":2120:2241  function withdraw(uint amount) public payable onlyClients {... */\n    tag_27:\n        /* \"Bank.sol\":1113:1126  bool isclient */\n      0x00\n        /* \"Bank.sol\":1129:1134  false */\n      0x00\n        /* \"Bank.sol\":1113:1134  bool isclient = false */\n      swap1\n      pop\n        /* \"Bank.sol\":1149:1155  uint i */\n      0x00\n        /* \"Bank.sol\":1158:1159  0 */\n      0x00\n        /* \"Bank.sol\":1149:1159  uint i = 0 */\n      swap1\n      pop\n        /* \"Bank.sol\":1144:1326  for (uint i = 0; i < clients.length; i++) {... */\n    tag_98:\n        /* \"Bank.sol\":1165:1172  clients */\n      0x00\n        /* \"Bank.sol\":1165:1179  clients.length */\n      dup1\n      sload\n      swap1\n      pop\n        /* \"Bank.sol\":1161:1162  i */\n      dup2\n        /* \"Bank.sol\":1161:1179  i < clients.length */\n      lt\n        /* \"Bank.sol\":1144:1326  for (uint i = 0; i < clients.length; i++) {... */\n      iszero\n      tag_99\n      jumpi\n        /* \"Bank.sol\":1233:1243  msg.sender */\n      caller\n        /* \"Bank.sol\":1204:1243  clients[i].client_address == msg.sender */\n      0xffffffffffffffffffffffffffffffffffffffff\n      and\n        /* \"Bank.sol\":1204:1211  clients */\n      0x00\n        /* \"Bank.sol\":1212:1213  i */\n      dup3\n        /* \"Bank.sol\":1204:1214  clients[i] */\n      dup2\n      sload\n      dup2\n      lt\n      tag_101\n      jumpi\n      tag_102\n      tag_79\n      jump\t// in\n    tag_102:\n    tag_101:\n      swap1\n      0x00\n      mstore\n      keccak256(0x00, 0x20)\n      swap1\n      0x03\n      mul\n      add\n        /* \"Bank.sol\":1204:1229  clients[i].client_address */\n      0x01\n      add\n      0x00\n      swap1\n      sload\n      swap1\n      0x0100\n      exp\n      swap1\n      div\n      0xffffffffffffffffffffffffffffffffffffffff\n      and\n        /* \"Bank.sol\":1204:1243  clients[i].client_address == msg.sender */\n      0xffffffffffffffffffffffffffffffffffffffff\n      and\n      sub\n        /* \"Bank.sol\":1200:1316  if (clients[i].client_address == msg.sender) {... */\n      tag_104\n      jumpi\n        /* \"Bank.sol\":1274:1278  true */\n      0x01\n        /* \"Bank.sol\":1263:1278  isclient = true */\n      swap2\n      pop\n        /* \"Bank.sol\":1296:1301  break */\n      jump(tag_99)\n        /* \"Bank.sol\":1200:1316  if (clients[i].client_address == msg.sender) {... */\n    tag_104:\n        /* \"Bank.sol\":1181:1184  i++ */\n      dup1\n      dup1\n      0x01\n      add\n      swap2\n      pop\n      pop\n        /* \"Bank.sol\":1144:1326  for (uint i = 0; i < clients.length; i++) {... */\n      jump(tag_98)\n    tag_99:\n      pop\n        /* \"Bank.sol\":1343:1351  isclient */\n      dup1\n        /* \"Bank.sol\":1335:1383  require(isclient, \"Only clients can call this!\") */\n      tag_105\n      jumpi\n      mload(0x40)\n      0x08c379a000000000000000000000000000000000000000000000000000000000\n      dup2\n      mstore\n      0x04\n      add\n      tag_106\n      swap1\n      tag_84\n      jump\t// in\n    tag_106:\n      mload(0x40)\n      dup1\n      swap2\n      sub\n      swap1\n      revert\n    tag_105:\n        /* \"Bank.sol\":2196:2206  msg.sender */\n      caller\n        /* \"Bank.sol\":2188:2216  payable(msg.sender).transfer */\n      0xffffffffffffffffffffffffffffffffffffffff\n      and\n        /* \"Bank.sol\":2188:2234  payable(msg.sender).transfer(amount * 1 ether) */\n      0x08fc\n        /* \"Bank.sol\":2226:2233  1 ether */\n      0x0de0b6b3a7640000\n        /* \"Bank.sol\":2217:2223  amount */\n      dup5\n        /* \"Bank.sol\":2217:2233  amount * 1 ether */\n      tag_108\n      swap2\n      swap1\n      tag_109\n      jump\t// in\n    tag_108:\n        /* \"Bank.sol\":2188:2234  payable(msg.sender).transfer(amount * 1 ether) */\n      swap1\n      dup2\n      iszero\n      mul\n      swap1\n      mload(0x40)\n      0x00\n      mload(0x40)\n      dup1\n      dup4\n      sub\n      dup2\n      dup6\n      dup9\n      dup9\n      call\n      swap4\n      pop\n      pop\n      pop\n      pop\n      iszero\n      dup1\n      iszero\n      tag_111\n      jumpi\n      returndatacopy(0x00, 0x00, returndatasize)\n      revert(0x00, returndatasize)\n    tag_111:\n      pop\n        /* \"Bank.sol\":1103:1401  {... */\n      pop\n        /* \"Bank.sol\":2120:2241  function withdraw(uint amount) public payable onlyClients {... */\n      pop\n      jump\t// out\n        /* \"Bank.sol\":4841:4943  function getContractBalance() public view returns (uint) {... */\n    tag_30:\n        /* \"Bank.sol\":4892:4896  uint */\n      0x00\n        /* \"Bank.sol\":4915:4936  address(this).balance */\n      selfbalance\n        /* \"Bank.sol\":4908:4936  return address(this).balance */\n      swap1\n      pop\n        /* \"Bank.sol\":4841:4943  function getContractBalance() public view returns (uint) {... */\n      swap1\n      jump\t// out\n        /* \"Bank.sol\":713:750  mapping(address => Loan) public loans */\n    tag_37:\n      mstore(0x20, 0x05)\n      dup1\n      0x00\n      mstore\n      keccak256(0x00, 0x40)\n      0x00\n      swap2\n      pop\n      swap1\n      pop\n      dup1\n      0x00\n      add\n      sload\n      swap1\n      dup1\n      0x01\n      add\n      sload\n      swap1\n      dup1\n      0x02\n      add\n      sload\n      swap1\n      dup1\n      0x03\n      add\n      sload\n      swap1\n      dup1\n      0x04\n      add\n      0x00\n      swap1\n      sload\n      swap1\n      0x0100\n      exp\n      swap1\n      div\n      0xff\n      and\n      swap1\n      pop\n      dup6\n      jump\t// out\n        /* \"Bank.sol\":1539:1691  function setManager() public managerSet returns (string memory) {... */\n    tag_42:\n        /* \"Bank.sol\":1588:1601  string memory */\n      0x60\n        /* \"Bank.sol\":991:996  false */\n      0x00\n        /* \"Bank.sol\":975:996  isManagerSet == false */\n      iszero\n      iszero\n        /* \"Bank.sol\":975:987  isManagerSet */\n      0x06\n      0x00\n      swap1\n      sload\n      swap1\n      0x0100\n      exp\n      swap1\n      div\n      0xff\n      and\n        /* \"Bank.sol\":975:996  isManagerSet == false */\n      iszero\n      iszero\n      eq\n        /* \"Bank.sol\":967:1027  require(isManagerSet == false, \"The manager is already set\") */\n      tag_114\n      jumpi\n      mload(0x40)\n      0x08c379a000000000000000000000000000000000000000000000000000000000\n      dup2\n      mstore\n      0x04\n      add\n      tag_115\n      swap1\n      tag_116\n      jump\t// in\n    tag_115:\n      mload(0x40)\n      dup1\n      swap2\n      sub\n      swap1\n      revert\n    tag_114:\n        /* \"Bank.sol\":1052:1056  true */\n      0x01\n        /* \"Bank.sol\":1037:1049  isManagerSet */\n      0x06\n      0x00\n        /* \"Bank.sol\":1037:1056  isManagerSet = true */\n      0x0100\n      exp\n      dup2\n      sload\n      dup2\n      0xff\n      mul\n      not\n      and\n      swap1\n      dup4\n      iszero\n      iszero\n      mul\n      or\n      swap1\n      sstore\n      pop\n        /* \"Bank.sol\":1631:1641  msg.sender */\n      caller\n        /* \"Bank.sol\":1613:1620  manager */\n      0x02\n      0x00\n        /* \"Bank.sol\":1613:1642  manager = payable(msg.sender) */\n      0x0100\n      exp\n      dup2\n      sload\n      dup2\n      0xffffffffffffffffffffffffffffffffffffffff\n      mul\n      not\n      and\n      swap1\n      dup4\n      0xffffffffffffffffffffffffffffffffffffffff\n      and\n      mul\n      or\n      swap1\n      sstore\n      pop\n        /* \"Bank.sol\":1652:1684  return \"The manager is now set!\" */\n      mload(0x40)\n      dup1\n      0x40\n      add\n      0x40\n      mstore\n      dup1\n      0x17\n      dup2\n      mstore\n      0x20\n      add\n      0x546865206d616e61676572206973206e6f772073657421000000000000000000\n      dup2\n      mstore\n      pop\n      swap1\n      pop\n        /* \"Bank.sol\":1539:1691  function setManager() public managerSet returns (string memory) {... */\n      swap1\n      jump\t// out\n        /* \"Bank.sol\":2247:2757  function sendInterest() public payable onlyManager {... */\n    tag_45:\n        /* \"Bank.sol\":872:879  manager */\n      0x02\n      0x00\n      swap1\n      sload\n      swap1\n      0x0100\n      exp\n      swap1\n      div\n      0xffffffffffffffffffffffffffffffffffffffff\n      and\n        /* \"Bank.sol\":858:879  msg.sender == manager */\n      0xffffffffffffffffffffffffffffffffffffffff\n      and\n        /* \"Bank.sol\":858:868  msg.sender */\n      caller\n        /* \"Bank.sol\":858:879  msg.sender == manager */\n      0xffffffffffffffffffffffffffffffffffffffff\n      and\n      eq\n        /* \"Bank.sol\":850:911  require(msg.sender == manager, \"Only manager can call this!\") */\n      tag_119\n      jumpi\n      mload(0x40)\n      0x08c379a000000000000000000000000000000000000000000000000000000000\n      dup2\n      mstore\n      0x04\n      add\n      tag_120\n      swap1\n      tag_121\n      jump\t// in\n    tag_120:\n      mload(0x40)\n      dup1\n      swap2\n      sub\n      swap1\n      revert\n    tag_119:\n        /* \"Bank.sol\":2313:2319  uint i */\n      0x00\n        /* \"Bank.sol\":2322:2323  0 */\n      0x00\n        /* \"Bank.sol\":2313:2323  uint i = 0 */\n      swap1\n      pop\n        /* \"Bank.sol\":2308:2751  for (uint i = 0; i < clients.length; i++) {... */\n    tag_123:\n        /* \"Bank.sol\":2329:2336  clients */\n      0x00\n        /* \"Bank.sol\":2329:2343  clients.length */\n      dup1\n      sload\n      swap1\n      pop\n        /* \"Bank.sol\":2325:2326  i */\n      dup2\n        /* \"Bank.sol\":2325:2343  i < clients.length */\n      lt\n        /* \"Bank.sol\":2308:2751  for (uint i = 0; i < clients.length; i++) {... */\n      iszero\n      tag_124\n      jumpi\n        /* \"Bank.sol\":2364:2386  address initialAddress */\n      0x00\n        /* \"Bank.sol\":2389:2396  clients */\n      0x00\n        /* \"Bank.sol\":2397:2398  i */\n      dup3\n        /* \"Bank.sol\":2389:2399  clients[i] */\n      dup2\n      sload\n      dup2\n      lt\n      tag_126\n      jumpi\n      tag_127\n      tag_79\n      jump\t// in\n    tag_127:\n    tag_126:\n      swap1\n      0x00\n      mstore\n      keccak256(0x00, 0x20)\n      swap1\n      0x03\n      mul\n      add\n        /* \"Bank.sol\":2389:2414  clients[i].client_address */\n      0x01\n      add\n      0x00\n      swap1\n      sload\n      swap1\n      0x0100\n      exp\n      swap1\n      div\n      0xffffffffffffffffffffffffffffffffffffffff\n      and\n        /* \"Bank.sol\":2364:2414  address initialAddress = clients[i].client_address */\n      swap1\n      pop\n        /* \"Bank.sol\":2428:2449  uint lastInterestDate */\n      0x00\n        /* \"Bank.sol\":2452:2464  interestDate */\n      0x03\n        /* \"Bank.sol\":2452:2480  interestDate[initialAddress] */\n      0x00\n        /* \"Bank.sol\":2465:2479  initialAddress */\n      dup4\n        /* \"Bank.sol\":2452:2480  interestDate[initialAddress] */\n      0xffffffffffffffffffffffffffffffffffffffff\n      and\n      0xffffffffffffffffffffffffffffffffffffffff\n      and\n      dup2\n      mstore\n      0x20\n      add\n      swap1\n      dup2\n      mstore\n      0x20\n      add\n      0x00\n      keccak256\n      sload\n        /* \"Bank.sol\":2428:2480  uint lastInterestDate = interestDate[initialAddress] */\n      swap1\n      pop\n        /* \"Bank.sol\":2535:2545  10 seconds */\n      0x0a\n        /* \"Bank.sol\":2516:2532  lastInterestDate */\n      dup2\n        /* \"Bank.sol\":2516:2545  lastInterestDate + 10 seconds */\n      tag_129\n      swap2\n      swap1\n      tag_96\n      jump\t// in\n    tag_129:\n        /* \"Bank.sol\":2498:2513  block.timestamp */\n      timestamp\n        /* \"Bank.sol\":2498:2545  block.timestamp < lastInterestDate + 10 seconds */\n      lt\n        /* \"Bank.sol\":2494:2626  if (block.timestamp < lastInterestDate + 10 seconds) {... */\n      iszero\n      tag_130\n      jumpi\n        /* \"Bank.sol\":2565:2611  revert(\"It's just been less than 10 seconds!\") */\n      mload(0x40)\n      0x08c379a000000000000000000000000000000000000000000000000000000000\n      dup2\n      mstore\n      0x04\n      add\n      tag_131\n      swap1\n      tag_132\n      jump\t// in\n    tag_131:\n      mload(0x40)\n      dup1\n      swap2\n      sub\n      swap1\n      revert\n        /* \"Bank.sol\":2494:2626  if (block.timestamp < lastInterestDate + 10 seconds) {... */\n    tag_130:\n        /* \"Bank.sol\":2647:2661  initialAddress */\n      dup2\n        /* \"Bank.sol\":2639:2671  payable(initialAddress).transfer */\n      0xffffffffffffffffffffffffffffffffffffffff\n      and\n        /* \"Bank.sol\":2639:2680  payable(initialAddress).transfer(1 ether) */\n      0x08fc\n        /* \"Bank.sol\":2672:2679  1 ether */\n      0x0de0b6b3a7640000\n        /* \"Bank.sol\":2639:2680  payable(initialAddress).transfer(1 ether) */\n      swap1\n      dup2\n      iszero\n      mul\n      swap1\n      mload(0x40)\n      0x00\n      mload(0x40)\n      dup1\n      dup4\n      sub\n      dup2\n      dup6\n      dup9\n      dup9\n      call\n      swap4\n      pop\n      pop\n      pop\n      pop\n      iszero\n      dup1\n      iszero\n      tag_134\n      jumpi\n      returndatacopy(0x00, 0x00, returndatasize)\n      revert(0x00, returndatasize)\n    tag_134:\n      pop\n        /* \"Bank.sol\":2725:2740  block.timestamp */\n      timestamp\n        /* \"Bank.sol\":2694:2706  interestDate */\n      0x03\n        /* \"Bank.sol\":2694:2722  interestDate[initialAddress] */\n      0x00\n        /* \"Bank.sol\":2707:2721  initialAddress */\n      dup5\n        /* \"Bank.sol\":2694:2722  interestDate[initialAddress] */\n      0xffffffffffffffffffffffffffffffffffffffff\n      and\n      0xffffffffffffffffffffffffffffffffffffffff\n      and\n      dup2\n      mstore\n      0x20\n      add\n      swap1\n      dup2\n      mstore\n      0x20\n      add\n      0x00\n      keccak256\n        /* \"Bank.sol\":2694:2740  interestDate[initialAddress] = block.timestamp */\n      dup2\n      swap1\n      sstore\n      pop\n        /* \"Bank.sol\":2350:2751  {... */\n      pop\n      pop\n        /* \"Bank.sol\":2345:2348  i++ */\n      dup1\n      dup1\n      0x01\n      add\n      swap2\n      pop\n      pop\n        /* \"Bank.sol\":2308:2751  for (uint i = 0; i < clients.length; i++) {... */\n      jump(tag_123)\n    tag_124:\n      pop\n        /* \"Bank.sol\":2247:2757  function sendInterest() public payable onlyManager {... */\n      jump\t// out\n        /* \"Bank.sol\":1697:2003  function joinAsClient() public payable returns (client_account memory) {... */\n    tag_47:\n        /* \"Bank.sol\":1745:1766  client_account memory */\n      tag_135\n      tag_136\n      jump\t// in\n    tag_135:\n        /* \"Bank.sol\":1814:1829  block.timestamp */\n      timestamp\n        /* \"Bank.sol\":1778:1790  interestDate */\n      0x03\n        /* \"Bank.sol\":1778:1811  interestDate[payable(msg.sender)] */\n      0x00\n        /* \"Bank.sol\":1799:1809  msg.sender */\n      caller\n        /* \"Bank.sol\":1778:1811  interestDate[payable(msg.sender)] */\n      0xffffffffffffffffffffffffffffffffffffffff\n      and\n      0xffffffffffffffffffffffffffffffffffffffff\n      and\n      dup2\n      mstore\n      0x20\n      add\n      swap1\n      dup2\n      mstore\n      0x20\n      add\n      0x00\n      keccak256\n        /* \"Bank.sol\":1778:1829  interestDate[payable(msg.sender)] = block.timestamp */\n      dup2\n      swap1\n      sstore\n      pop\n        /* \"Bank.sol\":1839:1867  client_account memory Client */\n      0x00\n        /* \"Bank.sol\":1870:1942  client_account(clientCounter++, msg.sender, address(msg.sender).balance) */\n      mload(0x40)\n      dup1\n      0x60\n      add\n      0x40\n      mstore\n      dup1\n        /* \"Bank.sol\":1885:1898  clientCounter */\n      0x01\n      0x00\n        /* \"Bank.sol\":1885:1900  clientCounter++ */\n      dup2\n      sload\n      dup1\n      swap3\n      swap2\n      swap1\n      tag_138\n      swap1\n      tag_139\n      jump\t// in\n    tag_138:\n      swap2\n      swap1\n      pop\n      sstore\n        /* \"Bank.sol\":1870:1942  client_account(clientCounter++, msg.sender, address(msg.sender).balance) */\n      dup2\n      mstore\n      0x20\n      add\n        /* \"Bank.sol\":1902:1912  msg.sender */\n      caller\n        /* \"Bank.sol\":1870:1942  client_account(clientCounter++, msg.sender, address(msg.sender).balance) */\n      0xffffffffffffffffffffffffffffffffffffffff\n      and\n      dup2\n      mstore\n      0x20\n      add\n        /* \"Bank.sol\":1922:1932  msg.sender */\n      caller\n        /* \"Bank.sol\":1914:1941  address(msg.sender).balance */\n      0xffffffffffffffffffffffffffffffffffffffff\n      and\n      balance\n        /* \"Bank.sol\":1870:1942  client_account(clientCounter++, msg.sender, address(msg.sender).balance) */\n      dup2\n      mstore\n      pop\n        /* \"Bank.sol\":1839:1942  client_account memory Client = client_account(clientCounter++, msg.sender, address(msg.sender).balance) */\n      swap1\n      pop\n        /* \"Bank.sol\":1953:1960  clients */\n      0x00\n        /* \"Bank.sol\":1966:1972  Client */\n      dup2\n        /* \"Bank.sol\":1953:1973  clients.push(Client) */\n      swap1\n      dup1\n      0x01\n      dup2\n      sload\n      add\n      dup1\n      dup3\n      sstore\n      dup1\n      swap2\n      pop\n      pop\n      0x01\n      swap1\n      sub\n      swap1\n      0x00\n      mstore\n      keccak256(0x00, 0x20)\n      swap1\n      0x03\n      mul\n      add\n      0x00\n      swap1\n      swap2\n      swap1\n      swap2\n      swap1\n      swap2\n      pop\n      0x00\n      dup3\n      add\n      mload\n      dup2\n      0x00\n      add\n      sstore\n      0x20\n      dup3\n      add\n      mload\n      dup2\n      0x01\n      add\n      exp(0x0100, 0x00)\n      dup2\n      sload\n      dup2\n      0xffffffffffffffffffffffffffffffffffffffff\n      mul\n      not\n      and\n      swap1\n      dup4\n      0xffffffffffffffffffffffffffffffffffffffff\n      and\n      mul\n      or\n      swap1\n      sstore\n      pop\n      0x40\n      dup3\n      add\n      mload\n      dup2\n      0x02\n      add\n      sstore\n      pop\n      pop\n        /* \"Bank.sol\":1990:1996  Client */\n      dup1\n        /* \"Bank.sol\":1983:1996  return Client */\n      swap2\n      pop\n      pop\n        /* \"Bank.sol\":1697:2003  function joinAsClient() public payable returns (client_account memory) {... */\n      swap1\n      jump\t// out\n        /* \"Bank.sol\":3270:3571  function createFixedDeposit(uint _amount, uint lockPeriod) public payable onlyClients returns (FixedDeposit memory){... */\n    tag_52:\n        /* \"Bank.sol\":3365:3384  FixedDeposit memory */\n      tag_141\n      tag_142\n      jump\t// in\n    tag_141:\n        /* \"Bank.sol\":1113:1126  bool isclient */\n      0x00\n        /* \"Bank.sol\":1129:1134  false */\n      0x00\n        /* \"Bank.sol\":1113:1134  bool isclient = false */\n      swap1\n      pop\n        /* \"Bank.sol\":1149:1155  uint i */\n      0x00\n        /* \"Bank.sol\":1158:1159  0 */\n      0x00\n        /* \"Bank.sol\":1149:1159  uint i = 0 */\n      swap1\n      pop\n        /* \"Bank.sol\":1144:1326  for (uint i = 0; i < clients.length; i++) {... */\n    tag_144:\n        /* \"Bank.sol\":1165:1172  clients */\n      0x00\n        /* \"Bank.sol\":1165:1179  clients.length */\n      dup1\n      sload\n      swap1\n      pop\n        /* \"Bank.sol\":1161:1162  i */\n      dup2\n        /* \"Bank.sol\":1161:1179  i < clients.length */\n      lt\n        /* \"Bank.sol\":1144:1326  for (uint i = 0; i < clients.length; i++) {... */\n      iszero\n      tag_145\n      jumpi\n        /* \"Bank.sol\":1233:1243  msg.sender */\n      caller\n        /* \"Bank.sol\":1204:1243  clients[i].client_address == msg.sender */\n      0xffffffffffffffffffffffffffffffffffffffff\n      and\n        /* \"Bank.sol\":1204:1211  clients */\n      0x00\n        /* \"Bank.sol\":1212:1213  i */\n      dup3\n        /* \"Bank.sol\":1204:1214  clients[i] */\n      dup2\n      sload\n      dup2\n      lt\n      tag_147\n      jumpi\n      tag_148\n      tag_79\n      jump\t// in\n    tag_148:\n    tag_147:\n      swap1\n      0x00\n      mstore\n      keccak256(0x00, 0x20)\n      swap1\n      0x03\n      mul\n      add\n        /* \"Bank.sol\":1204:1229  clients[i].client_address */\n      0x01\n      add\n      0x00\n      swap1\n      sload\n      swap1\n      0x0100\n      exp\n      swap1\n      div\n      0xffffffffffffffffffffffffffffffffffffffff\n      and\n        /* \"Bank.sol\":1204:1243  clients[i].client_address == msg.sender */\n      0xffffffffffffffffffffffffffffffffffffffff\n      and\n      sub\n        /* \"Bank.sol\":1200:1316  if (clients[i].client_address == msg.sender) {... */\n      tag_150\n      jumpi\n        /* \"Bank.sol\":1274:1278  true */\n      0x01\n        /* \"Bank.sol\":1263:1278  isclient = true */\n      swap2\n      pop\n        /* \"Bank.sol\":1296:1301  break */\n      jump(tag_145)\n        /* \"Bank.sol\":1200:1316  if (clients[i].client_address == msg.sender) {... */\n    tag_150:\n        /* \"Bank.sol\":1181:1184  i++ */\n      dup1\n      dup1\n      0x01\n      add\n      swap2\n      pop\n      pop\n        /* \"Bank.sol\":1144:1326  for (uint i = 0; i < clients.length; i++) {... */\n      jump(tag_144)\n    tag_145:\n      pop\n        /* \"Bank.sol\":1343:1351  isclient */\n      dup1\n        /* \"Bank.sol\":1335:1383  require(isclient, \"Only clients can call this!\") */\n      tag_151\n      jumpi\n      mload(0x40)\n      0x08c379a000000000000000000000000000000000000000000000000000000000\n      dup2\n      mstore\n      0x04\n      add\n      tag_152\n      swap1\n      tag_84\n      jump\t// in\n    tag_152:\n      mload(0x40)\n      dup1\n      swap2\n      sub\n      swap1\n      revert\n    tag_151:\n        /* \"Bank.sol\":3396:3413  uint interestRate */\n      0x00\n        /* \"Bank.sol\":3416:3417  5 */\n      0x05\n        /* \"Bank.sol\":3396:3417  uint interestRate = 5 */\n      swap1\n      pop\n        /* \"Bank.sol\":3455:3520  FixedDeposit(_amount, lockPeriod + block.timestamp, interestRate) */\n      mload(0x40)\n      dup1\n      0x60\n      add\n      0x40\n      mstore\n      dup1\n        /* \"Bank.sol\":3468:3475  _amount */\n      dup7\n        /* \"Bank.sol\":3455:3520  FixedDeposit(_amount, lockPeriod + block.timestamp, interestRate) */\n      dup2\n      mstore\n      0x20\n      add\n        /* \"Bank.sol\":3490:3505  block.timestamp */\n      timestamp\n        /* \"Bank.sol\":3477:3487  lockPeriod */\n      dup7\n        /* \"Bank.sol\":3477:3505  lockPeriod + block.timestamp */\n      tag_154\n      swap2\n      swap1\n      tag_96\n      jump\t// in\n    tag_154:\n        /* \"Bank.sol\":3455:3520  FixedDeposit(_amount, lockPeriod + block.timestamp, interestRate) */\n      dup2\n      mstore\n      0x20\n      add\n        /* \"Bank.sol\":3507:3519  interestRate */\n      dup3\n        /* \"Bank.sol\":3455:3520  FixedDeposit(_amount, lockPeriod + block.timestamp, interestRate) */\n      dup2\n      mstore\n      pop\n        /* \"Bank.sol\":3427:3440  fixedDeposits */\n      0x04\n        /* \"Bank.sol\":3427:3452  fixedDeposits[msg.sender] */\n      0x00\n        /* \"Bank.sol\":3441:3451  msg.sender */\n      caller\n        /* \"Bank.sol\":3427:3452  fixedDeposits[msg.sender] */\n      0xffffffffffffffffffffffffffffffffffffffff\n      and\n      0xffffffffffffffffffffffffffffffffffffffff\n      and\n      dup2\n      mstore\n      0x20\n      add\n      swap1\n      dup2\n      mstore\n      0x20\n      add\n      0x00\n      keccak256\n        /* \"Bank.sol\":3427:3520  fixedDeposits[msg.sender] = FixedDeposit(_amount, lockPeriod + block.timestamp, interestRate) */\n      0x00\n      dup3\n      add\n      mload\n      dup2\n      0x00\n      add\n      sstore\n      0x20\n      dup3\n      add\n      mload\n      dup2\n      0x01\n      add\n      sstore\n      0x40\n      dup3\n      add\n      mload\n      dup2\n      0x02\n      add\n      sstore\n      swap1\n      pop\n      pop\n        /* \"Bank.sol\":3538:3551  fixedDeposits */\n      0x04\n        /* \"Bank.sol\":3538:3563  fixedDeposits[msg.sender] */\n      0x00\n        /* \"Bank.sol\":3552:3562  msg.sender */\n      caller\n        /* \"Bank.sol\":3538:3563  fixedDeposits[msg.sender] */\n      0xffffffffffffffffffffffffffffffffffffffff\n      and\n      0xffffffffffffffffffffffffffffffffffffffff\n      and\n      dup2\n      mstore\n      0x20\n      add\n      swap1\n      dup2\n      mstore\n      0x20\n      add\n      0x00\n      keccak256\n        /* \"Bank.sol\":3531:3563  return fixedDeposits[msg.sender] */\n      mload(0x40)\n      dup1\n      0x60\n      add\n      0x40\n      mstore\n      swap1\n      dup2\n      0x00\n      dup3\n      add\n      sload\n      dup2\n      mstore\n      0x20\n      add\n      0x01\n      dup3\n      add\n      sload\n      dup2\n      mstore\n      0x20\n      add\n      0x02\n      dup3\n      add\n      sload\n      dup2\n      mstore\n      pop\n      pop\n      swap3\n      pop\n      pop\n        /* \"Bank.sol\":1103:1401  {... */\n      pop\n        /* \"Bank.sol\":3270:3571  function createFixedDeposit(uint _amount, uint lockPeriod) public payable onlyClients returns (FixedDeposit memory){... */\n      swap3\n      swap2\n      pop\n      pop\n      jump\t// out\n        /* \"Bank.sol\":2009:2114  function deposit() public payable onlyClients {... */\n    tag_56:\n        /* \"Bank.sol\":1113:1126  bool isclient */\n      0x00\n        /* \"Bank.sol\":1129:1134  false */\n      0x00\n        /* \"Bank.sol\":1113:1134  bool isclient = false */\n      swap1\n      pop\n        /* \"Bank.sol\":1149:1155  uint i */\n      0x00\n        /* \"Bank.sol\":1158:1159  0 */\n      0x00\n        /* \"Bank.sol\":1149:1159  uint i = 0 */\n      swap1\n      pop\n        /* \"Bank.sol\":1144:1326  for (uint i = 0; i < clients.length; i++) {... */\n    tag_156:\n        /* \"Bank.sol\":1165:1172  clients */\n      0x00\n        /* \"Bank.sol\":1165:1179  clients.length */\n      dup1\n      sload\n      swap1\n      pop\n        /* \"Bank.sol\":1161:1162  i */\n      dup2\n        /* \"Bank.sol\":1161:1179  i < clients.length */\n      lt\n        /* \"Bank.sol\":1144:1326  for (uint i = 0; i < clients.length; i++) {... */\n      iszero\n      tag_157\n      jumpi\n        /* \"Bank.sol\":1233:1243  msg.sender */\n      caller\n        /* \"Bank.sol\":1204:1243  clients[i].client_address == msg.sender */\n      0xffffffffffffffffffffffffffffffffffffffff\n      and\n        /* \"Bank.sol\":1204:1211  clients */\n      0x00\n        /* \"Bank.sol\":1212:1213  i */\n      dup3\n        /* \"Bank.sol\":1204:1214  clients[i] */\n      dup2\n      sload\n      dup2\n      lt\n      tag_159\n      jumpi\n      tag_160\n      tag_79\n      jump\t// in\n    tag_160:\n    tag_159:\n      swap1\n      0x00\n      mstore\n      keccak256(0x00, 0x20)\n      swap1\n      0x03\n      mul\n      add\n        /* \"Bank.sol\":1204:1229  clients[i].client_address */\n      0x01\n      add\n      0x00\n      swap1\n      sload\n      swap1\n      0x0100\n      exp\n      swap1\n      div\n      0xffffffffffffffffffffffffffffffffffffffff\n      and\n        /* \"Bank.sol\":1204:1243  clients[i].client_address == msg.sender */\n      0xffffffffffffffffffffffffffffffffffffffff\n      and\n      sub\n        /* \"Bank.sol\":1200:1316  if (clients[i].client_address == msg.sender) {... */\n      tag_162\n      jumpi\n        /* \"Bank.sol\":1274:1278  true */\n      0x01\n        /* \"Bank.sol\":1263:1278  isclient = true */\n      swap2\n      pop\n        /* \"Bank.sol\":1296:1301  break */\n      jump(tag_157)\n        /* \"Bank.sol\":1200:1316  if (clients[i].client_address == msg.sender) {... */\n    tag_162:\n        /* \"Bank.sol\":1181:1184  i++ */\n      dup1\n      dup1\n      0x01\n      add\n      swap2\n      pop\n      pop\n        /* \"Bank.sol\":1144:1326  for (uint i = 0; i < clients.length; i++) {... */\n      jump(tag_156)\n    tag_157:\n      pop\n        /* \"Bank.sol\":1343:1351  isclient */\n      dup1\n        /* \"Bank.sol\":1335:1383  require(isclient, \"Only clients can call this!\") */\n      tag_163\n      jumpi\n      mload(0x40)\n      0x08c379a000000000000000000000000000000000000000000000000000000000\n      dup2\n      mstore\n      0x04\n      add\n      tag_164\n      swap1\n      tag_84\n      jump\t// in\n    tag_164:\n      mload(0x40)\n      dup1\n      swap2\n      sub\n      swap1\n      revert\n    tag_163:\n        /* \"Bank.sol\":2081:2085  this */\n      address\n        /* \"Bank.sol\":2065:2096  payable(address(this)).transfer */\n      0xffffffffffffffffffffffffffffffffffffffff\n      and\n        /* \"Bank.sol\":2065:2107  payable(address(this)).transfer(msg.value) */\n      0x08fc\n        /* \"Bank.sol\":2097:2106  msg.value */\n      callvalue\n        /* \"Bank.sol\":2065:2107  payable(address(this)).transfer(msg.value) */\n      swap1\n      dup2\n      iszero\n      mul\n      swap1\n      mload(0x40)\n      0x00\n      mload(0x40)\n      dup1\n      dup4\n      sub\n      dup2\n      dup6\n      dup9\n      dup9\n      call\n      swap4\n      pop\n      pop\n      pop\n      pop\n      iszero\n      dup1\n      iszero\n      tag_167\n      jumpi\n      returndatacopy(0x00, 0x00, returndatasize)\n      revert(0x00, returndatasize)\n    tag_167:\n      pop\n        /* \"Bank.sol\":1103:1401  {... */\n      pop\n        /* \"Bank.sol\":2009:2114  function deposit() public payable onlyClients {... */\n      jump\t// out\n        /* \"Bank.sol\":4142:4835  function grantLoan(address clientAddress, uint _timeperiod) public payable onlyManager doesFDexists(clientAddress) returns (uint){... */\n    tag_60:\n        /* \"Bank.sol\":4266:4270  uint */\n      0x00\n        /* \"Bank.sol\":872:879  manager */\n      0x02\n      0x00\n      swap1\n      sload\n      swap1\n      0x0100\n      exp\n      swap1\n      div\n      0xffffffffffffffffffffffffffffffffffffffff\n      and\n        /* \"Bank.sol\":858:879  msg.sender == manager */\n      0xffffffffffffffffffffffffffffffffffffffff\n      and\n        /* \"Bank.sol\":858:868  msg.sender */\n      caller\n        /* \"Bank.sol\":858:879  msg.sender == manager */\n      0xffffffffffffffffffffffffffffffffffffffff\n      and\n      eq\n        /* \"Bank.sol\":850:911  require(msg.sender == manager, \"Only manager can call this!\") */\n      tag_169\n      jumpi\n      mload(0x40)\n      0x08c379a000000000000000000000000000000000000000000000000000000000\n      dup2\n      mstore\n      0x04\n      add\n      tag_170\n      swap1\n      tag_121\n      jump\t// in\n    tag_170:\n      mload(0x40)\n      dup1\n      swap2\n      sub\n      swap1\n      revert\n    tag_169:\n        /* \"Bank.sol\":4242:4255  clientAddress */\n      dup3\n        /* \"Bank.sol\":4029:4037  uint amt */\n      0x00\n        /* \"Bank.sol\":4040:4053  fixedDeposits */\n      0x04\n        /* \"Bank.sol\":4040:4061  fixedDeposits[client] */\n      0x00\n        /* \"Bank.sol\":4054:4060  client */\n      dup4\n        /* \"Bank.sol\":4040:4061  fixedDeposits[client] */\n      0xffffffffffffffffffffffffffffffffffffffff\n      and\n      0xffffffffffffffffffffffffffffffffffffffff\n      and\n      dup2\n      mstore\n      0x20\n      add\n      swap1\n      dup2\n      mstore\n      0x20\n      add\n      0x00\n      keccak256\n        /* \"Bank.sol\":4040:4068  fixedDeposits[client].amount */\n      0x00\n      add\n      sload\n        /* \"Bank.sol\":4029:4068  uint amt = fixedDeposits[client].amount */\n      swap1\n      pop\n        /* \"Bank.sol\":4092:4093  0 */\n      0x00\n        /* \"Bank.sol\":4086:4089  amt */\n      dup2\n        /* \"Bank.sol\":4086:4093  amt > 0 */\n      gt\n        /* \"Bank.sol\":4078:4118  require(amt > 0, \"This FD doesnt exist\") */\n      tag_172\n      jumpi\n      mload(0x40)\n      0x08c379a000000000000000000000000000000000000000000000000000000000\n      dup2\n      mstore\n      0x04\n      add\n      tag_173\n      swap1\n      tag_174\n      jump\t// in\n    tag_173:\n      mload(0x40)\n      dup1\n      swap2\n      sub\n      swap1\n      revert\n    tag_172:\n        /* \"Bank.sol\":4281:4303  FixedDeposit memory fd */\n      0x00\n        /* \"Bank.sol\":4306:4319  fixedDeposits */\n      0x04\n        /* \"Bank.sol\":4306:4334  fixedDeposits[clientAddress] */\n      0x00\n        /* \"Bank.sol\":4320:4333  clientAddress */\n      dup8\n        /* \"Bank.sol\":4306:4334  fixedDeposits[clientAddress] */\n      0xffffffffffffffffffffffffffffffffffffffff\n      and\n      0xffffffffffffffffffffffffffffffffffffffff\n      and\n      dup2\n      mstore\n      0x20\n      add\n      swap1\n      dup2\n      mstore\n      0x20\n      add\n      0x00\n      keccak256\n        /* \"Bank.sol\":4281:4334  FixedDeposit memory fd = fixedDeposits[clientAddress] */\n      mload(0x40)\n      dup1\n      0x60\n      add\n      0x40\n      mstore\n      swap1\n      dup2\n      0x00\n      dup3\n      add\n      sload\n      dup2\n      mstore\n      0x20\n      add\n      0x01\n      dup3\n      add\n      sload\n      dup2\n      mstore\n      0x20\n      add\n      0x02\n      dup3\n      add\n      sload\n      dup2\n      mstore\n      pop\n      pop\n      swap1\n      pop\n        /* \"Bank.sol\":4344:4361  uint interestRate */\n      0x00\n        /* \"Bank.sol\":4364:4366  10 */\n      0x0a\n        /* \"Bank.sol\":4344:4366  uint interestRate = 10 */\n      swap1\n      pop\n        /* \"Bank.sol\":4376:4392  uint prevLoanamt */\n      0x00\n        /* \"Bank.sol\":4395:4400  loans */\n      0x05\n        /* \"Bank.sol\":4395:4424  loans[address(clientAddress)] */\n      0x00\n        /* \"Bank.sol\":4409:4422  clientAddress */\n      dup10\n        /* \"Bank.sol\":4395:4424  loans[address(clientAddress)] */\n      0xffffffffffffffffffffffffffffffffffffffff\n      and\n      0xffffffffffffffffffffffffffffffffffffffff\n      and\n      dup2\n      mstore\n      0x20\n      add\n      swap1\n      dup2\n      mstore\n      0x20\n      add\n      0x00\n      keccak256\n        /* \"Bank.sol\":4395:4431  loans[address(clientAddress)].amount */\n      0x00\n      add\n      sload\n        /* \"Bank.sol\":4376:4431  uint prevLoanamt = loans[address(clientAddress)].amount */\n      swap1\n      pop\n        /* \"Bank.sol\":4441:4456  uint loanAmount */\n      0x00\n        /* \"Bank.sol\":4459:4461  fd */\n      dup4\n        /* \"Bank.sol\":4459:4468  fd.amount */\n      0x00\n      add\n      mload\n        /* \"Bank.sol\":4441:4468  uint loanAmount = fd.amount */\n      swap1\n      pop\n        /* \"Bank.sol\":4478:4496  uint _totalPayable */\n      0x00\n        /* \"Bank.sol\":4499:4504  loans */\n      0x05\n        /* \"Bank.sol\":4499:4528  loans[address(clientAddress)] */\n      0x00\n        /* \"Bank.sol\":4513:4526  clientAddress */\n      dup12\n        /* \"Bank.sol\":4499:4528  loans[address(clientAddress)] */\n      0xffffffffffffffffffffffffffffffffffffffff\n      and\n      0xffffffffffffffffffffffffffffffffffffffff\n      and\n      dup2\n      mstore\n      0x20\n      add\n      swap1\n      dup2\n      mstore\n      0x20\n      add\n      0x00\n      keccak256\n        /* \"Bank.sol\":4499:4541  loans[address(clientAddress)].totalPayable */\n      0x02\n      add\n      sload\n        /* \"Bank.sol\":4478:4541  uint _totalPayable = loans[address(clientAddress)].totalPayable */\n      swap1\n      pop\n        /* \"Bank.sol\":4611:4614  100 */\n      0x64\n        /* \"Bank.sol\":4596:4608  interestRate */\n      dup5\n        /* \"Bank.sol\":4583:4593  loanAmount */\n      dup4\n        /* \"Bank.sol\":4583:4608  loanAmount * interestRate */\n      tag_176\n      swap2\n      swap1\n      tag_109\n      jump\t// in\n    tag_176:\n        /* \"Bank.sol\":4583:4614  loanAmount * interestRate / 100 */\n      tag_177\n      swap2\n      swap1\n      tag_178\n      jump\t// in\n    tag_177:\n        /* \"Bank.sol\":4569:4579  loanAmount */\n      dup3\n        /* \"Bank.sol\":4569:4615  loanAmount + (loanAmount * interestRate / 100) */\n      tag_179\n      swap2\n      swap1\n      tag_96\n      jump\t// in\n    tag_179:\n        /* \"Bank.sol\":4551:4616  _totalPayable += (loanAmount + (loanAmount * interestRate / 100)) */\n      dup2\n      tag_180\n      swap2\n      swap1\n      tag_96\n      jump\t// in\n    tag_180:\n      swap1\n      pop\n        /* \"Bank.sol\":4650:4728  Loan(loanAmount + prevLoanamt, interestRate, _totalPayable, _timeperiod ,true) */\n      mload(0x40)\n      dup1\n      0xa0\n      add\n      0x40\n      mstore\n      dup1\n        /* \"Bank.sol\":4668:4679  prevLoanamt */\n      dup5\n        /* \"Bank.sol\":4655:4665  loanAmount */\n      dup5\n        /* \"Bank.sol\":4655:4679  loanAmount + prevLoanamt */\n      tag_181\n      swap2\n      swap1\n      tag_96\n      jump\t// in\n    tag_181:\n        /* \"Bank.sol\":4650:4728  Loan(loanAmount + prevLoanamt, interestRate, _totalPayable, _timeperiod ,true) */\n      dup2\n      mstore\n      0x20\n      add\n        /* \"Bank.sol\":4681:4693  interestRate */\n      dup6\n        /* \"Bank.sol\":4650:4728  Loan(loanAmount + prevLoanamt, interestRate, _totalPayable, _timeperiod ,true) */\n      dup2\n      mstore\n      0x20\n      add\n        /* \"Bank.sol\":4695:4708  _totalPayable */\n      dup3\n        /* \"Bank.sol\":4650:4728  Loan(loanAmount + prevLoanamt, interestRate, _totalPayable, _timeperiod ,true) */\n      dup2\n      mstore\n      0x20\n      add\n        /* \"Bank.sol\":4710:4721  _timeperiod */\n      dup11\n        /* \"Bank.sol\":4650:4728  Loan(loanAmount + prevLoanamt, interestRate, _totalPayable, _timeperiod ,true) */\n      dup2\n      mstore\n      0x20\n      add\n        /* \"Bank.sol\":4723:4727  true */\n      0x01\n        /* \"Bank.sol\":4650:4728  Loan(loanAmount + prevLoanamt, interestRate, _totalPayable, _timeperiod ,true) */\n      iszero\n      iszero\n      dup2\n      mstore\n      pop\n        /* \"Bank.sol\":4627:4632  loans */\n      0x05\n        /* \"Bank.sol\":4627:4647  loans[clientAddress] */\n      0x00\n        /* \"Bank.sol\":4633:4646  clientAddress */\n      dup13\n        /* \"Bank.sol\":4627:4647  loans[clientAddress] */\n      0xffffffffffffffffffffffffffffffffffffffff\n      and\n      0xffffffffffffffffffffffffffffffffffffffff\n      and\n      dup2\n      mstore\n      0x20\n      add\n      swap1\n      dup2\n      mstore\n      0x20\n      add\n      0x00\n      keccak256\n        /* \"Bank.sol\":4627:4728  loans[clientAddress] = Loan(loanAmount + prevLoanamt, interestRate, _totalPayable, _timeperiod ,true) */\n      0x00\n      dup3\n      add\n      mload\n      dup2\n      0x00\n      add\n      sstore\n      0x20\n      dup3\n      add\n      mload\n      dup2\n      0x01\n      add\n      sstore\n      0x40\n      dup3\n      add\n      mload\n      dup2\n      0x02\n      add\n      sstore\n      0x60\n      dup3\n      add\n      mload\n      dup2\n      0x03\n      add\n      sstore\n      0x80\n      dup3\n      add\n      mload\n      dup2\n      0x04\n      add\n      exp(0x0100, 0x00)\n      dup2\n      sload\n      dup2\n      0xff\n      mul\n      not\n      and\n      swap1\n      dup4\n      iszero\n      iszero\n      mul\n      or\n      swap1\n      sstore\n      pop\n      swap1\n      pop\n      pop\n        /* \"Bank.sol\":4746:4759  clientAddress */\n      dup10\n        /* \"Bank.sol\":4738:4769  payable(clientAddress).transfer */\n      0xffffffffffffffffffffffffffffffffffffffff\n      and\n        /* \"Bank.sol\":4738:4781  payable(clientAddress).transfer(loanAmount) */\n      0x08fc\n        /* \"Bank.sol\":4770:4780  loanAmount */\n      dup4\n        /* \"Bank.sol\":4738:4781  payable(clientAddress).transfer(loanAmount) */\n      swap1\n      dup2\n      iszero\n      mul\n      swap1\n      mload(0x40)\n      0x00\n      mload(0x40)\n      dup1\n      dup4\n      sub\n      dup2\n      dup6\n      dup9\n      dup9\n      call\n      swap4\n      pop\n      pop\n      pop\n      pop\n      iszero\n      dup1\n      iszero\n      tag_183\n      jumpi\n      returndatacopy(0x00, 0x00, returndatasize)\n      revert(0x00, returndatasize)\n    tag_183:\n      pop\n        /* \"Bank.sol\":4820:4827  1 ether */\n      0x0de0b6b3a7640000\n        /* \"Bank.sol\":4799:4809  msg.sender */\n      caller\n        /* \"Bank.sol\":4799:4817  msg.sender.balance */\n      0xffffffffffffffffffffffffffffffffffffffff\n      and\n      balance\n        /* \"Bank.sol\":4799:4827  msg.sender.balance * 1 ether */\n      tag_184\n      swap2\n      swap1\n      tag_109\n      jump\t// in\n    tag_184:\n        /* \"Bank.sol\":4791:4828  return (msg.sender.balance * 1 ether) */\n      swap8\n      pop\n      pop\n      pop\n      pop\n      pop\n      pop\n        /* \"Bank.sol\":4019:4136  {... */\n      pop\n        /* \"Bank.sol\":921:922  _ */\n      pop\n        /* \"Bank.sol\":4142:4835  function grantLoan(address clientAddress, uint _timeperiod) public payable onlyManager doesFDexists(clientAddress) returns (uint){... */\n      swap3\n      swap2\n      pop\n      pop\n      jump\t// out\n        /* \"Bank.sol\":654:707  mapping(address => FixedDeposit) public fixedDeposits */\n    tag_65:\n      mstore(0x20, 0x04)\n      dup1\n      0x00\n      mstore\n      keccak256(0x00, 0x40)\n      0x00\n      swap2\n      pop\n      swap1\n      pop\n      dup1\n      0x00\n      add\n      sload\n      swap1\n      dup1\n      0x01\n      add\n      sload\n      swap1\n      dup1\n      0x02\n      add\n      sload\n      swap1\n      pop\n      dup4\n      jump\t// out\n        /* \"Bank.sol\":604:648  mapping(address => uint) public interestDate */\n    tag_71:\n      mstore(0x20, 0x03)\n      dup1\n      0x00\n      mstore\n      keccak256(0x00, 0x40)\n      0x00\n      swap2\n      pop\n      swap1\n      pop\n      sload\n      dup2\n      jump\t// out\n    tag_136:\n      mload(0x40)\n      dup1\n      0x60\n      add\n      0x40\n      mstore\n      dup1\n      0x00\n      dup2\n      mstore\n      0x20\n      add\n      and(0xffffffffffffffffffffffffffffffffffffffff, 0x00)\n      dup2\n      mstore\n      0x20\n      add\n      0x00\n      dup2\n      mstore\n      pop\n      swap1\n      jump\t// out\n    tag_142:\n      mload(0x40)\n      dup1\n      0x60\n      add\n      0x40\n      mstore\n      dup1\n      0x00\n      dup2\n      mstore\n      0x20\n      add\n      0x00\n      dup2\n      mstore\n      0x20\n      add\n      0x00\n      dup2\n      mstore\n      pop\n      swap1\n      jump\t// out\n        /* \"#utility.yul\":88:205   */\n    tag_186:\n        /* \"#utility.yul\":197:198   */\n      0x00\n        /* \"#utility.yul\":194:195   */\n      0x00\n        /* \"#utility.yul\":187:199   */\n      revert\n        /* \"#utility.yul\":334:411   */\n    tag_188:\n        /* \"#utility.yul\":371:378   */\n      0x00\n        /* \"#utility.yul\":400:405   */\n      dup2\n        /* \"#utility.yul\":389:405   */\n      swap1\n      pop\n        /* \"#utility.yul\":334:411   */\n      swap2\n      swap1\n      pop\n      jump\t// out\n        /* \"#utility.yul\":417:539   */\n    tag_189:\n        /* \"#utility.yul\":490:514   */\n      tag_231\n        /* \"#utility.yul\":508:513   */\n      dup2\n        /* \"#utility.yul\":490:514   */\n      tag_188\n      jump\t// in\n    tag_231:\n        /* \"#utility.yul\":483:488   */\n      dup2\n        /* \"#utility.yul\":480:515   */\n      eq\n        /* \"#utility.yul\":470:533   */\n      tag_232\n      jumpi\n        /* \"#utility.yul\":529:530   */\n      0x00\n        /* \"#utility.yul\":526:527   */\n      0x00\n        /* \"#utility.yul\":519:531   */\n      revert\n        /* \"#utility.yul\":470:533   */\n    tag_232:\n        /* \"#utility.yul\":417:539   */\n      pop\n      jump\t// out\n        /* \"#utility.yul\":545:684   */\n    tag_190:\n        /* \"#utility.yul\":591:596   */\n      0x00\n        /* \"#utility.yul\":629:635   */\n      dup2\n        /* \"#utility.yul\":616:636   */\n      calldataload\n        /* \"#utility.yul\":607:636   */\n      swap1\n      pop\n        /* \"#utility.yul\":645:678   */\n      tag_234\n        /* \"#utility.yul\":672:677   */\n      dup2\n        /* \"#utility.yul\":645:678   */\n      tag_189\n      jump\t// in\n    tag_234:\n        /* \"#utility.yul\":545:684   */\n      swap3\n      swap2\n      pop\n      pop\n      jump\t// out\n        /* \"#utility.yul\":690:1164   */\n    tag_20:\n        /* \"#utility.yul\":758:764   */\n      0x00\n        /* \"#utility.yul\":766:772   */\n      0x00\n        /* \"#utility.yul\":815:817   */\n      0x40\n        /* \"#utility.yul\":803:812   */\n      dup4\n        /* \"#utility.yul\":794:801   */\n      dup6\n        /* \"#utility.yul\":790:813   */\n      sub\n        /* \"#utility.yul\":786:818   */\n      slt\n        /* \"#utility.yul\":783:902   */\n      iszero\n      tag_236\n      jumpi\n        /* \"#utility.yul\":821:900   */\n      tag_237\n      tag_186\n      jump\t// in\n    tag_237:\n        /* \"#utility.yul\":783:902   */\n    tag_236:\n        /* \"#utility.yul\":941:942   */\n      0x00\n        /* \"#utility.yul\":966:1019   */\n      tag_238\n        /* \"#utility.yul\":1011:1018   */\n      dup6\n        /* \"#utility.yul\":1002:1008   */\n      dup3\n        /* \"#utility.yul\":991:1000   */\n      dup7\n        /* \"#utility.yul\":987:1009   */\n      add\n        /* \"#utility.yul\":966:1019   */\n      tag_190\n      jump\t// in\n    tag_238:\n        /* \"#utility.yul\":956:1019   */\n      swap3\n      pop\n        /* \"#utility.yul\":912:1029   */\n      pop\n        /* \"#utility.yul\":1068:1070   */\n      0x20\n        /* \"#utility.yul\":1094:1147   */\n      tag_239\n        /* \"#utility.yul\":1139:1146   */\n      dup6\n        /* \"#utility.yul\":1130:1136   */\n      dup3\n        /* \"#utility.yul\":1119:1128   */\n      dup7\n        /* \"#utility.yul\":1115:1137   */\n      add\n        /* \"#utility.yul\":1094:1147   */\n      tag_190\n      jump\t// in\n    tag_239:\n        /* \"#utility.yul\":1084:1147   */\n      swap2\n      pop\n        /* \"#utility.yul\":1039:1157   */\n      pop\n        /* \"#utility.yul\":690:1164   */\n      swap3\n      pop\n      swap3\n      swap1\n      pop\n      jump\t// out\n        /* \"#utility.yul\":1170:1269   */\n    tag_191:\n        /* \"#utility.yul\":1222:1228   */\n      0x00\n        /* \"#utility.yul\":1256:1261   */\n      dup2\n        /* \"#utility.yul\":1250:1262   */\n      mload\n        /* \"#utility.yul\":1240:1262   */\n      swap1\n      pop\n        /* \"#utility.yul\":1170:1269   */\n      swap2\n      swap1\n      pop\n      jump\t// out\n        /* \"#utility.yul\":1275:1444   */\n    tag_192:\n        /* \"#utility.yul\":1359:1370   */\n      0x00\n        /* \"#utility.yul\":1393:1399   */\n      dup3\n        /* \"#utility.yul\":1388:1391   */\n      dup3\n        /* \"#utility.yul\":1381:1400   */\n      mstore\n        /* \"#utility.yul\":1433:1437   */\n      0x20\n        /* \"#utility.yul\":1428:1431   */\n      dup3\n        /* \"#utility.yul\":1424:1438   */\n      add\n        /* \"#utility.yul\":1409:1438   */\n      swap1\n      pop\n        /* \"#utility.yul\":1275:1444   */\n      swap3\n      swap2\n      pop\n      pop\n      jump\t// out\n        /* \"#utility.yul\":1450:1589   */\n    tag_193:\n        /* \"#utility.yul\":1539:1545   */\n      dup3\n        /* \"#utility.yul\":1534:1537   */\n      dup2\n        /* \"#utility.yul\":1529:1532   */\n      dup4\n        /* \"#utility.yul\":1523:1546   */\n      mcopy\n        /* \"#utility.yul\":1580:1581   */\n      0x00\n        /* \"#utility.yul\":1571:1577   */\n      dup4\n        /* \"#utility.yul\":1566:1569   */\n      dup4\n        /* \"#utility.yul\":1562:1578   */\n      add\n        /* \"#utility.yul\":1555:1582   */\n      mstore\n        /* \"#utility.yul\":1450:1589   */\n      pop\n      pop\n      pop\n      jump\t// out\n        /* \"#utility.yul\":1595:1697   */\n    tag_194:\n        /* \"#utility.yul\":1636:1642   */\n      0x00\n        /* \"#utility.yul\":1687:1689   */\n      0x1f\n        /* \"#utility.yul\":1683:1690   */\n      not\n        /* \"#utility.yul\":1678:1680   */\n      0x1f\n        /* \"#utility.yul\":1671:1676   */\n      dup4\n        /* \"#utility.yul\":1667:1681   */\n      add\n        /* \"#utility.yul\":1663:1691   */\n      and\n        /* \"#utility.yul\":1653:1691   */\n      swap1\n      pop\n        /* \"#utility.yul\":1595:1697   */\n      swap2\n      swap1\n      pop\n      jump\t// out\n        /* \"#utility.yul\":1703:2080   */\n    tag_195:\n        /* \"#utility.yul\":1791:1794   */\n      0x00\n        /* \"#utility.yul\":1819:1858   */\n      tag_245\n        /* \"#utility.yul\":1852:1857   */\n      dup3\n        /* \"#utility.yul\":1819:1858   */\n      tag_191\n      jump\t// in\n    tag_245:\n        /* \"#utility.yul\":1874:1945   */\n      tag_246\n        /* \"#utility.yul\":1938:1944   */\n      dup2\n        /* \"#utility.yul\":1933:1936   */\n      dup6\n        /* \"#utility.yul\":1874:1945   */\n      tag_192\n      jump\t// in\n    tag_246:\n        /* \"#utility.yul\":1867:1945   */\n      swap4\n      pop\n        /* \"#utility.yul\":1954:2019   */\n      tag_247\n        /* \"#utility.yul\":2012:2018   */\n      dup2\n        /* \"#utility.yul\":2007:2010   */\n      dup6\n        /* \"#utility.yul\":2000:2004   */\n      0x20\n        /* \"#utility.yul\":1993:1998   */\n      dup7\n        /* \"#utility.yul\":1989:2005   */\n      add\n        /* \"#utility.yul\":1954:2019   */\n      tag_193\n      jump\t// in\n    tag_247:\n        /* \"#utility.yul\":2044:2073   */\n      tag_248\n        /* \"#utility.yul\":2066:2072   */\n      dup2\n        /* \"#utility.yul\":2044:2073   */\n      tag_194\n      jump\t// in\n    tag_248:\n        /* \"#utility.yul\":2039:2042   */\n      dup5\n        /* \"#utility.yul\":2035:2074   */\n      add\n        /* \"#utility.yul\":2028:2074   */\n      swap2\n      pop\n        /* \"#utility.yul\":1795:2080   */\n      pop\n        /* \"#utility.yul\":1703:2080   */\n      swap3\n      swap2\n      pop\n      pop\n      jump\t// out\n        /* \"#utility.yul\":2086:2399   */\n    tag_23:\n        /* \"#utility.yul\":2199:2203   */\n      0x00\n        /* \"#utility.yul\":2237:2239   */\n      0x20\n        /* \"#utility.yul\":2226:2235   */\n      dup3\n        /* \"#utility.yul\":2222:2240   */\n      add\n        /* \"#utility.yul\":2214:2240   */\n      swap1\n      pop\n        /* \"#utility.yul\":2286:2295   */\n      dup2\n        /* \"#utility.yul\":2280:2284   */\n      dup2\n        /* \"#utility.yul\":2276:2296   */\n      sub\n        /* \"#utility.yul\":2272:2273   */\n      0x00\n        /* \"#utility.yul\":2261:2270   */\n      dup4\n        /* \"#utility.yul\":2257:2274   */\n      add\n        /* \"#utility.yul\":2250:2297   */\n      mstore\n        /* \"#utility.yul\":2314:2392   */\n      tag_250\n        /* \"#utility.yul\":2387:2391   */\n      dup2\n        /* \"#utility.yul\":2378:2384   */\n      dup5\n        /* \"#utility.yul\":2314:2392   */\n      tag_195\n      jump\t// in\n    tag_250:\n        /* \"#utility.yul\":2306:2392   */\n      swap1\n      pop\n        /* \"#utility.yul\":2086:2399   */\n      swap3\n      swap2\n      pop\n      pop\n      jump\t// out\n        /* \"#utility.yul\":2405:2734   */\n    tag_26:\n        /* \"#utility.yul\":2464:2470   */\n      0x00\n        /* \"#utility.yul\":2513:2515   */\n      0x20\n        /* \"#utility.yul\":2501:2510   */\n      dup3\n        /* \"#utility.yul\":2492:2499   */\n      dup5\n        /* \"#utility.yul\":2488:2511   */\n      sub\n        /* \"#utility.yul\":2484:2516   */\n      slt\n        /* \"#utility.yul\":2481:2600   */\n      iszero\n      tag_252\n      jumpi\n        /* \"#utility.yul\":2519:2598   */\n      tag_253\n      tag_186\n      jump\t// in\n    tag_253:\n        /* \"#utility.yul\":2481:2600   */\n    tag_252:\n        /* \"#utility.yul\":2639:2640   */\n      0x00\n        /* \"#utility.yul\":2664:2717   */\n      tag_254\n        /* \"#utility.yul\":2709:2716   */\n      dup5\n        /* \"#utility.yul\":2700:2706   */\n      dup3\n        /* \"#utility.yul\":2689:2698   */\n      dup6\n        /* \"#utility.yul\":2685:2707   */\n      add\n        /* \"#utility.yul\":2664:2717   */\n      tag_190\n      jump\t// in\n    tag_254:\n        /* \"#utility.yul\":2654:2717   */\n      swap2\n      pop\n        /* \"#utility.yul\":2610:2727   */\n      pop\n        /* \"#utility.yul\":2405:2734   */\n      swap3\n      swap2\n      pop\n      pop\n      jump\t// out\n        /* \"#utility.yul\":2740:2858   */\n    tag_196:\n        /* \"#utility.yul\":2827:2851   */\n      tag_256\n        /* \"#utility.yul\":2845:2850   */\n      dup2\n        /* \"#utility.yul\":2827:2851   */\n      tag_188\n      jump\t// in\n    tag_256:\n        /* \"#utility.yul\":2822:2825   */\n      dup3\n        /* \"#utility.yul\":2815:2852   */\n      mstore\n        /* \"#utility.yul\":2740:2858   */\n      pop\n      pop\n      jump\t// out\n        /* \"#utility.yul\":2864:3086   */\n    tag_32:\n        /* \"#utility.yul\":2957:2961   */\n      0x00\n        /* \"#utility.yul\":2995:2997   */\n      0x20\n        /* \"#utility.yul\":2984:2993   */\n      dup3\n        /* \"#utility.yul\":2980:2998   */\n      add\n        /* \"#utility.yul\":2972:2998   */\n      swap1\n      pop\n        /* \"#utility.yul\":3008:3079   */\n      tag_258\n        /* \"#utility.yul\":3076:3077   */\n      0x00\n        /* \"#utility.yul\":3065:3074   */\n      dup4\n        /* \"#utility.yul\":3061:3078   */\n      add\n        /* \"#utility.yul\":3052:3058   */\n      dup5\n        /* \"#utility.yul\":3008:3079   */\n      tag_196\n      jump\t// in\n    tag_258:\n        /* \"#utility.yul\":2864:3086   */\n      swap3\n      swap2\n      pop\n      pop\n      jump\t// out\n        /* \"#utility.yul\":3092:3218   */\n    tag_197:\n        /* \"#utility.yul\":3129:3136   */\n      0x00\n        /* \"#utility.yul\":3169:3211   */\n      0xffffffffffffffffffffffffffffffffffffffff\n        /* \"#utility.yul\":3162:3167   */\n      dup3\n        /* \"#utility.yul\":3158:3212   */\n      and\n        /* \"#utility.yul\":3147:3212   */\n      swap1\n      pop\n        /* \"#utility.yul\":3092:3218   */\n      swap2\n      swap1\n      pop\n      jump\t// out\n        /* \"#utility.yul\":3224:3320   */\n    tag_198:\n        /* \"#utility.yul\":3261:3268   */\n      0x00\n        /* \"#utility.yul\":3290:3314   */\n      tag_261\n        /* \"#utility.yul\":3308:3313   */\n      dup3\n        /* \"#utility.yul\":3290:3314   */\n      tag_197\n      jump\t// in\n    tag_261:\n        /* \"#utility.yul\":3279:3314   */\n      swap1\n      pop\n        /* \"#utility.yul\":3224:3320   */\n      swap2\n      swap1\n      pop\n      jump\t// out\n        /* \"#utility.yul\":3326:3448   */\n    tag_199:\n        /* \"#utility.yul\":3399:3423   */\n      tag_263\n        /* \"#utility.yul\":3417:3422   */\n      dup2\n        /* \"#utility.yul\":3399:3423   */\n      tag_198\n      jump\t// in\n    tag_263:\n        /* \"#utility.yul\":3392:3397   */\n      dup2\n        /* \"#utility.yul\":3389:3424   */\n      eq\n        /* \"#utility.yul\":3379:3442   */\n      tag_264\n      jumpi\n        /* \"#utility.yul\":3438:3439   */\n      0x00\n        /* \"#utility.yul\":3435:3436   */\n      0x00\n        /* \"#utility.yul\":3428:3440   */\n      revert\n        /* \"#utility.yul\":3379:3442   */\n    tag_264:\n        /* \"#utility.yul\":3326:3448   */\n      pop\n      jump\t// out\n        /* \"#utility.yul\":3454:3593   */\n    tag_200:\n        /* \"#utility.yul\":3500:3505   */\n      0x00\n        /* \"#utility.yul\":3538:3544   */\n      dup2\n        /* \"#utility.yul\":3525:3545   */\n      calldataload\n        /* \"#utility.yul\":3516:3545   */\n      swap1\n      pop\n        /* \"#utility.yul\":3554:3587   */\n      tag_266\n        /* \"#utility.yul\":3581:3586   */\n      dup2\n        /* \"#utility.yul\":3554:3587   */\n      tag_199\n      jump\t// in\n    tag_266:\n        /* \"#utility.yul\":3454:3593   */\n      swap3\n      swap2\n      pop\n      pop\n      jump\t// out\n        /* \"#utility.yul\":3599:3928   */\n    tag_36:\n        /* \"#utility.yul\":3658:3664   */\n      0x00\n        /* \"#utility.yul\":3707:3709   */\n      0x20\n        /* \"#utility.yul\":3695:3704   */\n      dup3\n        /* \"#utility.yul\":3686:3693   */\n      dup5\n        /* \"#utility.yul\":3682:3705   */\n      sub\n        /* \"#utility.yul\":3678:3710   */\n      slt\n        /* \"#utility.yul\":3675:3794   */\n      iszero\n      tag_268\n      jumpi\n        /* \"#utility.yul\":3713:3792   */\n      tag_269\n      tag_186\n      jump\t// in\n    tag_269:\n        /* \"#utility.yul\":3675:3794   */\n    tag_268:\n        /* \"#utility.yul\":3833:3834   */\n      0x00\n        /* \"#utility.yul\":3858:3911   */\n      tag_270\n        /* \"#utility.yul\":3903:3910   */\n      dup5\n        /* \"#utility.yul\":3894:3900   */\n      dup3\n        /* \"#utility.yul\":3883:3892   */\n      dup6\n        /* \"#utility.yul\":3879:3901   */\n      add\n        /* \"#utility.yul\":3858:3911   */\n      tag_200\n      jump\t// in\n    tag_270:\n        /* \"#utility.yul\":3848:3911   */\n      swap2\n      pop\n        /* \"#utility.yul\":3804:3921   */\n      pop\n        /* \"#utility.yul\":3599:3928   */\n      swap3\n      swap2\n      pop\n      pop\n      jump\t// out\n        /* \"#utility.yul\":3934:4024   */\n    tag_201:\n        /* \"#utility.yul\":3968:3975   */\n      0x00\n        /* \"#utility.yul\":4011:4016   */\n      dup2\n        /* \"#utility.yul\":4004:4017   */\n      iszero\n        /* \"#utility.yul\":3997:4018   */\n      iszero\n        /* \"#utility.yul\":3986:4018   */\n      swap1\n      pop\n        /* \"#utility.yul\":3934:4024   */\n      swap2\n      swap1\n      pop\n      jump\t// out\n        /* \"#utility.yul\":4030:4139   */\n    tag_202:\n        /* \"#utility.yul\":4111:4132   */\n      tag_273\n        /* \"#utility.yul\":4126:4131   */\n      dup2\n        /* \"#utility.yul\":4111:4132   */\n      tag_201\n      jump\t// in\n    tag_273:\n        /* \"#utility.yul\":4106:4109   */\n      dup3\n        /* \"#utility.yul\":4099:4133   */\n      mstore\n        /* \"#utility.yul\":4030:4139   */\n      pop\n      pop\n      jump\t// out\n        /* \"#utility.yul\":4145:4797   */\n    tag_39:\n        /* \"#utility.yul\":4344:4348   */\n      0x00\n        /* \"#utility.yul\":4382:4385   */\n      0xa0\n        /* \"#utility.yul\":4371:4380   */\n      dup3\n        /* \"#utility.yul\":4367:4386   */\n      add\n        /* \"#utility.yul\":4359:4386   */\n      swap1\n      pop\n        /* \"#utility.yul\":4396:4467   */\n      tag_275\n        /* \"#utility.yul\":4464:4465   */\n      0x00\n        /* \"#utility.yul\":4453:4462   */\n      dup4\n        /* \"#utility.yul\":4449:4466   */\n      add\n        /* \"#utility.yul\":4440:4446   */\n      dup9\n        /* \"#utility.yul\":4396:4467   */\n      tag_196\n      jump\t// in\n    tag_275:\n        /* \"#utility.yul\":4477:4549   */\n      tag_276\n        /* \"#utility.yul\":4545:4547   */\n      0x20\n        /* \"#utility.yul\":4534:4543   */\n      dup4\n        /* \"#utility.yul\":4530:4548   */\n      add\n        /* \"#utility.yul\":4521:4527   */\n      dup8\n        /* \"#utility.yul\":4477:4549   */\n      tag_196\n      jump\t// in\n    tag_276:\n        /* \"#utility.yul\":4559:4631   */\n      tag_277\n        /* \"#utility.yul\":4627:4629   */\n      0x40\n        /* \"#utility.yul\":4616:4625   */\n      dup4\n        /* \"#utility.yul\":4612:4630   */\n      add\n        /* \"#utility.yul\":4603:4609   */\n      dup7\n        /* \"#utility.yul\":4559:4631   */\n      tag_196\n      jump\t// in\n    tag_277:\n        /* \"#utility.yul\":4641:4713   */\n      tag_278\n        /* \"#utility.yul\":4709:4711   */\n      0x60\n        /* \"#utility.yul\":4698:4707   */\n      dup4\n        /* \"#utility.yul\":4694:4712   */\n      add\n        /* \"#utility.yul\":4685:4691   */\n      dup6\n        /* \"#utility.yul\":4641:4713   */\n      tag_196\n      jump\t// in\n    tag_278:\n        /* \"#utility.yul\":4723:4790   */\n      tag_279\n        /* \"#utility.yul\":4785:4788   */\n      0x80\n        /* \"#utility.yul\":4774:4783   */\n      dup4\n        /* \"#utility.yul\":4770:4789   */\n      add\n        /* \"#utility.yul\":4761:4767   */\n      dup5\n        /* \"#utility.yul\":4723:4790   */\n      tag_202\n      jump\t// in\n    tag_279:\n        /* \"#utility.yul\":4145:4797   */\n      swap7\n      swap6\n      pop\n      pop\n      pop\n      pop\n      pop\n      pop\n      jump\t// out\n        /* \"#utility.yul\":4803:4879   */\n    tag_203:\n        /* \"#utility.yul\":4839:4846   */\n      0x00\n        /* \"#utility.yul\":4868:4873   */\n      dup2\n        /* \"#utility.yul\":4857:4873   */\n      swap1\n      pop\n        /* \"#utility.yul\":4803:4879   */\n      swap2\n      swap1\n      pop\n      jump\t// out\n        /* \"#utility.yul\":4885:4990   */\n    tag_204:\n        /* \"#utility.yul\":4960:4983   */\n      tag_282\n        /* \"#utility.yul\":4977:4982   */\n      dup2\n        /* \"#utility.yul\":4960:4983   */\n      tag_203\n      jump\t// in\n    tag_282:\n        /* \"#utility.yul\":4955:4958   */\n      dup3\n        /* \"#utility.yul\":4948:4984   */\n      mstore\n        /* \"#utility.yul\":4885:4990   */\n      pop\n      pop\n      jump\t// out\n        /* \"#utility.yul\":4996:5104   */\n    tag_205:\n        /* \"#utility.yul\":5073:5097   */\n      tag_284\n        /* \"#utility.yul\":5091:5096   */\n      dup2\n        /* \"#utility.yul\":5073:5097   */\n      tag_198\n      jump\t// in\n    tag_284:\n        /* \"#utility.yul\":5068:5071   */\n      dup3\n        /* \"#utility.yul\":5061:5098   */\n      mstore\n        /* \"#utility.yul\":4996:5104   */\n      pop\n      pop\n      jump\t// out\n        /* \"#utility.yul\":5110:5218   */\n    tag_206:\n        /* \"#utility.yul\":5187:5211   */\n      tag_286\n        /* \"#utility.yul\":5205:5210   */\n      dup2\n        /* \"#utility.yul\":5187:5211   */\n      tag_188\n      jump\t// in\n    tag_286:\n        /* \"#utility.yul\":5182:5185   */\n      dup3\n        /* \"#utility.yul\":5175:5212   */\n      mstore\n        /* \"#utility.yul\":5110:5218   */\n      pop\n      pop\n      jump\t// out\n        /* \"#utility.yul\":5288:6009   */\n    tag_207:\n        /* \"#utility.yul\":5443:5447   */\n      0x60\n        /* \"#utility.yul\":5438:5441   */\n      dup3\n        /* \"#utility.yul\":5434:5448   */\n      add\n        /* \"#utility.yul\":5535:5539   */\n      0x00\n        /* \"#utility.yul\":5528:5533   */\n      dup3\n        /* \"#utility.yul\":5524:5540   */\n      add\n        /* \"#utility.yul\":5518:5541   */\n      mload\n        /* \"#utility.yul\":5554:5615   */\n      tag_288\n        /* \"#utility.yul\":5609:5613   */\n      0x00\n        /* \"#utility.yul\":5604:5607   */\n      dup6\n        /* \"#utility.yul\":5600:5614   */\n      add\n        /* \"#utility.yul\":5586:5598   */\n      dup3\n        /* \"#utility.yul\":5554:5615   */\n      tag_204\n      jump\t// in\n    tag_288:\n        /* \"#utility.yul\":5458:5625   */\n      pop\n        /* \"#utility.yul\":5717:5721   */\n      0x20\n        /* \"#utility.yul\":5710:5715   */\n      dup3\n        /* \"#utility.yul\":5706:5722   */\n      add\n        /* \"#utility.yul\":5700:5723   */\n      mload\n        /* \"#utility.yul\":5736:5799   */\n      tag_289\n        /* \"#utility.yul\":5793:5797   */\n      0x20\n        /* \"#utility.yul\":5788:5791   */\n      dup6\n        /* \"#utility.yul\":5784:5798   */\n      add\n        /* \"#utility.yul\":5770:5782   */\n      dup3\n        /* \"#utility.yul\":5736:5799   */\n      tag_205\n      jump\t// in\n    tag_289:\n        /* \"#utility.yul\":5635:5809   */\n      pop\n        /* \"#utility.yul\":5910:5914   */\n      0x40\n        /* \"#utility.yul\":5903:5908   */\n      dup3\n        /* \"#utility.yul\":5899:5915   */\n      add\n        /* \"#utility.yul\":5893:5916   */\n      mload\n        /* \"#utility.yul\":5929:5992   */\n      tag_290\n        /* \"#utility.yul\":5986:5990   */\n      0x40\n        /* \"#utility.yul\":5981:5984   */\n      dup6\n        /* \"#utility.yul\":5977:5991   */\n      add\n        /* \"#utility.yul\":5963:5975   */\n      dup3\n        /* \"#utility.yul\":5929:5992   */\n      tag_206\n      jump\t// in\n    tag_290:\n        /* \"#utility.yul\":5819:6002   */\n      pop\n        /* \"#utility.yul\":5412:6009   */\n      pop\n        /* \"#utility.yul\":5288:6009   */\n      pop\n      pop\n      jump\t// out\n        /* \"#utility.yul\":6015:6353   */\n    tag_49:\n        /* \"#utility.yul\":6166:6170   */\n      0x00\n        /* \"#utility.yul\":6204:6206   */\n      0x60\n        /* \"#utility.yul\":6193:6202   */\n      dup3\n        /* \"#utility.yul\":6189:6207   */\n      add\n        /* \"#utility.yul\":6181:6207   */\n      swap1\n      pop\n        /* \"#utility.yul\":6217:6346   */\n      tag_292\n        /* \"#utility.yul\":6343:6344   */\n      0x00\n        /* \"#utility.yul\":6332:6341   */\n      dup4\n        /* \"#utility.yul\":6328:6345   */\n      add\n        /* \"#utility.yul\":6319:6325   */\n      dup5\n        /* \"#utility.yul\":6217:6346   */\n      tag_207\n      jump\t// in\n    tag_292:\n        /* \"#utility.yul\":6015:6353   */\n      swap3\n      swap2\n      pop\n      pop\n      jump\t// out\n        /* \"#utility.yul\":6419:7122   */\n    tag_208:\n        /* \"#utility.yul\":6572:6576   */\n      0x60\n        /* \"#utility.yul\":6567:6570   */\n      dup3\n        /* \"#utility.yul\":6563:6577   */\n      add\n        /* \"#utility.yul\":6661:6665   */\n      0x00\n        /* \"#utility.yul\":6654:6659   */\n      dup3\n        /* \"#utility.yul\":6650:6666   */\n      add\n        /* \"#utility.yul\":6644:6667   */\n      mload\n        /* \"#utility.yul\":6680:6743   */\n      tag_294\n        /* \"#utility.yul\":6737:6741   */\n      0x00\n        /* \"#utility.yul\":6732:6735   */\n      dup6\n        /* \"#utility.yul\":6728:6742   */\n      add\n        /* \"#utility.yul\":6714:6726   */\n      dup3\n        /* \"#utility.yul\":6680:6743   */\n      tag_206\n      jump\t// in\n    tag_294:\n        /* \"#utility.yul\":6587:6753   */\n      pop\n        /* \"#utility.yul\":6841:6845   */\n      0x20\n        /* \"#utility.yul\":6834:6839   */\n      dup3\n        /* \"#utility.yul\":6830:6846   */\n      add\n        /* \"#utility.yul\":6824:6847   */\n      mload\n        /* \"#utility.yul\":6860:6923   */\n      tag_295\n        /* \"#utility.yul\":6917:6921   */\n      0x20\n        /* \"#utility.yul\":6912:6915   */\n      dup6\n        /* \"#utility.yul\":6908:6922   */\n      add\n        /* \"#utility.yul\":6894:6906   */\n      dup3\n        /* \"#utility.yul\":6860:6923   */\n      tag_206\n      jump\t// in\n    tag_295:\n        /* \"#utility.yul\":6763:6933   */\n      pop\n        /* \"#utility.yul\":7023:7027   */\n      0x40\n        /* \"#utility.yul\":7016:7021   */\n      dup3\n        /* \"#utility.yul\":7012:7028   */\n      add\n        /* \"#utility.yul\":7006:7029   */\n      mload\n        /* \"#utility.yul\":7042:7105   */\n      tag_296\n        /* \"#utility.yul\":7099:7103   */\n      0x40\n        /* \"#utility.yul\":7094:7097   */\n      dup6\n        /* \"#utility.yul\":7090:7104   */\n      add\n        /* \"#utility.yul\":7076:7088   */\n      dup3\n        /* \"#utility.yul\":7042:7105   */\n      tag_206\n      jump\t// in\n    tag_296:\n        /* \"#utility.yul\":6943:7115   */\n      pop\n        /* \"#utility.yul\":6541:7122   */\n      pop\n        /* \"#utility.yul\":6419:7122   */\n      pop\n      pop\n      jump\t// out\n        /* \"#utility.yul\":7128:7462   */\n    tag_54:\n        /* \"#utility.yul\":7277:7281   */\n      0x00\n        /* \"#utility.yul\":7315:7317   */\n      0x60\n        /* \"#utility.yul\":7304:7313   */\n      dup3\n        /* \"#utility.yul\":7300:7318   */\n      add\n        /* \"#utility.yul\":7292:7318   */\n      swap1\n      pop\n        /* \"#utility.yul\":7328:7455   */\n      tag_298\n        /* \"#utility.yul\":7452:7453   */\n      0x00\n        /* \"#utility.yul\":7441:7450   */\n      dup4\n        /* \"#utility.yul\":7437:7454   */\n      add\n        /* \"#utility.yul\":7428:7434   */\n      dup5\n        /* \"#utility.yul\":7328:7455   */\n      tag_208\n      jump\t// in\n    tag_298:\n        /* \"#utility.yul\":7128:7462   */\n      swap3\n      swap2\n      pop\n      pop\n      jump\t// out\n        /* \"#utility.yul\":7468:7942   */\n    tag_59:\n        /* \"#utility.yul\":7536:7542   */\n      0x00\n        /* \"#utility.yul\":7544:7550   */\n      0x00\n        /* \"#utility.yul\":7593:7595   */\n      0x40\n        /* \"#utility.yul\":7581:7590   */\n      dup4\n        /* \"#utility.yul\":7572:7579   */\n      dup6\n        /* \"#utility.yul\":7568:7591   */\n      sub\n        /* \"#utility.yul\":7564:7596   */\n      slt\n        /* \"#utility.yul\":7561:7680   */\n      iszero\n      tag_300\n      jumpi\n        /* \"#utility.yul\":7599:7678   */\n      tag_301\n      tag_186\n      jump\t// in\n    tag_301:\n        /* \"#utility.yul\":7561:7680   */\n    tag_300:\n        /* \"#utility.yul\":7719:7720   */\n      0x00\n        /* \"#utility.yul\":7744:7797   */\n      tag_302\n        /* \"#utility.yul\":7789:7796   */\n      dup6\n        /* \"#utility.yul\":7780:7786   */\n      dup3\n        /* \"#utility.yul\":7769:7778   */\n      dup7\n        /* \"#utility.yul\":7765:7787   */\n      add\n        /* \"#utility.yul\":7744:7797   */\n      tag_200\n      jump\t// in\n    tag_302:\n        /* \"#utility.yul\":7734:7797   */\n      swap3\n      pop\n        /* \"#utility.yul\":7690:7807   */\n      pop\n        /* \"#utility.yul\":7846:7848   */\n      0x20\n        /* \"#utility.yul\":7872:7925   */\n      tag_303\n        /* \"#utility.yul\":7917:7924   */\n      dup6\n        /* \"#utility.yul\":7908:7914   */\n      dup3\n        /* \"#utility.yul\":7897:7906   */\n      dup7\n        /* \"#utility.yul\":7893:7915   */\n      add\n        /* \"#utility.yul\":7872:7925   */\n      tag_190\n      jump\t// in\n    tag_303:\n        /* \"#utility.yul\":7862:7925   */\n      swap2\n      pop\n        /* \"#utility.yul\":7817:7935   */\n      pop\n        /* \"#utility.yul\":7468:7942   */\n      swap3\n      pop\n      swap3\n      swap1\n      pop\n      jump\t// out\n        /* \"#utility.yul\":7948:8390   */\n    tag_67:\n        /* \"#utility.yul\":8097:8101   */\n      0x00\n        /* \"#utility.yul\":8135:8137   */\n      0x60\n        /* \"#utility.yul\":8124:8133   */\n      dup3\n        /* \"#utility.yul\":8120:8138   */\n      add\n        /* \"#utility.yul\":8112:8138   */\n      swap1\n      pop\n        /* \"#utility.yul\":8148:8219   */\n      tag_305\n        /* \"#utility.yul\":8216:8217   */\n      0x00\n        /* \"#utility.yul\":8205:8214   */\n      dup4\n        /* \"#utility.yul\":8201:8218   */\n      add\n        /* \"#utility.yul\":8192:8198   */\n      dup7\n        /* \"#utility.yul\":8148:8219   */\n      tag_196\n      jump\t// in\n    tag_305:\n        /* \"#utility.yul\":8229:8301   */\n      tag_306\n        /* \"#utility.yul\":8297:8299   */\n      0x20\n        /* \"#utility.yul\":8286:8295   */\n      dup4\n        /* \"#utility.yul\":8282:8300   */\n      add\n        /* \"#utility.yul\":8273:8279   */\n      dup6\n        /* \"#utility.yul\":8229:8301   */\n      tag_196\n      jump\t// in\n    tag_306:\n        /* \"#utility.yul\":8311:8383   */\n      tag_307\n        /* \"#utility.yul\":8379:8381   */\n      0x40\n        /* \"#utility.yul\":8368:8377   */\n      dup4\n        /* \"#utility.yul\":8364:8382   */\n      add\n        /* \"#utility.yul\":8355:8361   */\n      dup5\n        /* \"#utility.yul\":8311:8383   */\n      tag_196\n      jump\t// in\n    tag_307:\n        /* \"#utility.yul\":7948:8390   */\n      swap5\n      swap4\n      pop\n      pop\n      pop\n      pop\n      jump\t// out\n        /* \"#utility.yul\":8396:8576   */\n    tag_79:\n        /* \"#utility.yul\":8444:8521   */\n      0x4e487b7100000000000000000000000000000000000000000000000000000000\n        /* \"#utility.yul\":8441:8442   */\n      0x00\n        /* \"#utility.yul\":8434:8522   */\n      mstore\n        /* \"#utility.yul\":8541:8545   */\n      0x32\n        /* \"#utility.yul\":8538:8539   */\n      0x04\n        /* \"#utility.yul\":8531:8546   */\n      mstore\n        /* \"#utility.yul\":8565:8569   */\n      0x24\n        /* \"#utility.yul\":8562:8563   */\n      0x00\n        /* \"#utility.yul\":8555:8570   */\n      revert\n        /* \"#utility.yul\":8582:8759   */\n    tag_209:\n        /* \"#utility.yul\":8722:8751   */\n      0x4f6e6c7920636c69656e74732063616e2063616c6c2074686973210000000000\n        /* \"#utility.yul\":8718:8719   */\n      0x00\n        /* \"#utility.yul\":8710:8716   */\n      dup3\n        /* \"#utility.yul\":8706:8720   */\n      add\n        /* \"#utility.yul\":8699:8752   */\n      mstore\n        /* \"#utility.yul\":8582:8759   */\n      pop\n      jump\t// out\n        /* \"#utility.yul\":8765:9131   */\n    tag_210:\n        /* \"#utility.yul\":8907:8910   */\n      0x00\n        /* \"#utility.yul\":8928:8995   */\n      tag_311\n        /* \"#utility.yul\":8992:8994   */\n      0x1b\n        /* \"#utility.yul\":8987:8990   */\n      dup4\n        /* \"#utility.yul\":8928:8995   */\n      tag_192\n      jump\t// in\n    tag_311:\n        /* \"#utility.yul\":8921:8995   */\n      swap2\n      pop\n        /* \"#utility.yul\":9004:9097   */\n      tag_312\n        /* \"#utility.yul\":9093:9096   */\n      dup3\n        /* \"#utility.yul\":9004:9097   */\n      tag_209\n      jump\t// in\n    tag_312:\n        /* \"#utility.yul\":9122:9124   */\n      0x20\n        /* \"#utility.yul\":9117:9120   */\n      dup3\n        /* \"#utility.yul\":9113:9125   */\n      add\n        /* \"#utility.yul\":9106:9125   */\n      swap1\n      pop\n        /* \"#utility.yul\":8765:9131   */\n      swap2\n      swap1\n      pop\n      jump\t// out\n        /* \"#utility.yul\":9137:9556   */\n    tag_84:\n        /* \"#utility.yul\":9303:9307   */\n      0x00\n        /* \"#utility.yul\":9341:9343   */\n      0x20\n        /* \"#utility.yul\":9330:9339   */\n      dup3\n        /* \"#utility.yul\":9326:9344   */\n      add\n        /* \"#utility.yul\":9318:9344   */\n      swap1\n      pop\n        /* \"#utility.yul\":9390:9399   */\n      dup2\n        /* \"#utility.yul\":9384:9388   */\n      dup2\n        /* \"#utility.yul\":9380:9400   */\n      sub\n        /* \"#utility.yul\":9376:9377   */\n      0x00\n        /* \"#utility.yul\":9365:9374   */\n      dup4\n        /* \"#utility.yul\":9361:9378   */\n      add\n        /* \"#utility.yul\":9354:9401   */\n      mstore\n        /* \"#utility.yul\":9418:9549   */\n      tag_314\n        /* \"#utility.yul\":9544:9548   */\n      dup2\n        /* \"#utility.yul\":9418:9549   */\n      tag_210\n      jump\t// in\n    tag_314:\n        /* \"#utility.yul\":9410:9549   */\n      swap1\n      pop\n        /* \"#utility.yul\":9137:9556   */\n      swap2\n      swap1\n      pop\n      jump\t// out\n        /* \"#utility.yul\":9562:9742   */\n    tag_211:\n        /* \"#utility.yul\":9702:9734   */\n      0x416d6f756e742073656e7420746f204644206973206e6f742065786163740000\n        /* \"#utility.yul\":9698:9699   */\n      0x00\n        /* \"#utility.yul\":9690:9696   */\n      dup3\n        /* \"#utility.yul\":9686:9700   */\n      add\n        /* \"#utility.yul\":9679:9735   */\n      mstore\n        /* \"#utility.yul\":9562:9742   */\n      pop\n      jump\t// out\n        /* \"#utility.yul\":9748:10114   */\n    tag_212:\n        /* \"#utility.yul\":9890:9893   */\n      0x00\n        /* \"#utility.yul\":9911:9978   */\n      tag_317\n        /* \"#utility.yul\":9975:9977   */\n      0x1e\n        /* \"#utility.yul\":9970:9973   */\n      dup4\n        /* \"#utility.yul\":9911:9978   */\n      tag_192\n      jump\t// in\n    tag_317:\n        /* \"#utility.yul\":9904:9978   */\n      swap2\n      pop\n        /* \"#utility.yul\":9987:10080   */\n      tag_318\n        /* \"#utility.yul\":10076:10079   */\n      dup3\n        /* \"#utility.yul\":9987:10080   */\n      tag_211\n      jump\t// in\n    tag_318:\n        /* \"#utility.yul\":10105:10107   */\n      0x20\n        /* \"#utility.yul\":10100:10103   */\n      dup3\n        /* \"#utility.yul\":10096:10108   */\n      add\n        /* \"#utility.yul\":10089:10108   */\n      swap1\n      pop\n        /* \"#utility.yul\":9748:10114   */\n      swap2\n      swap1\n      pop\n      jump\t// out\n        /* \"#utility.yul\":10120:10539   */\n    tag_88:\n        /* \"#utility.yul\":10286:10290   */\n      0x00\n        /* \"#utility.yul\":10324:10326   */\n      0x20\n        /* \"#utility.yul\":10313:10322   */\n      dup3\n        /* \"#utility.yul\":10309:10327   */\n      add\n        /* \"#utility.yul\":10301:10327   */\n      swap1\n      pop\n        /* \"#utility.yul\":10373:10382   */\n      dup2\n        /* \"#utility.yul\":10367:10371   */\n      dup2\n        /* \"#utility.yul\":10363:10383   */\n      sub\n        /* \"#utility.yul\":10359:10360   */\n      0x00\n        /* \"#utility.yul\":10348:10357   */\n      dup4\n        /* \"#utility.yul\":10344:10361   */\n      add\n        /* \"#utility.yul\":10337:10384   */\n      mstore\n        /* \"#utility.yul\":10401:10532   */\n      tag_320\n        /* \"#utility.yul\":10527:10531   */\n      dup2\n        /* \"#utility.yul\":10401:10532   */\n      tag_212\n      jump\t// in\n    tag_320:\n        /* \"#utility.yul\":10393:10532   */\n      swap1\n      pop\n        /* \"#utility.yul\":10120:10539   */\n      swap2\n      swap1\n      pop\n      jump\t// out\n        /* \"#utility.yul\":10545:10777   */\n    tag_213:\n        /* \"#utility.yul\":10685:10719   */\n      0x4c6f636b20706572696f642069736e74206f7665722079657420736f20796f75\n        /* \"#utility.yul\":10681:10682   */\n      0x00\n        /* \"#utility.yul\":10673:10679   */\n      dup3\n        /* \"#utility.yul\":10669:10683   */\n      add\n        /* \"#utility.yul\":10662:10720   */\n      mstore\n        /* \"#utility.yul\":10754:10769   */\n      0x206e65656420746f207761697400000000000000000000000000000000000000\n        /* \"#utility.yul\":10749:10751   */\n      0x20\n        /* \"#utility.yul\":10741:10747   */\n      dup3\n        /* \"#utility.yul\":10737:10752   */\n      add\n        /* \"#utility.yul\":10730:10770   */\n      mstore\n        /* \"#utility.yul\":10545:10777   */\n      pop\n      jump\t// out\n        /* \"#utility.yul\":10783:11149   */\n    tag_214:\n        /* \"#utility.yul\":10925:10928   */\n      0x00\n        /* \"#utility.yul\":10946:11013   */\n      tag_323\n        /* \"#utility.yul\":11010:11012   */\n      0x2d\n        /* \"#utility.yul\":11005:11008   */\n      dup4\n        /* \"#utility.yul\":10946:11013   */\n      tag_192\n      jump\t// in\n    tag_323:\n        /* \"#utility.yul\":10939:11013   */\n      swap2\n      pop\n        /* \"#utility.yul\":11022:11115   */\n      tag_324\n        /* \"#utility.yul\":11111:11114   */\n      dup3\n        /* \"#utility.yul\":11022:11115   */\n      tag_213\n      jump\t// in\n    tag_324:\n        /* \"#utility.yul\":11140:11142   */\n      0x40\n        /* \"#utility.yul\":11135:11138   */\n      dup3\n        /* \"#utility.yul\":11131:11143   */\n      add\n        /* \"#utility.yul\":11124:11143   */\n      swap1\n      pop\n        /* \"#utility.yul\":10783:11149   */\n      swap2\n      swap1\n      pop\n      jump\t// out\n        /* \"#utility.yul\":11155:11574   */\n    tag_93:\n        /* \"#utility.yul\":11321:11325   */\n      0x00\n        /* \"#utility.yul\":11359:11361   */\n      0x20\n        /* \"#utility.yul\":11348:11357   */\n      dup3\n        /* \"#utility.yul\":11344:11362   */\n      add\n        /* \"#utility.yul\":11336:11362   */\n      swap1\n      pop\n        /* \"#utility.yul\":11408:11417   */\n      dup2\n        /* \"#utility.yul\":11402:11406   */\n      dup2\n        /* \"#utility.yul\":11398:11418   */\n      sub\n        /* \"#utility.yul\":11394:11395   */\n      0x00\n        /* \"#utility.yul\":11383:11392   */\n      dup4\n        /* \"#utility.yul\":11379:11396   */\n      add\n        /* \"#utility.yul\":11372:11419   */\n      mstore\n        /* \"#utility.yul\":11436:11567   */\n      tag_326\n        /* \"#utility.yul\":11562:11566   */\n      dup2\n        /* \"#utility.yul\":11436:11567   */\n      tag_214\n      jump\t// in\n    tag_326:\n        /* \"#utility.yul\":11428:11567   */\n      swap1\n      pop\n        /* \"#utility.yul\":11155:11574   */\n      swap2\n      swap1\n      pop\n      jump\t// out\n        /* \"#utility.yul\":11580:11760   */\n    tag_215:\n        /* \"#utility.yul\":11628:11705   */\n      0x4e487b7100000000000000000000000000000000000000000000000000000000\n        /* \"#utility.yul\":11625:11626   */\n      0x00\n        /* \"#utility.yul\":11618:11706   */\n      mstore\n        /* \"#utility.yul\":11725:11729   */\n      0x11\n        /* \"#utility.yul\":11722:11723   */\n      0x04\n        /* \"#utility.yul\":11715:11730   */\n      mstore\n        /* \"#utility.yul\":11749:11753   */\n      0x24\n        /* \"#utility.yul\":11746:11747   */\n      0x00\n        /* \"#utility.yul\":11739:11754   */\n      revert\n        /* \"#utility.yul\":11766:11957   */\n    tag_96:\n        /* \"#utility.yul\":11806:11809   */\n      0x00\n        /* \"#utility.yul\":11825:11845   */\n      tag_329\n        /* \"#utility.yul\":11843:11844   */\n      dup3\n        /* \"#utility.yul\":11825:11845   */\n      tag_188\n      jump\t// in\n    tag_329:\n        /* \"#utility.yul\":11820:11845   */\n      swap2\n      pop\n        /* \"#utility.yul\":11859:11879   */\n      tag_330\n        /* \"#utility.yul\":11877:11878   */\n      dup4\n        /* \"#utility.yul\":11859:11879   */\n      tag_188\n      jump\t// in\n    tag_330:\n        /* \"#utility.yul\":11854:11879   */\n      swap3\n      pop\n        /* \"#utility.yul\":11902:11903   */\n      dup3\n        /* \"#utility.yul\":11899:11900   */\n      dup3\n        /* \"#utility.yul\":11895:11904   */\n      add\n        /* \"#utility.yul\":11888:11904   */\n      swap1\n      pop\n        /* \"#utility.yul\":11923:11926   */\n      dup1\n        /* \"#utility.yul\":11920:11921   */\n      dup3\n        /* \"#utility.yul\":11917:11927   */\n      gt\n        /* \"#utility.yul\":11914:11950   */\n      iszero\n      tag_331\n      jumpi\n        /* \"#utility.yul\":11930:11948   */\n      tag_332\n      tag_215\n      jump\t// in\n    tag_332:\n        /* \"#utility.yul\":11914:11950   */\n    tag_331:\n        /* \"#utility.yul\":11766:11957   */\n      swap3\n      swap2\n      pop\n      pop\n      jump\t// out\n        /* \"#utility.yul\":11963:12373   */\n    tag_109:\n        /* \"#utility.yul\":12003:12010   */\n      0x00\n        /* \"#utility.yul\":12026:12046   */\n      tag_334\n        /* \"#utility.yul\":12044:12045   */\n      dup3\n        /* \"#utility.yul\":12026:12046   */\n      tag_188\n      jump\t// in\n    tag_334:\n        /* \"#utility.yul\":12021:12046   */\n      swap2\n      pop\n        /* \"#utility.yul\":12060:12080   */\n      tag_335\n        /* \"#utility.yul\":12078:12079   */\n      dup4\n        /* \"#utility.yul\":12060:12080   */\n      tag_188\n      jump\t// in\n    tag_335:\n        /* \"#utility.yul\":12055:12080   */\n      swap3\n      pop\n        /* \"#utility.yul\":12115:12116   */\n      dup3\n        /* \"#utility.yul\":12112:12113   */\n      dup3\n        /* \"#utility.yul\":12108:12117   */\n      mul\n        /* \"#utility.yul\":12137:12167   */\n      tag_336\n        /* \"#utility.yul\":12155:12166   */\n      dup2\n        /* \"#utility.yul\":12137:12167   */\n      tag_188\n      jump\t// in\n    tag_336:\n        /* \"#utility.yul\":12126:12167   */\n      swap2\n      pop\n        /* \"#utility.yul\":12316:12317   */\n      dup3\n        /* \"#utility.yul\":12307:12314   */\n      dup3\n        /* \"#utility.yul\":12303:12318   */\n      div\n        /* \"#utility.yul\":12300:12301   */\n      dup5\n        /* \"#utility.yul\":12297:12319   */\n      eq\n        /* \"#utility.yul\":12277:12278   */\n      dup4\n        /* \"#utility.yul\":12270:12279   */\n      iszero\n        /* \"#utility.yul\":12250:12333   */\n      or\n        /* \"#utility.yul\":12227:12366   */\n      tag_337\n      jumpi\n        /* \"#utility.yul\":12346:12364   */\n      tag_338\n      tag_215\n      jump\t// in\n    tag_338:\n        /* \"#utility.yul\":12227:12366   */\n    tag_337:\n        /* \"#utility.yul\":12011:12373   */\n      pop\n        /* \"#utility.yul\":11963:12373   */\n      swap3\n      swap2\n      pop\n      pop\n      jump\t// out\n        /* \"#utility.yul\":12379:12555   */\n    tag_216:\n        /* \"#utility.yul\":12519:12547   */\n      0x546865206d616e6167657220697320616c726561647920736574000000000000\n        /* \"#utility.yul\":12515:12516   */\n      0x00\n        /* \"#utility.yul\":12507:12513   */\n      dup3\n        /* \"#utility.yul\":12503:12517   */\n      add\n        /* \"#utility.yul\":12496:12548   */\n      mstore\n        /* \"#utility.yul\":12379:12555   */\n      pop\n      jump\t// out\n        /* \"#utility.yul\":12561:12927   */\n    tag_217:\n        /* \"#utility.yul\":12703:12706   */\n      0x00\n        /* \"#utility.yul\":12724:12791   */\n      tag_341\n        /* \"#utility.yul\":12788:12790   */\n      0x1a\n        /* \"#utility.yul\":12783:12786   */\n      dup4\n        /* \"#utility.yul\":12724:12791   */\n      tag_192\n      jump\t// in\n    tag_341:\n        /* \"#utility.yul\":12717:12791   */\n      swap2\n      pop\n        /* \"#utility.yul\":12800:12893   */\n      tag_342\n        /* \"#utility.yul\":12889:12892   */\n      dup3\n        /* \"#utility.yul\":12800:12893   */\n      tag_216\n      jump\t// in\n    tag_342:\n        /* \"#utility.yul\":12918:12920   */\n      0x20\n        /* \"#utility.yul\":12913:12916   */\n      dup3\n        /* \"#utility.yul\":12909:12921   */\n      add\n        /* \"#utility.yul\":12902:12921   */\n      swap1\n      pop\n        /* \"#utility.yul\":12561:12927   */\n      swap2\n      swap1\n      pop\n      jump\t// out\n        /* \"#utility.yul\":12933:13352   */\n    tag_116:\n        /* \"#utility.yul\":13099:13103   */\n      0x00\n        /* \"#utility.yul\":13137:13139   */\n      0x20\n        /* \"#utility.yul\":13126:13135   */\n      dup3\n        /* \"#utility.yul\":13122:13140   */\n      add\n        /* \"#utility.yul\":13114:13140   */\n      swap1\n      pop\n        /* \"#utility.yul\":13186:13195   */\n      dup2\n        /* \"#utility.yul\":13180:13184   */\n      dup2\n        /* \"#utility.yul\":13176:13196   */\n      sub\n        /* \"#utility.yul\":13172:13173   */\n      0x00\n        /* \"#utility.yul\":13161:13170   */\n      dup4\n        /* \"#utility.yul\":13157:13174   */\n      add\n        /* \"#utility.yul\":13150:13197   */\n      mstore\n        /* \"#utility.yul\":13214:13345   */\n      tag_344\n        /* \"#utility.yul\":13340:13344   */\n      dup2\n        /* \"#utility.yul\":13214:13345   */\n      tag_217\n      jump\t// in\n    tag_344:\n        /* \"#utility.yul\":13206:13345   */\n      swap1\n      pop\n        /* \"#utility.yul\":12933:13352   */\n      swap2\n      swap1\n      pop\n      jump\t// out\n        /* \"#utility.yul\":13358:13535   */\n    tag_218:\n        /* \"#utility.yul\":13498:13527   */\n      0x4f6e6c79206d616e616765722063616e2063616c6c2074686973210000000000\n        /* \"#utility.yul\":13494:13495   */\n      0x00\n        /* \"#utility.yul\":13486:13492   */\n      dup3\n        /* \"#utility.yul\":13482:13496   */\n      add\n        /* \"#utility.yul\":13475:13528   */\n      mstore\n        /* \"#utility.yul\":13358:13535   */\n      pop\n      jump\t// out\n        /* \"#utility.yul\":13541:13907   */\n    tag_219:\n        /* \"#utility.yul\":13683:13686   */\n      0x00\n        /* \"#utility.yul\":13704:13771   */\n      tag_347\n        /* \"#utility.yul\":13768:13770   */\n      0x1b\n        /* \"#utility.yul\":13763:13766   */\n      dup4\n        /* \"#utility.yul\":13704:13771   */\n      tag_192\n      jump\t// in\n    tag_347:\n        /* \"#utility.yul\":13697:13771   */\n      swap2\n      pop\n        /* \"#utility.yul\":13780:13873   */\n      tag_348\n        /* \"#utility.yul\":13869:13872   */\n      dup3\n        /* \"#utility.yul\":13780:13873   */\n      tag_218\n      jump\t// in\n    tag_348:\n        /* \"#utility.yul\":13898:13900   */\n      0x20\n        /* \"#utility.yul\":13893:13896   */\n      dup3\n        /* \"#utility.yul\":13889:13901   */\n      add\n        /* \"#utility.yul\":13882:13901   */\n      swap1\n      pop\n        /* \"#utility.yul\":13541:13907   */\n      swap2\n      swap1\n      pop\n      jump\t// out\n        /* \"#utility.yul\":13913:14332   */\n    tag_121:\n        /* \"#utility.yul\":14079:14083   */\n      0x00\n        /* \"#utility.yul\":14117:14119   */\n      0x20\n        /* \"#utility.yul\":14106:14115   */\n      dup3\n        /* \"#utility.yul\":14102:14120   */\n      add\n        /* \"#utility.yul\":14094:14120   */\n      swap1\n      pop\n        /* \"#utility.yul\":14166:14175   */\n      dup2\n        /* \"#utility.yul\":14160:14164   */\n      dup2\n        /* \"#utility.yul\":14156:14176   */\n      sub\n        /* \"#utility.yul\":14152:14153   */\n      0x00\n        /* \"#utility.yul\":14141:14150   */\n      dup4\n        /* \"#utility.yul\":14137:14154   */\n      add\n        /* \"#utility.yul\":14130:14177   */\n      mstore\n        /* \"#utility.yul\":14194:14325   */\n      tag_350\n        /* \"#utility.yul\":14320:14324   */\n      dup2\n        /* \"#utility.yul\":14194:14325   */\n      tag_219\n      jump\t// in\n    tag_350:\n        /* \"#utility.yul\":14186:14325   */\n      swap1\n      pop\n        /* \"#utility.yul\":13913:14332   */\n      swap2\n      swap1\n      pop\n      jump\t// out\n        /* \"#utility.yul\":14338:14561   */\n    tag_220:\n        /* \"#utility.yul\":14478:14512   */\n      0x49742773206a757374206265656e206c657373207468616e203130207365636f\n        /* \"#utility.yul\":14474:14475   */\n      0x00\n        /* \"#utility.yul\":14466:14472   */\n      dup3\n        /* \"#utility.yul\":14462:14476   */\n      add\n        /* \"#utility.yul\":14455:14513   */\n      mstore\n        /* \"#utility.yul\":14547:14553   */\n      0x6e64732100000000000000000000000000000000000000000000000000000000\n        /* \"#utility.yul\":14542:14544   */\n      0x20\n        /* \"#utility.yul\":14534:14540   */\n      dup3\n        /* \"#utility.yul\":14530:14545   */\n      add\n        /* \"#utility.yul\":14523:14554   */\n      mstore\n        /* \"#utility.yul\":14338:14561   */\n      pop\n      jump\t// out\n        /* \"#utility.yul\":14567:14933   */\n    tag_221:\n        /* \"#utility.yul\":14709:14712   */\n      0x00\n        /* \"#utility.yul\":14730:14797   */\n      tag_353\n        /* \"#utility.yul\":14794:14796   */\n      0x24\n        /* \"#utility.yul\":14789:14792   */\n      dup4\n        /* \"#utility.yul\":14730:14797   */\n      tag_192\n      jump\t// in\n    tag_353:\n        /* \"#utility.yul\":14723:14797   */\n      swap2\n      pop\n        /* \"#utility.yul\":14806:14899   */\n      tag_354\n        /* \"#utility.yul\":14895:14898   */\n      dup3\n        /* \"#utility.yul\":14806:14899   */\n      tag_220\n      jump\t// in\n    tag_354:\n        /* \"#utility.yul\":14924:14926   */\n      0x40\n        /* \"#utility.yul\":14919:14922   */\n      dup3\n        /* \"#utility.yul\":14915:14927   */\n      add\n        /* \"#utility.yul\":14908:14927   */\n      swap1\n      pop\n        /* \"#utility.yul\":14567:14933   */\n      swap2\n      swap1\n      pop\n      jump\t// out\n        /* \"#utility.yul\":14939:15358   */\n    tag_132:\n        /* \"#utility.yul\":15105:15109   */\n      0x00\n        /* \"#utility.yul\":15143:15145   */\n      0x20\n        /* \"#utility.yul\":15132:15141   */\n      dup3\n        /* \"#utility.yul\":15128:15146   */\n      add\n        /* \"#utility.yul\":15120:15146   */\n      swap1\n      pop\n        /* \"#utility.yul\":15192:15201   */\n      dup2\n        /* \"#utility.yul\":15186:15190   */\n      dup2\n        /* \"#utility.yul\":15182:15202   */\n      sub\n        /* \"#utility.yul\":15178:15179   */\n      0x00\n        /* \"#utility.yul\":15167:15176   */\n      dup4\n        /* \"#utility.yul\":15163:15180   */\n      add\n        /* \"#utility.yul\":15156:15203   */\n      mstore\n        /* \"#utility.yul\":15220:15351   */\n      tag_356\n        /* \"#utility.yul\":15346:15350   */\n      dup2\n        /* \"#utility.yul\":15220:15351   */\n      tag_221\n      jump\t// in\n    tag_356:\n        /* \"#utility.yul\":15212:15351   */\n      swap1\n      pop\n        /* \"#utility.yul\":14939:15358   */\n      swap2\n      swap1\n      pop\n      jump\t// out\n        /* \"#utility.yul\":15364:15595   */\n    tag_139:\n        /* \"#utility.yul\":15402:15405   */\n      0x00\n        /* \"#utility.yul\":15425:15448   */\n      tag_358\n        /* \"#utility.yul\":15442:15447   */\n      dup3\n        /* \"#utility.yul\":15425:15448   */\n      tag_203\n      jump\t// in\n    tag_358:\n        /* \"#utility.yul\":15416:15448   */\n      swap2\n      pop\n        /* \"#utility.yul\":15470:15536   */\n      0x7fffffffffffffffffffffffffffffffffffffffffffffffffffffffffffffff\n        /* \"#utility.yul\":15463:15468   */\n      dup3\n        /* \"#utility.yul\":15460:15537   */\n      sub\n        /* \"#utility.yul\":15457:15560   */\n      tag_359\n      jumpi\n        /* \"#utility.yul\":15540:15558   */\n      tag_360\n      tag_215\n      jump\t// in\n    tag_360:\n        /* \"#utility.yul\":15457:15560   */\n    tag_359:\n        /* \"#utility.yul\":15587:15588   */\n      0x01\n        /* \"#utility.yul\":15580:15585   */\n      dup3\n        /* \"#utility.yul\":15576:15589   */\n      add\n        /* \"#utility.yul\":15569:15589   */\n      swap1\n      pop\n        /* \"#utility.yul\":15364:15595   */\n      swap2\n      swap1\n      pop\n      jump\t// out\n        /* \"#utility.yul\":15601:15771   */\n    tag_222:\n        /* \"#utility.yul\":15741:15763   */\n      0x5468697320464420646f65736e74206578697374000000000000000000000000\n        /* \"#utility.yul\":15737:15738   */\n      0x00\n        /* \"#utility.yul\":15729:15735   */\n      dup3\n        /* \"#utility.yul\":15725:15739   */\n      add\n        /* \"#utility.yul\":15718:15764   */\n      mstore\n        /* \"#utility.yul\":15601:15771   */\n      pop\n      jump\t// out\n        /* \"#utility.yul\":15777:16143   */\n    tag_223:\n        /* \"#utility.yul\":15919:15922   */\n      0x00\n        /* \"#utility.yul\":15940:16007   */\n      tag_363\n        /* \"#utility.yul\":16004:16006   */\n      0x14\n        /* \"#utility.yul\":15999:16002   */\n      dup4\n        /* \"#utility.yul\":15940:16007   */\n      tag_192\n      jump\t// in\n    tag_363:\n        /* \"#utility.yul\":15933:16007   */\n      swap2\n      pop\n        /* \"#utility.yul\":16016:16109   */\n      tag_364\n        /* \"#utility.yul\":16105:16108   */\n      dup3\n        /* \"#utility.yul\":16016:16109   */\n      tag_222\n      jump\t// in\n    tag_364:\n        /* \"#utility.yul\":16134:16136   */\n      0x20\n        /* \"#utility.yul\":16129:16132   */\n      dup3\n        /* \"#utility.yul\":16125:16137   */\n      add\n        /* \"#utility.yul\":16118:16137   */\n      swap1\n      pop\n        /* \"#utility.yul\":15777:16143   */\n      swap2\n      swap1\n      pop\n      jump\t// out\n        /* \"#utility.yul\":16149:16568   */\n    tag_174:\n        /* \"#utility.yul\":16315:16319   */\n      0x00\n        /* \"#utility.yul\":16353:16355   */\n      0x20\n        /* \"#utility.yul\":16342:16351   */\n      dup3\n        /* \"#utility.yul\":16338:16356   */\n      add\n        /* \"#utility.yul\":16330:16356   */\n      swap1\n      pop\n        /* \"#utility.yul\":16402:16411   */\n      dup2\n        /* \"#utility.yul\":16396:16400   */\n      dup2\n        /* \"#utility.yul\":16392:16412   */\n      sub\n        /* \"#utility.yul\":16388:16389   */\n      0x00\n        /* \"#utility.yul\":16377:16386   */\n      dup4\n        /* \"#utility.yul\":16373:16390   */\n      add\n        /* \"#utility.yul\":16366:16413   */\n      mstore\n        /* \"#utility.yul\":16430:16561   */\n      tag_366\n        /* \"#utility.yul\":16556:16560   */\n      dup2\n        /* \"#utility.yul\":16430:16561   */\n      tag_223\n      jump\t// in\n    tag_366:\n        /* \"#utility.yul\":16422:16561   */\n      swap1\n      pop\n        /* \"#utility.yul\":16149:16568   */\n      swap2\n      swap1\n      pop\n      jump\t// out\n        /* \"#utility.yul\":16574:16754   */\n    tag_224:\n        /* \"#utility.yul\":16622:16699   */\n      0x4e487b7100000000000000000000000000000000000000000000000000000000\n        /* \"#utility.yul\":16619:16620   */\n      0x00\n        /* \"#utility.yul\":16612:16700   */\n      mstore\n        /* \"#utility.yul\":16719:16723   */\n      0x12\n        /* \"#utility.yul\":16716:16717   */\n      0x04\n        /* \"#utility.yul\":16709:16724   */\n      mstore\n        /* \"#utility.yul\":16743:16747   */\n      0x24\n        /* \"#utility.yul\":16740:16741   */\n      0x00\n        /* \"#utility.yul\":16733:16748   */\n      revert\n        /* \"#utility.yul\":16760:16945   */\n    tag_178:\n        /* \"#utility.yul\":16800:16801   */\n      0x00\n        /* \"#utility.yul\":16817:16837   */\n      tag_369\n        /* \"#utility.yul\":16835:16836   */\n      dup3\n        /* \"#utility.yul\":16817:16837   */\n      tag_188\n      jump\t// in\n    tag_369:\n        /* \"#utility.yul\":16812:16837   */\n      swap2\n      pop\n        /* \"#utility.yul\":16851:16871   */\n      tag_370\n        /* \"#utility.yul\":16869:16870   */\n      dup4\n        /* \"#utility.yul\":16851:16871   */\n      tag_188\n      jump\t// in\n    tag_370:\n        /* \"#utility.yul\":16846:16871   */\n      swap3\n      pop\n        /* \"#utility.yul\":16890:16891   */\n      dup3\n        /* \"#utility.yul\":16880:16915   */\n      tag_371\n      jumpi\n        /* \"#utility.yul\":16895:16913   */\n      tag_372\n      tag_224\n      jump\t// in\n    tag_372:\n        /* \"#utility.yul\":16880:16915   */\n    tag_371:\n        /* \"#utility.yul\":16937:16938   */\n      dup3\n        /* \"#utility.yul\":16934:16935   */\n      dup3\n        /* \"#utility.yul\":16930:16939   */\n      div\n        /* \"#utility.yul\":16925:16939   */\n      swap1\n      pop\n        /* \"#utility.yul\":16760:16945   */\n      swap3\n      swap2\n      pop\n      pop\n      jump\t// out\n\n    auxdata: 0xa2646970667358221220c27f50e2549078cc69491d38ed482a7f75b24f4bf18b33f31c56a84295a2ffb964736f6c634300081e0033\n}\n",
				"bytecode": {
					"linkReferences": {},
					"object": "60806040525f60065f6101000a81548160ff0219169083151502179055503480156027575f5ffd5b505f600181905550611ad58061003c5f395ff3fe6080604052600436106100aa575f3560e01c8063a409217411610063578063a40921741461019f578063b247334d146101bd578063d0e30db0146101ed578063d507b6f7146101f7578063d93330fd14610227578063d9dca6c514610265576100b1565b80631dfec85f146100b55780632e1a7d4d146100e55780636f9fb98a1461010157806373b4086b1461012b5780638d2581041461016b5780639e0a5d6814610195576100b1565b366100b157005b5f5ffd5b6100cf60048036038101906100ca919061129d565b6102a1565b6040516100dc919061134b565b60405180910390f35b6100ff60048036038101906100fa919061136b565b6105a8565b005b34801561010c575f5ffd5b506101156106e3565b60405161012291906113a5565b60405180910390f35b348015610136575f5ffd5b50610151600480360381019061014c9190611418565b6106ea565b60405161016295949392919061145d565b60405180910390f35b348015610176575f5ffd5b5061017f610728565b60405161018c919061134b565b60405180910390f35b61019d610813565b005b6101a7610a28565b6040516101b49190611524565b60405180910390f35b6101d760048036038101906101d2919061129d565b610b5b565b6040516101e4919061157d565b60405180910390f35b6101f5610d39565b005b610211600480360381019061020c9190611596565b610e60565b60405161021e91906113a5565b60405180910390f35b348015610232575f5ffd5b5061024d60048036038101906102489190611418565b6111d9565b60405161025c939291906115d4565b60405180910390f35b348015610270575f5ffd5b5061028b60048036038101906102869190611418565b6111ff565b60405161029891906113a5565b60405180910390f35b60605f5f90505f5f90505b5f80549050811015610342573373ffffffffffffffffffffffffffffffffffffffff165f82815481106102e2576102e1611609565b5b905f5260205f2090600302016001015f9054906101000a900473ffffffffffffffffffffffffffffffffffffffff1673ffffffffffffffffffffffffffffffffffffffff16036103355760019150610342565b80806001019150506102ac565b5080610383576040517f08c379a000000000000000000000000000000000000000000000000000000000815260040161037a90611680565b60405180910390fd5b835f60045f3373ffffffffffffffffffffffffffffffffffffffff1673ffffffffffffffffffffffffffffffffffffffff1681526020019081526020015f205f01549050818114610409576040517f08c379a0000000000000000000000000000000000000000000000000000000008152600401610400906116e8565b60405180910390fd5b5f60045f3373ffffffffffffffffffffffffffffffffffffffff1673ffffffffffffffffffffffffffffffffffffffff1681526020019081526020015f206001015490505f8111801561045b57504281105b61049a576040517f08c379a000000000000000000000000000000000000000000000000000000000815260040161049190611776565b60405180910390fd5b5f600590505f60045f3373ffffffffffffffffffffffffffffffffffffffff1673ffffffffffffffffffffffffffffffffffffffff1681526020019081526020015f205f0154905060405180606001604052808a836104f991906117c1565b81526020018981526020018381525060045f3373ffffffffffffffffffffffffffffffffffffffff1673ffffffffffffffffffffffffffffffffffffffff1681526020019081526020015f205f820151815f015560208201518160010155604082015181600201559050506040518060400160405280601781526020017f4669786564204465706f73697465642055706461746564000000000000000000815250965050505050505092915050565b5f5f90505f5f90505b5f80549050811015610647573373ffffffffffffffffffffffffffffffffffffffff165f82815481106105e7576105e6611609565b5b905f5260205f2090600302016001015f9054906101000a900473ffffffffffffffffffffffffffffffffffffffff1673ffffffffffffffffffffffffffffffffffffffff160361063a5760019150610647565b80806001019150506105b1565b5080610688576040517f08c379a000000000000000000000000000000000000000000000000000000000815260040161067f90611680565b60405180910390fd5b3373ffffffffffffffffffffffffffffffffffffffff166108fc670de0b6b3a7640000846106b691906117f4565b90811502906040515f60405180830381858888f193505050501580156106de573d5f5f3e3d5ffd5b505050565b5f47905090565b6005602052805f5260405f205f91509050805f015490806001015490806002015490806003015490806004015f9054906101000a900460ff16905085565b60605f151560065f9054906101000a900460ff1615151461077e576040517f08c379a00000000000000000000000000000000000000000000000000000000081526004016107759061187f565b60405180910390fd5b600160065f6101000a81548160ff0219169083151502179055503360025f6101000a81548173ffffffffffffffffffffffffffffffffffffffff021916908373ffffffffffffffffffffffffffffffffffffffff1602179055506040518060400160405280601781526020017f546865206d616e61676572206973206e6f772073657421000000000000000000815250905090565b60025f9054906101000a900473ffffffffffffffffffffffffffffffffffffffff1673ffffffffffffffffffffffffffffffffffffffff163373ffffffffffffffffffffffffffffffffffffffff16146108a2576040517f08c379a0000000000000000000000000000000000000000000000000000000008152600401610899906118e7565b60405180910390fd5b5f5f90505b5f80549050811015610a25575f5f82815481106108c7576108c6611609565b5b905f5260205f2090600302016001015f9054906101000a900473ffffffffffffffffffffffffffffffffffffffff1690505f60035f8373ffffffffffffffffffffffffffffffffffffffff1673ffffffffffffffffffffffffffffffffffffffff1681526020019081526020015f20549050600a8161094691906117c1565b421015610988576040517f08c379a000000000000000000000000000000000000000000000000000000000815260040161097f90611975565b60405180910390fd5b8173ffffffffffffffffffffffffffffffffffffffff166108fc670de0b6b3a764000090811502906040515f60405180830381858888f193505050501580156109d3573d5f5f3e3d5ffd5b504260035f8473ffffffffffffffffffffffffffffffffffffffff1673ffffffffffffffffffffffffffffffffffffffff1681526020019081526020015f2081905550505080806001019150506108a7565b50565b610a30611214565b4260035f3373ffffffffffffffffffffffffffffffffffffffff1673ffffffffffffffffffffffffffffffffffffffff1681526020019081526020015f20819055505f604051806060016040528060015f815480929190610a9090611993565b9190505581526020013373ffffffffffffffffffffffffffffffffffffffff1681526020013373ffffffffffffffffffffffffffffffffffffffff163181525090505f81908060018154018082558091505060019003905f5260205f2090600302015f909190919091505f820151815f01556020820151816001015f6101000a81548173ffffffffffffffffffffffffffffffffffffffff021916908373ffffffffffffffffffffffffffffffffffffffff1602179055506040820151816002015550508091505090565b610b63611248565b5f5f90505f5f90505b5f80549050811015610c02573373ffffffffffffffffffffffffffffffffffffffff165f8281548110610ba257610ba1611609565b5b905f5260205f2090600302016001015f9054906101000a900473ffffffffffffffffffffffffffffffffffffffff1673ffffffffffffffffffffffffffffffffffffffff1603610bf55760019150610c02565b8080600101915050610b6c565b5080610c43576040517f08c379a0000000000000000000000000000000000000000000000000000000008152600401610c3a90611680565b60405180910390fd5b5f6005905060405180606001604052808681526020014286610c6591906117c1565b81526020018281525060045f3373ffffffffffffffffffffffffffffffffffffffff1673ffffffffffffffffffffffffffffffffffffffff1681526020019081526020015f205f820151815f0155602082015181600101556040820151816002015590505060045f3373ffffffffffffffffffffffffffffffffffffffff1673ffffffffffffffffffffffffffffffffffffffff1681526020019081526020015f206040518060600160405290815f8201548152602001600182015481526020016002820154815250509250505092915050565b5f5f90505f5f90505b5f80549050811015610dd8573373ffffffffffffffffffffffffffffffffffffffff165f8281548110610d7857610d77611609565b5b905f5260205f2090600302016001015f9054906101000a900473ffffffffffffffffffffffffffffffffffffffff1673ffffffffffffffffffffffffffffffffffffffff1603610dcb5760019150610dd8565b8080600101915050610d42565b5080610e19576040517f08c379a0000000000000000000000000000000000000000000000000000000008152600401610e1090611680565b60405180910390fd5b3073ffffffffffffffffffffffffffffffffffffffff166108fc3490811502906040515f60405180830381858888f19350505050158015610e5c573d5f5f3e3d5ffd5b5050565b5f60025f9054906101000a900473ffffffffffffffffffffffffffffffffffffffff1673ffffffffffffffffffffffffffffffffffffffff163373ffffffffffffffffffffffffffffffffffffffff1614610ef0576040517f08c379a0000000000000000000000000000000000000000000000000000000008152600401610ee7906118e7565b60405180910390fd5b825f60045f8373ffffffffffffffffffffffffffffffffffffffff1673ffffffffffffffffffffffffffffffffffffffff1681526020019081526020015f205f015490505f8111610f76576040517f08c379a0000000000000000000000000000000000000000000000000000000008152600401610f6d90611a24565b60405180910390fd5b5f60045f8773ffffffffffffffffffffffffffffffffffffffff1673ffffffffffffffffffffffffffffffffffffffff1681526020019081526020015f206040518060600160405290815f82015481526020016001820154815260200160028201548152505090505f600a90505f60055f8973ffffffffffffffffffffffffffffffffffffffff1673ffffffffffffffffffffffffffffffffffffffff1681526020019081526020015f205f015490505f835f015190505f60055f8b73ffffffffffffffffffffffffffffffffffffffff1673ffffffffffffffffffffffffffffffffffffffff1681526020019081526020015f206002015490506064848361107f91906117f4565b6110899190611a6f565b8261109491906117c1565b8161109f91906117c1565b90506040518060a0016040528084846110b891906117c1565b81526020018581526020018281526020018a81526020016001151581525060055f8c73ffffffffffffffffffffffffffffffffffffffff1673ffffffffffffffffffffffffffffffffffffffff1681526020019081526020015f205f820151815f01556020820151816001015560408201518160020155606082015181600301556080820151816004015f6101000a81548160ff0219169083151502179055509050508973ffffffffffffffffffffffffffffffffffffffff166108fc8390811502906040515f60405180830381858888f1935050505015801561119e573d5f5f3e3d5ffd5b50670de0b6b3a76400003373ffffffffffffffffffffffffffffffffffffffff16316111ca91906117f4565b97505050505050505092915050565b6004602052805f5260405f205f91509050805f0154908060010154908060020154905083565b6003602052805f5260405f205f915090505481565b60405180606001604052805f81526020015f73ffffffffffffffffffffffffffffffffffffffff1681526020015f81525090565b60405180606001604052805f81526020015f81526020015f81525090565b5f5ffd5b5f819050919050565b61127c8161126a565b8114611286575f5ffd5b50565b5f8135905061129781611273565b92915050565b5f5f604083850312156112b3576112b2611266565b5b5f6112c085828601611289565b92505060206112d185828601611289565b9150509250929050565b5f81519050919050565b5f82825260208201905092915050565b8281835e5f83830152505050565b5f601f19601f8301169050919050565b5f61131d826112db565b61132781856112e5565b93506113378185602086016112f5565b61134081611303565b840191505092915050565b5f6020820190508181035f8301526113638184611313565b905092915050565b5f602082840312156113805761137f611266565b5b5f61138d84828501611289565b91505092915050565b61139f8161126a565b82525050565b5f6020820190506113b85f830184611396565b92915050565b5f73ffffffffffffffffffffffffffffffffffffffff82169050919050565b5f6113e7826113be565b9050919050565b6113f7816113dd565b8114611401575f5ffd5b50565b5f81359050611412816113ee565b92915050565b5f6020828403121561142d5761142c611266565b5b5f61143a84828501611404565b91505092915050565b5f8115159050919050565b61145781611443565b82525050565b5f60a0820190506114705f830188611396565b61147d6020830187611396565b61148a6040830186611396565b6114976060830185611396565b6114a4608083018461144e565b9695505050505050565b5f819050919050565b6114c0816114ae565b82525050565b6114cf816113dd565b82525050565b6114de8161126a565b82525050565b606082015f8201516114f85f8501826114b7565b50602082015161150b60208501826114c6565b50604082015161151e60408501826114d5565b50505050565b5f6060820190506115375f8301846114e4565b92915050565b606082015f8201516115515f8501826114d5565b50602082015161156460208501826114d5565b50604082015161157760408501826114d5565b50505050565b5f6060820190506115905f83018461153d565b92915050565b5f5f604083850312156115ac576115ab611266565b5b5f6115b985828601611404565b92505060206115ca85828601611289565b9150509250929050565b5f6060820190506115e75f830186611396565b6115f46020830185611396565b6116016040830184611396565b949350505050565b7f4e487b71000000000000000000000000000000000000000000000000000000005f52603260045260245ffd5b7f4f6e6c7920636c69656e74732063616e2063616c6c20746869732100000000005f82015250565b5f61166a601b836112e5565b915061167582611636565b602082019050919050565b5f6020820190508181035f8301526116978161165e565b9050919050565b7f416d6f756e742073656e7420746f204644206973206e6f7420657861637400005f82015250565b5f6116d2601e836112e5565b91506116dd8261169e565b602082019050919050565b5f6020820190508181035f8301526116ff816116c6565b9050919050565b7f4c6f636b20706572696f642069736e74206f7665722079657420736f20796f755f8201527f206e65656420746f207761697400000000000000000000000000000000000000602082015250565b5f611760602d836112e5565b915061176b82611706565b604082019050919050565b5f6020820190508181035f83015261178d81611754565b9050919050565b7f4e487b71000000000000000000000000000000000000000000000000000000005f52601160045260245ffd5b5f6117cb8261126a565b91506117d68361126a565b92508282019050808211156117ee576117ed611794565b5b92915050565b5f6117fe8261126a565b91506118098361126a565b92508282026118178161126a565b9150828204841483151761182e5761182d611794565b5b5092915050565b7f546865206d616e6167657220697320616c7265616479207365740000000000005f82015250565b5f611869601a836112e5565b915061187482611835565b602082019050919050565b5f6020820190508181035f8301526118968161185d565b9050919050565b7f4f6e6c79206d616e616765722063616e2063616c6c20746869732100000000005f82015250565b5f6118d1601b836112e5565b91506118dc8261189d565b602082019050919050565b5f6020820190508181035f8301526118fe816118c5565b9050919050565b7f49742773206a757374206265656e206c657373207468616e203130207365636f5f8201527f6e64732100000000000000000000000000000000000000000000000000000000602082015250565b5f61195f6024836112e5565b915061196a82611905565b604082019050919050565b5f6020820190508181035f83015261198c81611953565b9050919050565b5f61199d826114ae565b91507f7fffffffffffffffffffffffffffffffffffffffffffffffffffffffffffffff82036119cf576119ce611794565b5b600182019050919050565b7f5468697320464420646f65736e742065786973740000000000000000000000005f82015250565b5f611a0e6014836112e5565b9150611a19826119da565b602082019050919050565b5f6020820190508181035f830152611a3b81611a02565b9050919050565b7f4e487b71000000000000000000000000000000000000000000000000000000005f52601260045260245ffd5b5f611a798261126a565b9150611a848361126a565b925082611a9457611a93611a42565b5b82820490509291505056fea2646970667358221220c27f50e2549078cc69491d38ed482a7f75b24f4bf18b33f31c56a84295a2ffb964736f6c634300081e0033",
					"opcodes": "PUSH1 0x80 PUSH1 0x40 MSTORE PUSH0 PUSH1 0x6 PUSH0 PUSH2 0x100 EXP DUP2 SLOAD DUP2 PUSH1 0xFF MUL NOT AND SWAP1 DUP4 ISZERO ISZERO MUL OR SWAP1 SSTORE POP CALLVALUE DUP1 ISZERO PUSH1 0x27 JUMPI PUSH0 PUSH0 REVERT JUMPDEST POP PUSH0 PUSH1 0x1 DUP2 SWAP1 SSTORE POP PUSH2 0x1AD5 DUP1 PUSH2 0x3C PUSH0 CODECOPY PUSH0 RETURN INVALID PUSH1 0x80 PUSH1 0x40 MSTORE PUSH1 0x4 CALLDATASIZE LT PUSH2 0xAA JUMPI PUSH0 CALLDATALOAD PUSH1 0xE0 SHR DUP1 PUSH4 0xA4092174 GT PUSH2 0x63 JUMPI DUP1 PUSH4 0xA4092174 EQ PUSH2 0x19F JUMPI DUP1 PUSH4 0xB247334D EQ PUSH2 0x1BD JUMPI DUP1 PUSH4 0xD0E30DB0 EQ PUSH2 0x1ED JUMPI DUP1 PUSH4 0xD507B6F7 EQ PUSH2 0x1F7 JUMPI DUP1 PUSH4 0xD93330FD EQ PUSH2 0x227 JUMPI DUP1 PUSH4 0xD9DCA6C5 EQ PUSH2 0x265 JUMPI PUSH2 0xB1 JUMP JUMPDEST DUP1 PUSH4 0x1DFEC85F EQ PUSH2 0xB5 JUMPI DUP1 PUSH4 0x2E1A7D4D EQ PUSH2 0xE5 JUMPI DUP1 PUSH4 0x6F9FB98A EQ PUSH2 0x101 JUMPI DUP1 PUSH4 0x73B4086B EQ PUSH2 0x12B JUMPI DUP1 PUSH4 0x8D258104 EQ PUSH2 0x16B JUMPI DUP1 PUSH4 0x9E0A5D68 EQ PUSH2 0x195 JUMPI PUSH2 0xB1 JUMP JUMPDEST CALLDATASIZE PUSH2 0xB1 JUMPI STOP JUMPDEST PUSH0 PUSH0 REVERT JUMPDEST PUSH2 0xCF PUSH1 0x4 DUP1 CALLDATASIZE SUB DUP2 ADD SWAP1 PUSH2 0xCA SWAP2 SWAP1 PUSH2 0x129D JUMP JUMPDEST PUSH2 0x2A1 JUMP JUMPDEST PUSH1 0x40 MLOAD PUSH2 0xDC SWAP2 SWAP1 PUSH2 0x134B JUMP JUMPDEST PUSH1 0x40 MLOAD DUP1 SWAP2 SUB SWAP1 RETURN JUMPDEST PUSH2 0xFF PUSH1 0x4 DUP1 CALLDATASIZE SUB DUP2 ADD SWAP1 PUSH2 0xFA SWAP2 SWAP1 PUSH2 0x136B JUMP JUMPDEST PUSH2 0x5A8 JUMP JUMPDEST STOP JUMPDEST CALLVALUE DUP1 ISZERO PUSH2 0x10C JUMPI PUSH0 PUSH0 REVERT JUMPDEST POP PUSH2 0x115 PUSH2 0x6E3 JUMP JUMPDEST PUSH1 0x40 MLOAD PUSH2 0x122 SWAP2 SWAP1 PUSH2 0x13A5 JUMP JUMPDEST PUSH1 0x40 MLOAD DUP1 SWAP2 SUB SWAP1 RETURN JUMPDEST CALLVALUE DUP1 ISZERO PUSH2 0x136 JUMPI PUSH0 PUSH0 REVERT JUMPDEST POP PUSH2 0x151 PUSH1 0x4 DUP1 CALLDATASIZE SUB DUP2 ADD SWAP1 PUSH2 0x14C SWAP2 SWAP1 PUSH2 0x1418 JUMP JUMPDEST PUSH2 0x6EA JUMP JUMPDEST PUSH1 0x40 MLOAD PUSH2 0x162 SWAP6 SWAP5 SWAP4 SWAP3 SWAP2 SWAP1 PUSH2 0x145D JUMP JUMPDEST PUSH1 0x40 MLOAD DUP1 SWAP2 SUB SWAP1 RETURN JUMPDEST CALLVALUE DUP1 ISZERO PUSH2 0x176 JUMPI PUSH0 PUSH0 REVERT JUMPDEST POP PUSH2 0x17F PUSH2 0x728 JUMP JUMPDEST PUSH1 0x40 MLOAD PUSH2 0x18C SWAP2 SWAP1 PUSH2 0x134B JUMP JUMPDEST PUSH1 0x40 MLOAD DUP1 SWAP2 SUB SWAP1 RETURN JUMPDEST PUSH2 0x19D PUSH2 0x813 JUMP JUMPDEST STOP JUMPDEST PUSH2 0x1A7 PUSH2 0xA28 JUMP JUMPDEST PUSH1 0x40 MLOAD PUSH2 0x1B4 SWAP2 SWAP1 PUSH2 0x1524 JUMP JUMPDEST PUSH1 0x40 MLOAD DUP1 SWAP2 SUB SWAP1 RETURN JUMPDEST PUSH2 0x1D7 PUSH1 0x4 DUP1 CALLDATASIZE SUB DUP2 ADD SWAP1 PUSH2 0x1D2 SWAP2 SWAP1 PUSH2 0x129D JUMP JUMPDEST PUSH2 0xB5B JUMP JUMPDEST PUSH1 0x40 MLOAD PUSH2 0x1E4 SWAP2 SWAP1 PUSH2 0x157D JUMP JUMPDEST PUSH1 0x40 MLOAD DUP1 SWAP2 SUB SWAP1 RETURN JUMPDEST PUSH2 0x1F5 PUSH2 0xD39 JUMP JUMPDEST STOP JUMPDEST PUSH2 0x211 PUSH1 0x4 DUP1 CALLDATASIZE SUB DUP2 ADD SWAP1 PUSH2 0x20C SWAP2 SWAP1 PUSH2 0x1596 JUMP JUMPDEST PUSH2 0xE60 JUMP JUMPDEST PUSH1 0x40 MLOAD PUSH2 0x21E SWAP2 SWAP1 PUSH2 0x13A5 JUMP JUMPDEST PUSH1 0x40 MLOAD DUP1 SWAP2 SUB SWAP1 RETURN JUMPDEST CALLVALUE DUP1 ISZERO PUSH2 0x232 JUMPI PUSH0 PUSH0 REVERT JUMPDEST POP PUSH2 0x24D PUSH1 0x4 DUP1 CALLDATASIZE SUB DUP2 ADD SWAP1 PUSH2 0x248 SWAP2 SWAP1 PUSH2 0x1418 JUMP JUMPDEST PUSH2 0x11D9 JUMP JUMPDEST PUSH1 0x40 MLOAD PUSH2 0x25C SWAP4 SWAP3 SWAP2 SWAP1 PUSH2 0x15D4 JUMP JUMPDEST PUSH1 0x40 MLOAD DUP1 SWAP2 SUB SWAP1 RETURN JUMPDEST CALLVALUE DUP1 ISZERO PUSH2 0x270 JUMPI PUSH0 PUSH0 REVERT JUMPDEST POP PUSH2 0x28B PUSH1 0x4 DUP1 CALLDATASIZE SUB DUP2 ADD SWAP1 PUSH2 0x286 SWAP2 SWAP1 PUSH2 0x1418 JUMP JUMPDEST PUSH2 0x11FF JUMP JUMPDEST PUSH1 0x40 MLOAD PUSH2 0x298 SWAP2 SWAP1 PUSH2 0x13A5 JUMP JUMPDEST PUSH1 0x40 MLOAD DUP1 SWAP2 SUB SWAP1 RETURN JUMPDEST PUSH1 0x60 PUSH0 PUSH0 SWAP1 POP PUSH0 PUSH0 SWAP1 POP JUMPDEST PUSH0 DUP1 SLOAD SWAP1 POP DUP2 LT ISZERO PUSH2 0x342 JUMPI CALLER PUSH20 0xFFFFFFFFFFFFFFFFFFFFFFFFFFFFFFFFFFFFFFFF AND PUSH0 DUP3 DUP2 SLOAD DUP2 LT PUSH2 0x2E2 JUMPI PUSH2 0x2E1 PUSH2 0x1609 JUMP JUMPDEST JUMPDEST SWAP1 PUSH0 MSTORE PUSH1 0x20 PUSH0 KECCAK256 SWAP1 PUSH1 0x3 MUL ADD PUSH1 0x1 ADD PUSH0 SWAP1 SLOAD SWAP1 PUSH2 0x100 EXP SWAP1 DIV PUSH20 0xFFFFFFFFFFFFFFFFFFFFFFFFFFFFFFFFFFFFFFFF AND PUSH20 0xFFFFFFFFFFFFFFFFFFFFFFFFFFFFFFFFFFFFFFFF AND SUB PUSH2 0x335 JUMPI PUSH1 0x1 SWAP2 POP PUSH2 0x342 JUMP JUMPDEST DUP1 DUP1 PUSH1 0x1 ADD SWAP2 POP POP PUSH2 0x2AC JUMP JUMPDEST POP DUP1 PUSH2 0x383 JUMPI PUSH1 0x40 MLOAD PUSH32 0x8C379A000000000000000000000000000000000000000000000000000000000 DUP2 MSTORE PUSH1 0x4 ADD PUSH2 0x37A SWAP1 PUSH2 0x1680 JUMP JUMPDEST PUSH1 0x40 MLOAD DUP1 SWAP2 SUB SWAP1 REVERT JUMPDEST DUP4 PUSH0 PUSH1 0x4 PUSH0 CALLER PUSH20 0xFFFFFFFFFFFFFFFFFFFFFFFFFFFFFFFFFFFFFFFF AND PUSH20 0xFFFFFFFFFFFFFFFFFFFFFFFFFFFFFFFFFFFFFFFF AND DUP2 MSTORE PUSH1 0x20 ADD SWAP1 DUP2 MSTORE PUSH1 0x20 ADD PUSH0 KECCAK256 PUSH0 ADD SLOAD SWAP1 POP DUP2 DUP2 EQ PUSH2 0x409 JUMPI PUSH1 0x40 MLOAD PUSH32 0x8C379A000000000000000000000000000000000000000000000000000000000 DUP2 MSTORE PUSH1 0x4 ADD PUSH2 0x400 SWAP1 PUSH2 0x16E8 JUMP JUMPDEST PUSH1 0x40 MLOAD DUP1 SWAP2 SUB SWAP1 REVERT JUMPDEST PUSH0 PUSH1 0x4 PUSH0 CALLER PUSH20 0xFFFFFFFFFFFFFFFFFFFFFFFFFFFFFFFFFFFFFFFF AND PUSH20 0xFFFFFFFFFFFFFFFFFFFFFFFFFFFFFFFFFFFFFFFF AND DUP2 MSTORE PUSH1 0x20 ADD SWAP1 DUP2 MSTORE PUSH1 0x20 ADD PUSH0 KECCAK256 PUSH1 0x1 ADD SLOAD SWAP1 POP PUSH0 DUP2 GT DUP1 ISZERO PUSH2 0x45B JUMPI POP TIMESTAMP DUP2 LT JUMPDEST PUSH2 0x49A JUMPI PUSH1 0x40 MLOAD PUSH32 0x8C379A000000000000000000000000000000000000000000000000000000000 DUP2 MSTORE PUSH1 0x4 ADD PUSH2 0x491 SWAP1 PUSH2 0x1776 JUMP JUMPDEST PUSH1 0x40 MLOAD DUP1 SWAP2 SUB SWAP1 REVERT JUMPDEST PUSH0 PUSH1 0x5 SWAP1 POP PUSH0 PUSH1 0x4 PUSH0 CALLER PUSH20 0xFFFFFFFFFFFFFFFFFFFFFFFFFFFFFFFFFFFFFFFF AND PUSH20 0xFFFFFFFFFFFFFFFFFFFFFFFFFFFFFFFFFFFFFFFF AND DUP2 MSTORE PUSH1 0x20 ADD SWAP1 DUP2 MSTORE PUSH1 0x20 ADD PUSH0 KECCAK256 PUSH0 ADD SLOAD SWAP1 POP PUSH1 0x40 MLOAD DUP1 PUSH1 0x60 ADD PUSH1 0x40 MSTORE DUP1 DUP11 DUP4 PUSH2 0x4F9 SWAP2 SWAP1 PUSH2 0x17C1 JUMP JUMPDEST DUP2 MSTORE PUSH1 0x20 ADD DUP10 DUP2 MSTORE PUSH1 0x20 ADD DUP4 DUP2 MSTORE POP PUSH1 0x4 PUSH0 CALLER PUSH20 0xFFFFFFFFFFFFFFFFFFFFFFFFFFFFFFFFFFFFFFFF AND PUSH20 0xFFFFFFFFFFFFFFFFFFFFFFFFFFFFFFFFFFFFFFFF AND DUP2 MSTORE PUSH1 0x20 ADD SWAP1 DUP2 MSTORE PUSH1 0x20 ADD PUSH0 KECCAK256 PUSH0 DUP3 ADD MLOAD DUP2 PUSH0 ADD SSTORE PUSH1 0x20 DUP3 ADD MLOAD DUP2 PUSH1 0x1 ADD SSTORE PUSH1 0x40 DUP3 ADD MLOAD DUP2 PUSH1 0x2 ADD SSTORE SWAP1 POP POP PUSH1 0x40 MLOAD DUP1 PUSH1 0x40 ADD PUSH1 0x40 MSTORE DUP1 PUSH1 0x17 DUP2 MSTORE PUSH1 0x20 ADD PUSH32 0x4669786564204465706F73697465642055706461746564000000000000000000 DUP2 MSTORE POP SWAP7 POP POP POP POP POP POP POP SWAP3 SWAP2 POP POP JUMP JUMPDEST PUSH0 PUSH0 SWAP1 POP PUSH0 PUSH0 SWAP1 POP JUMPDEST PUSH0 DUP1 SLOAD SWAP1 POP DUP2 LT ISZERO PUSH2 0x647 JUMPI CALLER PUSH20 0xFFFFFFFFFFFFFFFFFFFFFFFFFFFFFFFFFFFFFFFF AND PUSH0 DUP3 DUP2 SLOAD DUP2 LT PUSH2 0x5E7 JUMPI PUSH2 0x5E6 PUSH2 0x1609 JUMP JUMPDEST JUMPDEST SWAP1 PUSH0 MSTORE PUSH1 0x20 PUSH0 KECCAK256 SWAP1 PUSH1 0x3 MUL ADD PUSH1 0x1 ADD PUSH0 SWAP1 SLOAD SWAP1 PUSH2 0x100 EXP SWAP1 DIV PUSH20 0xFFFFFFFFFFFFFFFFFFFFFFFFFFFFFFFFFFFFFFFF AND PUSH20 0xFFFFFFFFFFFFFFFFFFFFFFFFFFFFFFFFFFFFFFFF AND SUB PUSH2 0x63A JUMPI PUSH1 0x1 SWAP2 POP PUSH2 0x647 JUMP JUMPDEST DUP1 DUP1 PUSH1 0x1 ADD SWAP2 POP POP PUSH2 0x5B1 JUMP JUMPDEST POP DUP1 PUSH2 0x688 JUMPI PUSH1 0x40 MLOAD PUSH32 0x8C379A000000000000000000000000000000000000000000000000000000000 DUP2 MSTORE PUSH1 0x4 ADD PUSH2 0x67F SWAP1 PUSH2 0x1680 JUMP JUMPDEST PUSH1 0x40 MLOAD DUP1 SWAP2 SUB SWAP1 REVERT JUMPDEST CALLER PUSH20 0xFFFFFFFFFFFFFFFFFFFFFFFFFFFFFFFFFFFFFFFF AND PUSH2 0x8FC PUSH8 0xDE0B6B3A7640000 DUP5 PUSH2 0x6B6 SWAP2 SWAP1 PUSH2 0x17F4 JUMP JUMPDEST SWAP1 DUP2 ISZERO MUL SWAP1 PUSH1 0x40 MLOAD PUSH0 PUSH1 0x40 MLOAD DUP1 DUP4 SUB DUP2 DUP6 DUP9 DUP9 CALL SWAP4 POP POP POP POP ISZERO DUP1 ISZERO PUSH2 0x6DE JUMPI RETURNDATASIZE PUSH0 PUSH0 RETURNDATACOPY RETURNDATASIZE PUSH0 REVERT JUMPDEST POP POP POP JUMP JUMPDEST PUSH0 SELFBALANCE SWAP1 POP SWAP1 JUMP JUMPDEST PUSH1 0x5 PUSH1 0x20 MSTORE DUP1 PUSH0 MSTORE PUSH1 0x40 PUSH0 KECCAK256 PUSH0 SWAP2 POP SWAP1 POP DUP1 PUSH0 ADD SLOAD SWAP1 DUP1 PUSH1 0x1 ADD SLOAD SWAP1 DUP1 PUSH1 0x2 ADD SLOAD SWAP1 DUP1 PUSH1 0x3 ADD SLOAD SWAP1 DUP1 PUSH1 0x4 ADD PUSH0 SWAP1 SLOAD SWAP1 PUSH2 0x100 EXP SWAP1 DIV PUSH1 0xFF AND SWAP1 POP DUP6 JUMP JUMPDEST PUSH1 0x60 PUSH0 ISZERO ISZERO PUSH1 0x6 PUSH0 SWAP1 SLOAD SWAP1 PUSH2 0x100 EXP SWAP1 DIV PUSH1 0xFF AND ISZERO ISZERO EQ PUSH2 0x77E JUMPI PUSH1 0x40 MLOAD PUSH32 0x8C379A000000000000000000000000000000000000000000000000000000000 DUP2 MSTORE PUSH1 0x4 ADD PUSH2 0x775 SWAP1 PUSH2 0x187F JUMP JUMPDEST PUSH1 0x40 MLOAD DUP1 SWAP2 SUB SWAP1 REVERT JUMPDEST PUSH1 0x1 PUSH1 0x6 PUSH0 PUSH2 0x100 EXP DUP2 SLOAD DUP2 PUSH1 0xFF MUL NOT AND SWAP1 DUP4 ISZERO ISZERO MUL OR SWAP1 SSTORE POP CALLER PUSH1 0x2 PUSH0 PUSH2 0x100 EXP DUP2 SLOAD DUP2 PUSH20 0xFFFFFFFFFFFFFFFFFFFFFFFFFFFFFFFFFFFFFFFF MUL NOT AND SWAP1 DUP4 PUSH20 0xFFFFFFFFFFFFFFFFFFFFFFFFFFFFFFFFFFFFFFFF AND MUL OR SWAP1 SSTORE POP PUSH1 0x40 MLOAD DUP1 PUSH1 0x40 ADD PUSH1 0x40 MSTORE DUP1 PUSH1 0x17 DUP2 MSTORE PUSH1 0x20 ADD PUSH32 0x546865206D616E61676572206973206E6F772073657421000000000000000000 DUP2 MSTORE POP SWAP1 POP SWAP1 JUMP JUMPDEST PUSH1 0x2 PUSH0 SWAP1 SLOAD SWAP1 PUSH2 0x100 EXP SWAP1 DIV PUSH20 0xFFFFFFFFFFFFFFFFFFFFFFFFFFFFFFFFFFFFFFFF AND PUSH20 0xFFFFFFFFFFFFFFFFFFFFFFFFFFFFFFFFFFFFFFFF AND CALLER PUSH20 0xFFFFFFFFFFFFFFFFFFFFFFFFFFFFFFFFFFFFFFFF AND EQ PUSH2 0x8A2 JUMPI PUSH1 0x40 MLOAD PUSH32 0x8C379A000000000000000000000000000000000000000000000000000000000 DUP2 MSTORE PUSH1 0x4 ADD PUSH2 0x899 SWAP1 PUSH2 0x18E7 JUMP JUMPDEST PUSH1 0x40 MLOAD DUP1 SWAP2 SUB SWAP1 REVERT JUMPDEST PUSH0 PUSH0 SWAP1 POP JUMPDEST PUSH0 DUP1 SLOAD SWAP1 POP DUP2 LT ISZERO PUSH2 0xA25 JUMPI PUSH0 PUSH0 DUP3 DUP2 SLOAD DUP2 LT PUSH2 0x8C7 JUMPI PUSH2 0x8C6 PUSH2 0x1609 JUMP JUMPDEST JUMPDEST SWAP1 PUSH0 MSTORE PUSH1 0x20 PUSH0 KECCAK256 SWAP1 PUSH1 0x3 MUL ADD PUSH1 0x1 ADD PUSH0 SWAP1 SLOAD SWAP1 PUSH2 0x100 EXP SWAP1 DIV PUSH20 0xFFFFFFFFFFFFFFFFFFFFFFFFFFFFFFFFFFFFFFFF AND SWAP1 POP PUSH0 PUSH1 0x3 PUSH0 DUP4 PUSH20 0xFFFFFFFFFFFFFFFFFFFFFFFFFFFFFFFFFFFFFFFF AND PUSH20 0xFFFFFFFFFFFFFFFFFFFFFFFFFFFFFFFFFFFFFFFF AND DUP2 MSTORE PUSH1 0x20 ADD SWAP1 DUP2 MSTORE PUSH1 0x20 ADD PUSH0 KECCAK256 SLOAD SWAP1 POP PUSH1 0xA DUP2 PUSH2 0x946 SWAP2 SWAP1 PUSH2 0x17C1 JUMP JUMPDEST TIMESTAMP LT ISZERO PUSH2 0x988 JUMPI PUSH1 0x40 MLOAD PUSH32 0x8C379A000000000000000000000000000000000000000000000000000000000 DUP2 MSTORE PUSH1 0x4 ADD PUSH2 0x97F SWAP1 PUSH2 0x1975 JUMP JUMPDEST PUSH1 0x40 MLOAD DUP1 SWAP2 SUB SWAP1 REVERT JUMPDEST DUP2 PUSH20 0xFFFFFFFFFFFFFFFFFFFFFFFFFFFFFFFFFFFFFFFF AND PUSH2 0x8FC PUSH8 0xDE0B6B3A7640000 SWAP1 DUP2 ISZERO MUL SWAP1 PUSH1 0x40 MLOAD PUSH0 PUSH1 0x40 MLOAD DUP1 DUP4 SUB DUP2 DUP6 DUP9 DUP9 CALL SWAP4 POP POP POP POP ISZERO DUP1 ISZERO PUSH2 0x9D3 JUMPI RETURNDATASIZE PUSH0 PUSH0 RETURNDATACOPY RETURNDATASIZE PUSH0 REVERT JUMPDEST POP TIMESTAMP PUSH1 0x3 PUSH0 DUP5 PUSH20 0xFFFFFFFFFFFFFFFFFFFFFFFFFFFFFFFFFFFFFFFF AND PUSH20 0xFFFFFFFFFFFFFFFFFFFFFFFFFFFFFFFFFFFFFFFF AND DUP2 MSTORE PUSH1 0x20 ADD SWAP1 DUP2 MSTORE PUSH1 0x20 ADD PUSH0 KECCAK256 DUP2 SWAP1 SSTORE POP POP POP DUP1 DUP1 PUSH1 0x1 ADD SWAP2 POP POP PUSH2 0x8A7 JUMP JUMPDEST POP JUMP JUMPDEST PUSH2 0xA30 PUSH2 0x1214 JUMP JUMPDEST TIMESTAMP PUSH1 0x3 PUSH0 CALLER PUSH20 0xFFFFFFFFFFFFFFFFFFFFFFFFFFFFFFFFFFFFFFFF AND PUSH20 0xFFFFFFFFFFFFFFFFFFFFFFFFFFFFFFFFFFFFFFFF AND DUP2 MSTORE PUSH1 0x20 ADD SWAP1 DUP2 MSTORE PUSH1 0x20 ADD PUSH0 KECCAK256 DUP2 SWAP1 SSTORE POP PUSH0 PUSH1 0x40 MLOAD DUP1 PUSH1 0x60 ADD PUSH1 0x40 MSTORE DUP1 PUSH1 0x1 PUSH0 DUP2 SLOAD DUP1 SWAP3 SWAP2 SWAP1 PUSH2 0xA90 SWAP1 PUSH2 0x1993 JUMP JUMPDEST SWAP2 SWAP1 POP SSTORE DUP2 MSTORE PUSH1 0x20 ADD CALLER PUSH20 0xFFFFFFFFFFFFFFFFFFFFFFFFFFFFFFFFFFFFFFFF AND DUP2 MSTORE PUSH1 0x20 ADD CALLER PUSH20 0xFFFFFFFFFFFFFFFFFFFFFFFFFFFFFFFFFFFFFFFF AND BALANCE DUP2 MSTORE POP SWAP1 POP PUSH0 DUP2 SWAP1 DUP1 PUSH1 0x1 DUP2 SLOAD ADD DUP1 DUP3 SSTORE DUP1 SWAP2 POP POP PUSH1 0x1 SWAP1 SUB SWAP1 PUSH0 MSTORE PUSH1 0x20 PUSH0 KECCAK256 SWAP1 PUSH1 0x3 MUL ADD PUSH0 SWAP1 SWAP2 SWAP1 SWAP2 SWAP1 SWAP2 POP PUSH0 DUP3 ADD MLOAD DUP2 PUSH0 ADD SSTORE PUSH1 0x20 DUP3 ADD MLOAD DUP2 PUSH1 0x1 ADD PUSH0 PUSH2 0x100 EXP DUP2 SLOAD DUP2 PUSH20 0xFFFFFFFFFFFFFFFFFFFFFFFFFFFFFFFFFFFFFFFF MUL NOT AND SWAP1 DUP4 PUSH20 0xFFFFFFFFFFFFFFFFFFFFFFFFFFFFFFFFFFFFFFFF AND MUL OR SWAP1 SSTORE POP PUSH1 0x40 DUP3 ADD MLOAD DUP2 PUSH1 0x2 ADD SSTORE POP POP DUP1 SWAP2 POP POP SWAP1 JUMP JUMPDEST PUSH2 0xB63 PUSH2 0x1248 JUMP JUMPDEST PUSH0 PUSH0 SWAP1 POP PUSH0 PUSH0 SWAP1 POP JUMPDEST PUSH0 DUP1 SLOAD SWAP1 POP DUP2 LT ISZERO PUSH2 0xC02 JUMPI CALLER PUSH20 0xFFFFFFFFFFFFFFFFFFFFFFFFFFFFFFFFFFFFFFFF AND PUSH0 DUP3 DUP2 SLOAD DUP2 LT PUSH2 0xBA2 JUMPI PUSH2 0xBA1 PUSH2 0x1609 JUMP JUMPDEST JUMPDEST SWAP1 PUSH0 MSTORE PUSH1 0x20 PUSH0 KECCAK256 SWAP1 PUSH1 0x3 MUL ADD PUSH1 0x1 ADD PUSH0 SWAP1 SLOAD SWAP1 PUSH2 0x100 EXP SWAP1 DIV PUSH20 0xFFFFFFFFFFFFFFFFFFFFFFFFFFFFFFFFFFFFFFFF AND PUSH20 0xFFFFFFFFFFFFFFFFFFFFFFFFFFFFFFFFFFFFFFFF AND SUB PUSH2 0xBF5 JUMPI PUSH1 0x1 SWAP2 POP PUSH2 0xC02 JUMP JUMPDEST DUP1 DUP1 PUSH1 0x1 ADD SWAP2 POP POP PUSH2 0xB6C JUMP JUMPDEST POP DUP1 PUSH2 0xC43 JUMPI PUSH1 0x40 MLOAD PUSH32 0x8C379A000000000000000000000000000000000000000000000000000000000 DUP2 MSTORE PUSH1 0x4 ADD PUSH2 0xC3A SWAP1 PUSH2 0x1680 JUMP JUMPDEST PUSH1 0x40 MLOAD DUP1 SWAP2 SUB SWAP1 REVERT JUMPDEST PUSH0 PUSH1 0x5 SWAP1 POP PUSH1 0x40 MLOAD DUP1 PUSH1 0x60 ADD PUSH1 0x40 MSTORE DUP1 DUP7 DUP2 MSTORE PUSH1 0x20 ADD TIMESTAMP DUP7 PUSH2 0xC65 SWAP2 SWAP1 PUSH2 0x17C1 JUMP JUMPDEST DUP2 MSTORE PUSH1 0x20 ADD DUP3 DUP2 MSTORE POP PUSH1 0x4 PUSH0 CALLER PUSH20 0xFFFFFFFFFFFFFFFFFFFFFFFFFFFFFFFFFFFFFFFF AND PUSH20 0xFFFFFFFFFFFFFFFFFFFFFFFFFFFFFFFFFFFFFFFF AND DUP2 MSTORE PUSH1 0x20 ADD SWAP1 DUP2 MSTORE PUSH1 0x20 ADD PUSH0 KECCAK256 PUSH0 DUP3 ADD MLOAD DUP2 PUSH0 ADD SSTORE PUSH1 0x20 DUP3 ADD MLOAD DUP2 PUSH1 0x1 ADD SSTORE PUSH1 0x40 DUP3 ADD MLOAD DUP2 PUSH1 0x2 ADD SSTORE SWAP1 POP POP PUSH1 0x4 PUSH0 CALLER PUSH20 0xFFFFFFFFFFFFFFFFFFFFFFFFFFFFFFFFFFFFFFFF AND PUSH20 0xFFFFFFFFFFFFFFFFFFFFFFFFFFFFFFFFFFFFFFFF AND DUP2 MSTORE PUSH1 0x20 ADD SWAP1 DUP2 MSTORE PUSH1 0x20 ADD PUSH0 KECCAK256 PUSH1 0x40 MLOAD DUP1 PUSH1 0x60 ADD PUSH1 0x40 MSTORE SWAP1 DUP2 PUSH0 DUP3 ADD SLOAD DUP2 MSTORE PUSH1 0x20 ADD PUSH1 0x1 DUP3 ADD SLOAD DUP2 MSTORE PUSH1 0x20 ADD PUSH1 0x2 DUP3 ADD SLOAD DUP2 MSTORE POP POP SWAP3 POP POP POP SWAP3 SWAP2 POP POP JUMP JUMPDEST PUSH0 PUSH0 SWAP1 POP PUSH0 PUSH0 SWAP1 POP JUMPDEST PUSH0 DUP1 SLOAD SWAP1 POP DUP2 LT ISZERO PUSH2 0xDD8 JUMPI CALLER PUSH20 0xFFFFFFFFFFFFFFFFFFFFFFFFFFFFFFFFFFFFFFFF AND PUSH0 DUP3 DUP2 SLOAD DUP2 LT PUSH2 0xD78 JUMPI PUSH2 0xD77 PUSH2 0x1609 JUMP JUMPDEST JUMPDEST SWAP1 PUSH0 MSTORE PUSH1 0x20 PUSH0 KECCAK256 SWAP1 PUSH1 0x3 MUL ADD PUSH1 0x1 ADD PUSH0 SWAP1 SLOAD SWAP1 PUSH2 0x100 EXP SWAP1 DIV PUSH20 0xFFFFFFFFFFFFFFFFFFFFFFFFFFFFFFFFFFFFFFFF AND PUSH20 0xFFFFFFFFFFFFFFFFFFFFFFFFFFFFFFFFFFFFFFFF AND SUB PUSH2 0xDCB JUMPI PUSH1 0x1 SWAP2 POP PUSH2 0xDD8 JUMP JUMPDEST DUP1 DUP1 PUSH1 0x1 ADD SWAP2 POP POP PUSH2 0xD42 JUMP JUMPDEST POP DUP1 PUSH2 0xE19 JUMPI PUSH1 0x40 MLOAD PUSH32 0x8C379A000000000000000000000000000000000000000000000000000000000 DUP2 MSTORE PUSH1 0x4 ADD PUSH2 0xE10 SWAP1 PUSH2 0x1680 JUMP JUMPDEST PUSH1 0x40 MLOAD DUP1 SWAP2 SUB SWAP1 REVERT JUMPDEST ADDRESS PUSH20 0xFFFFFFFFFFFFFFFFFFFFFFFFFFFFFFFFFFFFFFFF AND PUSH2 0x8FC CALLVALUE SWAP1 DUP2 ISZERO MUL SWAP1 PUSH1 0x40 MLOAD PUSH0 PUSH1 0x40 MLOAD DUP1 DUP4 SUB DUP2 DUP6 DUP9 DUP9 CALL SWAP4 POP POP POP POP ISZERO DUP1 ISZERO PUSH2 0xE5C JUMPI RETURNDATASIZE PUSH0 PUSH0 RETURNDATACOPY RETURNDATASIZE PUSH0 REVERT JUMPDEST POP POP JUMP JUMPDEST PUSH0 PUSH1 0x2 PUSH0 SWAP1 SLOAD SWAP1 PUSH2 0x100 EXP SWAP1 DIV PUSH20 0xFFFFFFFFFFFFFFFFFFFFFFFFFFFFFFFFFFFFFFFF AND PUSH20 0xFFFFFFFFFFFFFFFFFFFFFFFFFFFFFFFFFFFFFFFF AND CALLER PUSH20 0xFFFFFFFFFFFFFFFFFFFFFFFFFFFFFFFFFFFFFFFF AND EQ PUSH2 0xEF0 JUMPI PUSH1 0x40 MLOAD PUSH32 0x8C379A000000000000000000000000000000000000000000000000000000000 DUP2 MSTORE PUSH1 0x4 ADD PUSH2 0xEE7 SWAP1 PUSH2 0x18E7 JUMP JUMPDEST PUSH1 0x40 MLOAD DUP1 SWAP2 SUB SWAP1 REVERT JUMPDEST DUP3 PUSH0 PUSH1 0x4 PUSH0 DUP4 PUSH20 0xFFFFFFFFFFFFFFFFFFFFFFFFFFFFFFFFFFFFFFFF AND PUSH20 0xFFFFFFFFFFFFFFFFFFFFFFFFFFFFFFFFFFFFFFFF AND DUP2 MSTORE PUSH1 0x20 ADD SWAP1 DUP2 MSTORE PUSH1 0x20 ADD PUSH0 KECCAK256 PUSH0 ADD SLOAD SWAP1 POP PUSH0 DUP2 GT PUSH2 0xF76 JUMPI PUSH1 0x40 MLOAD PUSH32 0x8C379A000000000000000000000000000000000000000000000000000000000 DUP2 MSTORE PUSH1 0x4 ADD PUSH2 0xF6D SWAP1 PUSH2 0x1A24 JUMP JUMPDEST PUSH1 0x40 MLOAD DUP1 SWAP2 SUB SWAP1 REVERT JUMPDEST PUSH0 PUSH1 0x4 PUSH0 DUP8 PUSH20 0xFFFFFFFFFFFFFFFFFFFFFFFFFFFFFFFFFFFFFFFF AND PUSH20 0xFFFFFFFFFFFFFFFFFFFFFFFFFFFFFFFFFFFFFFFF AND DUP2 MSTORE PUSH1 0x20 ADD SWAP1 DUP2 MSTORE PUSH1 0x20 ADD PUSH0 KECCAK256 PUSH1 0x40 MLOAD DUP1 PUSH1 0x60 ADD PUSH1 0x40 MSTORE SWAP1 DUP2 PUSH0 DUP3 ADD SLOAD DUP2 MSTORE PUSH1 0x20 ADD PUSH1 0x1 DUP3 ADD SLOAD DUP2 MSTORE PUSH1 0x20 ADD PUSH1 0x2 DUP3 ADD SLOAD DUP2 MSTORE POP POP SWAP1 POP PUSH0 PUSH1 0xA SWAP1 POP PUSH0 PUSH1 0x5 PUSH0 DUP10 PUSH20 0xFFFFFFFFFFFFFFFFFFFFFFFFFFFFFFFFFFFFFFFF AND PUSH20 0xFFFFFFFFFFFFFFFFFFFFFFFFFFFFFFFFFFFFFFFF AND DUP2 MSTORE PUSH1 0x20 ADD SWAP1 DUP2 MSTORE PUSH1 0x20 ADD PUSH0 KECCAK256 PUSH0 ADD SLOAD SWAP1 POP PUSH0 DUP4 PUSH0 ADD MLOAD SWAP1 POP PUSH0 PUSH1 0x5 PUSH0 DUP12 PUSH20 0xFFFFFFFFFFFFFFFFFFFFFFFFFFFFFFFFFFFFFFFF AND PUSH20 0xFFFFFFFFFFFFFFFFFFFFFFFFFFFFFFFFFFFFFFFF AND DUP2 MSTORE PUSH1 0x20 ADD SWAP1 DUP2 MSTORE PUSH1 0x20 ADD PUSH0 KECCAK256 PUSH1 0x2 ADD SLOAD SWAP1 POP PUSH1 0x64 DUP5 DUP4 PUSH2 0x107F SWAP2 SWAP1 PUSH2 0x17F4 JUMP JUMPDEST PUSH2 0x1089 SWAP2 SWAP1 PUSH2 0x1A6F JUMP JUMPDEST DUP3 PUSH2 0x1094 SWAP2 SWAP1 PUSH2 0x17C1 JUMP JUMPDEST DUP2 PUSH2 0x109F SWAP2 SWAP1 PUSH2 0x17C1 JUMP JUMPDEST SWAP1 POP PUSH1 0x40 MLOAD DUP1 PUSH1 0xA0 ADD PUSH1 0x40 MSTORE DUP1 DUP5 DUP5 PUSH2 0x10B8 SWAP2 SWAP1 PUSH2 0x17C1 JUMP JUMPDEST DUP2 MSTORE PUSH1 0x20 ADD DUP6 DUP2 MSTORE PUSH1 0x20 ADD DUP3 DUP2 MSTORE PUSH1 0x20 ADD DUP11 DUP2 MSTORE PUSH1 0x20 ADD PUSH1 0x1 ISZERO ISZERO DUP2 MSTORE POP PUSH1 0x5 PUSH0 DUP13 PUSH20 0xFFFFFFFFFFFFFFFFFFFFFFFFFFFFFFFFFFFFFFFF AND PUSH20 0xFFFFFFFFFFFFFFFFFFFFFFFFFFFFFFFFFFFFFFFF AND DUP2 MSTORE PUSH1 0x20 ADD SWAP1 DUP2 MSTORE PUSH1 0x20 ADD PUSH0 KECCAK256 PUSH0 DUP3 ADD MLOAD DUP2 PUSH0 ADD SSTORE PUSH1 0x20 DUP3 ADD MLOAD DUP2 PUSH1 0x1 ADD SSTORE PUSH1 0x40 DUP3 ADD MLOAD DUP2 PUSH1 0x2 ADD SSTORE PUSH1 0x60 DUP3 ADD MLOAD DUP2 PUSH1 0x3 ADD SSTORE PUSH1 0x80 DUP3 ADD MLOAD DUP2 PUSH1 0x4 ADD PUSH0 PUSH2 0x100 EXP DUP2 SLOAD DUP2 PUSH1 0xFF MUL NOT AND SWAP1 DUP4 ISZERO ISZERO MUL OR SWAP1 SSTORE POP SWAP1 POP POP DUP10 PUSH20 0xFFFFFFFFFFFFFFFFFFFFFFFFFFFFFFFFFFFFFFFF AND PUSH2 0x8FC DUP4 SWAP1 DUP2 ISZERO MUL SWAP1 PUSH1 0x40 MLOAD PUSH0 PUSH1 0x40 MLOAD DUP1 DUP4 SUB DUP2 DUP6 DUP9 DUP9 CALL SWAP4 POP POP POP POP ISZERO DUP1 ISZERO PUSH2 0x119E JUMPI RETURNDATASIZE PUSH0 PUSH0 RETURNDATACOPY RETURNDATASIZE PUSH0 REVERT JUMPDEST POP PUSH8 0xDE0B6B3A7640000 CALLER PUSH20 0xFFFFFFFFFFFFFFFFFFFFFFFFFFFFFFFFFFFFFFFF AND BALANCE PUSH2 0x11CA SWAP2 SWAP1 PUSH2 0x17F4 JUMP JUMPDEST SWAP8 POP POP POP POP POP POP POP POP SWAP3 SWAP2 POP POP JUMP JUMPDEST PUSH1 0x4 PUSH1 0x20 MSTORE DUP1 PUSH0 MSTORE PUSH1 0x40 PUSH0 KECCAK256 PUSH0 SWAP2 POP SWAP1 POP DUP1 PUSH0 ADD SLOAD SWAP1 DUP1 PUSH1 0x1 ADD SLOAD SWAP1 DUP1 PUSH1 0x2 ADD SLOAD SWAP1 POP DUP4 JUMP JUMPDEST PUSH1 0x3 PUSH1 0x20 MSTORE DUP1 PUSH0 MSTORE PUSH1 0x40 PUSH0 KECCAK256 PUSH0 SWAP2 POP SWAP1 POP SLOAD DUP2 JUMP JUMPDEST PUSH1 0x40 MLOAD DUP1 PUSH1 0x60 ADD PUSH1 0x40 MSTORE DUP1 PUSH0 DUP2 MSTORE PUSH1 0x20 ADD PUSH0 PUSH20 0xFFFFFFFFFFFFFFFFFFFFFFFFFFFFFFFFFFFFFFFF AND DUP2 MSTORE PUSH1 0x20 ADD PUSH0 DUP2 MSTORE POP SWAP1 JUMP JUMPDEST PUSH1 0x40 MLOAD DUP1 PUSH1 0x60 ADD PUSH1 0x40 MSTORE DUP1 PUSH0 DUP2 MSTORE PUSH1 0x20 ADD PUSH0 DUP2 MSTORE PUSH1 0x20 ADD PUSH0 DUP2 MSTORE POP SWAP1 JUMP JUMPDEST PUSH0 PUSH0 REVERT JUMPDEST PUSH0 DUP2 SWAP1 POP SWAP2 SWAP1 POP JUMP JUMPDEST PUSH2 0x127C DUP2 PUSH2 0x126A JUMP JUMPDEST DUP2 EQ PUSH2 0x1286 JUMPI PUSH0 PUSH0 REVERT JUMPDEST POP JUMP JUMPDEST PUSH0 DUP2 CALLDATALOAD SWAP1 POP PUSH2 0x1297 DUP2 PUSH2 0x1273 JUMP JUMPDEST SWAP3 SWAP2 POP POP JUMP JUMPDEST PUSH0 PUSH0 PUSH1 0x40 DUP4 DUP6 SUB SLT ISZERO PUSH2 0x12B3 JUMPI PUSH2 0x12B2 PUSH2 0x1266 JUMP JUMPDEST JUMPDEST PUSH0 PUSH2 0x12C0 DUP6 DUP3 DUP7 ADD PUSH2 0x1289 JUMP JUMPDEST SWAP3 POP POP PUSH1 0x20 PUSH2 0x12D1 DUP6 DUP3 DUP7 ADD PUSH2 0x1289 JUMP JUMPDEST SWAP2 POP POP SWAP3 POP SWAP3 SWAP1 POP JUMP JUMPDEST PUSH0 DUP2 MLOAD SWAP1 POP SWAP2 SWAP1 POP JUMP JUMPDEST PUSH0 DUP3 DUP3 MSTORE PUSH1 0x20 DUP3 ADD SWAP1 POP SWAP3 SWAP2 POP POP JUMP JUMPDEST DUP3 DUP2 DUP4 MCOPY PUSH0 DUP4 DUP4 ADD MSTORE POP POP POP JUMP JUMPDEST PUSH0 PUSH1 0x1F NOT PUSH1 0x1F DUP4 ADD AND SWAP1 POP SWAP2 SWAP1 POP JUMP JUMPDEST PUSH0 PUSH2 0x131D DUP3 PUSH2 0x12DB JUMP JUMPDEST PUSH2 0x1327 DUP2 DUP6 PUSH2 0x12E5 JUMP JUMPDEST SWAP4 POP PUSH2 0x1337 DUP2 DUP6 PUSH1 0x20 DUP7 ADD PUSH2 0x12F5 JUMP JUMPDEST PUSH2 0x1340 DUP2 PUSH2 0x1303 JUMP JUMPDEST DUP5 ADD SWAP2 POP POP SWAP3 SWAP2 POP POP JUMP JUMPDEST PUSH0 PUSH1 0x20 DUP3 ADD SWAP1 POP DUP2 DUP2 SUB PUSH0 DUP4 ADD MSTORE PUSH2 0x1363 DUP2 DUP5 PUSH2 0x1313 JUMP JUMPDEST SWAP1 POP SWAP3 SWAP2 POP POP JUMP JUMPDEST PUSH0 PUSH1 0x20 DUP3 DUP5 SUB SLT ISZERO PUSH2 0x1380 JUMPI PUSH2 0x137F PUSH2 0x1266 JUMP JUMPDEST JUMPDEST PUSH0 PUSH2 0x138D DUP5 DUP3 DUP6 ADD PUSH2 0x1289 JUMP JUMPDEST SWAP2 POP POP SWAP3 SWAP2 POP POP JUMP JUMPDEST PUSH2 0x139F DUP2 PUSH2 0x126A JUMP JUMPDEST DUP3 MSTORE POP POP JUMP JUMPDEST PUSH0 PUSH1 0x20 DUP3 ADD SWAP1 POP PUSH2 0x13B8 PUSH0 DUP4 ADD DUP5 PUSH2 0x1396 JUMP JUMPDEST SWAP3 SWAP2 POP POP JUMP JUMPDEST PUSH0 PUSH20 0xFFFFFFFFFFFFFFFFFFFFFFFFFFFFFFFFFFFFFFFF DUP3 AND SWAP1 POP SWAP2 SWAP1 POP JUMP JUMPDEST PUSH0 PUSH2 0x13E7 DUP3 PUSH2 0x13BE JUMP JUMPDEST SWAP1 POP SWAP2 SWAP1 POP JUMP JUMPDEST PUSH2 0x13F7 DUP2 PUSH2 0x13DD JUMP JUMPDEST DUP2 EQ PUSH2 0x1401 JUMPI PUSH0 PUSH0 REVERT JUMPDEST POP JUMP JUMPDEST PUSH0 DUP2 CALLDATALOAD SWAP1 POP PUSH2 0x1412 DUP2 PUSH2 0x13EE JUMP JUMPDEST SWAP3 SWAP2 POP POP JUMP JUMPDEST PUSH0 PUSH1 0x20 DUP3 DUP5 SUB SLT ISZERO PUSH2 0x142D JUMPI PUSH2 0x142C PUSH2 0x1266 JUMP JUMPDEST JUMPDEST PUSH0 PUSH2 0x143A DUP5 DUP3 DUP6 ADD PUSH2 0x1404 JUMP JUMPDEST SWAP2 POP POP SWAP3 SWAP2 POP POP JUMP JUMPDEST PUSH0 DUP2 ISZERO ISZERO SWAP1 POP SWAP2 SWAP1 POP JUMP JUMPDEST PUSH2 0x1457 DUP2 PUSH2 0x1443 JUMP JUMPDEST DUP3 MSTORE POP POP JUMP JUMPDEST PUSH0 PUSH1 0xA0 DUP3 ADD SWAP1 POP PUSH2 0x1470 PUSH0 DUP4 ADD DUP9 PUSH2 0x1396 JUMP JUMPDEST PUSH2 0x147D PUSH1 0x20 DUP4 ADD DUP8 PUSH2 0x1396 JUMP JUMPDEST PUSH2 0x148A PUSH1 0x40 DUP4 ADD DUP7 PUSH2 0x1396 JUMP JUMPDEST PUSH2 0x1497 PUSH1 0x60 DUP4 ADD DUP6 PUSH2 0x1396 JUMP JUMPDEST PUSH2 0x14A4 PUSH1 0x80 DUP4 ADD DUP5 PUSH2 0x144E JUMP JUMPDEST SWAP7 SWAP6 POP POP POP POP POP POP JUMP JUMPDEST PUSH0 DUP2 SWAP1 POP SWAP2 SWAP1 POP JUMP JUMPDEST PUSH2 0x14C0 DUP2 PUSH2 0x14AE JUMP JUMPDEST DUP3 MSTORE POP POP JUMP JUMPDEST PUSH2 0x14CF DUP2 PUSH2 0x13DD JUMP JUMPDEST DUP3 MSTORE POP POP JUMP JUMPDEST PUSH2 0x14DE DUP2 PUSH2 0x126A JUMP JUMPDEST DUP3 MSTORE POP POP JUMP JUMPDEST PUSH1 0x60 DUP3 ADD PUSH0 DUP3 ADD MLOAD PUSH2 0x14F8 PUSH0 DUP6 ADD DUP3 PUSH2 0x14B7 JUMP JUMPDEST POP PUSH1 0x20 DUP3 ADD MLOAD PUSH2 0x150B PUSH1 0x20 DUP6 ADD DUP3 PUSH2 0x14C6 JUMP JUMPDEST POP PUSH1 0x40 DUP3 ADD MLOAD PUSH2 0x151E PUSH1 0x40 DUP6 ADD DUP3 PUSH2 0x14D5 JUMP JUMPDEST POP POP POP POP JUMP JUMPDEST PUSH0 PUSH1 0x60 DUP3 ADD SWAP1 POP PUSH2 0x1537 PUSH0 DUP4 ADD DUP5 PUSH2 0x14E4 JUMP JUMPDEST SWAP3 SWAP2 POP POP JUMP JUMPDEST PUSH1 0x60 DUP3 ADD PUSH0 DUP3 ADD MLOAD PUSH2 0x1551 PUSH0 DUP6 ADD DUP3 PUSH2 0x14D5 JUMP JUMPDEST POP PUSH1 0x20 DUP3 ADD MLOAD PUSH2 0x1564 PUSH1 0x20 DUP6 ADD DUP3 PUSH2 0x14D5 JUMP JUMPDEST POP PUSH1 0x40 DUP3 ADD MLOAD PUSH2 0x1577 PUSH1 0x40 DUP6 ADD DUP3 PUSH2 0x14D5 JUMP JUMPDEST POP POP POP POP JUMP JUMPDEST PUSH0 PUSH1 0x60 DUP3 ADD SWAP1 POP PUSH2 0x1590 PUSH0 DUP4 ADD DUP5 PUSH2 0x153D JUMP JUMPDEST SWAP3 SWAP2 POP POP JUMP JUMPDEST PUSH0 PUSH0 PUSH1 0x40 DUP4 DUP6 SUB SLT ISZERO PUSH2 0x15AC JUMPI PUSH2 0x15AB PUSH2 0x1266 JUMP JUMPDEST JUMPDEST PUSH0 PUSH2 0x15B9 DUP6 DUP3 DUP7 ADD PUSH2 0x1404 JUMP JUMPDEST SWAP3 POP POP PUSH1 0x20 PUSH2 0x15CA DUP6 DUP3 DUP7 ADD PUSH2 0x1289 JUMP JUMPDEST SWAP2 POP POP SWAP3 POP SWAP3 SWAP1 POP JUMP JUMPDEST PUSH0 PUSH1 0x60 DUP3 ADD SWAP1 POP PUSH2 0x15E7 PUSH0 DUP4 ADD DUP7 PUSH2 0x1396 JUMP JUMPDEST PUSH2 0x15F4 PUSH1 0x20 DUP4 ADD DUP6 PUSH2 0x1396 JUMP JUMPDEST PUSH2 0x1601 PUSH1 0x40 DUP4 ADD DUP5 PUSH2 0x1396 JUMP JUMPDEST SWAP5 SWAP4 POP POP POP POP JUMP JUMPDEST PUSH32 0x4E487B7100000000000000000000000000000000000000000000000000000000 PUSH0 MSTORE PUSH1 0x32 PUSH1 0x4 MSTORE PUSH1 0x24 PUSH0 REVERT JUMPDEST PUSH32 0x4F6E6C7920636C69656E74732063616E2063616C6C2074686973210000000000 PUSH0 DUP3 ADD MSTORE POP JUMP JUMPDEST PUSH0 PUSH2 0x166A PUSH1 0x1B DUP4 PUSH2 0x12E5 JUMP JUMPDEST SWAP2 POP PUSH2 0x1675 DUP3 PUSH2 0x1636 JUMP JUMPDEST PUSH1 0x20 DUP3 ADD SWAP1 POP SWAP2 SWAP1 POP JUMP JUMPDEST PUSH0 PUSH1 0x20 DUP3 ADD SWAP1 POP DUP2 DUP2 SUB PUSH0 DUP4 ADD MSTORE PUSH2 0x1697 DUP2 PUSH2 0x165E JUMP JUMPDEST SWAP1 POP SWAP2 SWAP1 POP JUMP JUMPDEST PUSH32 0x416D6F756E742073656E7420746F204644206973206E6F742065786163740000 PUSH0 DUP3 ADD MSTORE POP JUMP JUMPDEST PUSH0 PUSH2 0x16D2 PUSH1 0x1E DUP4 PUSH2 0x12E5 JUMP JUMPDEST SWAP2 POP PUSH2 0x16DD DUP3 PUSH2 0x169E JUMP JUMPDEST PUSH1 0x20 DUP3 ADD SWAP1 POP SWAP2 SWAP1 POP JUMP JUMPDEST PUSH0 PUSH1 0x20 DUP3 ADD SWAP1 POP DUP2 DUP2 SUB PUSH0 DUP4 ADD MSTORE PUSH2 0x16FF DUP2 PUSH2 0x16C6 JUMP JUMPDEST SWAP1 POP SWAP2 SWAP1 POP JUMP JUMPDEST PUSH32 0x4C6F636B20706572696F642069736E74206F7665722079657420736F20796F75 PUSH0 DUP3 ADD MSTORE PUSH32 0x206E65656420746F207761697400000000000000000000000000000000000000 PUSH1 0x20 DUP3 ADD MSTORE POP JUMP JUMPDEST PUSH0 PUSH2 0x1760 PUSH1 0x2D DUP4 PUSH2 0x12E5 JUMP JUMPDEST SWAP2 POP PUSH2 0x176B DUP3 PUSH2 0x1706 JUMP JUMPDEST PUSH1 0x40 DUP3 ADD SWAP1 POP SWAP2 SWAP1 POP JUMP JUMPDEST PUSH0 PUSH1 0x20 DUP3 ADD SWAP1 POP DUP2 DUP2 SUB PUSH0 DUP4 ADD MSTORE PUSH2 0x178D DUP2 PUSH2 0x1754 JUMP JUMPDEST SWAP1 POP SWAP2 SWAP1 POP JUMP JUMPDEST PUSH32 0x4E487B7100000000000000000000000000000000000000000000000000000000 PUSH0 MSTORE PUSH1 0x11 PUSH1 0x4 MSTORE PUSH1 0x24 PUSH0 REVERT JUMPDEST PUSH0 PUSH2 0x17CB DUP3 PUSH2 0x126A JUMP JUMPDEST SWAP2 POP PUSH2 0x17D6 DUP4 PUSH2 0x126A JUMP JUMPDEST SWAP3 POP DUP3 DUP3 ADD SWAP1 POP DUP1 DUP3 GT ISZERO PUSH2 0x17EE JUMPI PUSH2 0x17ED PUSH2 0x1794 JUMP JUMPDEST JUMPDEST SWAP3 SWAP2 POP POP JUMP JUMPDEST PUSH0 PUSH2 0x17FE DUP3 PUSH2 0x126A JUMP JUMPDEST SWAP2 POP PUSH2 0x1809 DUP4 PUSH2 0x126A JUMP JUMPDEST SWAP3 POP DUP3 DUP3 MUL PUSH2 0x1817 DUP2 PUSH2 0x126A JUMP JUMPDEST SWAP2 POP DUP3 DUP3 DIV DUP5 EQ DUP4 ISZERO OR PUSH2 0x182E JUMPI PUSH2 0x182D PUSH2 0x1794 JUMP JUMPDEST JUMPDEST POP SWAP3 SWAP2 POP POP JUMP JUMPDEST PUSH32 0x546865206D616E6167657220697320616C726561647920736574000000000000 PUSH0 DUP3 ADD MSTORE POP JUMP JUMPDEST PUSH0 PUSH2 0x1869 PUSH1 0x1A DUP4 PUSH2 0x12E5 JUMP JUMPDEST SWAP2 POP PUSH2 0x1874 DUP3 PUSH2 0x1835 JUMP JUMPDEST PUSH1 0x20 DUP3 ADD SWAP1 POP SWAP2 SWAP1 POP JUMP JUMPDEST PUSH0 PUSH1 0x20 DUP3 ADD SWAP1 POP DUP2 DUP2 SUB PUSH0 DUP4 ADD MSTORE PUSH2 0x1896 DUP2 PUSH2 0x185D JUMP JUMPDEST SWAP1 POP SWAP2 SWAP1 POP JUMP JUMPDEST PUSH32 0x4F6E6C79206D616E616765722063616E2063616C6C2074686973210000000000 PUSH0 DUP3 ADD MSTORE POP JUMP JUMPDEST PUSH0 PUSH2 0x18D1 PUSH1 0x1B DUP4 PUSH2 0x12E5 JUMP JUMPDEST SWAP2 POP PUSH2 0x18DC DUP3 PUSH2 0x189D JUMP JUMPDEST PUSH1 0x20 DUP3 ADD SWAP1 POP SWAP2 SWAP1 POP JUMP JUMPDEST PUSH0 PUSH1 0x20 DUP3 ADD SWAP1 POP DUP2 DUP2 SUB PUSH0 DUP4 ADD MSTORE PUSH2 0x18FE DUP2 PUSH2 0x18C5 JUMP JUMPDEST SWAP1 POP SWAP2 SWAP1 POP JUMP JUMPDEST PUSH32 0x49742773206A757374206265656E206C657373207468616E203130207365636F PUSH0 DUP3 ADD MSTORE PUSH32 0x6E64732100000000000000000000000000000000000000000000000000000000 PUSH1 0x20 DUP3 ADD MSTORE POP JUMP JUMPDEST PUSH0 PUSH2 0x195F PUSH1 0x24 DUP4 PUSH2 0x12E5 JUMP JUMPDEST SWAP2 POP PUSH2 0x196A DUP3 PUSH2 0x1905 JUMP JUMPDEST PUSH1 0x40 DUP3 ADD SWAP1 POP SWAP2 SWAP1 POP JUMP JUMPDEST PUSH0 PUSH1 0x20 DUP3 ADD SWAP1 POP DUP2 DUP2 SUB PUSH0 DUP4 ADD MSTORE PUSH2 0x198C DUP2 PUSH2 0x1953 JUMP JUMPDEST SWAP1 POP SWAP2 SWAP1 POP JUMP JUMPDEST PUSH0 PUSH2 0x199D DUP3 PUSH2 0x14AE JUMP JUMPDEST SWAP2 POP PUSH32 0x7FFFFFFFFFFFFFFFFFFFFFFFFFFFFFFFFFFFFFFFFFFFFFFFFFFFFFFFFFFFFFFF DUP3 SUB PUSH2 0x19CF JUMPI PUSH2 0x19CE PUSH2 0x1794 JUMP JUMPDEST JUMPDEST PUSH1 0x1 DUP3 ADD SWAP1 POP SWAP2 SWAP1 POP JUMP JUMPDEST PUSH32 0x5468697320464420646F65736E74206578697374000000000000000000000000 PUSH0 DUP3 ADD MSTORE POP JUMP JUMPDEST PUSH0 PUSH2 0x1A0E PUSH1 0x14 DUP4 PUSH2 0x12E5 JUMP JUMPDEST SWAP2 POP PUSH2 0x1A19 DUP3 PUSH2 0x19DA JUMP JUMPDEST PUSH1 0x20 DUP3 ADD SWAP1 POP SWAP2 SWAP1 POP JUMP JUMPDEST PUSH0 PUSH1 0x20 DUP3 ADD SWAP1 POP DUP2 DUP2 SUB PUSH0 DUP4 ADD MSTORE PUSH2 0x1A3B DUP2 PUSH2 0x1A02 JUMP JUMPDEST SWAP1 POP SWAP2 SWAP1 POP JUMP JUMPDEST PUSH32 0x4E487B7100000000000000000000000000000000000000000000000000000000 PUSH0 MSTORE PUSH1 0x12 PUSH1 0x4 MSTORE PUSH1 0x24 PUSH0 REVERT JUMPDEST PUSH0 PUSH2 0x1A79 DUP3 PUSH2 0x126A JUMP JUMPDEST SWAP2 POP PUSH2 0x1A84 DUP4 PUSH2 0x126A JUMP JUMPDEST SWAP3 POP DUP3 PUSH2 0x1A94 JUMPI PUSH2 0x1A93 PUSH2 0x1A42 JUMP JUMPDEST JUMPDEST DUP3 DUP3 DIV SWAP1 POP SWAP3 SWAP2 POP POP JUMP INVALID LOG2 PUSH5 0x6970667358 0x22 SLT KECCAK256 0xC2 PUSH32 0x50E2549078CC69491D38ED482A7F75B24F4BF18B33F31C56A84295A2FFB96473 PUSH16 0x6C634300081E00330000000000000000 "
				},
				"gasEstimates": {
					"creation": {
						"codeDepositCost": "1373800",
						"executionCost": "30707",
						"totalCost": "1404507"
					},
					"external": {
						"createFixedDeposit(uint256,uint256)": "infinite",
						"deposit()": "infinite",
						"fixedDeposits(address)": "infinite",
						"getContractBalance()": "379",
						"grantLoan(address,uint256)": "infinite",
						"interestDate(address)": "2912",
						"joinAsClient()": "infinite",
						"loans(address)": "infinite",
						"sendInterest()": "infinite",
						"setManager()": "infinite",
						"updateFixedDeposit(uint256,uint256)": "infinite",
						"withdraw(uint256)": "infinite"
					}
				},
				"methodIdentifiers": {
					"createFixedDeposit(uint256,uint256)": "b247334d",
					"deposit()": "d0e30db0",
					"fixedDeposits(address)": "d93330fd",
					"getContractBalance()": "6f9fb98a",
					"grantLoan(address,uint256)": "d507b6f7",
					"interestDate(address)": "d9dca6c5",
					"joinAsClient()": "a4092174",
					"loans(address)": "73b4086b",
					"sendInterest()": "9e0a5d68",
					"setManager()": "8d258104",
					"updateFixedDeposit(uint256,uint256)": "1dfec85f",
					"withdraw(uint256)": "2e1a7d4d"
				}
			},
			"storageLayout": {
				"storage": [
					{
						"astId": 30,
						"contract": "Bank.sol:Bank",
						"label": "clients",
						"offset": 0,
						"slot": "0",
						"type": "t_array(t_struct(client_account)8_storage)dyn_storage"
					},
					{
						"astId": 32,
						"contract": "Bank.sol:Bank",
						"label": "clientCounter",
						"offset": 0,
						"slot": "1",
						"type": "t_int256"
					},
					{
						"astId": 34,
						"contract": "Bank.sol:Bank",
						"label": "manager",
						"offset": 0,
						"slot": "2",
						"type": "t_address_payable"
					},
					{
						"astId": 38,
						"contract": "Bank.sol:Bank",
						"label": "interestDate",
						"offset": 0,
						"slot": "3",
						"type": "t_mapping(t_address,t_uint256)"
					},
					{
						"astId": 43,
						"contract": "Bank.sol:Bank",
						"label": "fixedDeposits",
						"offset": 0,
						"slot": "4",
						"type": "t_mapping(t_address,t_struct(FixedDeposit)15_storage)"
					},
					{
						"astId": 48,
						"contract": "Bank.sol:Bank",
						"label": "loans",
						"offset": 0,
						"slot": "5",
						"type": "t_mapping(t_address,t_struct(Loan)26_storage)"
					},
					{
						"astId": 51,
						"contract": "Bank.sol:Bank",
						"label": "isManagerSet",
						"offset": 0,
						"slot": "6",
						"type": "t_bool"
					}
				],
				"types": {
					"t_address": {
						"encoding": "inplace",
						"label": "address",
						"numberOfBytes": "20"
					},
					"t_address_payable": {
						"encoding": "inplace",
						"label": "address payable",
						"numberOfBytes": "20"
					},
					"t_array(t_struct(client_account)8_storage)dyn_storage": {
						"base": "t_struct(client_account)8_storage",
						"encoding": "dynamic_array",
						"label": "struct Bank.client_account[]",
						"numberOfBytes": "32"
					},
					"t_bool": {
						"encoding": "inplace",
						"label": "bool",
						"numberOfBytes": "1"
					},
					"t_int256": {
						"encoding": "inplace",
						"label": "int256",
						"numberOfBytes": "32"
					},
					"t_mapping(t_address,t_struct(FixedDeposit)15_storage)": {
						"encoding": "mapping",
						"key": "t_address",
						"label": "mapping(address => struct Bank.FixedDeposit)",
						"numberOfBytes": "32",
						"value": "t_struct(FixedDeposit)15_storage"
					},
					"t_mapping(t_address,t_struct(Loan)26_storage)": {
						"encoding": "mapping",
						"key": "t_address",
						"label": "mapping(address => struct Bank.Loan)",
						"numberOfBytes": "32",
						"value": "t_struct(Loan)26_storage"
					},
					"t_mapping(t_address,t_uint256)": {
						"encoding": "mapping",
						"key": "t_address",
						"label": "mapping(address => uint256)",
						"numberOfBytes": "32",
						"value": "t_uint256"
					},
					"t_struct(FixedDeposit)15_storage": {
						"encoding": "inplace",
						"label": "struct Bank.FixedDeposit",
						"members": [
							{
								"astId": 10,
								"contract": "Bank.sol:Bank",
								"label": "amount",
								"offset": 0,
								"slot": "0",
								"type": "t_uint256"
							},
							{
								"astId": 12,
								"contract": "Bank.sol:Bank",
								"label": "lockPeriod",
								"offset": 0,
								"slot": "1",
								"type": "t_uint256"
							},
							{
								"astId": 14,
								"contract": "Bank.sol:Bank",
								"label": "interestRate",
								"offset": 0,
								"slot": "2",
								"type": "t_uint256"
							}
						],
						"numberOfBytes": "96"
					},
					"t_struct(Loan)26_storage": {
						"encoding": "inplace",
						"label": "struct Bank.Loan",
						"members": [
							{
								"astId": 17,
								"contract": "Bank.sol:Bank",
								"label": "amount",
								"offset": 0,
								"slot": "0",
								"type": "t_uint256"
							},
							{
								"astId": 19,
								"contract": "Bank.sol:Bank",
								"label": "interestRate",
								"offset": 0,
								"slot": "1",
								"type": "t_uint256"
							},
							{
								"astId": 21,
								"contract": "Bank.sol:Bank",
								"label": "totalPayable",
								"offset": 0,
								"slot": "2",
								"type": "t_uint256"
							},
							{
								"astId": 23,
								"contract": "Bank.sol:Bank",
								"label": "timePeriod",
								"offset": 0,
								"slot": "3",
								"type": "t_uint256"
							},
							{
								"astId": 25,
								"contract": "Bank.sol:Bank",
								"label": "approved",
								"offset": 0,
								"slot": "4",
								"type": "t_bool"
							}
						],
						"numberOfBytes": "160"
					},
					"t_struct(client_account)8_storage": {
						"encoding": "inplace",
						"label": "struct Bank.client_account",
						"members": [
							{
								"astId": 3,
								"contract": "Bank.sol:Bank",
								"label": "client_id",
								"offset": 0,
								"slot": "0",
								"type": "t_int256"
							},
							{
								"astId": 5,
								"contract": "Bank.sol:Bank",
								"label": "client_address",
								"offset": 0,
								"slot": "1",
								"type": "t_address"
							},
							{
								"astId": 7,
								"contract": "Bank.sol:Bank",
								"label": "client_balance_in_ether",
								"offset": 0,
								"slot": "2",
								"type": "t_uint256"
							}
						],
						"numberOfBytes": "96"
					},
					"t_uint256": {
						"encoding": "inplace",
						"label": "uint256",
						"numberOfBytes": "32"
					}
				}
			},
			"userdoc": {
				"kind": "user",
				"methods": {},
				"version": 1
			}
		}
	}
}