{
	"Bank.sol": {
		"Bank": {
			"abi": [
				{
					"inputs": [],
					"stateMutability": "nonpayable",
					"type": "constructor"
				},
				{
					"inputs": [
						{
							"internalType": "uint256",
							"name": "_amount",
							"type": "uint256"
						},
						{
							"internalType": "uint256",
							"name": "lockPeriod",
							"type": "uint256"
						}
					],
					"name": "createFixedDeposit",
					"outputs": [],
					"stateMutability": "payable",
					"type": "function"
				},
				{
					"inputs": [],
					"name": "deposit",
					"outputs": [],
					"stateMutability": "payable",
					"type": "function"
				},
				{
					"inputs": [
						{
							"internalType": "address",
							"name": "",
							"type": "address"
						}
					],
					"name": "fixedDeposits",
					"outputs": [
						{
							"internalType": "uint256",
							"name": "amount",
							"type": "uint256"
						},
						{
							"internalType": "uint256",
							"name": "lockPeriod",
							"type": "uint256"
						},
						{
							"internalType": "uint256",
							"name": "interestRate",
							"type": "uint256"
						}
					],
					"stateMutability": "view",
					"type": "function"
				},
				{
					"inputs": [],
					"name": "getContractBalance",
					"outputs": [
						{
							"internalType": "uint256",
							"name": "",
							"type": "uint256"
						}
					],
					"stateMutability": "view",
					"type": "function"
				},
				{
					"inputs": [
						{
							"internalType": "address",
							"name": "clientAddress",
							"type": "address"
						}
					],
					"name": "grantLoan",
					"outputs": [],
					"stateMutability": "nonpayable",
					"type": "function"
				},
				{
					"inputs": [
						{
							"internalType": "address",
							"name": "",
							"type": "address"
						}
					],
					"name": "interestDate",
					"outputs": [
						{
							"internalType": "uint256",
							"name": "",
							"type": "uint256"
						}
					],
					"stateMutability": "view",
					"type": "function"
				},
				{
					"inputs": [],
					"name": "joinAsClient",
					"outputs": [
						{
							"internalType": "string",
							"name": "",
							"type": "string"
						}
					],
					"stateMutability": "payable",
					"type": "function"
				},
				{
					"inputs": [
						{
							"internalType": "address",
							"name": "",
							"type": "address"
						}
					],
					"name": "loans",
					"outputs": [
						{
							"internalType": "uint256",
							"name": "amount",
							"type": "uint256"
						},
						{
							"internalType": "uint256",
							"name": "interestRate",
							"type": "uint256"
						},
						{
							"internalType": "uint256",
							"name": "totalPayable",
							"type": "uint256"
						},
						{
							"internalType": "bool",
							"name": "approved",
							"type": "bool"
						}
					],
					"stateMutability": "view",
					"type": "function"
				},
				{
					"inputs": [],
					"name": "sendInterest",
					"outputs": [],
					"stateMutability": "payable",
					"type": "function"
				},
				{
					"inputs": [],
					"name": "setManager",
					"outputs": [
						{
							"internalType": "string",
							"name": "",
							"type": "string"
						}
					],
					"stateMutability": "nonpayable",
					"type": "function"
				},
				{
					"inputs": [
						{
							"internalType": "uint256",
							"name": "amount",
							"type": "uint256"
						}
					],
					"name": "withdraw",
					"outputs": [],
					"stateMutability": "payable",
					"type": "function"
				},
				{
					"stateMutability": "payable",
					"type": "receive"
				}
			],
			"devdoc": {
				"kind": "dev",
				"methods": {},
				"version": 1
			},
			"evm": {
				"assembly": "    /* \"Bank.sol\":58:3521  contract Bank {... */\n  mstore(0x40, 0x80)\n    /* \"Bank.sol\":689:694  false */\n  0x00\n    /* \"Bank.sol\":669:694  bool isManagerSet = false */\n  0x06\n  exp(0x0100, 0x00)\n  dup2\n  sload\n  dup2\n  0xff\n  mul\n  not\n  and\n  swap1\n  dup4\n  iszero\n  iszero\n  mul\n  or\n  swap1\n  sstore\n  pop\n    /* \"Bank.sol\":1291:1339  constructor() {... */\n  callvalue\n  dup1\n  iszero\n  tag_1\n  jumpi\n  revert(0x00, 0x00)\ntag_1:\n  pop\n    /* \"Bank.sol\":1331:1332  0 */\n  0x00\n    /* \"Bank.sol\":1315:1328  clientCounter */\n  0x01\n    /* \"Bank.sol\":1315:1332  clientCounter = 0 */\n  dup2\n  swap1\n  sstore\n  pop\n    /* \"Bank.sol\":58:3521  contract Bank {... */\n  dataSize(sub_0)\n  dup1\n  dataOffset(sub_0)\n  0x00\n  codecopy\n  0x00\n  return\nstop\n\nsub_0: assembly {\n        /* \"Bank.sol\":58:3521  contract Bank {... */\n      mstore(0x40, 0x80)\n      jumpi(tag_1, lt(calldatasize, 0x04))\n      shr(0xe0, calldataload(0x00))\n      dup1\n      0xa4092174\n      gt\n      tag_14\n      jumpi\n      dup1\n      0xa4092174\n      eq\n      tag_8\n      jumpi\n      dup1\n      0xb247334d\n      eq\n      tag_9\n      jumpi\n      dup1\n      0xd0e30db0\n      eq\n      tag_10\n      jumpi\n      dup1\n      0xd93330fd\n      eq\n      tag_11\n      jumpi\n      dup1\n      0xd9dca6c5\n      eq\n      tag_12\n      jumpi\n      dup1\n      0xe3ae469a\n      eq\n      tag_13\n      jumpi\n      jump(tag_2)\n    tag_14:\n      dup1\n      0x2e1a7d4d\n      eq\n      tag_3\n      jumpi\n      dup1\n      0x6f9fb98a\n      eq\n      tag_4\n      jumpi\n      dup1\n      0x73b4086b\n      eq\n      tag_5\n      jumpi\n      dup1\n      0x8d258104\n      eq\n      tag_6\n      jumpi\n      dup1\n      0x9e0a5d68\n      eq\n      tag_7\n      jumpi\n      jump(tag_2)\n    tag_1:\n      jumpi(tag_2, calldatasize)\n      stop\n    tag_2:\n      revert(0x00, 0x00)\n        /* \"Bank.sol\":1902:2023  function withdraw(uint amount) public payable onlyClients {... */\n    tag_3:\n      tag_17\n      0x04\n      dup1\n      calldatasize\n      sub\n      dup2\n      add\n      swap1\n      tag_18\n      swap2\n      swap1\n      tag_19\n      jump\t// in\n    tag_18:\n      tag_20\n      jump\t// in\n    tag_17:\n      stop\n        /* \"Bank.sol\":3417:3519  function getContractBalance() public view returns (uint) {... */\n    tag_4:\n      callvalue\n      dup1\n      iszero\n      tag_21\n      jumpi\n      revert(0x00, 0x00)\n    tag_21:\n      pop\n      tag_22\n      tag_23\n      jump\t// in\n    tag_22:\n      mload(0x40)\n      tag_24\n      swap2\n      swap1\n      tag_25\n      jump\t// in\n    tag_24:\n      mload(0x40)\n      dup1\n      swap2\n      sub\n      swap1\n      return\n        /* \"Bank.sol\":626:663  mapping(address => Loan) public loans */\n    tag_5:\n      callvalue\n      dup1\n      iszero\n      tag_26\n      jumpi\n      revert(0x00, 0x00)\n    tag_26:\n      pop\n      tag_27\n      0x04\n      dup1\n      calldatasize\n      sub\n      dup2\n      add\n      swap1\n      tag_28\n      swap2\n      swap1\n      tag_29\n      jump\t// in\n    tag_28:\n      tag_30\n      jump\t// in\n    tag_27:\n      mload(0x40)\n      tag_31\n      swap5\n      swap4\n      swap3\n      swap2\n      swap1\n      tag_32\n      jump\t// in\n    tag_31:\n      mload(0x40)\n      dup1\n      swap2\n      sub\n      swap1\n      return\n        /* \"Bank.sol\":1380:1533  function setManager() public managerSet returns (string memory) {... */\n    tag_6:\n      callvalue\n      dup1\n      iszero\n      tag_33\n      jumpi\n      revert(0x00, 0x00)\n    tag_33:\n      pop\n      tag_34\n      tag_35\n      jump\t// in\n    tag_34:\n      mload(0x40)\n      tag_36\n      swap2\n      swap1\n      tag_37\n      jump\t// in\n    tag_36:\n      mload(0x40)\n      dup1\n      swap2\n      sub\n      swap1\n      return\n        /* \"Bank.sol\":2029:2539  function sendInterest() public payable onlyManager {... */\n    tag_7:\n      tag_38\n      tag_39\n      jump\t// in\n    tag_38:\n      stop\n        /* \"Bank.sol\":1539:1785  function joinAsClient() public payable returns (string memory) {... */\n    tag_8:\n      tag_40\n      tag_41\n      jump\t// in\n    tag_40:\n      mload(0x40)\n      tag_42\n      swap2\n      swap1\n      tag_37\n      jump\t// in\n    tag_42:\n      mload(0x40)\n      dup1\n      swap2\n      sub\n      swap1\n      return\n        /* \"Bank.sol\":2545:2911  function createFixedDeposit(uint _amount, uint lockPeriod) public payable onlyClients {... */\n    tag_9:\n      tag_43\n      0x04\n      dup1\n      calldatasize\n      sub\n      dup2\n      add\n      swap1\n      tag_44\n      swap2\n      swap1\n      tag_45\n      jump\t// in\n    tag_44:\n      tag_46\n      jump\t// in\n    tag_43:\n      stop\n        /* \"Bank.sol\":1791:1896  function deposit() public payable onlyClients {... */\n    tag_10:\n      tag_47\n      tag_48\n      jump\t// in\n    tag_47:\n      stop\n        /* \"Bank.sol\":567:620  mapping(address => FixedDeposit) public fixedDeposits */\n    tag_11:\n      callvalue\n      dup1\n      iszero\n      tag_49\n      jumpi\n      revert(0x00, 0x00)\n    tag_49:\n      pop\n      tag_50\n      0x04\n      dup1\n      calldatasize\n      sub\n      dup2\n      add\n      swap1\n      tag_51\n      swap2\n      swap1\n      tag_29\n      jump\t// in\n    tag_51:\n      tag_52\n      jump\t// in\n    tag_50:\n      mload(0x40)\n      tag_53\n      swap4\n      swap3\n      swap2\n      swap1\n      tag_54\n      jump\t// in\n    tag_53:\n      mload(0x40)\n      dup1\n      swap2\n      sub\n      swap1\n      return\n        /* \"Bank.sol\":517:561  mapping(address => uint) public interestDate */\n    tag_12:\n      callvalue\n      dup1\n      iszero\n      tag_55\n      jumpi\n      revert(0x00, 0x00)\n    tag_55:\n      pop\n      tag_56\n      0x04\n      dup1\n      calldatasize\n      sub\n      dup2\n      add\n      swap1\n      tag_57\n      swap2\n      swap1\n      tag_29\n      jump\t// in\n    tag_57:\n      tag_58\n      jump\t// in\n    tag_56:\n      mload(0x40)\n      tag_59\n      swap2\n      swap1\n      tag_25\n      jump\t// in\n    tag_59:\n      mload(0x40)\n      dup1\n      swap2\n      sub\n      swap1\n      return\n        /* \"Bank.sol\":2917:3411  function grantLoan(address clientAddress) public onlyManager {... */\n    tag_13:\n      callvalue\n      dup1\n      iszero\n      tag_60\n      jumpi\n      revert(0x00, 0x00)\n    tag_60:\n      pop\n      tag_61\n      0x04\n      dup1\n      calldatasize\n      sub\n      dup2\n      add\n      swap1\n      tag_62\n      swap2\n      swap1\n      tag_29\n      jump\t// in\n    tag_62:\n      tag_63\n      jump\t// in\n    tag_61:\n      stop\n        /* \"Bank.sol\":1902:2023  function withdraw(uint amount) public payable onlyClients {... */\n    tag_20:\n        /* \"Bank.sol\":997:1010  bool isclient */\n      0x00\n        /* \"Bank.sol\":1013:1018  false */\n      0x00\n        /* \"Bank.sol\":997:1018  bool isclient = false */\n      swap1\n      pop\n        /* \"Bank.sol\":1033:1039  uint i */\n      0x00\n        /* \"Bank.sol\":1042:1043  0 */\n      0x00\n        /* \"Bank.sol\":1033:1043  uint i = 0 */\n      swap1\n      pop\n        /* \"Bank.sol\":1028:1210  for (uint i = 0; i < clients.length; i++) {... */\n    tag_65:\n        /* \"Bank.sol\":1049:1056  clients */\n      0x00\n        /* \"Bank.sol\":1049:1063  clients.length */\n      dup1\n      sload\n      swap1\n      pop\n        /* \"Bank.sol\":1045:1046  i */\n      dup2\n        /* \"Bank.sol\":1045:1063  i < clients.length */\n      lt\n        /* \"Bank.sol\":1028:1210  for (uint i = 0; i < clients.length; i++) {... */\n      iszero\n      tag_66\n      jumpi\n        /* \"Bank.sol\":1117:1127  msg.sender */\n      caller\n        /* \"Bank.sol\":1088:1127  clients[i].client_address == msg.sender */\n      0xffffffffffffffffffffffffffffffffffffffff\n      and\n        /* \"Bank.sol\":1088:1095  clients */\n      0x00\n        /* \"Bank.sol\":1096:1097  i */\n      dup3\n        /* \"Bank.sol\":1088:1098  clients[i] */\n      dup2\n      sload\n      dup2\n      lt\n      tag_68\n      jumpi\n      tag_69\n      tag_70\n      jump\t// in\n    tag_69:\n    tag_68:\n      swap1\n      0x00\n      mstore\n      keccak256(0x00, 0x20)\n      swap1\n      0x03\n      mul\n      add\n        /* \"Bank.sol\":1088:1113  clients[i].client_address */\n      0x01\n      add\n      0x00\n      swap1\n      sload\n      swap1\n      0x0100\n      exp\n      swap1\n      div\n      0xffffffffffffffffffffffffffffffffffffffff\n      and\n        /* \"Bank.sol\":1088:1127  clients[i].client_address == msg.sender */\n      0xffffffffffffffffffffffffffffffffffffffff\n      and\n      sub\n        /* \"Bank.sol\":1084:1200  if (clients[i].client_address == msg.sender) {... */\n      tag_72\n      jumpi\n        /* \"Bank.sol\":1158:1162  true */\n      0x01\n        /* \"Bank.sol\":1147:1162  isclient = true */\n      swap2\n      pop\n        /* \"Bank.sol\":1180:1185  break */\n      jump(tag_66)\n        /* \"Bank.sol\":1084:1200  if (clients[i].client_address == msg.sender) {... */\n    tag_72:\n        /* \"Bank.sol\":1065:1068  i++ */\n      dup1\n      dup1\n      0x01\n      add\n      swap2\n      pop\n      pop\n        /* \"Bank.sol\":1028:1210  for (uint i = 0; i < clients.length; i++) {... */\n      jump(tag_65)\n    tag_66:\n      pop\n        /* \"Bank.sol\":1227:1235  isclient */\n      dup1\n        /* \"Bank.sol\":1219:1267  require(isclient, \"Only clients can call this!\") */\n      tag_73\n      jumpi\n      mload(0x40)\n      0x08c379a000000000000000000000000000000000000000000000000000000000\n      dup2\n      mstore\n      0x04\n      add\n      tag_74\n      swap1\n      tag_75\n      jump\t// in\n    tag_74:\n      mload(0x40)\n      dup1\n      swap2\n      sub\n      swap1\n      revert\n    tag_73:\n        /* \"Bank.sol\":1978:1988  msg.sender */\n      caller\n        /* \"Bank.sol\":1970:1998  payable(msg.sender).transfer */\n      0xffffffffffffffffffffffffffffffffffffffff\n      and\n        /* \"Bank.sol\":1970:2016  payable(msg.sender).transfer(amount * 1 ether) */\n      0x08fc\n        /* \"Bank.sol\":2008:2015  1 ether */\n      0x0de0b6b3a7640000\n        /* \"Bank.sol\":1999:2005  amount */\n      dup5\n        /* \"Bank.sol\":1999:2015  amount * 1 ether */\n      tag_77\n      swap2\n      swap1\n      tag_78\n      jump\t// in\n    tag_77:\n        /* \"Bank.sol\":1970:2016  payable(msg.sender).transfer(amount * 1 ether) */\n      swap1\n      dup2\n      iszero\n      mul\n      swap1\n      mload(0x40)\n      0x00\n      mload(0x40)\n      dup1\n      dup4\n      sub\n      dup2\n      dup6\n      dup9\n      dup9\n      call\n      swap4\n      pop\n      pop\n      pop\n      pop\n      iszero\n      dup1\n      iszero\n      tag_80\n      jumpi\n      returndatacopy(0x00, 0x00, returndatasize)\n      revert(0x00, returndatasize)\n    tag_80:\n      pop\n        /* \"Bank.sol\":987:1285  {... */\n      pop\n        /* \"Bank.sol\":1902:2023  function withdraw(uint amount) public payable onlyClients {... */\n      pop\n      jump\t// out\n        /* \"Bank.sol\":3417:3519  function getContractBalance() public view returns (uint) {... */\n    tag_23:\n        /* \"Bank.sol\":3468:3472  uint */\n      0x00\n        /* \"Bank.sol\":3491:3512  address(this).balance */\n      selfbalance\n        /* \"Bank.sol\":3484:3512  return address(this).balance */\n      swap1\n      pop\n        /* \"Bank.sol\":3417:3519  function getContractBalance() public view returns (uint) {... */\n      swap1\n      jump\t// out\n        /* \"Bank.sol\":626:663  mapping(address => Loan) public loans */\n    tag_30:\n      mstore(0x20, 0x05)\n      dup1\n      0x00\n      mstore\n      keccak256(0x00, 0x40)\n      0x00\n      swap2\n      pop\n      swap1\n      pop\n      dup1\n      0x00\n      add\n      sload\n      swap1\n      dup1\n      0x01\n      add\n      sload\n      swap1\n      dup1\n      0x02\n      add\n      sload\n      swap1\n      dup1\n      0x03\n      add\n      0x00\n      swap1\n      sload\n      swap1\n      0x0100\n      exp\n      swap1\n      div\n      0xff\n      and\n      swap1\n      pop\n      dup5\n      jump\t// out\n        /* \"Bank.sol\":1380:1533  function setManager() public managerSet returns (string memory) {... */\n    tag_35:\n        /* \"Bank.sol\":1429:1442  string memory */\n      0x60\n        /* \"Bank.sol\":875:880  false */\n      0x00\n        /* \"Bank.sol\":859:880  isManagerSet == false */\n      iszero\n      iszero\n        /* \"Bank.sol\":859:871  isManagerSet */\n      0x06\n      0x00\n      swap1\n      sload\n      swap1\n      0x0100\n      exp\n      swap1\n      div\n      0xff\n      and\n        /* \"Bank.sol\":859:880  isManagerSet == false */\n      iszero\n      iszero\n      eq\n        /* \"Bank.sol\":851:911  require(isManagerSet == false, \"The manager is already set\") */\n      tag_83\n      jumpi\n      mload(0x40)\n      0x08c379a000000000000000000000000000000000000000000000000000000000\n      dup2\n      mstore\n      0x04\n      add\n      tag_84\n      swap1\n      tag_85\n      jump\t// in\n    tag_84:\n      mload(0x40)\n      dup1\n      swap2\n      sub\n      swap1\n      revert\n    tag_83:\n        /* \"Bank.sol\":936:940  true */\n      0x01\n        /* \"Bank.sol\":921:933  isManagerSet */\n      0x06\n      0x00\n        /* \"Bank.sol\":921:940  isManagerSet = true */\n      0x0100\n      exp\n      dup2\n      sload\n      dup2\n      0xff\n      mul\n      not\n      and\n      swap1\n      dup4\n      iszero\n      iszero\n      mul\n      or\n      swap1\n      sstore\n      pop\n        /* \"Bank.sol\":1472:1482  msg.sender */\n      caller\n        /* \"Bank.sol\":1454:1461  manager */\n      0x02\n      0x00\n        /* \"Bank.sol\":1454:1483  manager = payable(msg.sender) */\n      0x0100\n      exp\n      dup2\n      sload\n      dup2\n      0xffffffffffffffffffffffffffffffffffffffff\n      mul\n      not\n      and\n      swap1\n      dup4\n      0xffffffffffffffffffffffffffffffffffffffff\n      and\n      mul\n      or\n      swap1\n      sstore\n      pop\n        /* \"Bank.sol\":1493:1525  return \"The manager is now set!\" */\n      mload(0x40)\n      dup1\n      0x40\n      add\n      0x40\n      mstore\n      dup1\n      0x17\n      dup2\n      mstore\n      0x20\n      add\n      0x546865206d616e61676572206973206e6f772073657421000000000000000000\n      dup2\n      mstore\n      pop\n      swap1\n      pop\n        /* \"Bank.sol\":1380:1533  function setManager() public managerSet returns (string memory) {... */\n      swap1\n      jump\t// out\n        /* \"Bank.sol\":2029:2539  function sendInterest() public payable onlyManager {... */\n    tag_39:\n        /* \"Bank.sol\":756:763  manager */\n      0x02\n      0x00\n      swap1\n      sload\n      swap1\n      0x0100\n      exp\n      swap1\n      div\n      0xffffffffffffffffffffffffffffffffffffffff\n      and\n        /* \"Bank.sol\":742:763  msg.sender == manager */\n      0xffffffffffffffffffffffffffffffffffffffff\n      and\n        /* \"Bank.sol\":742:752  msg.sender */\n      caller\n        /* \"Bank.sol\":742:763  msg.sender == manager */\n      0xffffffffffffffffffffffffffffffffffffffff\n      and\n      eq\n        /* \"Bank.sol\":734:795  require(msg.sender == manager, \"Only manager can call this!\") */\n      tag_88\n      jumpi\n      mload(0x40)\n      0x08c379a000000000000000000000000000000000000000000000000000000000\n      dup2\n      mstore\n      0x04\n      add\n      tag_89\n      swap1\n      tag_90\n      jump\t// in\n    tag_89:\n      mload(0x40)\n      dup1\n      swap2\n      sub\n      swap1\n      revert\n    tag_88:\n        /* \"Bank.sol\":2095:2101  uint i */\n      0x00\n        /* \"Bank.sol\":2104:2105  0 */\n      0x00\n        /* \"Bank.sol\":2095:2105  uint i = 0 */\n      swap1\n      pop\n        /* \"Bank.sol\":2090:2533  for (uint i = 0; i < clients.length; i++) {... */\n    tag_92:\n        /* \"Bank.sol\":2111:2118  clients */\n      0x00\n        /* \"Bank.sol\":2111:2125  clients.length */\n      dup1\n      sload\n      swap1\n      pop\n        /* \"Bank.sol\":2107:2108  i */\n      dup2\n        /* \"Bank.sol\":2107:2125  i < clients.length */\n      lt\n        /* \"Bank.sol\":2090:2533  for (uint i = 0; i < clients.length; i++) {... */\n      iszero\n      tag_93\n      jumpi\n        /* \"Bank.sol\":2146:2168  address initialAddress */\n      0x00\n        /* \"Bank.sol\":2171:2178  clients */\n      0x00\n        /* \"Bank.sol\":2179:2180  i */\n      dup3\n        /* \"Bank.sol\":2171:2181  clients[i] */\n      dup2\n      sload\n      dup2\n      lt\n      tag_95\n      jumpi\n      tag_96\n      tag_70\n      jump\t// in\n    tag_96:\n    tag_95:\n      swap1\n      0x00\n      mstore\n      keccak256(0x00, 0x20)\n      swap1\n      0x03\n      mul\n      add\n        /* \"Bank.sol\":2171:2196  clients[i].client_address */\n      0x01\n      add\n      0x00\n      swap1\n      sload\n      swap1\n      0x0100\n      exp\n      swap1\n      div\n      0xffffffffffffffffffffffffffffffffffffffff\n      and\n        /* \"Bank.sol\":2146:2196  address initialAddress = clients[i].client_address */\n      swap1\n      pop\n        /* \"Bank.sol\":2210:2231  uint lastInterestDate */\n      0x00\n        /* \"Bank.sol\":2234:2246  interestDate */\n      0x03\n        /* \"Bank.sol\":2234:2262  interestDate[initialAddress] */\n      0x00\n        /* \"Bank.sol\":2247:2261  initialAddress */\n      dup4\n        /* \"Bank.sol\":2234:2262  interestDate[initialAddress] */\n      0xffffffffffffffffffffffffffffffffffffffff\n      and\n      0xffffffffffffffffffffffffffffffffffffffff\n      and\n      dup2\n      mstore\n      0x20\n      add\n      swap1\n      dup2\n      mstore\n      0x20\n      add\n      0x00\n      keccak256\n      sload\n        /* \"Bank.sol\":2210:2262  uint lastInterestDate = interestDate[initialAddress] */\n      swap1\n      pop\n        /* \"Bank.sol\":2317:2327  10 seconds */\n      0x0a\n        /* \"Bank.sol\":2298:2314  lastInterestDate */\n      dup2\n        /* \"Bank.sol\":2298:2327  lastInterestDate + 10 seconds */\n      tag_98\n      swap2\n      swap1\n      tag_99\n      jump\t// in\n    tag_98:\n        /* \"Bank.sol\":2280:2295  block.timestamp */\n      timestamp\n        /* \"Bank.sol\":2280:2327  block.timestamp < lastInterestDate + 10 seconds */\n      lt\n        /* \"Bank.sol\":2276:2408  if (block.timestamp < lastInterestDate + 10 seconds) {... */\n      iszero\n      tag_100\n      jumpi\n        /* \"Bank.sol\":2347:2393  revert(\"It's just been less than 10 seconds!\") */\n      mload(0x40)\n      0x08c379a000000000000000000000000000000000000000000000000000000000\n      dup2\n      mstore\n      0x04\n      add\n      tag_101\n      swap1\n      tag_102\n      jump\t// in\n    tag_101:\n      mload(0x40)\n      dup1\n      swap2\n      sub\n      swap1\n      revert\n        /* \"Bank.sol\":2276:2408  if (block.timestamp < lastInterestDate + 10 seconds) {... */\n    tag_100:\n        /* \"Bank.sol\":2429:2443  initialAddress */\n      dup2\n        /* \"Bank.sol\":2421:2453  payable(initialAddress).transfer */\n      0xffffffffffffffffffffffffffffffffffffffff\n      and\n        /* \"Bank.sol\":2421:2462  payable(initialAddress).transfer(1 ether) */\n      0x08fc\n        /* \"Bank.sol\":2454:2461  1 ether */\n      0x0de0b6b3a7640000\n        /* \"Bank.sol\":2421:2462  payable(initialAddress).transfer(1 ether) */\n      swap1\n      dup2\n      iszero\n      mul\n      swap1\n      mload(0x40)\n      0x00\n      mload(0x40)\n      dup1\n      dup4\n      sub\n      dup2\n      dup6\n      dup9\n      dup9\n      call\n      swap4\n      pop\n      pop\n      pop\n      pop\n      iszero\n      dup1\n      iszero\n      tag_104\n      jumpi\n      returndatacopy(0x00, 0x00, returndatasize)\n      revert(0x00, returndatasize)\n    tag_104:\n      pop\n        /* \"Bank.sol\":2507:2522  block.timestamp */\n      timestamp\n        /* \"Bank.sol\":2476:2488  interestDate */\n      0x03\n        /* \"Bank.sol\":2476:2504  interestDate[initialAddress] */\n      0x00\n        /* \"Bank.sol\":2489:2503  initialAddress */\n      dup5\n        /* \"Bank.sol\":2476:2504  interestDate[initialAddress] */\n      0xffffffffffffffffffffffffffffffffffffffff\n      and\n      0xffffffffffffffffffffffffffffffffffffffff\n      and\n      dup2\n      mstore\n      0x20\n      add\n      swap1\n      dup2\n      mstore\n      0x20\n      add\n      0x00\n      keccak256\n        /* \"Bank.sol\":2476:2522  interestDate[initialAddress] = block.timestamp */\n      dup2\n      swap1\n      sstore\n      pop\n        /* \"Bank.sol\":2132:2533  {... */\n      pop\n      pop\n        /* \"Bank.sol\":2127:2130  i++ */\n      dup1\n      dup1\n      0x01\n      add\n      swap2\n      pop\n      pop\n        /* \"Bank.sol\":2090:2533  for (uint i = 0; i < clients.length; i++) {... */\n      jump(tag_92)\n    tag_93:\n      pop\n        /* \"Bank.sol\":2029:2539  function sendInterest() public payable onlyManager {... */\n      jump\t// out\n        /* \"Bank.sol\":1539:1785  function joinAsClient() public payable returns (string memory) {... */\n    tag_41:\n        /* \"Bank.sol\":1587:1600  string memory */\n      0x60\n        /* \"Bank.sol\":1648:1663  block.timestamp */\n      timestamp\n        /* \"Bank.sol\":1612:1624  interestDate */\n      0x03\n        /* \"Bank.sol\":1612:1645  interestDate[payable(msg.sender)] */\n      0x00\n        /* \"Bank.sol\":1633:1643  msg.sender */\n      caller\n        /* \"Bank.sol\":1612:1645  interestDate[payable(msg.sender)] */\n      0xffffffffffffffffffffffffffffffffffffffff\n      and\n      0xffffffffffffffffffffffffffffffffffffffff\n      and\n      dup2\n      mstore\n      0x20\n      add\n      swap1\n      dup2\n      mstore\n      0x20\n      add\n      0x00\n      keccak256\n        /* \"Bank.sol\":1612:1663  interestDate[payable(msg.sender)] = block.timestamp */\n      dup2\n      swap1\n      sstore\n      pop\n        /* \"Bank.sol\":1673:1680  clients */\n      0x00\n        /* \"Bank.sol\":1686:1758  client_account(clientCounter++, msg.sender, address(msg.sender).balance) */\n      mload(0x40)\n      dup1\n      0x60\n      add\n      0x40\n      mstore\n      dup1\n        /* \"Bank.sol\":1701:1714  clientCounter */\n      0x01\n      0x00\n        /* \"Bank.sol\":1701:1716  clientCounter++ */\n      dup2\n      sload\n      dup1\n      swap3\n      swap2\n      swap1\n      tag_106\n      swap1\n      tag_107\n      jump\t// in\n    tag_106:\n      swap2\n      swap1\n      pop\n      sstore\n        /* \"Bank.sol\":1686:1758  client_account(clientCounter++, msg.sender, address(msg.sender).balance) */\n      dup2\n      mstore\n      0x20\n      add\n        /* \"Bank.sol\":1718:1728  msg.sender */\n      caller\n        /* \"Bank.sol\":1686:1758  client_account(clientCounter++, msg.sender, address(msg.sender).balance) */\n      0xffffffffffffffffffffffffffffffffffffffff\n      and\n      dup2\n      mstore\n      0x20\n      add\n        /* \"Bank.sol\":1738:1748  msg.sender */\n      caller\n        /* \"Bank.sol\":1730:1757  address(msg.sender).balance */\n      0xffffffffffffffffffffffffffffffffffffffff\n      and\n      balance\n        /* \"Bank.sol\":1686:1758  client_account(clientCounter++, msg.sender, address(msg.sender).balance) */\n      dup2\n      mstore\n      pop\n        /* \"Bank.sol\":1673:1759  clients.push(client_account(clientCounter++, msg.sender, address(msg.sender).balance)) */\n      swap1\n      dup1\n      0x01\n      dup2\n      sload\n      add\n      dup1\n      dup3\n      sstore\n      dup1\n      swap2\n      pop\n      pop\n      0x01\n      swap1\n      sub\n      swap1\n      0x00\n      mstore\n      keccak256(0x00, 0x20)\n      swap1\n      0x03\n      mul\n      add\n      0x00\n      swap1\n      swap2\n      swap1\n      swap2\n      swap1\n      swap2\n      pop\n      0x00\n      dup3\n      add\n      mload\n      dup2\n      0x00\n      add\n      sstore\n      0x20\n      dup3\n      add\n      mload\n      dup2\n      0x01\n      add\n      exp(0x0100, 0x00)\n      dup2\n      sload\n      dup2\n      0xffffffffffffffffffffffffffffffffffffffff\n      mul\n      not\n      and\n      swap1\n      dup4\n      0xffffffffffffffffffffffffffffffffffffffff\n      and\n      mul\n      or\n      swap1\n      sstore\n      pop\n      0x40\n      dup3\n      add\n      mload\n      dup2\n      0x02\n      add\n      sstore\n      pop\n      pop\n        /* \"Bank.sol\":1769:1778  return \"\" */\n      mload(0x40)\n      dup1\n      0x20\n      add\n      0x40\n      mstore\n      dup1\n      0x00\n      dup2\n      mstore\n      pop\n      swap1\n      pop\n        /* \"Bank.sol\":1539:1785  function joinAsClient() public payable returns (string memory) {... */\n      swap1\n      jump\t// out\n        /* \"Bank.sol\":2545:2911  function createFixedDeposit(uint _amount, uint lockPeriod) public payable onlyClients {... */\n    tag_46:\n        /* \"Bank.sol\":997:1010  bool isclient */\n      0x00\n        /* \"Bank.sol\":1013:1018  false */\n      0x00\n        /* \"Bank.sol\":997:1018  bool isclient = false */\n      swap1\n      pop\n        /* \"Bank.sol\":1033:1039  uint i */\n      0x00\n        /* \"Bank.sol\":1042:1043  0 */\n      0x00\n        /* \"Bank.sol\":1033:1043  uint i = 0 */\n      swap1\n      pop\n        /* \"Bank.sol\":1028:1210  for (uint i = 0; i < clients.length; i++) {... */\n    tag_110:\n        /* \"Bank.sol\":1049:1056  clients */\n      0x00\n        /* \"Bank.sol\":1049:1063  clients.length */\n      dup1\n      sload\n      swap1\n      pop\n        /* \"Bank.sol\":1045:1046  i */\n      dup2\n        /* \"Bank.sol\":1045:1063  i < clients.length */\n      lt\n        /* \"Bank.sol\":1028:1210  for (uint i = 0; i < clients.length; i++) {... */\n      iszero\n      tag_111\n      jumpi\n        /* \"Bank.sol\":1117:1127  msg.sender */\n      caller\n        /* \"Bank.sol\":1088:1127  clients[i].client_address == msg.sender */\n      0xffffffffffffffffffffffffffffffffffffffff\n      and\n        /* \"Bank.sol\":1088:1095  clients */\n      0x00\n        /* \"Bank.sol\":1096:1097  i */\n      dup3\n        /* \"Bank.sol\":1088:1098  clients[i] */\n      dup2\n      sload\n      dup2\n      lt\n      tag_113\n      jumpi\n      tag_114\n      tag_70\n      jump\t// in\n    tag_114:\n    tag_113:\n      swap1\n      0x00\n      mstore\n      keccak256(0x00, 0x20)\n      swap1\n      0x03\n      mul\n      add\n        /* \"Bank.sol\":1088:1113  clients[i].client_address */\n      0x01\n      add\n      0x00\n      swap1\n      sload\n      swap1\n      0x0100\n      exp\n      swap1\n      div\n      0xffffffffffffffffffffffffffffffffffffffff\n      and\n        /* \"Bank.sol\":1088:1127  clients[i].client_address == msg.sender */\n      0xffffffffffffffffffffffffffffffffffffffff\n      and\n      sub\n        /* \"Bank.sol\":1084:1200  if (clients[i].client_address == msg.sender) {... */\n      tag_116\n      jumpi\n        /* \"Bank.sol\":1158:1162  true */\n      0x01\n        /* \"Bank.sol\":1147:1162  isclient = true */\n      swap2\n      pop\n        /* \"Bank.sol\":1180:1185  break */\n      jump(tag_111)\n        /* \"Bank.sol\":1084:1200  if (clients[i].client_address == msg.sender) {... */\n    tag_116:\n        /* \"Bank.sol\":1065:1068  i++ */\n      dup1\n      dup1\n      0x01\n      add\n      swap2\n      pop\n      pop\n        /* \"Bank.sol\":1028:1210  for (uint i = 0; i < clients.length; i++) {... */\n      jump(tag_110)\n    tag_111:\n      pop\n        /* \"Bank.sol\":1227:1235  isclient */\n      dup1\n        /* \"Bank.sol\":1219:1267  require(isclient, \"Only clients can call this!\") */\n      tag_117\n      jumpi\n      mload(0x40)\n      0x08c379a000000000000000000000000000000000000000000000000000000000\n      dup2\n      mstore\n      0x04\n      add\n      tag_118\n      swap1\n      tag_75\n      jump\t// in\n    tag_118:\n      mload(0x40)\n      dup1\n      swap2\n      sub\n      swap1\n      revert\n    tag_117:\n        /* \"Bank.sol\":2672:2679  1 ether */\n      0x0de0b6b3a7640000\n        /* \"Bank.sol\":2662:2669  _amount */\n      dup4\n        /* \"Bank.sol\":2662:2679  _amount * 1 ether */\n      tag_120\n      swap2\n      swap1\n      tag_78\n      jump\t// in\n    tag_120:\n        /* \"Bank.sol\":2649:2658  msg.value */\n      callvalue\n        /* \"Bank.sol\":2649:2679  msg.value == _amount * 1 ether */\n      eq\n        /* \"Bank.sol\":2641:2704  require(msg.value == _amount * 1 ether, \"Send exact FD amount\") */\n      tag_121\n      jumpi\n      mload(0x40)\n      0x08c379a000000000000000000000000000000000000000000000000000000000\n      dup2\n      mstore\n      0x04\n      add\n      tag_122\n      swap1\n      tag_123\n      jump\t// in\n    tag_122:\n      mload(0x40)\n      dup1\n      swap2\n      sub\n      swap1\n      revert\n    tag_121:\n        /* \"Bank.sol\":2714:2731  uint interestRate */\n      0x00\n        /* \"Bank.sol\":2734:2735  5 */\n      0x05\n        /* \"Bank.sol\":2714:2735  uint interestRate = 5 */\n      swap1\n      pop\n        /* \"Bank.sol\":2746:2761  uint currAmount */\n      0x00\n        /* \"Bank.sol\":2764:2777  fixedDeposits */\n      0x04\n        /* \"Bank.sol\":2764:2798  fixedDeposits[address(msg.sender)] */\n      0x00\n        /* \"Bank.sol\":2786:2796  msg.sender */\n      caller\n        /* \"Bank.sol\":2764:2798  fixedDeposits[address(msg.sender)] */\n      0xffffffffffffffffffffffffffffffffffffffff\n      and\n      0xffffffffffffffffffffffffffffffffffffffff\n      and\n      dup2\n      mstore\n      0x20\n      add\n      swap1\n      dup2\n      mstore\n      0x20\n      add\n      0x00\n      keccak256\n        /* \"Bank.sol\":2764:2805  fixedDeposits[address(msg.sender)].amount */\n      0x00\n      add\n      sload\n        /* \"Bank.sol\":2746:2805  uint currAmount = fixedDeposits[address(msg.sender)].amount */\n      swap1\n      pop\n        /* \"Bank.sol\":2844:2904  FixedDeposit(currAmount + _amount, lockPeriod, interestRate) */\n      mload(0x40)\n      dup1\n      0x60\n      add\n      0x40\n      mstore\n      dup1\n        /* \"Bank.sol\":2870:2877  _amount */\n      dup7\n        /* \"Bank.sol\":2857:2867  currAmount */\n      dup4\n        /* \"Bank.sol\":2857:2877  currAmount + _amount */\n      tag_124\n      swap2\n      swap1\n      tag_99\n      jump\t// in\n    tag_124:\n        /* \"Bank.sol\":2844:2904  FixedDeposit(currAmount + _amount, lockPeriod, interestRate) */\n      dup2\n      mstore\n      0x20\n      add\n        /* \"Bank.sol\":2879:2889  lockPeriod */\n      dup6\n        /* \"Bank.sol\":2844:2904  FixedDeposit(currAmount + _amount, lockPeriod, interestRate) */\n      dup2\n      mstore\n      0x20\n      add\n        /* \"Bank.sol\":2891:2903  interestRate */\n      dup4\n        /* \"Bank.sol\":2844:2904  FixedDeposit(currAmount + _amount, lockPeriod, interestRate) */\n      dup2\n      mstore\n      pop\n        /* \"Bank.sol\":2816:2829  fixedDeposits */\n      0x04\n        /* \"Bank.sol\":2816:2841  fixedDeposits[msg.sender] */\n      0x00\n        /* \"Bank.sol\":2830:2840  msg.sender */\n      caller\n        /* \"Bank.sol\":2816:2841  fixedDeposits[msg.sender] */\n      0xffffffffffffffffffffffffffffffffffffffff\n      and\n      0xffffffffffffffffffffffffffffffffffffffff\n      and\n      dup2\n      mstore\n      0x20\n      add\n      swap1\n      dup2\n      mstore\n      0x20\n      add\n      0x00\n      keccak256\n        /* \"Bank.sol\":2816:2904  fixedDeposits[msg.sender] = FixedDeposit(currAmount + _amount, lockPeriod, interestRate) */\n      0x00\n      dup3\n      add\n      mload\n      dup2\n      0x00\n      add\n      sstore\n      0x20\n      dup3\n      add\n      mload\n      dup2\n      0x01\n      add\n      sstore\n      0x40\n      dup3\n      add\n      mload\n      dup2\n      0x02\n      add\n      sstore\n      swap1\n      pop\n      pop\n        /* \"Bank.sol\":2631:2911  {... */\n      pop\n      pop\n        /* \"Bank.sol\":987:1285  {... */\n      pop\n        /* \"Bank.sol\":2545:2911  function createFixedDeposit(uint _amount, uint lockPeriod) public payable onlyClients {... */\n      pop\n      pop\n      jump\t// out\n        /* \"Bank.sol\":1791:1896  function deposit() public payable onlyClients {... */\n    tag_48:\n        /* \"Bank.sol\":997:1010  bool isclient */\n      0x00\n        /* \"Bank.sol\":1013:1018  false */\n      0x00\n        /* \"Bank.sol\":997:1018  bool isclient = false */\n      swap1\n      pop\n        /* \"Bank.sol\":1033:1039  uint i */\n      0x00\n        /* \"Bank.sol\":1042:1043  0 */\n      0x00\n        /* \"Bank.sol\":1033:1043  uint i = 0 */\n      swap1\n      pop\n        /* \"Bank.sol\":1028:1210  for (uint i = 0; i < clients.length; i++) {... */\n    tag_126:\n        /* \"Bank.sol\":1049:1056  clients */\n      0x00\n        /* \"Bank.sol\":1049:1063  clients.length */\n      dup1\n      sload\n      swap1\n      pop\n        /* \"Bank.sol\":1045:1046  i */\n      dup2\n        /* \"Bank.sol\":1045:1063  i < clients.length */\n      lt\n        /* \"Bank.sol\":1028:1210  for (uint i = 0; i < clients.length; i++) {... */\n      iszero\n      tag_127\n      jumpi\n        /* \"Bank.sol\":1117:1127  msg.sender */\n      caller\n        /* \"Bank.sol\":1088:1127  clients[i].client_address == msg.sender */\n      0xffffffffffffffffffffffffffffffffffffffff\n      and\n        /* \"Bank.sol\":1088:1095  clients */\n      0x00\n        /* \"Bank.sol\":1096:1097  i */\n      dup3\n        /* \"Bank.sol\":1088:1098  clients[i] */\n      dup2\n      sload\n      dup2\n      lt\n      tag_129\n      jumpi\n      tag_130\n      tag_70\n      jump\t// in\n    tag_130:\n    tag_129:\n      swap1\n      0x00\n      mstore\n      keccak256(0x00, 0x20)\n      swap1\n      0x03\n      mul\n      add\n        /* \"Bank.sol\":1088:1113  clients[i].client_address */\n      0x01\n      add\n      0x00\n      swap1\n      sload\n      swap1\n      0x0100\n      exp\n      swap1\n      div\n      0xffffffffffffffffffffffffffffffffffffffff\n      and\n        /* \"Bank.sol\":1088:1127  clients[i].client_address == msg.sender */\n      0xffffffffffffffffffffffffffffffffffffffff\n      and\n      sub\n        /* \"Bank.sol\":1084:1200  if (clients[i].client_address == msg.sender) {... */\n      tag_132\n      jumpi\n        /* \"Bank.sol\":1158:1162  true */\n      0x01\n        /* \"Bank.sol\":1147:1162  isclient = true */\n      swap2\n      pop\n        /* \"Bank.sol\":1180:1185  break */\n      jump(tag_127)\n        /* \"Bank.sol\":1084:1200  if (clients[i].client_address == msg.sender) {... */\n    tag_132:\n        /* \"Bank.sol\":1065:1068  i++ */\n      dup1\n      dup1\n      0x01\n      add\n      swap2\n      pop\n      pop\n        /* \"Bank.sol\":1028:1210  for (uint i = 0; i < clients.length; i++) {... */\n      jump(tag_126)\n    tag_127:\n      pop\n        /* \"Bank.sol\":1227:1235  isclient */\n      dup1\n        /* \"Bank.sol\":1219:1267  require(isclient, \"Only clients can call this!\") */\n      tag_133\n      jumpi\n      mload(0x40)\n      0x08c379a000000000000000000000000000000000000000000000000000000000\n      dup2\n      mstore\n      0x04\n      add\n      tag_134\n      swap1\n      tag_75\n      jump\t// in\n    tag_134:\n      mload(0x40)\n      dup1\n      swap2\n      sub\n      swap1\n      revert\n    tag_133:\n        /* \"Bank.sol\":1863:1867  this */\n      address\n        /* \"Bank.sol\":1847:1878  payable(address(this)).transfer */\n      0xffffffffffffffffffffffffffffffffffffffff\n      and\n        /* \"Bank.sol\":1847:1889  payable(address(this)).transfer(msg.value) */\n      0x08fc\n        /* \"Bank.sol\":1879:1888  msg.value */\n      callvalue\n        /* \"Bank.sol\":1847:1889  payable(address(this)).transfer(msg.value) */\n      swap1\n      dup2\n      iszero\n      mul\n      swap1\n      mload(0x40)\n      0x00\n      mload(0x40)\n      dup1\n      dup4\n      sub\n      dup2\n      dup6\n      dup9\n      dup9\n      call\n      swap4\n      pop\n      pop\n      pop\n      pop\n      iszero\n      dup1\n      iszero\n      tag_137\n      jumpi\n      returndatacopy(0x00, 0x00, returndatasize)\n      revert(0x00, returndatasize)\n    tag_137:\n      pop\n        /* \"Bank.sol\":987:1285  {... */\n      pop\n        /* \"Bank.sol\":1791:1896  function deposit() public payable onlyClients {... */\n      jump\t// out\n        /* \"Bank.sol\":567:620  mapping(address => FixedDeposit) public fixedDeposits */\n    tag_52:\n      mstore(0x20, 0x04)\n      dup1\n      0x00\n      mstore\n      keccak256(0x00, 0x40)\n      0x00\n      swap2\n      pop\n      swap1\n      pop\n      dup1\n      0x00\n      add\n      sload\n      swap1\n      dup1\n      0x01\n      add\n      sload\n      swap1\n      dup1\n      0x02\n      add\n      sload\n      swap1\n      pop\n      dup4\n      jump\t// out\n        /* \"Bank.sol\":517:561  mapping(address => uint) public interestDate */\n    tag_58:\n      mstore(0x20, 0x03)\n      dup1\n      0x00\n      mstore\n      keccak256(0x00, 0x40)\n      0x00\n      swap2\n      pop\n      swap1\n      pop\n      sload\n      dup2\n      jump\t// out\n        /* \"Bank.sol\":2917:3411  function grantLoan(address clientAddress) public onlyManager {... */\n    tag_63:\n        /* \"Bank.sol\":756:763  manager */\n      0x02\n      0x00\n      swap1\n      sload\n      swap1\n      0x0100\n      exp\n      swap1\n      div\n      0xffffffffffffffffffffffffffffffffffffffff\n      and\n        /* \"Bank.sol\":742:763  msg.sender == manager */\n      0xffffffffffffffffffffffffffffffffffffffff\n      and\n        /* \"Bank.sol\":742:752  msg.sender */\n      caller\n        /* \"Bank.sol\":742:763  msg.sender == manager */\n      0xffffffffffffffffffffffffffffffffffffffff\n      and\n      eq\n        /* \"Bank.sol\":734:795  require(msg.sender == manager, \"Only manager can call this!\") */\n      tag_139\n      jumpi\n      mload(0x40)\n      0x08c379a000000000000000000000000000000000000000000000000000000000\n      dup2\n      mstore\n      0x04\n      add\n      tag_140\n      swap1\n      tag_90\n      jump\t// in\n    tag_140:\n      mload(0x40)\n      dup1\n      swap2\n      sub\n      swap1\n      revert\n    tag_139:\n        /* \"Bank.sol\":2988:3010  FixedDeposit memory fd */\n      0x00\n        /* \"Bank.sol\":3013:3026  fixedDeposits */\n      0x04\n        /* \"Bank.sol\":3013:3041  fixedDeposits[clientAddress] */\n      0x00\n        /* \"Bank.sol\":3027:3040  clientAddress */\n      dup4\n        /* \"Bank.sol\":3013:3041  fixedDeposits[clientAddress] */\n      0xffffffffffffffffffffffffffffffffffffffff\n      and\n      0xffffffffffffffffffffffffffffffffffffffff\n      and\n      dup2\n      mstore\n      0x20\n      add\n      swap1\n      dup2\n      mstore\n      0x20\n      add\n      0x00\n      keccak256\n        /* \"Bank.sol\":2988:3041  FixedDeposit memory fd = fixedDeposits[clientAddress] */\n      mload(0x40)\n      dup1\n      0x60\n      add\n      0x40\n      mstore\n      swap1\n      dup2\n      0x00\n      dup3\n      add\n      sload\n      dup2\n      mstore\n      0x20\n      add\n      0x01\n      dup3\n      add\n      sload\n      dup2\n      mstore\n      0x20\n      add\n      0x02\n      dup3\n      add\n      sload\n      dup2\n      mstore\n      pop\n      pop\n      swap1\n      pop\n        /* \"Bank.sol\":3071:3072  0 */\n      0x00\n        /* \"Bank.sol\":3059:3061  fd */\n      dup2\n        /* \"Bank.sol\":3059:3068  fd.amount */\n      0x00\n      add\n      mload\n        /* \"Bank.sol\":3059:3072  fd.amount > 0 */\n      gt\n        /* \"Bank.sol\":3051:3104  require(fd.amount > 0, \"No FD found for this client\") */\n      tag_142\n      jumpi\n      mload(0x40)\n      0x08c379a000000000000000000000000000000000000000000000000000000000\n      dup2\n      mstore\n      0x04\n      add\n      tag_143\n      swap1\n      tag_144\n      jump\t// in\n    tag_143:\n      mload(0x40)\n      dup1\n      swap2\n      sub\n      swap1\n      revert\n    tag_142:\n        /* \"Bank.sol\":3114:3131  uint interestRate */\n      0x00\n        /* \"Bank.sol\":3134:3136  10 */\n      0x0a\n        /* \"Bank.sol\":3114:3136  uint interestRate = 10 */\n      swap1\n      pop\n        /* \"Bank.sol\":3146:3161  uint loanAmount */\n      0x00\n        /* \"Bank.sol\":3164:3166  fd */\n      dup3\n        /* \"Bank.sol\":3164:3173  fd.amount */\n      0x00\n      add\n      mload\n        /* \"Bank.sol\":3146:3173  uint loanAmount = fd.amount */\n      swap1\n      pop\n        /* \"Bank.sol\":3192:3209  uint totalPayable */\n      0x00\n        /* \"Bank.sol\":3254:3257  100 */\n      0x64\n        /* \"Bank.sol\":3239:3251  interestRate */\n      dup4\n        /* \"Bank.sol\":3226:3236  loanAmount */\n      dup4\n        /* \"Bank.sol\":3226:3251  loanAmount * interestRate */\n      tag_145\n      swap2\n      swap1\n      tag_78\n      jump\t// in\n    tag_145:\n        /* \"Bank.sol\":3226:3257  loanAmount * interestRate / 100 */\n      tag_146\n      swap2\n      swap1\n      tag_147\n      jump\t// in\n    tag_146:\n        /* \"Bank.sol\":3212:3222  loanAmount */\n      dup3\n        /* \"Bank.sol\":3212:3258  loanAmount + (loanAmount * interestRate / 100) */\n      tag_148\n      swap2\n      swap1\n      tag_99\n      jump\t// in\n    tag_148:\n        /* \"Bank.sol\":3192:3258  uint totalPayable = loanAmount + (loanAmount * interestRate / 100) */\n      swap1\n      pop\n        /* \"Bank.sol\":3291:3341  Loan(loanAmount, interestRate, totalPayable, true) */\n      mload(0x40)\n      dup1\n      0x80\n      add\n      0x40\n      mstore\n      dup1\n        /* \"Bank.sol\":3296:3306  loanAmount */\n      dup4\n        /* \"Bank.sol\":3291:3341  Loan(loanAmount, interestRate, totalPayable, true) */\n      dup2\n      mstore\n      0x20\n      add\n        /* \"Bank.sol\":3308:3320  interestRate */\n      dup5\n        /* \"Bank.sol\":3291:3341  Loan(loanAmount, interestRate, totalPayable, true) */\n      dup2\n      mstore\n      0x20\n      add\n        /* \"Bank.sol\":3322:3334  totalPayable */\n      dup3\n        /* \"Bank.sol\":3291:3341  Loan(loanAmount, interestRate, totalPayable, true) */\n      dup2\n      mstore\n      0x20\n      add\n        /* \"Bank.sol\":3336:3340  true */\n      0x01\n        /* \"Bank.sol\":3291:3341  Loan(loanAmount, interestRate, totalPayable, true) */\n      iszero\n      iszero\n      dup2\n      mstore\n      pop\n        /* \"Bank.sol\":3268:3273  loans */\n      0x05\n        /* \"Bank.sol\":3268:3288  loans[clientAddress] */\n      0x00\n        /* \"Bank.sol\":3274:3287  clientAddress */\n      dup8\n        /* \"Bank.sol\":3268:3288  loans[clientAddress] */\n      0xffffffffffffffffffffffffffffffffffffffff\n      and\n      0xffffffffffffffffffffffffffffffffffffffff\n      and\n      dup2\n      mstore\n      0x20\n      add\n      swap1\n      dup2\n      mstore\n      0x20\n      add\n      0x00\n      keccak256\n        /* \"Bank.sol\":3268:3341  loans[clientAddress] = Loan(loanAmount, interestRate, totalPayable, true) */\n      0x00\n      dup3\n      add\n      mload\n      dup2\n      0x00\n      add\n      sstore\n      0x20\n      dup3\n      add\n      mload\n      dup2\n      0x01\n      add\n      sstore\n      0x40\n      dup3\n      add\n      mload\n      dup2\n      0x02\n      add\n      sstore\n      0x60\n      dup3\n      add\n      mload\n      dup2\n      0x03\n      add\n      exp(0x0100, 0x00)\n      dup2\n      sload\n      dup2\n      0xff\n      mul\n      not\n      and\n      swap1\n      dup4\n      iszero\n      iszero\n      mul\n      or\n      swap1\n      sstore\n      pop\n      swap1\n      pop\n      pop\n        /* \"Bank.sol\":3359:3372  clientAddress */\n      dup5\n        /* \"Bank.sol\":3351:3382  payable(clientAddress).transfer */\n      0xffffffffffffffffffffffffffffffffffffffff\n      and\n        /* \"Bank.sol\":3351:3404  payable(clientAddress).transfer(loanAmount * 1 ether) */\n      0x08fc\n        /* \"Bank.sol\":3396:3403  1 ether */\n      0x0de0b6b3a7640000\n        /* \"Bank.sol\":3383:3393  loanAmount */\n      dup5\n        /* \"Bank.sol\":3383:3403  loanAmount * 1 ether */\n      tag_149\n      swap2\n      swap1\n      tag_78\n      jump\t// in\n    tag_149:\n        /* \"Bank.sol\":3351:3404  payable(clientAddress).transfer(loanAmount * 1 ether) */\n      swap1\n      dup2\n      iszero\n      mul\n      swap1\n      mload(0x40)\n      0x00\n      mload(0x40)\n      dup1\n      dup4\n      sub\n      dup2\n      dup6\n      dup9\n      dup9\n      call\n      swap4\n      pop\n      pop\n      pop\n      pop\n      iszero\n      dup1\n      iszero\n      tag_151\n      jumpi\n      returndatacopy(0x00, 0x00, returndatasize)\n      revert(0x00, returndatasize)\n    tag_151:\n      pop\n        /* \"Bank.sol\":2978:3411  {... */\n      pop\n      pop\n      pop\n      pop\n        /* \"Bank.sol\":2917:3411  function grantLoan(address clientAddress) public onlyManager {... */\n      pop\n      jump\t// out\n        /* \"#utility.yul\":88:205   */\n    tag_153:\n        /* \"#utility.yul\":197:198   */\n      0x00\n        /* \"#utility.yul\":194:195   */\n      0x00\n        /* \"#utility.yul\":187:199   */\n      revert\n        /* \"#utility.yul\":334:411   */\n    tag_155:\n        /* \"#utility.yul\":371:378   */\n      0x00\n        /* \"#utility.yul\":400:405   */\n      dup2\n        /* \"#utility.yul\":389:405   */\n      swap1\n      pop\n        /* \"#utility.yul\":334:411   */\n      swap2\n      swap1\n      pop\n      jump\t// out\n        /* \"#utility.yul\":417:539   */\n    tag_156:\n        /* \"#utility.yul\":490:514   */\n      tag_191\n        /* \"#utility.yul\":508:513   */\n      dup2\n        /* \"#utility.yul\":490:514   */\n      tag_155\n      jump\t// in\n    tag_191:\n        /* \"#utility.yul\":483:488   */\n      dup2\n        /* \"#utility.yul\":480:515   */\n      eq\n        /* \"#utility.yul\":470:533   */\n      tag_192\n      jumpi\n        /* \"#utility.yul\":529:530   */\n      0x00\n        /* \"#utility.yul\":526:527   */\n      0x00\n        /* \"#utility.yul\":519:531   */\n      revert\n        /* \"#utility.yul\":470:533   */\n    tag_192:\n        /* \"#utility.yul\":417:539   */\n      pop\n      jump\t// out\n        /* \"#utility.yul\":545:684   */\n    tag_157:\n        /* \"#utility.yul\":591:596   */\n      0x00\n        /* \"#utility.yul\":629:635   */\n      dup2\n        /* \"#utility.yul\":616:636   */\n      calldataload\n        /* \"#utility.yul\":607:636   */\n      swap1\n      pop\n        /* \"#utility.yul\":645:678   */\n      tag_194\n        /* \"#utility.yul\":672:677   */\n      dup2\n        /* \"#utility.yul\":645:678   */\n      tag_156\n      jump\t// in\n    tag_194:\n        /* \"#utility.yul\":545:684   */\n      swap3\n      swap2\n      pop\n      pop\n      jump\t// out\n        /* \"#utility.yul\":690:1019   */\n    tag_19:\n        /* \"#utility.yul\":749:755   */\n      0x00\n        /* \"#utility.yul\":798:800   */\n      0x20\n        /* \"#utility.yul\":786:795   */\n      dup3\n        /* \"#utility.yul\":777:784   */\n      dup5\n        /* \"#utility.yul\":773:796   */\n      sub\n        /* \"#utility.yul\":769:801   */\n      slt\n        /* \"#utility.yul\":766:885   */\n      iszero\n      tag_196\n      jumpi\n        /* \"#utility.yul\":804:883   */\n      tag_197\n      tag_153\n      jump\t// in\n    tag_197:\n        /* \"#utility.yul\":766:885   */\n    tag_196:\n        /* \"#utility.yul\":924:925   */\n      0x00\n        /* \"#utility.yul\":949:1002   */\n      tag_198\n        /* \"#utility.yul\":994:1001   */\n      dup5\n        /* \"#utility.yul\":985:991   */\n      dup3\n        /* \"#utility.yul\":974:983   */\n      dup6\n        /* \"#utility.yul\":970:992   */\n      add\n        /* \"#utility.yul\":949:1002   */\n      tag_157\n      jump\t// in\n    tag_198:\n        /* \"#utility.yul\":939:1002   */\n      swap2\n      pop\n        /* \"#utility.yul\":895:1012   */\n      pop\n        /* \"#utility.yul\":690:1019   */\n      swap3\n      swap2\n      pop\n      pop\n      jump\t// out\n        /* \"#utility.yul\":1025:1143   */\n    tag_158:\n        /* \"#utility.yul\":1112:1136   */\n      tag_200\n        /* \"#utility.yul\":1130:1135   */\n      dup2\n        /* \"#utility.yul\":1112:1136   */\n      tag_155\n      jump\t// in\n    tag_200:\n        /* \"#utility.yul\":1107:1110   */\n      dup3\n        /* \"#utility.yul\":1100:1137   */\n      mstore\n        /* \"#utility.yul\":1025:1143   */\n      pop\n      pop\n      jump\t// out\n        /* \"#utility.yul\":1149:1371   */\n    tag_25:\n        /* \"#utility.yul\":1242:1246   */\n      0x00\n        /* \"#utility.yul\":1280:1282   */\n      0x20\n        /* \"#utility.yul\":1269:1278   */\n      dup3\n        /* \"#utility.yul\":1265:1283   */\n      add\n        /* \"#utility.yul\":1257:1283   */\n      swap1\n      pop\n        /* \"#utility.yul\":1293:1364   */\n      tag_202\n        /* \"#utility.yul\":1361:1362   */\n      0x00\n        /* \"#utility.yul\":1350:1359   */\n      dup4\n        /* \"#utility.yul\":1346:1363   */\n      add\n        /* \"#utility.yul\":1337:1343   */\n      dup5\n        /* \"#utility.yul\":1293:1364   */\n      tag_158\n      jump\t// in\n    tag_202:\n        /* \"#utility.yul\":1149:1371   */\n      swap3\n      swap2\n      pop\n      pop\n      jump\t// out\n        /* \"#utility.yul\":1377:1503   */\n    tag_159:\n        /* \"#utility.yul\":1414:1421   */\n      0x00\n        /* \"#utility.yul\":1454:1496   */\n      0xffffffffffffffffffffffffffffffffffffffff\n        /* \"#utility.yul\":1447:1452   */\n      dup3\n        /* \"#utility.yul\":1443:1497   */\n      and\n        /* \"#utility.yul\":1432:1497   */\n      swap1\n      pop\n        /* \"#utility.yul\":1377:1503   */\n      swap2\n      swap1\n      pop\n      jump\t// out\n        /* \"#utility.yul\":1509:1605   */\n    tag_160:\n        /* \"#utility.yul\":1546:1553   */\n      0x00\n        /* \"#utility.yul\":1575:1599   */\n      tag_205\n        /* \"#utility.yul\":1593:1598   */\n      dup3\n        /* \"#utility.yul\":1575:1599   */\n      tag_159\n      jump\t// in\n    tag_205:\n        /* \"#utility.yul\":1564:1599   */\n      swap1\n      pop\n        /* \"#utility.yul\":1509:1605   */\n      swap2\n      swap1\n      pop\n      jump\t// out\n        /* \"#utility.yul\":1611:1733   */\n    tag_161:\n        /* \"#utility.yul\":1684:1708   */\n      tag_207\n        /* \"#utility.yul\":1702:1707   */\n      dup2\n        /* \"#utility.yul\":1684:1708   */\n      tag_160\n      jump\t// in\n    tag_207:\n        /* \"#utility.yul\":1677:1682   */\n      dup2\n        /* \"#utility.yul\":1674:1709   */\n      eq\n        /* \"#utility.yul\":1664:1727   */\n      tag_208\n      jumpi\n        /* \"#utility.yul\":1723:1724   */\n      0x00\n        /* \"#utility.yul\":1720:1721   */\n      0x00\n        /* \"#utility.yul\":1713:1725   */\n      revert\n        /* \"#utility.yul\":1664:1727   */\n    tag_208:\n        /* \"#utility.yul\":1611:1733   */\n      pop\n      jump\t// out\n        /* \"#utility.yul\":1739:1878   */\n    tag_162:\n        /* \"#utility.yul\":1785:1790   */\n      0x00\n        /* \"#utility.yul\":1823:1829   */\n      dup2\n        /* \"#utility.yul\":1810:1830   */\n      calldataload\n        /* \"#utility.yul\":1801:1830   */\n      swap1\n      pop\n        /* \"#utility.yul\":1839:1872   */\n      tag_210\n        /* \"#utility.yul\":1866:1871   */\n      dup2\n        /* \"#utility.yul\":1839:1872   */\n      tag_161\n      jump\t// in\n    tag_210:\n        /* \"#utility.yul\":1739:1878   */\n      swap3\n      swap2\n      pop\n      pop\n      jump\t// out\n        /* \"#utility.yul\":1884:2213   */\n    tag_29:\n        /* \"#utility.yul\":1943:1949   */\n      0x00\n        /* \"#utility.yul\":1992:1994   */\n      0x20\n        /* \"#utility.yul\":1980:1989   */\n      dup3\n        /* \"#utility.yul\":1971:1978   */\n      dup5\n        /* \"#utility.yul\":1967:1990   */\n      sub\n        /* \"#utility.yul\":1963:1995   */\n      slt\n        /* \"#utility.yul\":1960:2079   */\n      iszero\n      tag_212\n      jumpi\n        /* \"#utility.yul\":1998:2077   */\n      tag_213\n      tag_153\n      jump\t// in\n    tag_213:\n        /* \"#utility.yul\":1960:2079   */\n    tag_212:\n        /* \"#utility.yul\":2118:2119   */\n      0x00\n        /* \"#utility.yul\":2143:2196   */\n      tag_214\n        /* \"#utility.yul\":2188:2195   */\n      dup5\n        /* \"#utility.yul\":2179:2185   */\n      dup3\n        /* \"#utility.yul\":2168:2177   */\n      dup6\n        /* \"#utility.yul\":2164:2186   */\n      add\n        /* \"#utility.yul\":2143:2196   */\n      tag_162\n      jump\t// in\n    tag_214:\n        /* \"#utility.yul\":2133:2196   */\n      swap2\n      pop\n        /* \"#utility.yul\":2089:2206   */\n      pop\n        /* \"#utility.yul\":1884:2213   */\n      swap3\n      swap2\n      pop\n      pop\n      jump\t// out\n        /* \"#utility.yul\":2219:2309   */\n    tag_163:\n        /* \"#utility.yul\":2253:2260   */\n      0x00\n        /* \"#utility.yul\":2296:2301   */\n      dup2\n        /* \"#utility.yul\":2289:2302   */\n      iszero\n        /* \"#utility.yul\":2282:2303   */\n      iszero\n        /* \"#utility.yul\":2271:2303   */\n      swap1\n      pop\n        /* \"#utility.yul\":2219:2309   */\n      swap2\n      swap1\n      pop\n      jump\t// out\n        /* \"#utility.yul\":2315:2424   */\n    tag_164:\n        /* \"#utility.yul\":2396:2417   */\n      tag_217\n        /* \"#utility.yul\":2411:2416   */\n      dup2\n        /* \"#utility.yul\":2396:2417   */\n      tag_163\n      jump\t// in\n    tag_217:\n        /* \"#utility.yul\":2391:2394   */\n      dup3\n        /* \"#utility.yul\":2384:2418   */\n      mstore\n        /* \"#utility.yul\":2315:2424   */\n      pop\n      pop\n      jump\t// out\n        /* \"#utility.yul\":2430:2971   */\n    tag_32:\n        /* \"#utility.yul\":2601:2605   */\n      0x00\n        /* \"#utility.yul\":2639:2642   */\n      0x80\n        /* \"#utility.yul\":2628:2637   */\n      dup3\n        /* \"#utility.yul\":2624:2643   */\n      add\n        /* \"#utility.yul\":2616:2643   */\n      swap1\n      pop\n        /* \"#utility.yul\":2653:2724   */\n      tag_219\n        /* \"#utility.yul\":2721:2722   */\n      0x00\n        /* \"#utility.yul\":2710:2719   */\n      dup4\n        /* \"#utility.yul\":2706:2723   */\n      add\n        /* \"#utility.yul\":2697:2703   */\n      dup8\n        /* \"#utility.yul\":2653:2724   */\n      tag_158\n      jump\t// in\n    tag_219:\n        /* \"#utility.yul\":2734:2806   */\n      tag_220\n        /* \"#utility.yul\":2802:2804   */\n      0x20\n        /* \"#utility.yul\":2791:2800   */\n      dup4\n        /* \"#utility.yul\":2787:2805   */\n      add\n        /* \"#utility.yul\":2778:2784   */\n      dup7\n        /* \"#utility.yul\":2734:2806   */\n      tag_158\n      jump\t// in\n    tag_220:\n        /* \"#utility.yul\":2816:2888   */\n      tag_221\n        /* \"#utility.yul\":2884:2886   */\n      0x40\n        /* \"#utility.yul\":2873:2882   */\n      dup4\n        /* \"#utility.yul\":2869:2887   */\n      add\n        /* \"#utility.yul\":2860:2866   */\n      dup6\n        /* \"#utility.yul\":2816:2888   */\n      tag_158\n      jump\t// in\n    tag_221:\n        /* \"#utility.yul\":2898:2964   */\n      tag_222\n        /* \"#utility.yul\":2960:2962   */\n      0x60\n        /* \"#utility.yul\":2949:2958   */\n      dup4\n        /* \"#utility.yul\":2945:2963   */\n      add\n        /* \"#utility.yul\":2936:2942   */\n      dup5\n        /* \"#utility.yul\":2898:2964   */\n      tag_164\n      jump\t// in\n    tag_222:\n        /* \"#utility.yul\":2430:2971   */\n      swap6\n      swap5\n      pop\n      pop\n      pop\n      pop\n      pop\n      jump\t// out\n        /* \"#utility.yul\":2977:3076   */\n    tag_165:\n        /* \"#utility.yul\":3029:3035   */\n      0x00\n        /* \"#utility.yul\":3063:3068   */\n      dup2\n        /* \"#utility.yul\":3057:3069   */\n      mload\n        /* \"#utility.yul\":3047:3069   */\n      swap1\n      pop\n        /* \"#utility.yul\":2977:3076   */\n      swap2\n      swap1\n      pop\n      jump\t// out\n        /* \"#utility.yul\":3082:3251   */\n    tag_166:\n        /* \"#utility.yul\":3166:3177   */\n      0x00\n        /* \"#utility.yul\":3200:3206   */\n      dup3\n        /* \"#utility.yul\":3195:3198   */\n      dup3\n        /* \"#utility.yul\":3188:3207   */\n      mstore\n        /* \"#utility.yul\":3240:3244   */\n      0x20\n        /* \"#utility.yul\":3235:3238   */\n      dup3\n        /* \"#utility.yul\":3231:3245   */\n      add\n        /* \"#utility.yul\":3216:3245   */\n      swap1\n      pop\n        /* \"#utility.yul\":3082:3251   */\n      swap3\n      swap2\n      pop\n      pop\n      jump\t// out\n        /* \"#utility.yul\":3257:3396   */\n    tag_167:\n        /* \"#utility.yul\":3346:3352   */\n      dup3\n        /* \"#utility.yul\":3341:3344   */\n      dup2\n        /* \"#utility.yul\":3336:3339   */\n      dup4\n        /* \"#utility.yul\":3330:3353   */\n      mcopy\n        /* \"#utility.yul\":3387:3388   */\n      0x00\n        /* \"#utility.yul\":3378:3384   */\n      dup4\n        /* \"#utility.yul\":3373:3376   */\n      dup4\n        /* \"#utility.yul\":3369:3385   */\n      add\n        /* \"#utility.yul\":3362:3389   */\n      mstore\n        /* \"#utility.yul\":3257:3396   */\n      pop\n      pop\n      pop\n      jump\t// out\n        /* \"#utility.yul\":3402:3504   */\n    tag_168:\n        /* \"#utility.yul\":3443:3449   */\n      0x00\n        /* \"#utility.yul\":3494:3496   */\n      0x1f\n        /* \"#utility.yul\":3490:3497   */\n      not\n        /* \"#utility.yul\":3485:3487   */\n      0x1f\n        /* \"#utility.yul\":3478:3483   */\n      dup4\n        /* \"#utility.yul\":3474:3488   */\n      add\n        /* \"#utility.yul\":3470:3498   */\n      and\n        /* \"#utility.yul\":3460:3498   */\n      swap1\n      pop\n        /* \"#utility.yul\":3402:3504   */\n      swap2\n      swap1\n      pop\n      jump\t// out\n        /* \"#utility.yul\":3510:3887   */\n    tag_169:\n        /* \"#utility.yul\":3598:3601   */\n      0x00\n        /* \"#utility.yul\":3626:3665   */\n      tag_228\n        /* \"#utility.yul\":3659:3664   */\n      dup3\n        /* \"#utility.yul\":3626:3665   */\n      tag_165\n      jump\t// in\n    tag_228:\n        /* \"#utility.yul\":3681:3752   */\n      tag_229\n        /* \"#utility.yul\":3745:3751   */\n      dup2\n        /* \"#utility.yul\":3740:3743   */\n      dup6\n        /* \"#utility.yul\":3681:3752   */\n      tag_166\n      jump\t// in\n    tag_229:\n        /* \"#utility.yul\":3674:3752   */\n      swap4\n      pop\n        /* \"#utility.yul\":3761:3826   */\n      tag_230\n        /* \"#utility.yul\":3819:3825   */\n      dup2\n        /* \"#utility.yul\":3814:3817   */\n      dup6\n        /* \"#utility.yul\":3807:3811   */\n      0x20\n        /* \"#utility.yul\":3800:3805   */\n      dup7\n        /* \"#utility.yul\":3796:3812   */\n      add\n        /* \"#utility.yul\":3761:3826   */\n      tag_167\n      jump\t// in\n    tag_230:\n        /* \"#utility.yul\":3851:3880   */\n      tag_231\n        /* \"#utility.yul\":3873:3879   */\n      dup2\n        /* \"#utility.yul\":3851:3880   */\n      tag_168\n      jump\t// in\n    tag_231:\n        /* \"#utility.yul\":3846:3849   */\n      dup5\n        /* \"#utility.yul\":3842:3881   */\n      add\n        /* \"#utility.yul\":3835:3881   */\n      swap2\n      pop\n        /* \"#utility.yul\":3602:3887   */\n      pop\n        /* \"#utility.yul\":3510:3887   */\n      swap3\n      swap2\n      pop\n      pop\n      jump\t// out\n        /* \"#utility.yul\":3893:4206   */\n    tag_37:\n        /* \"#utility.yul\":4006:4010   */\n      0x00\n        /* \"#utility.yul\":4044:4046   */\n      0x20\n        /* \"#utility.yul\":4033:4042   */\n      dup3\n        /* \"#utility.yul\":4029:4047   */\n      add\n        /* \"#utility.yul\":4021:4047   */\n      swap1\n      pop\n        /* \"#utility.yul\":4093:4102   */\n      dup2\n        /* \"#utility.yul\":4087:4091   */\n      dup2\n        /* \"#utility.yul\":4083:4103   */\n      sub\n        /* \"#utility.yul\":4079:4080   */\n      0x00\n        /* \"#utility.yul\":4068:4077   */\n      dup4\n        /* \"#utility.yul\":4064:4081   */\n      add\n        /* \"#utility.yul\":4057:4104   */\n      mstore\n        /* \"#utility.yul\":4121:4199   */\n      tag_233\n        /* \"#utility.yul\":4194:4198   */\n      dup2\n        /* \"#utility.yul\":4185:4191   */\n      dup5\n        /* \"#utility.yul\":4121:4199   */\n      tag_169\n      jump\t// in\n    tag_233:\n        /* \"#utility.yul\":4113:4199   */\n      swap1\n      pop\n        /* \"#utility.yul\":3893:4206   */\n      swap3\n      swap2\n      pop\n      pop\n      jump\t// out\n        /* \"#utility.yul\":4212:4686   */\n    tag_45:\n        /* \"#utility.yul\":4280:4286   */\n      0x00\n        /* \"#utility.yul\":4288:4294   */\n      0x00\n        /* \"#utility.yul\":4337:4339   */\n      0x40\n        /* \"#utility.yul\":4325:4334   */\n      dup4\n        /* \"#utility.yul\":4316:4323   */\n      dup6\n        /* \"#utility.yul\":4312:4335   */\n      sub\n        /* \"#utility.yul\":4308:4340   */\n      slt\n        /* \"#utility.yul\":4305:4424   */\n      iszero\n      tag_235\n      jumpi\n        /* \"#utility.yul\":4343:4422   */\n      tag_236\n      tag_153\n      jump\t// in\n    tag_236:\n        /* \"#utility.yul\":4305:4424   */\n    tag_235:\n        /* \"#utility.yul\":4463:4464   */\n      0x00\n        /* \"#utility.yul\":4488:4541   */\n      tag_237\n        /* \"#utility.yul\":4533:4540   */\n      dup6\n        /* \"#utility.yul\":4524:4530   */\n      dup3\n        /* \"#utility.yul\":4513:4522   */\n      dup7\n        /* \"#utility.yul\":4509:4531   */\n      add\n        /* \"#utility.yul\":4488:4541   */\n      tag_157\n      jump\t// in\n    tag_237:\n        /* \"#utility.yul\":4478:4541   */\n      swap3\n      pop\n        /* \"#utility.yul\":4434:4551   */\n      pop\n        /* \"#utility.yul\":4590:4592   */\n      0x20\n        /* \"#utility.yul\":4616:4669   */\n      tag_238\n        /* \"#utility.yul\":4661:4668   */\n      dup6\n        /* \"#utility.yul\":4652:4658   */\n      dup3\n        /* \"#utility.yul\":4641:4650   */\n      dup7\n        /* \"#utility.yul\":4637:4659   */\n      add\n        /* \"#utility.yul\":4616:4669   */\n      tag_157\n      jump\t// in\n    tag_238:\n        /* \"#utility.yul\":4606:4669   */\n      swap2\n      pop\n        /* \"#utility.yul\":4561:4679   */\n      pop\n        /* \"#utility.yul\":4212:4686   */\n      swap3\n      pop\n      swap3\n      swap1\n      pop\n      jump\t// out\n        /* \"#utility.yul\":4692:5134   */\n    tag_54:\n        /* \"#utility.yul\":4841:4845   */\n      0x00\n        /* \"#utility.yul\":4879:4881   */\n      0x60\n        /* \"#utility.yul\":4868:4877   */\n      dup3\n        /* \"#utility.yul\":4864:4882   */\n      add\n        /* \"#utility.yul\":4856:4882   */\n      swap1\n      pop\n        /* \"#utility.yul\":4892:4963   */\n      tag_240\n        /* \"#utility.yul\":4960:4961   */\n      0x00\n        /* \"#utility.yul\":4949:4958   */\n      dup4\n        /* \"#utility.yul\":4945:4962   */\n      add\n        /* \"#utility.yul\":4936:4942   */\n      dup7\n        /* \"#utility.yul\":4892:4963   */\n      tag_158\n      jump\t// in\n    tag_240:\n        /* \"#utility.yul\":4973:5045   */\n      tag_241\n        /* \"#utility.yul\":5041:5043   */\n      0x20\n        /* \"#utility.yul\":5030:5039   */\n      dup4\n        /* \"#utility.yul\":5026:5044   */\n      add\n        /* \"#utility.yul\":5017:5023   */\n      dup6\n        /* \"#utility.yul\":4973:5045   */\n      tag_158\n      jump\t// in\n    tag_241:\n        /* \"#utility.yul\":5055:5127   */\n      tag_242\n        /* \"#utility.yul\":5123:5125   */\n      0x40\n        /* \"#utility.yul\":5112:5121   */\n      dup4\n        /* \"#utility.yul\":5108:5126   */\n      add\n        /* \"#utility.yul\":5099:5105   */\n      dup5\n        /* \"#utility.yul\":5055:5127   */\n      tag_158\n      jump\t// in\n    tag_242:\n        /* \"#utility.yul\":4692:5134   */\n      swap5\n      swap4\n      pop\n      pop\n      pop\n      pop\n      jump\t// out\n        /* \"#utility.yul\":5140:5320   */\n    tag_70:\n        /* \"#utility.yul\":5188:5265   */\n      0x4e487b7100000000000000000000000000000000000000000000000000000000\n        /* \"#utility.yul\":5185:5186   */\n      0x00\n        /* \"#utility.yul\":5178:5266   */\n      mstore\n        /* \"#utility.yul\":5285:5289   */\n      0x32\n        /* \"#utility.yul\":5282:5283   */\n      0x04\n        /* \"#utility.yul\":5275:5290   */\n      mstore\n        /* \"#utility.yul\":5309:5313   */\n      0x24\n        /* \"#utility.yul\":5306:5307   */\n      0x00\n        /* \"#utility.yul\":5299:5314   */\n      revert\n        /* \"#utility.yul\":5326:5503   */\n    tag_170:\n        /* \"#utility.yul\":5466:5495   */\n      0x4f6e6c7920636c69656e74732063616e2063616c6c2074686973210000000000\n        /* \"#utility.yul\":5462:5463   */\n      0x00\n        /* \"#utility.yul\":5454:5460   */\n      dup3\n        /* \"#utility.yul\":5450:5464   */\n      add\n        /* \"#utility.yul\":5443:5496   */\n      mstore\n        /* \"#utility.yul\":5326:5503   */\n      pop\n      jump\t// out\n        /* \"#utility.yul\":5509:5875   */\n    tag_171:\n        /* \"#utility.yul\":5651:5654   */\n      0x00\n        /* \"#utility.yul\":5672:5739   */\n      tag_246\n        /* \"#utility.yul\":5736:5738   */\n      0x1b\n        /* \"#utility.yul\":5731:5734   */\n      dup4\n        /* \"#utility.yul\":5672:5739   */\n      tag_166\n      jump\t// in\n    tag_246:\n        /* \"#utility.yul\":5665:5739   */\n      swap2\n      pop\n        /* \"#utility.yul\":5748:5841   */\n      tag_247\n        /* \"#utility.yul\":5837:5840   */\n      dup3\n        /* \"#utility.yul\":5748:5841   */\n      tag_170\n      jump\t// in\n    tag_247:\n        /* \"#utility.yul\":5866:5868   */\n      0x20\n        /* \"#utility.yul\":5861:5864   */\n      dup3\n        /* \"#utility.yul\":5857:5869   */\n      add\n        /* \"#utility.yul\":5850:5869   */\n      swap1\n      pop\n        /* \"#utility.yul\":5509:5875   */\n      swap2\n      swap1\n      pop\n      jump\t// out\n        /* \"#utility.yul\":5881:6300   */\n    tag_75:\n        /* \"#utility.yul\":6047:6051   */\n      0x00\n        /* \"#utility.yul\":6085:6087   */\n      0x20\n        /* \"#utility.yul\":6074:6083   */\n      dup3\n        /* \"#utility.yul\":6070:6088   */\n      add\n        /* \"#utility.yul\":6062:6088   */\n      swap1\n      pop\n        /* \"#utility.yul\":6134:6143   */\n      dup2\n        /* \"#utility.yul\":6128:6132   */\n      dup2\n        /* \"#utility.yul\":6124:6144   */\n      sub\n        /* \"#utility.yul\":6120:6121   */\n      0x00\n        /* \"#utility.yul\":6109:6118   */\n      dup4\n        /* \"#utility.yul\":6105:6122   */\n      add\n        /* \"#utility.yul\":6098:6145   */\n      mstore\n        /* \"#utility.yul\":6162:6293   */\n      tag_249\n        /* \"#utility.yul\":6288:6292   */\n      dup2\n        /* \"#utility.yul\":6162:6293   */\n      tag_171\n      jump\t// in\n    tag_249:\n        /* \"#utility.yul\":6154:6293   */\n      swap1\n      pop\n        /* \"#utility.yul\":5881:6300   */\n      swap2\n      swap1\n      pop\n      jump\t// out\n        /* \"#utility.yul\":6306:6486   */\n    tag_172:\n        /* \"#utility.yul\":6354:6431   */\n      0x4e487b7100000000000000000000000000000000000000000000000000000000\n        /* \"#utility.yul\":6351:6352   */\n      0x00\n        /* \"#utility.yul\":6344:6432   */\n      mstore\n        /* \"#utility.yul\":6451:6455   */\n      0x11\n        /* \"#utility.yul\":6448:6449   */\n      0x04\n        /* \"#utility.yul\":6441:6456   */\n      mstore\n        /* \"#utility.yul\":6475:6479   */\n      0x24\n        /* \"#utility.yul\":6472:6473   */\n      0x00\n        /* \"#utility.yul\":6465:6480   */\n      revert\n        /* \"#utility.yul\":6492:6902   */\n    tag_78:\n        /* \"#utility.yul\":6532:6539   */\n      0x00\n        /* \"#utility.yul\":6555:6575   */\n      tag_252\n        /* \"#utility.yul\":6573:6574   */\n      dup3\n        /* \"#utility.yul\":6555:6575   */\n      tag_155\n      jump\t// in\n    tag_252:\n        /* \"#utility.yul\":6550:6575   */\n      swap2\n      pop\n        /* \"#utility.yul\":6589:6609   */\n      tag_253\n        /* \"#utility.yul\":6607:6608   */\n      dup4\n        /* \"#utility.yul\":6589:6609   */\n      tag_155\n      jump\t// in\n    tag_253:\n        /* \"#utility.yul\":6584:6609   */\n      swap3\n      pop\n        /* \"#utility.yul\":6644:6645   */\n      dup3\n        /* \"#utility.yul\":6641:6642   */\n      dup3\n        /* \"#utility.yul\":6637:6646   */\n      mul\n        /* \"#utility.yul\":6666:6696   */\n      tag_254\n        /* \"#utility.yul\":6684:6695   */\n      dup2\n        /* \"#utility.yul\":6666:6696   */\n      tag_155\n      jump\t// in\n    tag_254:\n        /* \"#utility.yul\":6655:6696   */\n      swap2\n      pop\n        /* \"#utility.yul\":6845:6846   */\n      dup3\n        /* \"#utility.yul\":6836:6843   */\n      dup3\n        /* \"#utility.yul\":6832:6847   */\n      div\n        /* \"#utility.yul\":6829:6830   */\n      dup5\n        /* \"#utility.yul\":6826:6848   */\n      eq\n        /* \"#utility.yul\":6806:6807   */\n      dup4\n        /* \"#utility.yul\":6799:6808   */\n      iszero\n        /* \"#utility.yul\":6779:6862   */\n      or\n        /* \"#utility.yul\":6756:6895   */\n      tag_255\n      jumpi\n        /* \"#utility.yul\":6875:6893   */\n      tag_256\n      tag_172\n      jump\t// in\n    tag_256:\n        /* \"#utility.yul\":6756:6895   */\n    tag_255:\n        /* \"#utility.yul\":6540:6902   */\n      pop\n        /* \"#utility.yul\":6492:6902   */\n      swap3\n      swap2\n      pop\n      pop\n      jump\t// out\n        /* \"#utility.yul\":6908:7084   */\n    tag_173:\n        /* \"#utility.yul\":7048:7076   */\n      0x546865206d616e6167657220697320616c726561647920736574000000000000\n        /* \"#utility.yul\":7044:7045   */\n      0x00\n        /* \"#utility.yul\":7036:7042   */\n      dup3\n        /* \"#utility.yul\":7032:7046   */\n      add\n        /* \"#utility.yul\":7025:7077   */\n      mstore\n        /* \"#utility.yul\":6908:7084   */\n      pop\n      jump\t// out\n        /* \"#utility.yul\":7090:7456   */\n    tag_174:\n        /* \"#utility.yul\":7232:7235   */\n      0x00\n        /* \"#utility.yul\":7253:7320   */\n      tag_259\n        /* \"#utility.yul\":7317:7319   */\n      0x1a\n        /* \"#utility.yul\":7312:7315   */\n      dup4\n        /* \"#utility.yul\":7253:7320   */\n      tag_166\n      jump\t// in\n    tag_259:\n        /* \"#utility.yul\":7246:7320   */\n      swap2\n      pop\n        /* \"#utility.yul\":7329:7422   */\n      tag_260\n        /* \"#utility.yul\":7418:7421   */\n      dup3\n        /* \"#utility.yul\":7329:7422   */\n      tag_173\n      jump\t// in\n    tag_260:\n        /* \"#utility.yul\":7447:7449   */\n      0x20\n        /* \"#utility.yul\":7442:7445   */\n      dup3\n        /* \"#utility.yul\":7438:7450   */\n      add\n        /* \"#utility.yul\":7431:7450   */\n      swap1\n      pop\n        /* \"#utility.yul\":7090:7456   */\n      swap2\n      swap1\n      pop\n      jump\t// out\n        /* \"#utility.yul\":7462:7881   */\n    tag_85:\n        /* \"#utility.yul\":7628:7632   */\n      0x00\n        /* \"#utility.yul\":7666:7668   */\n      0x20\n        /* \"#utility.yul\":7655:7664   */\n      dup3\n        /* \"#utility.yul\":7651:7669   */\n      add\n        /* \"#utility.yul\":7643:7669   */\n      swap1\n      pop\n        /* \"#utility.yul\":7715:7724   */\n      dup2\n        /* \"#utility.yul\":7709:7713   */\n      dup2\n        /* \"#utility.yul\":7705:7725   */\n      sub\n        /* \"#utility.yul\":7701:7702   */\n      0x00\n        /* \"#utility.yul\":7690:7699   */\n      dup4\n        /* \"#utility.yul\":7686:7703   */\n      add\n        /* \"#utility.yul\":7679:7726   */\n      mstore\n        /* \"#utility.yul\":7743:7874   */\n      tag_262\n        /* \"#utility.yul\":7869:7873   */\n      dup2\n        /* \"#utility.yul\":7743:7874   */\n      tag_174\n      jump\t// in\n    tag_262:\n        /* \"#utility.yul\":7735:7874   */\n      swap1\n      pop\n        /* \"#utility.yul\":7462:7881   */\n      swap2\n      swap1\n      pop\n      jump\t// out\n        /* \"#utility.yul\":7887:8064   */\n    tag_175:\n        /* \"#utility.yul\":8027:8056   */\n      0x4f6e6c79206d616e616765722063616e2063616c6c2074686973210000000000\n        /* \"#utility.yul\":8023:8024   */\n      0x00\n        /* \"#utility.yul\":8015:8021   */\n      dup3\n        /* \"#utility.yul\":8011:8025   */\n      add\n        /* \"#utility.yul\":8004:8057   */\n      mstore\n        /* \"#utility.yul\":7887:8064   */\n      pop\n      jump\t// out\n        /* \"#utility.yul\":8070:8436   */\n    tag_176:\n        /* \"#utility.yul\":8212:8215   */\n      0x00\n        /* \"#utility.yul\":8233:8300   */\n      tag_265\n        /* \"#utility.yul\":8297:8299   */\n      0x1b\n        /* \"#utility.yul\":8292:8295   */\n      dup4\n        /* \"#utility.yul\":8233:8300   */\n      tag_166\n      jump\t// in\n    tag_265:\n        /* \"#utility.yul\":8226:8300   */\n      swap2\n      pop\n        /* \"#utility.yul\":8309:8402   */\n      tag_266\n        /* \"#utility.yul\":8398:8401   */\n      dup3\n        /* \"#utility.yul\":8309:8402   */\n      tag_175\n      jump\t// in\n    tag_266:\n        /* \"#utility.yul\":8427:8429   */\n      0x20\n        /* \"#utility.yul\":8422:8425   */\n      dup3\n        /* \"#utility.yul\":8418:8430   */\n      add\n        /* \"#utility.yul\":8411:8430   */\n      swap1\n      pop\n        /* \"#utility.yul\":8070:8436   */\n      swap2\n      swap1\n      pop\n      jump\t// out\n        /* \"#utility.yul\":8442:8861   */\n    tag_90:\n        /* \"#utility.yul\":8608:8612   */\n      0x00\n        /* \"#utility.yul\":8646:8648   */\n      0x20\n        /* \"#utility.yul\":8635:8644   */\n      dup3\n        /* \"#utility.yul\":8631:8649   */\n      add\n        /* \"#utility.yul\":8623:8649   */\n      swap1\n      pop\n        /* \"#utility.yul\":8695:8704   */\n      dup2\n        /* \"#utility.yul\":8689:8693   */\n      dup2\n        /* \"#utility.yul\":8685:8705   */\n      sub\n        /* \"#utility.yul\":8681:8682   */\n      0x00\n        /* \"#utility.yul\":8670:8679   */\n      dup4\n        /* \"#utility.yul\":8666:8683   */\n      add\n        /* \"#utility.yul\":8659:8706   */\n      mstore\n        /* \"#utility.yul\":8723:8854   */\n      tag_268\n        /* \"#utility.yul\":8849:8853   */\n      dup2\n        /* \"#utility.yul\":8723:8854   */\n      tag_176\n      jump\t// in\n    tag_268:\n        /* \"#utility.yul\":8715:8854   */\n      swap1\n      pop\n        /* \"#utility.yul\":8442:8861   */\n      swap2\n      swap1\n      pop\n      jump\t// out\n        /* \"#utility.yul\":8867:9058   */\n    tag_99:\n        /* \"#utility.yul\":8907:8910   */\n      0x00\n        /* \"#utility.yul\":8926:8946   */\n      tag_270\n        /* \"#utility.yul\":8944:8945   */\n      dup3\n        /* \"#utility.yul\":8926:8946   */\n      tag_155\n      jump\t// in\n    tag_270:\n        /* \"#utility.yul\":8921:8946   */\n      swap2\n      pop\n        /* \"#utility.yul\":8960:8980   */\n      tag_271\n        /* \"#utility.yul\":8978:8979   */\n      dup4\n        /* \"#utility.yul\":8960:8980   */\n      tag_155\n      jump\t// in\n    tag_271:\n        /* \"#utility.yul\":8955:8980   */\n      swap3\n      pop\n        /* \"#utility.yul\":9003:9004   */\n      dup3\n        /* \"#utility.yul\":9000:9001   */\n      dup3\n        /* \"#utility.yul\":8996:9005   */\n      add\n        /* \"#utility.yul\":8989:9005   */\n      swap1\n      pop\n        /* \"#utility.yul\":9024:9027   */\n      dup1\n        /* \"#utility.yul\":9021:9022   */\n      dup3\n        /* \"#utility.yul\":9018:9028   */\n      gt\n        /* \"#utility.yul\":9015:9051   */\n      iszero\n      tag_272\n      jumpi\n        /* \"#utility.yul\":9031:9049   */\n      tag_273\n      tag_172\n      jump\t// in\n    tag_273:\n        /* \"#utility.yul\":9015:9051   */\n    tag_272:\n        /* \"#utility.yul\":8867:9058   */\n      swap3\n      swap2\n      pop\n      pop\n      jump\t// out\n        /* \"#utility.yul\":9064:9287   */\n    tag_177:\n        /* \"#utility.yul\":9204:9238   */\n      0x49742773206a757374206265656e206c657373207468616e203130207365636f\n        /* \"#utility.yul\":9200:9201   */\n      0x00\n        /* \"#utility.yul\":9192:9198   */\n      dup3\n        /* \"#utility.yul\":9188:9202   */\n      add\n        /* \"#utility.yul\":9181:9239   */\n      mstore\n        /* \"#utility.yul\":9273:9279   */\n      0x6e64732100000000000000000000000000000000000000000000000000000000\n        /* \"#utility.yul\":9268:9270   */\n      0x20\n        /* \"#utility.yul\":9260:9266   */\n      dup3\n        /* \"#utility.yul\":9256:9271   */\n      add\n        /* \"#utility.yul\":9249:9280   */\n      mstore\n        /* \"#utility.yul\":9064:9287   */\n      pop\n      jump\t// out\n        /* \"#utility.yul\":9293:9659   */\n    tag_178:\n        /* \"#utility.yul\":9435:9438   */\n      0x00\n        /* \"#utility.yul\":9456:9523   */\n      tag_276\n        /* \"#utility.yul\":9520:9522   */\n      0x24\n        /* \"#utility.yul\":9515:9518   */\n      dup4\n        /* \"#utility.yul\":9456:9523   */\n      tag_166\n      jump\t// in\n    tag_276:\n        /* \"#utility.yul\":9449:9523   */\n      swap2\n      pop\n        /* \"#utility.yul\":9532:9625   */\n      tag_277\n        /* \"#utility.yul\":9621:9624   */\n      dup3\n        /* \"#utility.yul\":9532:9625   */\n      tag_177\n      jump\t// in\n    tag_277:\n        /* \"#utility.yul\":9650:9652   */\n      0x40\n        /* \"#utility.yul\":9645:9648   */\n      dup3\n        /* \"#utility.yul\":9641:9653   */\n      add\n        /* \"#utility.yul\":9634:9653   */\n      swap1\n      pop\n        /* \"#utility.yul\":9293:9659   */\n      swap2\n      swap1\n      pop\n      jump\t// out\n        /* \"#utility.yul\":9665:10084   */\n    tag_102:\n        /* \"#utility.yul\":9831:9835   */\n      0x00\n        /* \"#utility.yul\":9869:9871   */\n      0x20\n        /* \"#utility.yul\":9858:9867   */\n      dup3\n        /* \"#utility.yul\":9854:9872   */\n      add\n        /* \"#utility.yul\":9846:9872   */\n      swap1\n      pop\n        /* \"#utility.yul\":9918:9927   */\n      dup2\n        /* \"#utility.yul\":9912:9916   */\n      dup2\n        /* \"#utility.yul\":9908:9928   */\n      sub\n        /* \"#utility.yul\":9904:9905   */\n      0x00\n        /* \"#utility.yul\":9893:9902   */\n      dup4\n        /* \"#utility.yul\":9889:9906   */\n      add\n        /* \"#utility.yul\":9882:9929   */\n      mstore\n        /* \"#utility.yul\":9946:10077   */\n      tag_279\n        /* \"#utility.yul\":10072:10076   */\n      dup2\n        /* \"#utility.yul\":9946:10077   */\n      tag_178\n      jump\t// in\n    tag_279:\n        /* \"#utility.yul\":9938:10077   */\n      swap1\n      pop\n        /* \"#utility.yul\":9665:10084   */\n      swap2\n      swap1\n      pop\n      jump\t// out\n        /* \"#utility.yul\":10090:10166   */\n    tag_179:\n        /* \"#utility.yul\":10126:10133   */\n      0x00\n        /* \"#utility.yul\":10155:10160   */\n      dup2\n        /* \"#utility.yul\":10144:10160   */\n      swap1\n      pop\n        /* \"#utility.yul\":10090:10166   */\n      swap2\n      swap1\n      pop\n      jump\t// out\n        /* \"#utility.yul\":10172:10403   */\n    tag_107:\n        /* \"#utility.yul\":10210:10213   */\n      0x00\n        /* \"#utility.yul\":10233:10256   */\n      tag_282\n        /* \"#utility.yul\":10250:10255   */\n      dup3\n        /* \"#utility.yul\":10233:10256   */\n      tag_179\n      jump\t// in\n    tag_282:\n        /* \"#utility.yul\":10224:10256   */\n      swap2\n      pop\n        /* \"#utility.yul\":10278:10344   */\n      0x7fffffffffffffffffffffffffffffffffffffffffffffffffffffffffffffff\n        /* \"#utility.yul\":10271:10276   */\n      dup3\n        /* \"#utility.yul\":10268:10345   */\n      sub\n        /* \"#utility.yul\":10265:10368   */\n      tag_283\n      jumpi\n        /* \"#utility.yul\":10348:10366   */\n      tag_284\n      tag_172\n      jump\t// in\n    tag_284:\n        /* \"#utility.yul\":10265:10368   */\n    tag_283:\n        /* \"#utility.yul\":10395:10396   */\n      0x01\n        /* \"#utility.yul\":10388:10393   */\n      dup3\n        /* \"#utility.yul\":10384:10397   */\n      add\n        /* \"#utility.yul\":10377:10397   */\n      swap1\n      pop\n        /* \"#utility.yul\":10172:10403   */\n      swap2\n      swap1\n      pop\n      jump\t// out\n        /* \"#utility.yul\":10409:10579   */\n    tag_180:\n        /* \"#utility.yul\":10549:10571   */\n      0x53656e6420657861637420464420616d6f756e74000000000000000000000000\n        /* \"#utility.yul\":10545:10546   */\n      0x00\n        /* \"#utility.yul\":10537:10543   */\n      dup3\n        /* \"#utility.yul\":10533:10547   */\n      add\n        /* \"#utility.yul\":10526:10572   */\n      mstore\n        /* \"#utility.yul\":10409:10579   */\n      pop\n      jump\t// out\n        /* \"#utility.yul\":10585:10951   */\n    tag_181:\n        /* \"#utility.yul\":10727:10730   */\n      0x00\n        /* \"#utility.yul\":10748:10815   */\n      tag_287\n        /* \"#utility.yul\":10812:10814   */\n      0x14\n        /* \"#utility.yul\":10807:10810   */\n      dup4\n        /* \"#utility.yul\":10748:10815   */\n      tag_166\n      jump\t// in\n    tag_287:\n        /* \"#utility.yul\":10741:10815   */\n      swap2\n      pop\n        /* \"#utility.yul\":10824:10917   */\n      tag_288\n        /* \"#utility.yul\":10913:10916   */\n      dup3\n        /* \"#utility.yul\":10824:10917   */\n      tag_180\n      jump\t// in\n    tag_288:\n        /* \"#utility.yul\":10942:10944   */\n      0x20\n        /* \"#utility.yul\":10937:10940   */\n      dup3\n        /* \"#utility.yul\":10933:10945   */\n      add\n        /* \"#utility.yul\":10926:10945   */\n      swap1\n      pop\n        /* \"#utility.yul\":10585:10951   */\n      swap2\n      swap1\n      pop\n      jump\t// out\n        /* \"#utility.yul\":10957:11376   */\n    tag_123:\n        /* \"#utility.yul\":11123:11127   */\n      0x00\n        /* \"#utility.yul\":11161:11163   */\n      0x20\n        /* \"#utility.yul\":11150:11159   */\n      dup3\n        /* \"#utility.yul\":11146:11164   */\n      add\n        /* \"#utility.yul\":11138:11164   */\n      swap1\n      pop\n        /* \"#utility.yul\":11210:11219   */\n      dup2\n        /* \"#utility.yul\":11204:11208   */\n      dup2\n        /* \"#utility.yul\":11200:11220   */\n      sub\n        /* \"#utility.yul\":11196:11197   */\n      0x00\n        /* \"#utility.yul\":11185:11194   */\n      dup4\n        /* \"#utility.yul\":11181:11198   */\n      add\n        /* \"#utility.yul\":11174:11221   */\n      mstore\n        /* \"#utility.yul\":11238:11369   */\n      tag_290\n        /* \"#utility.yul\":11364:11368   */\n      dup2\n        /* \"#utility.yul\":11238:11369   */\n      tag_181\n      jump\t// in\n    tag_290:\n        /* \"#utility.yul\":11230:11369   */\n      swap1\n      pop\n        /* \"#utility.yul\":10957:11376   */\n      swap2\n      swap1\n      pop\n      jump\t// out\n        /* \"#utility.yul\":11382:11559   */\n    tag_182:\n        /* \"#utility.yul\":11522:11551   */\n      0x4e6f20464420666f756e6420666f72207468697320636c69656e740000000000\n        /* \"#utility.yul\":11518:11519   */\n      0x00\n        /* \"#utility.yul\":11510:11516   */\n      dup3\n        /* \"#utility.yul\":11506:11520   */\n      add\n        /* \"#utility.yul\":11499:11552   */\n      mstore\n        /* \"#utility.yul\":11382:11559   */\n      pop\n      jump\t// out\n        /* \"#utility.yul\":11565:11931   */\n    tag_183:\n        /* \"#utility.yul\":11707:11710   */\n      0x00\n        /* \"#utility.yul\":11728:11795   */\n      tag_293\n        /* \"#utility.yul\":11792:11794   */\n      0x1b\n        /* \"#utility.yul\":11787:11790   */\n      dup4\n        /* \"#utility.yul\":11728:11795   */\n      tag_166\n      jump\t// in\n    tag_293:\n        /* \"#utility.yul\":11721:11795   */\n      swap2\n      pop\n        /* \"#utility.yul\":11804:11897   */\n      tag_294\n        /* \"#utility.yul\":11893:11896   */\n      dup3\n        /* \"#utility.yul\":11804:11897   */\n      tag_182\n      jump\t// in\n    tag_294:\n        /* \"#utility.yul\":11922:11924   */\n      0x20\n        /* \"#utility.yul\":11917:11920   */\n      dup3\n        /* \"#utility.yul\":11913:11925   */\n      add\n        /* \"#utility.yul\":11906:11925   */\n      swap1\n      pop\n        /* \"#utility.yul\":11565:11931   */\n      swap2\n      swap1\n      pop\n      jump\t// out\n        /* \"#utility.yul\":11937:12356   */\n    tag_144:\n        /* \"#utility.yul\":12103:12107   */\n      0x00\n        /* \"#utility.yul\":12141:12143   */\n      0x20\n        /* \"#utility.yul\":12130:12139   */\n      dup3\n        /* \"#utility.yul\":12126:12144   */\n      add\n        /* \"#utility.yul\":12118:12144   */\n      swap1\n      pop\n        /* \"#utility.yul\":12190:12199   */\n      dup2\n        /* \"#utility.yul\":12184:12188   */\n      dup2\n        /* \"#utility.yul\":12180:12200   */\n      sub\n        /* \"#utility.yul\":12176:12177   */\n      0x00\n        /* \"#utility.yul\":12165:12174   */\n      dup4\n        /* \"#utility.yul\":12161:12178   */\n      add\n        /* \"#utility.yul\":12154:12201   */\n      mstore\n        /* \"#utility.yul\":12218:12349   */\n      tag_296\n        /* \"#utility.yul\":12344:12348   */\n      dup2\n        /* \"#utility.yul\":12218:12349   */\n      tag_183\n      jump\t// in\n    tag_296:\n        /* \"#utility.yul\":12210:12349   */\n      swap1\n      pop\n        /* \"#utility.yul\":11937:12356   */\n      swap2\n      swap1\n      pop\n      jump\t// out\n        /* \"#utility.yul\":12362:12542   */\n    tag_184:\n        /* \"#utility.yul\":12410:12487   */\n      0x4e487b7100000000000000000000000000000000000000000000000000000000\n        /* \"#utility.yul\":12407:12408   */\n      0x00\n        /* \"#utility.yul\":12400:12488   */\n      mstore\n        /* \"#utility.yul\":12507:12511   */\n      0x12\n        /* \"#utility.yul\":12504:12505   */\n      0x04\n        /* \"#utility.yul\":12497:12512   */\n      mstore\n        /* \"#utility.yul\":12531:12535   */\n      0x24\n        /* \"#utility.yul\":12528:12529   */\n      0x00\n        /* \"#utility.yul\":12521:12536   */\n      revert\n        /* \"#utility.yul\":12548:12733   */\n    tag_147:\n        /* \"#utility.yul\":12588:12589   */\n      0x00\n        /* \"#utility.yul\":12605:12625   */\n      tag_299\n        /* \"#utility.yul\":12623:12624   */\n      dup3\n        /* \"#utility.yul\":12605:12625   */\n      tag_155\n      jump\t// in\n    tag_299:\n        /* \"#utility.yul\":12600:12625   */\n      swap2\n      pop\n        /* \"#utility.yul\":12639:12659   */\n      tag_300\n        /* \"#utility.yul\":12657:12658   */\n      dup4\n        /* \"#utility.yul\":12639:12659   */\n      tag_155\n      jump\t// in\n    tag_300:\n        /* \"#utility.yul\":12634:12659   */\n      swap3\n      pop\n        /* \"#utility.yul\":12678:12679   */\n      dup3\n        /* \"#utility.yul\":12668:12703   */\n      tag_301\n      jumpi\n        /* \"#utility.yul\":12683:12701   */\n      tag_302\n      tag_184\n      jump\t// in\n    tag_302:\n        /* \"#utility.yul\":12668:12703   */\n    tag_301:\n        /* \"#utility.yul\":12725:12726   */\n      dup3\n        /* \"#utility.yul\":12722:12723   */\n      dup3\n        /* \"#utility.yul\":12718:12727   */\n      div\n        /* \"#utility.yul\":12713:12727   */\n      swap1\n      pop\n        /* \"#utility.yul\":12548:12733   */\n      swap3\n      swap2\n      pop\n      pop\n      jump\t// out\n\n    auxdata: 0xa26469706673582212204a897c0d207a83e0df3cdfb313e46bad721f99374ded7d5377f25ffc1ed9abcd64736f6c634300081e0033\n}\n",
				"bytecode": {
					"linkReferences": {},
					"object": "60806040525f60065f6101000a81548160ff0219169083151502179055503480156027575f5ffd5b505f6001819055506114828061003c5f395ff3fe60806040526004361061009f575f3560e01c8063a409217411610063578063a409217414610163578063b247334d14610181578063d0e30db01461019d578063d93330fd146101a7578063d9dca6c5146101e5578063e3ae469a14610221576100a6565b80632e1a7d4d146100aa5780636f9fb98a146100c657806373b4086b146100f05780638d2581041461012f5780639e0a5d6814610159576100a6565b366100a657005b5f5ffd5b6100c460048036038101906100bf9190610e03565b610249565b005b3480156100d1575f5ffd5b506100da610384565b6040516100e79190610e3d565b60405180910390f35b3480156100fb575f5ffd5b5061011660048036038101906101119190610eb0565b61038b565b6040516101269493929190610ef5565b60405180910390f35b34801561013a575f5ffd5b506101436103c3565b6040516101509190610fa8565b60405180910390f35b6101616104ae565b005b61016b6106c3565b6040516101789190610fa8565b60405180910390f35b61019b60048036038101906101969190610fc8565b6107f9565b005b6101a56109ff565b005b3480156101b2575f5ffd5b506101cd60048036038101906101c89190610eb0565b610b26565b6040516101dc93929190611006565b60405180910390f35b3480156101f0575f5ffd5b5061020b60048036038101906102069190610eb0565b610b4c565b6040516102189190610e3d565b60405180910390f35b34801561022c575f5ffd5b5061024760048036038101906102429190610eb0565b610b61565b005b5f5f90505f5f90505b5f805490508110156102e8573373ffffffffffffffffffffffffffffffffffffffff165f82815481106102885761028761103b565b5b905f5260205f2090600302016001015f9054906101000a900473ffffffffffffffffffffffffffffffffffffffff1673ffffffffffffffffffffffffffffffffffffffff16036102db57600191506102e8565b8080600101915050610252565b5080610329576040517f08c379a0000000000000000000000000000000000000000000000000000000008152600401610320906110b2565b60405180910390fd5b3373ffffffffffffffffffffffffffffffffffffffff166108fc670de0b6b3a76400008461035791906110fd565b90811502906040515f60405180830381858888f1935050505015801561037f573d5f5f3e3d5ffd5b505050565b5f47905090565b6005602052805f5260405f205f91509050805f015490806001015490806002015490806003015f9054906101000a900460ff16905084565b60605f151560065f9054906101000a900460ff16151514610419576040517f08c379a000000000000000000000000000000000000000000000000000000000815260040161041090611188565b60405180910390fd5b600160065f6101000a81548160ff0219169083151502179055503360025f6101000a81548173ffffffffffffffffffffffffffffffffffffffff021916908373ffffffffffffffffffffffffffffffffffffffff1602179055506040518060400160405280601781526020017f546865206d616e61676572206973206e6f772073657421000000000000000000815250905090565b60025f9054906101000a900473ffffffffffffffffffffffffffffffffffffffff1673ffffffffffffffffffffffffffffffffffffffff163373ffffffffffffffffffffffffffffffffffffffff161461053d576040517f08c379a0000000000000000000000000000000000000000000000000000000008152600401610534906111f0565b60405180910390fd5b5f5f90505b5f805490508110156106c0575f5f82815481106105625761056161103b565b5b905f5260205f2090600302016001015f9054906101000a900473ffffffffffffffffffffffffffffffffffffffff1690505f60035f8373ffffffffffffffffffffffffffffffffffffffff1673ffffffffffffffffffffffffffffffffffffffff1681526020019081526020015f20549050600a816105e1919061120e565b421015610623576040517f08c379a000000000000000000000000000000000000000000000000000000000815260040161061a906112b1565b60405180910390fd5b8173ffffffffffffffffffffffffffffffffffffffff166108fc670de0b6b3a764000090811502906040515f60405180830381858888f1935050505015801561066e573d5f5f3e3d5ffd5b504260035f8473ffffffffffffffffffffffffffffffffffffffff1673ffffffffffffffffffffffffffffffffffffffff1681526020019081526020015f208190555050508080600101915050610542565b50565b60604260035f3373ffffffffffffffffffffffffffffffffffffffff1673ffffffffffffffffffffffffffffffffffffffff1681526020019081526020015f20819055505f604051806060016040528060015f815480929190610725906112d8565b9190505581526020013373ffffffffffffffffffffffffffffffffffffffff1681526020013373ffffffffffffffffffffffffffffffffffffffff1631815250908060018154018082558091505060019003905f5260205f2090600302015f909190919091505f820151815f01556020820151816001015f6101000a81548173ffffffffffffffffffffffffffffffffffffffff021916908373ffffffffffffffffffffffffffffffffffffffff16021790555060408201518160020155505060405180602001604052805f815250905090565b5f5f90505f5f90505b5f80549050811015610898573373ffffffffffffffffffffffffffffffffffffffff165f82815481106108385761083761103b565b5b905f5260205f2090600302016001015f9054906101000a900473ffffffffffffffffffffffffffffffffffffffff1673ffffffffffffffffffffffffffffffffffffffff160361088b5760019150610898565b8080600101915050610802565b50806108d9576040517f08c379a00000000000000000000000000000000000000000000000000000000081526004016108d0906110b2565b60405180910390fd5b670de0b6b3a7640000836108ed91906110fd565b341461092e576040517f08c379a000000000000000000000000000000000000000000000000000000000815260040161092590611369565b60405180910390fd5b5f600590505f60045f3373ffffffffffffffffffffffffffffffffffffffff1673ffffffffffffffffffffffffffffffffffffffff1681526020019081526020015f205f015490506040518060600160405280868361098d919061120e565b81526020018581526020018381525060045f3373ffffffffffffffffffffffffffffffffffffffff1673ffffffffffffffffffffffffffffffffffffffff1681526020019081526020015f205f820151815f015560208201518160010155604082015181600201559050505050505050565b5f5f90505f5f90505b5f80549050811015610a9e573373ffffffffffffffffffffffffffffffffffffffff165f8281548110610a3e57610a3d61103b565b5b905f5260205f2090600302016001015f9054906101000a900473ffffffffffffffffffffffffffffffffffffffff1673ffffffffffffffffffffffffffffffffffffffff1603610a915760019150610a9e565b8080600101915050610a08565b5080610adf576040517f08c379a0000000000000000000000000000000000000000000000000000000008152600401610ad6906110b2565b60405180910390fd5b3073ffffffffffffffffffffffffffffffffffffffff166108fc3490811502906040515f60405180830381858888f19350505050158015610b22573d5f5f3e3d5ffd5b5050565b6004602052805f5260405f205f91509050805f0154908060010154908060020154905083565b6003602052805f5260405f205f915090505481565b60025f9054906101000a900473ffffffffffffffffffffffffffffffffffffffff1673ffffffffffffffffffffffffffffffffffffffff163373ffffffffffffffffffffffffffffffffffffffff1614610bf0576040517f08c379a0000000000000000000000000000000000000000000000000000000008152600401610be7906111f0565b60405180910390fd5b5f60045f8373ffffffffffffffffffffffffffffffffffffffff1673ffffffffffffffffffffffffffffffffffffffff1681526020019081526020015f206040518060600160405290815f82015481526020016001820154815260200160028201548152505090505f815f015111610c9d576040517f08c379a0000000000000000000000000000000000000000000000000000000008152600401610c94906113d1565b60405180910390fd5b5f600a90505f825f015190505f60648383610cb891906110fd565b610cc2919061141c565b82610ccd919061120e565b905060405180608001604052808381526020018481526020018281526020016001151581525060055f8773ffffffffffffffffffffffffffffffffffffffff1673ffffffffffffffffffffffffffffffffffffffff1681526020019081526020015f205f820151815f015560208201518160010155604082015181600201556060820151816003015f6101000a81548160ff0219169083151502179055509050508473ffffffffffffffffffffffffffffffffffffffff166108fc670de0b6b3a764000084610d9c91906110fd565b90811502906040515f60405180830381858888f19350505050158015610dc4573d5f5f3e3d5ffd5b505050505050565b5f5ffd5b5f819050919050565b610de281610dd0565b8114610dec575f5ffd5b50565b5f81359050610dfd81610dd9565b92915050565b5f60208284031215610e1857610e17610dcc565b5b5f610e2584828501610def565b91505092915050565b610e3781610dd0565b82525050565b5f602082019050610e505f830184610e2e565b92915050565b5f73ffffffffffffffffffffffffffffffffffffffff82169050919050565b5f610e7f82610e56565b9050919050565b610e8f81610e75565b8114610e99575f5ffd5b50565b5f81359050610eaa81610e86565b92915050565b5f60208284031215610ec557610ec4610dcc565b5b5f610ed284828501610e9c565b91505092915050565b5f8115159050919050565b610eef81610edb565b82525050565b5f608082019050610f085f830187610e2e565b610f156020830186610e2e565b610f226040830185610e2e565b610f2f6060830184610ee6565b95945050505050565b5f81519050919050565b5f82825260208201905092915050565b8281835e5f83830152505050565b5f601f19601f8301169050919050565b5f610f7a82610f38565b610f848185610f42565b9350610f94818560208601610f52565b610f9d81610f60565b840191505092915050565b5f6020820190508181035f830152610fc08184610f70565b905092915050565b5f5f60408385031215610fde57610fdd610dcc565b5b5f610feb85828601610def565b9250506020610ffc85828601610def565b9150509250929050565b5f6060820190506110195f830186610e2e565b6110266020830185610e2e565b6110336040830184610e2e565b949350505050565b7f4e487b71000000000000000000000000000000000000000000000000000000005f52603260045260245ffd5b7f4f6e6c7920636c69656e74732063616e2063616c6c20746869732100000000005f82015250565b5f61109c601b83610f42565b91506110a782611068565b602082019050919050565b5f6020820190508181035f8301526110c981611090565b9050919050565b7f4e487b71000000000000000000000000000000000000000000000000000000005f52601160045260245ffd5b5f61110782610dd0565b915061111283610dd0565b925082820261112081610dd0565b91508282048414831517611137576111366110d0565b5b5092915050565b7f546865206d616e6167657220697320616c7265616479207365740000000000005f82015250565b5f611172601a83610f42565b915061117d8261113e565b602082019050919050565b5f6020820190508181035f83015261119f81611166565b9050919050565b7f4f6e6c79206d616e616765722063616e2063616c6c20746869732100000000005f82015250565b5f6111da601b83610f42565b91506111e5826111a6565b602082019050919050565b5f6020820190508181035f830152611207816111ce565b9050919050565b5f61121882610dd0565b915061122383610dd0565b925082820190508082111561123b5761123a6110d0565b5b92915050565b7f49742773206a757374206265656e206c657373207468616e203130207365636f5f8201527f6e64732100000000000000000000000000000000000000000000000000000000602082015250565b5f61129b602483610f42565b91506112a682611241565b604082019050919050565b5f6020820190508181035f8301526112c88161128f565b9050919050565b5f819050919050565b5f6112e2826112cf565b91507f7fffffffffffffffffffffffffffffffffffffffffffffffffffffffffffffff8203611314576113136110d0565b5b600182019050919050565b7f53656e6420657861637420464420616d6f756e740000000000000000000000005f82015250565b5f611353601483610f42565b915061135e8261131f565b602082019050919050565b5f6020820190508181035f83015261138081611347565b9050919050565b7f4e6f20464420666f756e6420666f72207468697320636c69656e7400000000005f82015250565b5f6113bb601b83610f42565b91506113c682611387565b602082019050919050565b5f6020820190508181035f8301526113e8816113af565b9050919050565b7f4e487b71000000000000000000000000000000000000000000000000000000005f52601260045260245ffd5b5f61142682610dd0565b915061143183610dd0565b925082611441576114406113ef565b5b82820490509291505056fea26469706673582212204a897c0d207a83e0df3cdfb313e46bad721f99374ded7d5377f25ffc1ed9abcd64736f6c634300081e0033",
					"opcodes": "PUSH1 0x80 PUSH1 0x40 MSTORE PUSH0 PUSH1 0x6 PUSH0 PUSH2 0x100 EXP DUP2 SLOAD DUP2 PUSH1 0xFF MUL NOT AND SWAP1 DUP4 ISZERO ISZERO MUL OR SWAP1 SSTORE POP CALLVALUE DUP1 ISZERO PUSH1 0x27 JUMPI PUSH0 PUSH0 REVERT JUMPDEST POP PUSH0 PUSH1 0x1 DUP2 SWAP1 SSTORE POP PUSH2 0x1482 DUP1 PUSH2 0x3C PUSH0 CODECOPY PUSH0 RETURN INVALID PUSH1 0x80 PUSH1 0x40 MSTORE PUSH1 0x4 CALLDATASIZE LT PUSH2 0x9F JUMPI PUSH0 CALLDATALOAD PUSH1 0xE0 SHR DUP1 PUSH4 0xA4092174 GT PUSH2 0x63 JUMPI DUP1 PUSH4 0xA4092174 EQ PUSH2 0x163 JUMPI DUP1 PUSH4 0xB247334D EQ PUSH2 0x181 JUMPI DUP1 PUSH4 0xD0E30DB0 EQ PUSH2 0x19D JUMPI DUP1 PUSH4 0xD93330FD EQ PUSH2 0x1A7 JUMPI DUP1 PUSH4 0xD9DCA6C5 EQ PUSH2 0x1E5 JUMPI DUP1 PUSH4 0xE3AE469A EQ PUSH2 0x221 JUMPI PUSH2 0xA6 JUMP JUMPDEST DUP1 PUSH4 0x2E1A7D4D EQ PUSH2 0xAA JUMPI DUP1 PUSH4 0x6F9FB98A EQ PUSH2 0xC6 JUMPI DUP1 PUSH4 0x73B4086B EQ PUSH2 0xF0 JUMPI DUP1 PUSH4 0x8D258104 EQ PUSH2 0x12F JUMPI DUP1 PUSH4 0x9E0A5D68 EQ PUSH2 0x159 JUMPI PUSH2 0xA6 JUMP JUMPDEST CALLDATASIZE PUSH2 0xA6 JUMPI STOP JUMPDEST PUSH0 PUSH0 REVERT JUMPDEST PUSH2 0xC4 PUSH1 0x4 DUP1 CALLDATASIZE SUB DUP2 ADD SWAP1 PUSH2 0xBF SWAP2 SWAP1 PUSH2 0xE03 JUMP JUMPDEST PUSH2 0x249 JUMP JUMPDEST STOP JUMPDEST CALLVALUE DUP1 ISZERO PUSH2 0xD1 JUMPI PUSH0 PUSH0 REVERT JUMPDEST POP PUSH2 0xDA PUSH2 0x384 JUMP JUMPDEST PUSH1 0x40 MLOAD PUSH2 0xE7 SWAP2 SWAP1 PUSH2 0xE3D JUMP JUMPDEST PUSH1 0x40 MLOAD DUP1 SWAP2 SUB SWAP1 RETURN JUMPDEST CALLVALUE DUP1 ISZERO PUSH2 0xFB JUMPI PUSH0 PUSH0 REVERT JUMPDEST POP PUSH2 0x116 PUSH1 0x4 DUP1 CALLDATASIZE SUB DUP2 ADD SWAP1 PUSH2 0x111 SWAP2 SWAP1 PUSH2 0xEB0 JUMP JUMPDEST PUSH2 0x38B JUMP JUMPDEST PUSH1 0x40 MLOAD PUSH2 0x126 SWAP5 SWAP4 SWAP3 SWAP2 SWAP1 PUSH2 0xEF5 JUMP JUMPDEST PUSH1 0x40 MLOAD DUP1 SWAP2 SUB SWAP1 RETURN JUMPDEST CALLVALUE DUP1 ISZERO PUSH2 0x13A JUMPI PUSH0 PUSH0 REVERT JUMPDEST POP PUSH2 0x143 PUSH2 0x3C3 JUMP JUMPDEST PUSH1 0x40 MLOAD PUSH2 0x150 SWAP2 SWAP1 PUSH2 0xFA8 JUMP JUMPDEST PUSH1 0x40 MLOAD DUP1 SWAP2 SUB SWAP1 RETURN JUMPDEST PUSH2 0x161 PUSH2 0x4AE JUMP JUMPDEST STOP JUMPDEST PUSH2 0x16B PUSH2 0x6C3 JUMP JUMPDEST PUSH1 0x40 MLOAD PUSH2 0x178 SWAP2 SWAP1 PUSH2 0xFA8 JUMP JUMPDEST PUSH1 0x40 MLOAD DUP1 SWAP2 SUB SWAP1 RETURN JUMPDEST PUSH2 0x19B PUSH1 0x4 DUP1 CALLDATASIZE SUB DUP2 ADD SWAP1 PUSH2 0x196 SWAP2 SWAP1 PUSH2 0xFC8 JUMP JUMPDEST PUSH2 0x7F9 JUMP JUMPDEST STOP JUMPDEST PUSH2 0x1A5 PUSH2 0x9FF JUMP JUMPDEST STOP JUMPDEST CALLVALUE DUP1 ISZERO PUSH2 0x1B2 JUMPI PUSH0 PUSH0 REVERT JUMPDEST POP PUSH2 0x1CD PUSH1 0x4 DUP1 CALLDATASIZE SUB DUP2 ADD SWAP1 PUSH2 0x1C8 SWAP2 SWAP1 PUSH2 0xEB0 JUMP JUMPDEST PUSH2 0xB26 JUMP JUMPDEST PUSH1 0x40 MLOAD PUSH2 0x1DC SWAP4 SWAP3 SWAP2 SWAP1 PUSH2 0x1006 JUMP JUMPDEST PUSH1 0x40 MLOAD DUP1 SWAP2 SUB SWAP1 RETURN JUMPDEST CALLVALUE DUP1 ISZERO PUSH2 0x1F0 JUMPI PUSH0 PUSH0 REVERT JUMPDEST POP PUSH2 0x20B PUSH1 0x4 DUP1 CALLDATASIZE SUB DUP2 ADD SWAP1 PUSH2 0x206 SWAP2 SWAP1 PUSH2 0xEB0 JUMP JUMPDEST PUSH2 0xB4C JUMP JUMPDEST PUSH1 0x40 MLOAD PUSH2 0x218 SWAP2 SWAP1 PUSH2 0xE3D JUMP JUMPDEST PUSH1 0x40 MLOAD DUP1 SWAP2 SUB SWAP1 RETURN JUMPDEST CALLVALUE DUP1 ISZERO PUSH2 0x22C JUMPI PUSH0 PUSH0 REVERT JUMPDEST POP PUSH2 0x247 PUSH1 0x4 DUP1 CALLDATASIZE SUB DUP2 ADD SWAP1 PUSH2 0x242 SWAP2 SWAP1 PUSH2 0xEB0 JUMP JUMPDEST PUSH2 0xB61 JUMP JUMPDEST STOP JUMPDEST PUSH0 PUSH0 SWAP1 POP PUSH0 PUSH0 SWAP1 POP JUMPDEST PUSH0 DUP1 SLOAD SWAP1 POP DUP2 LT ISZERO PUSH2 0x2E8 JUMPI CALLER PUSH20 0xFFFFFFFFFFFFFFFFFFFFFFFFFFFFFFFFFFFFFFFF AND PUSH0 DUP3 DUP2 SLOAD DUP2 LT PUSH2 0x288 JUMPI PUSH2 0x287 PUSH2 0x103B JUMP JUMPDEST JUMPDEST SWAP1 PUSH0 MSTORE PUSH1 0x20 PUSH0 KECCAK256 SWAP1 PUSH1 0x3 MUL ADD PUSH1 0x1 ADD PUSH0 SWAP1 SLOAD SWAP1 PUSH2 0x100 EXP SWAP1 DIV PUSH20 0xFFFFFFFFFFFFFFFFFFFFFFFFFFFFFFFFFFFFFFFF AND PUSH20 0xFFFFFFFFFFFFFFFFFFFFFFFFFFFFFFFFFFFFFFFF AND SUB PUSH2 0x2DB JUMPI PUSH1 0x1 SWAP2 POP PUSH2 0x2E8 JUMP JUMPDEST DUP1 DUP1 PUSH1 0x1 ADD SWAP2 POP POP PUSH2 0x252 JUMP JUMPDEST POP DUP1 PUSH2 0x329 JUMPI PUSH1 0x40 MLOAD PUSH32 0x8C379A000000000000000000000000000000000000000000000000000000000 DUP2 MSTORE PUSH1 0x4 ADD PUSH2 0x320 SWAP1 PUSH2 0x10B2 JUMP JUMPDEST PUSH1 0x40 MLOAD DUP1 SWAP2 SUB SWAP1 REVERT JUMPDEST CALLER PUSH20 0xFFFFFFFFFFFFFFFFFFFFFFFFFFFFFFFFFFFFFFFF AND PUSH2 0x8FC PUSH8 0xDE0B6B3A7640000 DUP5 PUSH2 0x357 SWAP2 SWAP1 PUSH2 0x10FD JUMP JUMPDEST SWAP1 DUP2 ISZERO MUL SWAP1 PUSH1 0x40 MLOAD PUSH0 PUSH1 0x40 MLOAD DUP1 DUP4 SUB DUP2 DUP6 DUP9 DUP9 CALL SWAP4 POP POP POP POP ISZERO DUP1 ISZERO PUSH2 0x37F JUMPI RETURNDATASIZE PUSH0 PUSH0 RETURNDATACOPY RETURNDATASIZE PUSH0 REVERT JUMPDEST POP POP POP JUMP JUMPDEST PUSH0 SELFBALANCE SWAP1 POP SWAP1 JUMP JUMPDEST PUSH1 0x5 PUSH1 0x20 MSTORE DUP1 PUSH0 MSTORE PUSH1 0x40 PUSH0 KECCAK256 PUSH0 SWAP2 POP SWAP1 POP DUP1 PUSH0 ADD SLOAD SWAP1 DUP1 PUSH1 0x1 ADD SLOAD SWAP1 DUP1 PUSH1 0x2 ADD SLOAD SWAP1 DUP1 PUSH1 0x3 ADD PUSH0 SWAP1 SLOAD SWAP1 PUSH2 0x100 EXP SWAP1 DIV PUSH1 0xFF AND SWAP1 POP DUP5 JUMP JUMPDEST PUSH1 0x60 PUSH0 ISZERO ISZERO PUSH1 0x6 PUSH0 SWAP1 SLOAD SWAP1 PUSH2 0x100 EXP SWAP1 DIV PUSH1 0xFF AND ISZERO ISZERO EQ PUSH2 0x419 JUMPI PUSH1 0x40 MLOAD PUSH32 0x8C379A000000000000000000000000000000000000000000000000000000000 DUP2 MSTORE PUSH1 0x4 ADD PUSH2 0x410 SWAP1 PUSH2 0x1188 JUMP JUMPDEST PUSH1 0x40 MLOAD DUP1 SWAP2 SUB SWAP1 REVERT JUMPDEST PUSH1 0x1 PUSH1 0x6 PUSH0 PUSH2 0x100 EXP DUP2 SLOAD DUP2 PUSH1 0xFF MUL NOT AND SWAP1 DUP4 ISZERO ISZERO MUL OR SWAP1 SSTORE POP CALLER PUSH1 0x2 PUSH0 PUSH2 0x100 EXP DUP2 SLOAD DUP2 PUSH20 0xFFFFFFFFFFFFFFFFFFFFFFFFFFFFFFFFFFFFFFFF MUL NOT AND SWAP1 DUP4 PUSH20 0xFFFFFFFFFFFFFFFFFFFFFFFFFFFFFFFFFFFFFFFF AND MUL OR SWAP1 SSTORE POP PUSH1 0x40 MLOAD DUP1 PUSH1 0x40 ADD PUSH1 0x40 MSTORE DUP1 PUSH1 0x17 DUP2 MSTORE PUSH1 0x20 ADD PUSH32 0x546865206D616E61676572206973206E6F772073657421000000000000000000 DUP2 MSTORE POP SWAP1 POP SWAP1 JUMP JUMPDEST PUSH1 0x2 PUSH0 SWAP1 SLOAD SWAP1 PUSH2 0x100 EXP SWAP1 DIV PUSH20 0xFFFFFFFFFFFFFFFFFFFFFFFFFFFFFFFFFFFFFFFF AND PUSH20 0xFFFFFFFFFFFFFFFFFFFFFFFFFFFFFFFFFFFFFFFF AND CALLER PUSH20 0xFFFFFFFFFFFFFFFFFFFFFFFFFFFFFFFFFFFFFFFF AND EQ PUSH2 0x53D JUMPI PUSH1 0x40 MLOAD PUSH32 0x8C379A000000000000000000000000000000000000000000000000000000000 DUP2 MSTORE PUSH1 0x4 ADD PUSH2 0x534 SWAP1 PUSH2 0x11F0 JUMP JUMPDEST PUSH1 0x40 MLOAD DUP1 SWAP2 SUB SWAP1 REVERT JUMPDEST PUSH0 PUSH0 SWAP1 POP JUMPDEST PUSH0 DUP1 SLOAD SWAP1 POP DUP2 LT ISZERO PUSH2 0x6C0 JUMPI PUSH0 PUSH0 DUP3 DUP2 SLOAD DUP2 LT PUSH2 0x562 JUMPI PUSH2 0x561 PUSH2 0x103B JUMP JUMPDEST JUMPDEST SWAP1 PUSH0 MSTORE PUSH1 0x20 PUSH0 KECCAK256 SWAP1 PUSH1 0x3 MUL ADD PUSH1 0x1 ADD PUSH0 SWAP1 SLOAD SWAP1 PUSH2 0x100 EXP SWAP1 DIV PUSH20 0xFFFFFFFFFFFFFFFFFFFFFFFFFFFFFFFFFFFFFFFF AND SWAP1 POP PUSH0 PUSH1 0x3 PUSH0 DUP4 PUSH20 0xFFFFFFFFFFFFFFFFFFFFFFFFFFFFFFFFFFFFFFFF AND PUSH20 0xFFFFFFFFFFFFFFFFFFFFFFFFFFFFFFFFFFFFFFFF AND DUP2 MSTORE PUSH1 0x20 ADD SWAP1 DUP2 MSTORE PUSH1 0x20 ADD PUSH0 KECCAK256 SLOAD SWAP1 POP PUSH1 0xA DUP2 PUSH2 0x5E1 SWAP2 SWAP1 PUSH2 0x120E JUMP JUMPDEST TIMESTAMP LT ISZERO PUSH2 0x623 JUMPI PUSH1 0x40 MLOAD PUSH32 0x8C379A000000000000000000000000000000000000000000000000000000000 DUP2 MSTORE PUSH1 0x4 ADD PUSH2 0x61A SWAP1 PUSH2 0x12B1 JUMP JUMPDEST PUSH1 0x40 MLOAD DUP1 SWAP2 SUB SWAP1 REVERT JUMPDEST DUP2 PUSH20 0xFFFFFFFFFFFFFFFFFFFFFFFFFFFFFFFFFFFFFFFF AND PUSH2 0x8FC PUSH8 0xDE0B6B3A7640000 SWAP1 DUP2 ISZERO MUL SWAP1 PUSH1 0x40 MLOAD PUSH0 PUSH1 0x40 MLOAD DUP1 DUP4 SUB DUP2 DUP6 DUP9 DUP9 CALL SWAP4 POP POP POP POP ISZERO DUP1 ISZERO PUSH2 0x66E JUMPI RETURNDATASIZE PUSH0 PUSH0 RETURNDATACOPY RETURNDATASIZE PUSH0 REVERT JUMPDEST POP TIMESTAMP PUSH1 0x3 PUSH0 DUP5 PUSH20 0xFFFFFFFFFFFFFFFFFFFFFFFFFFFFFFFFFFFFFFFF AND PUSH20 0xFFFFFFFFFFFFFFFFFFFFFFFFFFFFFFFFFFFFFFFF AND DUP2 MSTORE PUSH1 0x20 ADD SWAP1 DUP2 MSTORE PUSH1 0x20 ADD PUSH0 KECCAK256 DUP2 SWAP1 SSTORE POP POP POP DUP1 DUP1 PUSH1 0x1 ADD SWAP2 POP POP PUSH2 0x542 JUMP JUMPDEST POP JUMP JUMPDEST PUSH1 0x60 TIMESTAMP PUSH1 0x3 PUSH0 CALLER PUSH20 0xFFFFFFFFFFFFFFFFFFFFFFFFFFFFFFFFFFFFFFFF AND PUSH20 0xFFFFFFFFFFFFFFFFFFFFFFFFFFFFFFFFFFFFFFFF AND DUP2 MSTORE PUSH1 0x20 ADD SWAP1 DUP2 MSTORE PUSH1 0x20 ADD PUSH0 KECCAK256 DUP2 SWAP1 SSTORE POP PUSH0 PUSH1 0x40 MLOAD DUP1 PUSH1 0x60 ADD PUSH1 0x40 MSTORE DUP1 PUSH1 0x1 PUSH0 DUP2 SLOAD DUP1 SWAP3 SWAP2 SWAP1 PUSH2 0x725 SWAP1 PUSH2 0x12D8 JUMP JUMPDEST SWAP2 SWAP1 POP SSTORE DUP2 MSTORE PUSH1 0x20 ADD CALLER PUSH20 0xFFFFFFFFFFFFFFFFFFFFFFFFFFFFFFFFFFFFFFFF AND DUP2 MSTORE PUSH1 0x20 ADD CALLER PUSH20 0xFFFFFFFFFFFFFFFFFFFFFFFFFFFFFFFFFFFFFFFF AND BALANCE DUP2 MSTORE POP SWAP1 DUP1 PUSH1 0x1 DUP2 SLOAD ADD DUP1 DUP3 SSTORE DUP1 SWAP2 POP POP PUSH1 0x1 SWAP1 SUB SWAP1 PUSH0 MSTORE PUSH1 0x20 PUSH0 KECCAK256 SWAP1 PUSH1 0x3 MUL ADD PUSH0 SWAP1 SWAP2 SWAP1 SWAP2 SWAP1 SWAP2 POP PUSH0 DUP3 ADD MLOAD DUP2 PUSH0 ADD SSTORE PUSH1 0x20 DUP3 ADD MLOAD DUP2 PUSH1 0x1 ADD PUSH0 PUSH2 0x100 EXP DUP2 SLOAD DUP2 PUSH20 0xFFFFFFFFFFFFFFFFFFFFFFFFFFFFFFFFFFFFFFFF MUL NOT AND SWAP1 DUP4 PUSH20 0xFFFFFFFFFFFFFFFFFFFFFFFFFFFFFFFFFFFFFFFF AND MUL OR SWAP1 SSTORE POP PUSH1 0x40 DUP3 ADD MLOAD DUP2 PUSH1 0x2 ADD SSTORE POP POP PUSH1 0x40 MLOAD DUP1 PUSH1 0x20 ADD PUSH1 0x40 MSTORE DUP1 PUSH0 DUP2 MSTORE POP SWAP1 POP SWAP1 JUMP JUMPDEST PUSH0 PUSH0 SWAP1 POP PUSH0 PUSH0 SWAP1 POP JUMPDEST PUSH0 DUP1 SLOAD SWAP1 POP DUP2 LT ISZERO PUSH2 0x898 JUMPI CALLER PUSH20 0xFFFFFFFFFFFFFFFFFFFFFFFFFFFFFFFFFFFFFFFF AND PUSH0 DUP3 DUP2 SLOAD DUP2 LT PUSH2 0x838 JUMPI PUSH2 0x837 PUSH2 0x103B JUMP JUMPDEST JUMPDEST SWAP1 PUSH0 MSTORE PUSH1 0x20 PUSH0 KECCAK256 SWAP1 PUSH1 0x3 MUL ADD PUSH1 0x1 ADD PUSH0 SWAP1 SLOAD SWAP1 PUSH2 0x100 EXP SWAP1 DIV PUSH20 0xFFFFFFFFFFFFFFFFFFFFFFFFFFFFFFFFFFFFFFFF AND PUSH20 0xFFFFFFFFFFFFFFFFFFFFFFFFFFFFFFFFFFFFFFFF AND SUB PUSH2 0x88B JUMPI PUSH1 0x1 SWAP2 POP PUSH2 0x898 JUMP JUMPDEST DUP1 DUP1 PUSH1 0x1 ADD SWAP2 POP POP PUSH2 0x802 JUMP JUMPDEST POP DUP1 PUSH2 0x8D9 JUMPI PUSH1 0x40 MLOAD PUSH32 0x8C379A000000000000000000000000000000000000000000000000000000000 DUP2 MSTORE PUSH1 0x4 ADD PUSH2 0x8D0 SWAP1 PUSH2 0x10B2 JUMP JUMPDEST PUSH1 0x40 MLOAD DUP1 SWAP2 SUB SWAP1 REVERT JUMPDEST PUSH8 0xDE0B6B3A7640000 DUP4 PUSH2 0x8ED SWAP2 SWAP1 PUSH2 0x10FD JUMP JUMPDEST CALLVALUE EQ PUSH2 0x92E JUMPI PUSH1 0x40 MLOAD PUSH32 0x8C379A000000000000000000000000000000000000000000000000000000000 DUP2 MSTORE PUSH1 0x4 ADD PUSH2 0x925 SWAP1 PUSH2 0x1369 JUMP JUMPDEST PUSH1 0x40 MLOAD DUP1 SWAP2 SUB SWAP1 REVERT JUMPDEST PUSH0 PUSH1 0x5 SWAP1 POP PUSH0 PUSH1 0x4 PUSH0 CALLER PUSH20 0xFFFFFFFFFFFFFFFFFFFFFFFFFFFFFFFFFFFFFFFF AND PUSH20 0xFFFFFFFFFFFFFFFFFFFFFFFFFFFFFFFFFFFFFFFF AND DUP2 MSTORE PUSH1 0x20 ADD SWAP1 DUP2 MSTORE PUSH1 0x20 ADD PUSH0 KECCAK256 PUSH0 ADD SLOAD SWAP1 POP PUSH1 0x40 MLOAD DUP1 PUSH1 0x60 ADD PUSH1 0x40 MSTORE DUP1 DUP7 DUP4 PUSH2 0x98D SWAP2 SWAP1 PUSH2 0x120E JUMP JUMPDEST DUP2 MSTORE PUSH1 0x20 ADD DUP6 DUP2 MSTORE PUSH1 0x20 ADD DUP4 DUP2 MSTORE POP PUSH1 0x4 PUSH0 CALLER PUSH20 0xFFFFFFFFFFFFFFFFFFFFFFFFFFFFFFFFFFFFFFFF AND PUSH20 0xFFFFFFFFFFFFFFFFFFFFFFFFFFFFFFFFFFFFFFFF AND DUP2 MSTORE PUSH1 0x20 ADD SWAP1 DUP2 MSTORE PUSH1 0x20 ADD PUSH0 KECCAK256 PUSH0 DUP3 ADD MLOAD DUP2 PUSH0 ADD SSTORE PUSH1 0x20 DUP3 ADD MLOAD DUP2 PUSH1 0x1 ADD SSTORE PUSH1 0x40 DUP3 ADD MLOAD DUP2 PUSH1 0x2 ADD SSTORE SWAP1 POP POP POP POP POP POP POP JUMP JUMPDEST PUSH0 PUSH0 SWAP1 POP PUSH0 PUSH0 SWAP1 POP JUMPDEST PUSH0 DUP1 SLOAD SWAP1 POP DUP2 LT ISZERO PUSH2 0xA9E JUMPI CALLER PUSH20 0xFFFFFFFFFFFFFFFFFFFFFFFFFFFFFFFFFFFFFFFF AND PUSH0 DUP3 DUP2 SLOAD DUP2 LT PUSH2 0xA3E JUMPI PUSH2 0xA3D PUSH2 0x103B JUMP JUMPDEST JUMPDEST SWAP1 PUSH0 MSTORE PUSH1 0x20 PUSH0 KECCAK256 SWAP1 PUSH1 0x3 MUL ADD PUSH1 0x1 ADD PUSH0 SWAP1 SLOAD SWAP1 PUSH2 0x100 EXP SWAP1 DIV PUSH20 0xFFFFFFFFFFFFFFFFFFFFFFFFFFFFFFFFFFFFFFFF AND PUSH20 0xFFFFFFFFFFFFFFFFFFFFFFFFFFFFFFFFFFFFFFFF AND SUB PUSH2 0xA91 JUMPI PUSH1 0x1 SWAP2 POP PUSH2 0xA9E JUMP JUMPDEST DUP1 DUP1 PUSH1 0x1 ADD SWAP2 POP POP PUSH2 0xA08 JUMP JUMPDEST POP DUP1 PUSH2 0xADF JUMPI PUSH1 0x40 MLOAD PUSH32 0x8C379A000000000000000000000000000000000000000000000000000000000 DUP2 MSTORE PUSH1 0x4 ADD PUSH2 0xAD6 SWAP1 PUSH2 0x10B2 JUMP JUMPDEST PUSH1 0x40 MLOAD DUP1 SWAP2 SUB SWAP1 REVERT JUMPDEST ADDRESS PUSH20 0xFFFFFFFFFFFFFFFFFFFFFFFFFFFFFFFFFFFFFFFF AND PUSH2 0x8FC CALLVALUE SWAP1 DUP2 ISZERO MUL SWAP1 PUSH1 0x40 MLOAD PUSH0 PUSH1 0x40 MLOAD DUP1 DUP4 SUB DUP2 DUP6 DUP9 DUP9 CALL SWAP4 POP POP POP POP ISZERO DUP1 ISZERO PUSH2 0xB22 JUMPI RETURNDATASIZE PUSH0 PUSH0 RETURNDATACOPY RETURNDATASIZE PUSH0 REVERT JUMPDEST POP POP JUMP JUMPDEST PUSH1 0x4 PUSH1 0x20 MSTORE DUP1 PUSH0 MSTORE PUSH1 0x40 PUSH0 KECCAK256 PUSH0 SWAP2 POP SWAP1 POP DUP1 PUSH0 ADD SLOAD SWAP1 DUP1 PUSH1 0x1 ADD SLOAD SWAP1 DUP1 PUSH1 0x2 ADD SLOAD SWAP1 POP DUP4 JUMP JUMPDEST PUSH1 0x3 PUSH1 0x20 MSTORE DUP1 PUSH0 MSTORE PUSH1 0x40 PUSH0 KECCAK256 PUSH0 SWAP2 POP SWAP1 POP SLOAD DUP2 JUMP JUMPDEST PUSH1 0x2 PUSH0 SWAP1 SLOAD SWAP1 PUSH2 0x100 EXP SWAP1 DIV PUSH20 0xFFFFFFFFFFFFFFFFFFFFFFFFFFFFFFFFFFFFFFFF AND PUSH20 0xFFFFFFFFFFFFFFFFFFFFFFFFFFFFFFFFFFFFFFFF AND CALLER PUSH20 0xFFFFFFFFFFFFFFFFFFFFFFFFFFFFFFFFFFFFFFFF AND EQ PUSH2 0xBF0 JUMPI PUSH1 0x40 MLOAD PUSH32 0x8C379A000000000000000000000000000000000000000000000000000000000 DUP2 MSTORE PUSH1 0x4 ADD PUSH2 0xBE7 SWAP1 PUSH2 0x11F0 JUMP JUMPDEST PUSH1 0x40 MLOAD DUP1 SWAP2 SUB SWAP1 REVERT JUMPDEST PUSH0 PUSH1 0x4 PUSH0 DUP4 PUSH20 0xFFFFFFFFFFFFFFFFFFFFFFFFFFFFFFFFFFFFFFFF AND PUSH20 0xFFFFFFFFFFFFFFFFFFFFFFFFFFFFFFFFFFFFFFFF AND DUP2 MSTORE PUSH1 0x20 ADD SWAP1 DUP2 MSTORE PUSH1 0x20 ADD PUSH0 KECCAK256 PUSH1 0x40 MLOAD DUP1 PUSH1 0x60 ADD PUSH1 0x40 MSTORE SWAP1 DUP2 PUSH0 DUP3 ADD SLOAD DUP2 MSTORE PUSH1 0x20 ADD PUSH1 0x1 DUP3 ADD SLOAD DUP2 MSTORE PUSH1 0x20 ADD PUSH1 0x2 DUP3 ADD SLOAD DUP2 MSTORE POP POP SWAP1 POP PUSH0 DUP2 PUSH0 ADD MLOAD GT PUSH2 0xC9D JUMPI PUSH1 0x40 MLOAD PUSH32 0x8C379A000000000000000000000000000000000000000000000000000000000 DUP2 MSTORE PUSH1 0x4 ADD PUSH2 0xC94 SWAP1 PUSH2 0x13D1 JUMP JUMPDEST PUSH1 0x40 MLOAD DUP1 SWAP2 SUB SWAP1 REVERT JUMPDEST PUSH0 PUSH1 0xA SWAP1 POP PUSH0 DUP3 PUSH0 ADD MLOAD SWAP1 POP PUSH0 PUSH1 0x64 DUP4 DUP4 PUSH2 0xCB8 SWAP2 SWAP1 PUSH2 0x10FD JUMP JUMPDEST PUSH2 0xCC2 SWAP2 SWAP1 PUSH2 0x141C JUMP JUMPDEST DUP3 PUSH2 0xCCD SWAP2 SWAP1 PUSH2 0x120E JUMP JUMPDEST SWAP1 POP PUSH1 0x40 MLOAD DUP1 PUSH1 0x80 ADD PUSH1 0x40 MSTORE DUP1 DUP4 DUP2 MSTORE PUSH1 0x20 ADD DUP5 DUP2 MSTORE PUSH1 0x20 ADD DUP3 DUP2 MSTORE PUSH1 0x20 ADD PUSH1 0x1 ISZERO ISZERO DUP2 MSTORE POP PUSH1 0x5 PUSH0 DUP8 PUSH20 0xFFFFFFFFFFFFFFFFFFFFFFFFFFFFFFFFFFFFFFFF AND PUSH20 0xFFFFFFFFFFFFFFFFFFFFFFFFFFFFFFFFFFFFFFFF AND DUP2 MSTORE PUSH1 0x20 ADD SWAP1 DUP2 MSTORE PUSH1 0x20 ADD PUSH0 KECCAK256 PUSH0 DUP3 ADD MLOAD DUP2 PUSH0 ADD SSTORE PUSH1 0x20 DUP3 ADD MLOAD DUP2 PUSH1 0x1 ADD SSTORE PUSH1 0x40 DUP3 ADD MLOAD DUP2 PUSH1 0x2 ADD SSTORE PUSH1 0x60 DUP3 ADD MLOAD DUP2 PUSH1 0x3 ADD PUSH0 PUSH2 0x100 EXP DUP2 SLOAD DUP2 PUSH1 0xFF MUL NOT AND SWAP1 DUP4 ISZERO ISZERO MUL OR SWAP1 SSTORE POP SWAP1 POP POP DUP5 PUSH20 0xFFFFFFFFFFFFFFFFFFFFFFFFFFFFFFFFFFFFFFFF AND PUSH2 0x8FC PUSH8 0xDE0B6B3A7640000 DUP5 PUSH2 0xD9C SWAP2 SWAP1 PUSH2 0x10FD JUMP JUMPDEST SWAP1 DUP2 ISZERO MUL SWAP1 PUSH1 0x40 MLOAD PUSH0 PUSH1 0x40 MLOAD DUP1 DUP4 SUB DUP2 DUP6 DUP9 DUP9 CALL SWAP4 POP POP POP POP ISZERO DUP1 ISZERO PUSH2 0xDC4 JUMPI RETURNDATASIZE PUSH0 PUSH0 RETURNDATACOPY RETURNDATASIZE PUSH0 REVERT JUMPDEST POP POP POP POP POP POP JUMP JUMPDEST PUSH0 PUSH0 REVERT JUMPDEST PUSH0 DUP2 SWAP1 POP SWAP2 SWAP1 POP JUMP JUMPDEST PUSH2 0xDE2 DUP2 PUSH2 0xDD0 JUMP JUMPDEST DUP2 EQ PUSH2 0xDEC JUMPI PUSH0 PUSH0 REVERT JUMPDEST POP JUMP JUMPDEST PUSH0 DUP2 CALLDATALOAD SWAP1 POP PUSH2 0xDFD DUP2 PUSH2 0xDD9 JUMP JUMPDEST SWAP3 SWAP2 POP POP JUMP JUMPDEST PUSH0 PUSH1 0x20 DUP3 DUP5 SUB SLT ISZERO PUSH2 0xE18 JUMPI PUSH2 0xE17 PUSH2 0xDCC JUMP JUMPDEST JUMPDEST PUSH0 PUSH2 0xE25 DUP5 DUP3 DUP6 ADD PUSH2 0xDEF JUMP JUMPDEST SWAP2 POP POP SWAP3 SWAP2 POP POP JUMP JUMPDEST PUSH2 0xE37 DUP2 PUSH2 0xDD0 JUMP JUMPDEST DUP3 MSTORE POP POP JUMP JUMPDEST PUSH0 PUSH1 0x20 DUP3 ADD SWAP1 POP PUSH2 0xE50 PUSH0 DUP4 ADD DUP5 PUSH2 0xE2E JUMP JUMPDEST SWAP3 SWAP2 POP POP JUMP JUMPDEST PUSH0 PUSH20 0xFFFFFFFFFFFFFFFFFFFFFFFFFFFFFFFFFFFFFFFF DUP3 AND SWAP1 POP SWAP2 SWAP1 POP JUMP JUMPDEST PUSH0 PUSH2 0xE7F DUP3 PUSH2 0xE56 JUMP JUMPDEST SWAP1 POP SWAP2 SWAP1 POP JUMP JUMPDEST PUSH2 0xE8F DUP2 PUSH2 0xE75 JUMP JUMPDEST DUP2 EQ PUSH2 0xE99 JUMPI PUSH0 PUSH0 REVERT JUMPDEST POP JUMP JUMPDEST PUSH0 DUP2 CALLDATALOAD SWAP1 POP PUSH2 0xEAA DUP2 PUSH2 0xE86 JUMP JUMPDEST SWAP3 SWAP2 POP POP JUMP JUMPDEST PUSH0 PUSH1 0x20 DUP3 DUP5 SUB SLT ISZERO PUSH2 0xEC5 JUMPI PUSH2 0xEC4 PUSH2 0xDCC JUMP JUMPDEST JUMPDEST PUSH0 PUSH2 0xED2 DUP5 DUP3 DUP6 ADD PUSH2 0xE9C JUMP JUMPDEST SWAP2 POP POP SWAP3 SWAP2 POP POP JUMP JUMPDEST PUSH0 DUP2 ISZERO ISZERO SWAP1 POP SWAP2 SWAP1 POP JUMP JUMPDEST PUSH2 0xEEF DUP2 PUSH2 0xEDB JUMP JUMPDEST DUP3 MSTORE POP POP JUMP JUMPDEST PUSH0 PUSH1 0x80 DUP3 ADD SWAP1 POP PUSH2 0xF08 PUSH0 DUP4 ADD DUP8 PUSH2 0xE2E JUMP JUMPDEST PUSH2 0xF15 PUSH1 0x20 DUP4 ADD DUP7 PUSH2 0xE2E JUMP JUMPDEST PUSH2 0xF22 PUSH1 0x40 DUP4 ADD DUP6 PUSH2 0xE2E JUMP JUMPDEST PUSH2 0xF2F PUSH1 0x60 DUP4 ADD DUP5 PUSH2 0xEE6 JUMP JUMPDEST SWAP6 SWAP5 POP POP POP POP POP JUMP JUMPDEST PUSH0 DUP2 MLOAD SWAP1 POP SWAP2 SWAP1 POP JUMP JUMPDEST PUSH0 DUP3 DUP3 MSTORE PUSH1 0x20 DUP3 ADD SWAP1 POP SWAP3 SWAP2 POP POP JUMP JUMPDEST DUP3 DUP2 DUP4 MCOPY PUSH0 DUP4 DUP4 ADD MSTORE POP POP POP JUMP JUMPDEST PUSH0 PUSH1 0x1F NOT PUSH1 0x1F DUP4 ADD AND SWAP1 POP SWAP2 SWAP1 POP JUMP JUMPDEST PUSH0 PUSH2 0xF7A DUP3 PUSH2 0xF38 JUMP JUMPDEST PUSH2 0xF84 DUP2 DUP6 PUSH2 0xF42 JUMP JUMPDEST SWAP4 POP PUSH2 0xF94 DUP2 DUP6 PUSH1 0x20 DUP7 ADD PUSH2 0xF52 JUMP JUMPDEST PUSH2 0xF9D DUP2 PUSH2 0xF60 JUMP JUMPDEST DUP5 ADD SWAP2 POP POP SWAP3 SWAP2 POP POP JUMP JUMPDEST PUSH0 PUSH1 0x20 DUP3 ADD SWAP1 POP DUP2 DUP2 SUB PUSH0 DUP4 ADD MSTORE PUSH2 0xFC0 DUP2 DUP5 PUSH2 0xF70 JUMP JUMPDEST SWAP1 POP SWAP3 SWAP2 POP POP JUMP JUMPDEST PUSH0 PUSH0 PUSH1 0x40 DUP4 DUP6 SUB SLT ISZERO PUSH2 0xFDE JUMPI PUSH2 0xFDD PUSH2 0xDCC JUMP JUMPDEST JUMPDEST PUSH0 PUSH2 0xFEB DUP6 DUP3 DUP7 ADD PUSH2 0xDEF JUMP JUMPDEST SWAP3 POP POP PUSH1 0x20 PUSH2 0xFFC DUP6 DUP3 DUP7 ADD PUSH2 0xDEF JUMP JUMPDEST SWAP2 POP POP SWAP3 POP SWAP3 SWAP1 POP JUMP JUMPDEST PUSH0 PUSH1 0x60 DUP3 ADD SWAP1 POP PUSH2 0x1019 PUSH0 DUP4 ADD DUP7 PUSH2 0xE2E JUMP JUMPDEST PUSH2 0x1026 PUSH1 0x20 DUP4 ADD DUP6 PUSH2 0xE2E JUMP JUMPDEST PUSH2 0x1033 PUSH1 0x40 DUP4 ADD DUP5 PUSH2 0xE2E JUMP JUMPDEST SWAP5 SWAP4 POP POP POP POP JUMP JUMPDEST PUSH32 0x4E487B7100000000000000000000000000000000000000000000000000000000 PUSH0 MSTORE PUSH1 0x32 PUSH1 0x4 MSTORE PUSH1 0x24 PUSH0 REVERT JUMPDEST PUSH32 0x4F6E6C7920636C69656E74732063616E2063616C6C2074686973210000000000 PUSH0 DUP3 ADD MSTORE POP JUMP JUMPDEST PUSH0 PUSH2 0x109C PUSH1 0x1B DUP4 PUSH2 0xF42 JUMP JUMPDEST SWAP2 POP PUSH2 0x10A7 DUP3 PUSH2 0x1068 JUMP JUMPDEST PUSH1 0x20 DUP3 ADD SWAP1 POP SWAP2 SWAP1 POP JUMP JUMPDEST PUSH0 PUSH1 0x20 DUP3 ADD SWAP1 POP DUP2 DUP2 SUB PUSH0 DUP4 ADD MSTORE PUSH2 0x10C9 DUP2 PUSH2 0x1090 JUMP JUMPDEST SWAP1 POP SWAP2 SWAP1 POP JUMP JUMPDEST PUSH32 0x4E487B7100000000000000000000000000000000000000000000000000000000 PUSH0 MSTORE PUSH1 0x11 PUSH1 0x4 MSTORE PUSH1 0x24 PUSH0 REVERT JUMPDEST PUSH0 PUSH2 0x1107 DUP3 PUSH2 0xDD0 JUMP JUMPDEST SWAP2 POP PUSH2 0x1112 DUP4 PUSH2 0xDD0 JUMP JUMPDEST SWAP3 POP DUP3 DUP3 MUL PUSH2 0x1120 DUP2 PUSH2 0xDD0 JUMP JUMPDEST SWAP2 POP DUP3 DUP3 DIV DUP5 EQ DUP4 ISZERO OR PUSH2 0x1137 JUMPI PUSH2 0x1136 PUSH2 0x10D0 JUMP JUMPDEST JUMPDEST POP SWAP3 SWAP2 POP POP JUMP JUMPDEST PUSH32 0x546865206D616E6167657220697320616C726561647920736574000000000000 PUSH0 DUP3 ADD MSTORE POP JUMP JUMPDEST PUSH0 PUSH2 0x1172 PUSH1 0x1A DUP4 PUSH2 0xF42 JUMP JUMPDEST SWAP2 POP PUSH2 0x117D DUP3 PUSH2 0x113E JUMP JUMPDEST PUSH1 0x20 DUP3 ADD SWAP1 POP SWAP2 SWAP1 POP JUMP JUMPDEST PUSH0 PUSH1 0x20 DUP3 ADD SWAP1 POP DUP2 DUP2 SUB PUSH0 DUP4 ADD MSTORE PUSH2 0x119F DUP2 PUSH2 0x1166 JUMP JUMPDEST SWAP1 POP SWAP2 SWAP1 POP JUMP JUMPDEST PUSH32 0x4F6E6C79206D616E616765722063616E2063616C6C2074686973210000000000 PUSH0 DUP3 ADD MSTORE POP JUMP JUMPDEST PUSH0 PUSH2 0x11DA PUSH1 0x1B DUP4 PUSH2 0xF42 JUMP JUMPDEST SWAP2 POP PUSH2 0x11E5 DUP3 PUSH2 0x11A6 JUMP JUMPDEST PUSH1 0x20 DUP3 ADD SWAP1 POP SWAP2 SWAP1 POP JUMP JUMPDEST PUSH0 PUSH1 0x20 DUP3 ADD SWAP1 POP DUP2 DUP2 SUB PUSH0 DUP4 ADD MSTORE PUSH2 0x1207 DUP2 PUSH2 0x11CE JUMP JUMPDEST SWAP1 POP SWAP2 SWAP1 POP JUMP JUMPDEST PUSH0 PUSH2 0x1218 DUP3 PUSH2 0xDD0 JUMP JUMPDEST SWAP2 POP PUSH2 0x1223 DUP4 PUSH2 0xDD0 JUMP JUMPDEST SWAP3 POP DUP3 DUP3 ADD SWAP1 POP DUP1 DUP3 GT ISZERO PUSH2 0x123B JUMPI PUSH2 0x123A PUSH2 0x10D0 JUMP JUMPDEST JUMPDEST SWAP3 SWAP2 POP POP JUMP JUMPDEST PUSH32 0x49742773206A757374206265656E206C657373207468616E203130207365636F PUSH0 DUP3 ADD MSTORE PUSH32 0x6E64732100000000000000000000000000000000000000000000000000000000 PUSH1 0x20 DUP3 ADD MSTORE POP JUMP JUMPDEST PUSH0 PUSH2 0x129B PUSH1 0x24 DUP4 PUSH2 0xF42 JUMP JUMPDEST SWAP2 POP PUSH2 0x12A6 DUP3 PUSH2 0x1241 JUMP JUMPDEST PUSH1 0x40 DUP3 ADD SWAP1 POP SWAP2 SWAP1 POP JUMP JUMPDEST PUSH0 PUSH1 0x20 DUP3 ADD SWAP1 POP DUP2 DUP2 SUB PUSH0 DUP4 ADD MSTORE PUSH2 0x12C8 DUP2 PUSH2 0x128F JUMP JUMPDEST SWAP1 POP SWAP2 SWAP1 POP JUMP JUMPDEST PUSH0 DUP2 SWAP1 POP SWAP2 SWAP1 POP JUMP JUMPDEST PUSH0 PUSH2 0x12E2 DUP3 PUSH2 0x12CF JUMP JUMPDEST SWAP2 POP PUSH32 0x7FFFFFFFFFFFFFFFFFFFFFFFFFFFFFFFFFFFFFFFFFFFFFFFFFFFFFFFFFFFFFFF DUP3 SUB PUSH2 0x1314 JUMPI PUSH2 0x1313 PUSH2 0x10D0 JUMP JUMPDEST JUMPDEST PUSH1 0x1 DUP3 ADD SWAP1 POP SWAP2 SWAP1 POP JUMP JUMPDEST PUSH32 0x53656E6420657861637420464420616D6F756E74000000000000000000000000 PUSH0 DUP3 ADD MSTORE POP JUMP JUMPDEST PUSH0 PUSH2 0x1353 PUSH1 0x14 DUP4 PUSH2 0xF42 JUMP JUMPDEST SWAP2 POP PUSH2 0x135E DUP3 PUSH2 0x131F JUMP JUMPDEST PUSH1 0x20 DUP3 ADD SWAP1 POP SWAP2 SWAP1 POP JUMP JUMPDEST PUSH0 PUSH1 0x20 DUP3 ADD SWAP1 POP DUP2 DUP2 SUB PUSH0 DUP4 ADD MSTORE PUSH2 0x1380 DUP2 PUSH2 0x1347 JUMP JUMPDEST SWAP1 POP SWAP2 SWAP1 POP JUMP JUMPDEST PUSH32 0x4E6F20464420666F756E6420666F72207468697320636C69656E740000000000 PUSH0 DUP3 ADD MSTORE POP JUMP JUMPDEST PUSH0 PUSH2 0x13BB PUSH1 0x1B DUP4 PUSH2 0xF42 JUMP JUMPDEST SWAP2 POP PUSH2 0x13C6 DUP3 PUSH2 0x1387 JUMP JUMPDEST PUSH1 0x20 DUP3 ADD SWAP1 POP SWAP2 SWAP1 POP JUMP JUMPDEST PUSH0 PUSH1 0x20 DUP3 ADD SWAP1 POP DUP2 DUP2 SUB PUSH0 DUP4 ADD MSTORE PUSH2 0x13E8 DUP2 PUSH2 0x13AF JUMP JUMPDEST SWAP1 POP SWAP2 SWAP1 POP JUMP JUMPDEST PUSH32 0x4E487B7100000000000000000000000000000000000000000000000000000000 PUSH0 MSTORE PUSH1 0x12 PUSH1 0x4 MSTORE PUSH1 0x24 PUSH0 REVERT JUMPDEST PUSH0 PUSH2 0x1426 DUP3 PUSH2 0xDD0 JUMP JUMPDEST SWAP2 POP PUSH2 0x1431 DUP4 PUSH2 0xDD0 JUMP JUMPDEST SWAP3 POP DUP3 PUSH2 0x1441 JUMPI PUSH2 0x1440 PUSH2 0x13EF JUMP JUMPDEST JUMPDEST DUP3 DUP3 DIV SWAP1 POP SWAP3 SWAP2 POP POP JUMP INVALID LOG2 PUSH5 0x6970667358 0x22 SLT KECCAK256 BLOBBASEFEE DUP10 PUSH29 0xD207A83E0DF3CDFB313E46BAD721F99374DED7D5377F25FFC1ED9ABCD PUSH5 0x736F6C6343 STOP ADDMOD 0x1E STOP CALLER "
				},
				"gasEstimates": {
					"creation": {
						"codeDepositCost": "1050000",
						"executionCost": "30370",
						"totalCost": "1080370"
					},
					"external": {
						"createFixedDeposit(uint256,uint256)": "infinite",
						"deposit()": "infinite",
						"fixedDeposits(address)": "infinite",
						"getContractBalance()": "357",
						"grantLoan(address)": "infinite",
						"interestDate(address)": "2890",
						"joinAsClient()": "infinite",
						"loans(address)": "infinite",
						"sendInterest()": "infinite",
						"setManager()": "infinite",
						"withdraw(uint256)": "infinite"
					}
				},
				"methodIdentifiers": {
					"createFixedDeposit(uint256,uint256)": "b247334d",
					"deposit()": "d0e30db0",
					"fixedDeposits(address)": "d93330fd",
					"getContractBalance()": "6f9fb98a",
					"grantLoan(address)": "e3ae469a",
					"interestDate(address)": "d9dca6c5",
					"joinAsClient()": "a4092174",
					"loans(address)": "73b4086b",
					"sendInterest()": "9e0a5d68",
					"setManager()": "8d258104",
					"withdraw(uint256)": "2e1a7d4d"
				}
			},
			"storageLayout": {
				"storage": [
					{
						"astId": 28,
						"contract": "Bank.sol:Bank",
						"label": "clients",
						"offset": 0,
						"slot": "0",
						"type": "t_array(t_struct(client_account)8_storage)dyn_storage"
					},
					{
						"astId": 30,
						"contract": "Bank.sol:Bank",
						"label": "clientCounter",
						"offset": 0,
						"slot": "1",
						"type": "t_int256"
					},
					{
						"astId": 32,
						"contract": "Bank.sol:Bank",
						"label": "manager",
						"offset": 0,
						"slot": "2",
						"type": "t_address_payable"
					},
					{
						"astId": 36,
						"contract": "Bank.sol:Bank",
						"label": "interestDate",
						"offset": 0,
						"slot": "3",
						"type": "t_mapping(t_address,t_uint256)"
					},
					{
						"astId": 41,
						"contract": "Bank.sol:Bank",
						"label": "fixedDeposits",
						"offset": 0,
						"slot": "4",
						"type": "t_mapping(t_address,t_struct(FixedDeposit)15_storage)"
					},
					{
						"astId": 46,
						"contract": "Bank.sol:Bank",
						"label": "loans",
						"offset": 0,
						"slot": "5",
						"type": "t_mapping(t_address,t_struct(Loan)24_storage)"
					},
					{
						"astId": 49,
						"contract": "Bank.sol:Bank",
						"label": "isManagerSet",
						"offset": 0,
						"slot": "6",
						"type": "t_bool"
					}
				],
				"types": {
					"t_address": {
						"encoding": "inplace",
						"label": "address",
						"numberOfBytes": "20"
					},
					"t_address_payable": {
						"encoding": "inplace",
						"label": "address payable",
						"numberOfBytes": "20"
					},
					"t_array(t_struct(client_account)8_storage)dyn_storage": {
						"base": "t_struct(client_account)8_storage",
						"encoding": "dynamic_array",
						"label": "struct Bank.client_account[]",
						"numberOfBytes": "32"
					},
					"t_bool": {
						"encoding": "inplace",
						"label": "bool",
						"numberOfBytes": "1"
					},
					"t_int256": {
						"encoding": "inplace",
						"label": "int256",
						"numberOfBytes": "32"
					},
					"t_mapping(t_address,t_struct(FixedDeposit)15_storage)": {
						"encoding": "mapping",
						"key": "t_address",
						"label": "mapping(address => struct Bank.FixedDeposit)",
						"numberOfBytes": "32",
						"value": "t_struct(FixedDeposit)15_storage"
					},
					"t_mapping(t_address,t_struct(Loan)24_storage)": {
						"encoding": "mapping",
						"key": "t_address",
						"label": "mapping(address => struct Bank.Loan)",
						"numberOfBytes": "32",
						"value": "t_struct(Loan)24_storage"
					},
					"t_mapping(t_address,t_uint256)": {
						"encoding": "mapping",
						"key": "t_address",
						"label": "mapping(address => uint256)",
						"numberOfBytes": "32",
						"value": "t_uint256"
					},
					"t_struct(FixedDeposit)15_storage": {
						"encoding": "inplace",
						"label": "struct Bank.FixedDeposit",
						"members": [
							{
								"astId": 10,
								"contract": "Bank.sol:Bank",
								"label": "amount",
								"offset": 0,
								"slot": "0",
								"type": "t_uint256"
							},
							{
								"astId": 12,
								"contract": "Bank.sol:Bank",
								"label": "lockPeriod",
								"offset": 0,
								"slot": "1",
								"type": "t_uint256"
							},
							{
								"astId": 14,
								"contract": "Bank.sol:Bank",
								"label": "interestRate",
								"offset": 0,
								"slot": "2",
								"type": "t_uint256"
							}
						],
						"numberOfBytes": "96"
					},
					"t_struct(Loan)24_storage": {
						"encoding": "inplace",
						"label": "struct Bank.Loan",
						"members": [
							{
								"astId": 17,
								"contract": "Bank.sol:Bank",
								"label": "amount",
								"offset": 0,
								"slot": "0",
								"type": "t_uint256"
							},
							{
								"astId": 19,
								"contract": "Bank.sol:Bank",
								"label": "interestRate",
								"offset": 0,
								"slot": "1",
								"type": "t_uint256"
							},
							{
								"astId": 21,
								"contract": "Bank.sol:Bank",
								"label": "totalPayable",
								"offset": 0,
								"slot": "2",
								"type": "t_uint256"
							},
							{
								"astId": 23,
								"contract": "Bank.sol:Bank",
								"label": "approved",
								"offset": 0,
								"slot": "3",
								"type": "t_bool"
							}
						],
						"numberOfBytes": "128"
					},
					"t_struct(client_account)8_storage": {
						"encoding": "inplace",
						"label": "struct Bank.client_account",
						"members": [
							{
								"astId": 3,
								"contract": "Bank.sol:Bank",
								"label": "client_id",
								"offset": 0,
								"slot": "0",
								"type": "t_int256"
							},
							{
								"astId": 5,
								"contract": "Bank.sol:Bank",
								"label": "client_address",
								"offset": 0,
								"slot": "1",
								"type": "t_address"
							},
							{
								"astId": 7,
								"contract": "Bank.sol:Bank",
								"label": "client_balance_in_ether",
								"offset": 0,
								"slot": "2",
								"type": "t_uint256"
							}
						],
						"numberOfBytes": "96"
					},
					"t_uint256": {
						"encoding": "inplace",
						"label": "uint256",
						"numberOfBytes": "32"
					}
				}
			},
			"userdoc": {
				"kind": "user",
				"methods": {},
				"version": 1
			}
		}
	}
}