{
	"Bank.sol": {
		"Bank": {
			"abi": [
				{
					"inputs": [],
					"stateMutability": "nonpayable",
					"type": "constructor"
				},
				{
					"inputs": [],
					"name": "deposit",
					"outputs": [],
					"stateMutability": "payable",
					"type": "function"
				},
				{
					"inputs": [],
					"name": "getContractBalance",
					"outputs": [
						{
							"internalType": "uint256",
							"name": "",
							"type": "uint256"
						}
					],
					"stateMutability": "view",
					"type": "function"
				},
				{
					"inputs": [
						{
							"internalType": "address",
							"name": "",
							"type": "address"
						}
					],
					"name": "interestDate",
					"outputs": [
						{
							"internalType": "uint256",
							"name": "",
							"type": "uint256"
						}
					],
					"stateMutability": "view",
					"type": "function"
				},
				{
					"inputs": [],
					"name": "joinAsClient",
					"outputs": [
						{
							"internalType": "string",
							"name": "",
							"type": "string"
						}
					],
					"stateMutability": "payable",
					"type": "function"
				},
				{
					"inputs": [],
					"name": "sendInterest",
					"outputs": [],
					"stateMutability": "payable",
					"type": "function"
				},
				{
					"inputs": [
						{
							"internalType": "address",
							"name": "managerAddress",
							"type": "address"
						}
					],
					"name": "setManager",
					"outputs": [
						{
							"internalType": "string",
							"name": "",
							"type": "string"
						}
					],
					"stateMutability": "nonpayable",
					"type": "function"
				},
				{
					"inputs": [
						{
							"internalType": "uint256",
							"name": "amount",
							"type": "uint256"
						}
					],
					"name": "withdraw",
					"outputs": [],
					"stateMutability": "payable",
					"type": "function"
				},
				{
					"stateMutability": "payable",
					"type": "receive"
				}
			],
			"devdoc": {
				"kind": "dev",
				"methods": {},
				"version": 1
			},
			"evm": {
				"assembly": "    /* \"Bank.sol\":58:2153  contract Bank{... */\n  mstore(0x40, 0x80)\n    /* \"Bank.sol\":794:843  constructor() { ... */\n  callvalue\n  dup1\n  iszero\n  tag_1\n  jumpi\n  revert(0x00, 0x00)\ntag_1:\n  pop\n    /* \"Bank.sol\":835:836  0 */\n  0x00\n    /* \"Bank.sol\":819:832  clientCounter */\n  0x01\n    /* \"Bank.sol\":819:836  clientCounter = 0 */\n  dup2\n  swap1\n  sstore\n  pop\n    /* \"Bank.sol\":58:2153  contract Bank{... */\n  dataSize(sub_0)\n  dup1\n  dataOffset(sub_0)\n  0x00\n  codecopy\n  0x00\n  return\nstop\n\nsub_0: assembly {\n        /* \"Bank.sol\":58:2153  contract Bank{... */\n      mstore(0x40, 0x80)\n      jumpi(tag_1, lt(calldatasize, 0x04))\n      shr(0xe0, calldataload(0x00))\n      dup1\n      0xa4092174\n      gt\n      tag_10\n      jumpi\n      dup1\n      0xa4092174\n      eq\n      tag_6\n      jumpi\n      dup1\n      0xd0e30db0\n      eq\n      tag_7\n      jumpi\n      dup1\n      0xd0ebdbe7\n      eq\n      tag_8\n      jumpi\n      dup1\n      0xd9dca6c5\n      eq\n      tag_9\n      jumpi\n      jump(tag_2)\n    tag_10:\n      dup1\n      0x2e1a7d4d\n      eq\n      tag_3\n      jumpi\n      dup1\n      0x6f9fb98a\n      eq\n      tag_4\n      jumpi\n      dup1\n      0x9e0a5d68\n      eq\n      tag_5\n      jumpi\n      jump(tag_2)\n    tag_1:\n      jumpi(tag_2, calldatasize)\n      stop\n    tag_2:\n      revert(0x00, 0x00)\n        /* \"Bank.sol\":1412:1532  function withdraw(uint amount) public payable onlyClients{... */\n    tag_3:\n      tag_13\n      0x04\n      dup1\n      calldatasize\n      sub\n      dup2\n      add\n      swap1\n      tag_14\n      swap2\n      swap1\n      tag_15\n      jump\t// in\n    tag_14:\n      tag_16\n      jump\t// in\n    tag_13:\n      stop\n        /* \"Bank.sol\":2051:2151  function getContractBalance() public view returns(uint){... */\n    tag_4:\n      callvalue\n      dup1\n      iszero\n      tag_17\n      jumpi\n      revert(0x00, 0x00)\n    tag_17:\n      pop\n      tag_18\n      tag_19\n      jump\t// in\n    tag_18:\n      mload(0x40)\n      tag_20\n      swap2\n      swap1\n      tag_21\n      jump\t// in\n    tag_20:\n      mload(0x40)\n      dup1\n      swap2\n      sub\n      swap1\n      return\n        /* \"Bank.sol\":1542:2041  function sendInterest() public payable onlyManager{... */\n    tag_5:\n      tag_22\n      tag_23\n      jump\t// in\n    tag_22:\n      stop\n        /* \"Bank.sol\":1044:1288  function joinAsClient() public payable returns(string memory){... */\n    tag_6:\n      tag_24\n      tag_25\n      jump\t// in\n    tag_24:\n      mload(0x40)\n      tag_26\n      swap2\n      swap1\n      tag_27\n      jump\t// in\n    tag_26:\n      mload(0x40)\n      dup1\n      swap2\n      sub\n      swap1\n      return\n        /* \"Bank.sol\":1298:1402  function deposit() public payable onlyClients{... */\n    tag_7:\n      tag_28\n      tag_29\n      jump\t// in\n    tag_28:\n      stop\n        /* \"Bank.sol\":893:1035  function setManager(address managerAddress) public returns(string memory){... */\n    tag_8:\n      callvalue\n      dup1\n      iszero\n      tag_30\n      jumpi\n      revert(0x00, 0x00)\n    tag_30:\n      pop\n      tag_31\n      0x04\n      dup1\n      calldatasize\n      sub\n      dup2\n      add\n      swap1\n      tag_32\n      swap2\n      swap1\n      tag_33\n      jump\t// in\n    tag_32:\n      tag_34\n      jump\t// in\n    tag_31:\n      mload(0x40)\n      tag_35\n      swap2\n      swap1\n      tag_27\n      jump\t// in\n    tag_35:\n      mload(0x40)\n      dup1\n      swap2\n      sub\n      swap1\n      return\n        /* \"Bank.sol\":296:340  mapping(address => uint) public interestDate */\n    tag_9:\n      callvalue\n      dup1\n      iszero\n      tag_36\n      jumpi\n      revert(0x00, 0x00)\n    tag_36:\n      pop\n      tag_37\n      0x04\n      dup1\n      calldatasize\n      sub\n      dup2\n      add\n      swap1\n      tag_38\n      swap2\n      swap1\n      tag_33\n      jump\t// in\n    tag_38:\n      tag_39\n      jump\t// in\n    tag_37:\n      mload(0x40)\n      tag_40\n      swap2\n      swap1\n      tag_21\n      jump\t// in\n    tag_40:\n      mload(0x40)\n      dup1\n      swap2\n      sub\n      swap1\n      return\n        /* \"Bank.sol\":1412:1532  function withdraw(uint amount) public payable onlyClients{... */\n    tag_16:\n        /* \"Bank.sol\":506:519  bool isclient */\n      0x00\n        /* \"Bank.sol\":522:527  false */\n      0x00\n        /* \"Bank.sol\":506:527  bool isclient = false */\n      swap1\n      pop\n        /* \"Bank.sol\":541:547  uint i */\n      0x00\n        /* \"Bank.sol\":548:549  0 */\n      0x00\n        /* \"Bank.sol\":541:549  uint i=0 */\n      swap1\n      pop\n        /* \"Bank.sol\":537:709  for(uint i=0;i<clients.length;i++){... */\n    tag_42:\n        /* \"Bank.sol\":552:559  clients */\n      0x00\n        /* \"Bank.sol\":552:566  clients.length */\n      dup1\n      sload\n      swap1\n      pop\n        /* \"Bank.sol\":550:551  i */\n      dup2\n        /* \"Bank.sol\":550:566  i<clients.length */\n      lt\n        /* \"Bank.sol\":537:709  for(uint i=0;i<clients.length;i++){... */\n      iszero\n      tag_43\n      jumpi\n        /* \"Bank.sol\":617:627  msg.sender */\n      caller\n        /* \"Bank.sol\":588:627  clients[i].client_address == msg.sender */\n      0xffffffffffffffffffffffffffffffffffffffff\n      and\n        /* \"Bank.sol\":588:595  clients */\n      0x00\n        /* \"Bank.sol\":596:597  i */\n      dup3\n        /* \"Bank.sol\":588:598  clients[i] */\n      dup2\n      sload\n      dup2\n      lt\n      tag_45\n      jumpi\n      tag_46\n      tag_47\n      jump\t// in\n    tag_46:\n    tag_45:\n      swap1\n      0x00\n      mstore\n      keccak256(0x00, 0x20)\n      swap1\n      0x03\n      mul\n      add\n        /* \"Bank.sol\":588:613  clients[i].client_address */\n      0x01\n      add\n      0x00\n      swap1\n      sload\n      swap1\n      0x0100\n      exp\n      swap1\n      div\n      0xffffffffffffffffffffffffffffffffffffffff\n      and\n        /* \"Bank.sol\":588:627  clients[i].client_address == msg.sender */\n      0xffffffffffffffffffffffffffffffffffffffff\n      and\n      sub\n        /* \"Bank.sol\":585:699  if(clients[i].client_address == msg.sender){... */\n      tag_49\n      jumpi\n        /* \"Bank.sol\":657:661  true */\n      0x01\n        /* \"Bank.sol\":646:661  isclient = true */\n      swap2\n      pop\n        /* \"Bank.sol\":679:684  break */\n      jump(tag_43)\n        /* \"Bank.sol\":585:699  if(clients[i].client_address == msg.sender){... */\n    tag_49:\n        /* \"Bank.sol\":567:570  i++ */\n      dup1\n      dup1\n      0x01\n      add\n      swap2\n      pop\n      pop\n        /* \"Bank.sol\":537:709  for(uint i=0;i<clients.length;i++){... */\n      jump(tag_42)\n    tag_43:\n      pop\n        /* \"Bank.sol\":726:734  isclient */\n      dup1\n        /* \"Bank.sol\":718:766  require(isclient, \"Only clients can call this!\") */\n      tag_50\n      jumpi\n      mload(0x40)\n      0x08c379a000000000000000000000000000000000000000000000000000000000\n      dup2\n      mstore\n      0x04\n      add\n      tag_51\n      swap1\n      tag_52\n      jump\t// in\n    tag_51:\n      mload(0x40)\n      dup1\n      swap2\n      sub\n      swap1\n      revert\n    tag_50:\n        /* \"Bank.sol\":1487:1497  msg.sender */\n      caller\n        /* \"Bank.sol\":1479:1507  payable(msg.sender).transfer */\n      0xffffffffffffffffffffffffffffffffffffffff\n      and\n        /* \"Bank.sol\":1479:1525  payable(msg.sender).transfer(amount * 1 ether) */\n      0x08fc\n        /* \"Bank.sol\":1517:1524  1 ether */\n      0x0de0b6b3a7640000\n        /* \"Bank.sol\":1508:1514  amount */\n      dup5\n        /* \"Bank.sol\":1508:1524  amount * 1 ether */\n      tag_54\n      swap2\n      swap1\n      tag_55\n      jump\t// in\n    tag_54:\n        /* \"Bank.sol\":1479:1525  payable(msg.sender).transfer(amount * 1 ether) */\n      swap1\n      dup2\n      iszero\n      mul\n      swap1\n      mload(0x40)\n      0x00\n      mload(0x40)\n      dup1\n      dup4\n      sub\n      dup2\n      dup6\n      dup9\n      dup9\n      call\n      swap4\n      pop\n      pop\n      pop\n      pop\n      iszero\n      dup1\n      iszero\n      tag_57\n      jumpi\n      returndatacopy(0x00, 0x00, returndatasize)\n      revert(0x00, returndatasize)\n    tag_57:\n      pop\n        /* \"Bank.sol\":496:784  {... */\n      pop\n        /* \"Bank.sol\":1412:1532  function withdraw(uint amount) public payable onlyClients{... */\n      pop\n      jump\t// out\n        /* \"Bank.sol\":2051:2151  function getContractBalance() public view returns(uint){... */\n    tag_19:\n        /* \"Bank.sol\":2101:2105  uint */\n      0x00\n        /* \"Bank.sol\":2123:2144  address(this).balance */\n      selfbalance\n        /* \"Bank.sol\":2116:2144  return address(this).balance */\n      swap1\n      pop\n        /* \"Bank.sol\":2051:2151  function getContractBalance() public view returns(uint){... */\n      swap1\n      jump\t// out\n        /* \"Bank.sol\":1542:2041  function sendInterest() public payable onlyManager{... */\n    tag_23:\n        /* \"Bank.sol\":406:413  manager */\n      0x02\n      0x00\n      swap1\n      sload\n      swap1\n      0x0100\n      exp\n      swap1\n      div\n      0xffffffffffffffffffffffffffffffffffffffff\n      and\n        /* \"Bank.sol\":392:413  msg.sender == manager */\n      0xffffffffffffffffffffffffffffffffffffffff\n      and\n        /* \"Bank.sol\":392:402  msg.sender */\n      caller\n        /* \"Bank.sol\":392:413  msg.sender == manager */\n      0xffffffffffffffffffffffffffffffffffffffff\n      and\n      eq\n        /* \"Bank.sol\":384:445  require(msg.sender == manager, \"Only manager can call this!\") */\n      tag_60\n      jumpi\n      mload(0x40)\n      0x08c379a000000000000000000000000000000000000000000000000000000000\n      dup2\n      mstore\n      0x04\n      add\n      tag_61\n      swap1\n      tag_62\n      jump\t// in\n    tag_61:\n      mload(0x40)\n      dup1\n      swap2\n      sub\n      swap1\n      revert\n    tag_60:\n        /* \"Bank.sol\":1606:1612  uint i */\n      0x00\n        /* \"Bank.sol\":1613:1614  0 */\n      0x00\n        /* \"Bank.sol\":1606:1614  uint i=0 */\n      swap1\n      pop\n        /* \"Bank.sol\":1602:2035  for(uint i=0;i<clients.length;i++){... */\n    tag_64:\n        /* \"Bank.sol\":1617:1624  clients */\n      0x00\n        /* \"Bank.sol\":1617:1631  clients.length */\n      dup1\n      sload\n      swap1\n      pop\n        /* \"Bank.sol\":1615:1616  i */\n      dup2\n        /* \"Bank.sol\":1615:1631  i<clients.length */\n      lt\n        /* \"Bank.sol\":1602:2035  for(uint i=0;i<clients.length;i++){... */\n      iszero\n      tag_65\n      jumpi\n        /* \"Bank.sol\":1650:1672  address initialAddress */\n      0x00\n        /* \"Bank.sol\":1675:1682  clients */\n      0x00\n        /* \"Bank.sol\":1683:1684  i */\n      dup3\n        /* \"Bank.sol\":1675:1685  clients[i] */\n      dup2\n      sload\n      dup2\n      lt\n      tag_67\n      jumpi\n      tag_68\n      tag_47\n      jump\t// in\n    tag_68:\n    tag_67:\n      swap1\n      0x00\n      mstore\n      keccak256(0x00, 0x20)\n      swap1\n      0x03\n      mul\n      add\n        /* \"Bank.sol\":1675:1700  clients[i].client_address */\n      0x01\n      add\n      0x00\n      swap1\n      sload\n      swap1\n      0x0100\n      exp\n      swap1\n      div\n      0xffffffffffffffffffffffffffffffffffffffff\n      and\n        /* \"Bank.sol\":1650:1700  address initialAddress = clients[i].client_address */\n      swap1\n      pop\n        /* \"Bank.sol\":1714:1735  uint lastInterestDate */\n      0x00\n        /* \"Bank.sol\":1738:1750  interestDate */\n      0x03\n        /* \"Bank.sol\":1738:1766  interestDate[initialAddress] */\n      0x00\n        /* \"Bank.sol\":1751:1765  initialAddress */\n      dup4\n        /* \"Bank.sol\":1738:1766  interestDate[initialAddress] */\n      0xffffffffffffffffffffffffffffffffffffffff\n      and\n      0xffffffffffffffffffffffffffffffffffffffff\n      and\n      dup2\n      mstore\n      0x20\n      add\n      swap1\n      dup2\n      mstore\n      0x20\n      add\n      0x00\n      keccak256\n      sload\n        /* \"Bank.sol\":1714:1766  uint lastInterestDate = interestDate[initialAddress] */\n      swap1\n      pop\n        /* \"Bank.sol\":1820:1830  10 seconds */\n      0x0a\n        /* \"Bank.sol\":1801:1817  lastInterestDate */\n      dup2\n        /* \"Bank.sol\":1801:1830  lastInterestDate + 10 seconds */\n      tag_70\n      swap2\n      swap1\n      tag_71\n      jump\t// in\n    tag_70:\n        /* \"Bank.sol\":1783:1798  block.timestamp */\n      timestamp\n        /* \"Bank.sol\":1783:1830  block.timestamp < lastInterestDate + 10 seconds */\n      lt\n        /* \"Bank.sol\":1780:1910  if(block.timestamp < lastInterestDate + 10 seconds){... */\n      iszero\n      tag_72\n      jumpi\n        /* \"Bank.sol\":1849:1895  revert(\"It's just been less than 10 seconds!\") */\n      mload(0x40)\n      0x08c379a000000000000000000000000000000000000000000000000000000000\n      dup2\n      mstore\n      0x04\n      add\n      tag_73\n      swap1\n      tag_74\n      jump\t// in\n    tag_73:\n      mload(0x40)\n      dup1\n      swap2\n      sub\n      swap1\n      revert\n        /* \"Bank.sol\":1780:1910  if(block.timestamp < lastInterestDate + 10 seconds){... */\n    tag_72:\n        /* \"Bank.sol\":1931:1945  initialAddress */\n      dup2\n        /* \"Bank.sol\":1923:1955  payable(initialAddress).transfer */\n      0xffffffffffffffffffffffffffffffffffffffff\n      and\n        /* \"Bank.sol\":1923:1964  payable(initialAddress).transfer(1 ether) */\n      0x08fc\n        /* \"Bank.sol\":1956:1963  1 ether */\n      0x0de0b6b3a7640000\n        /* \"Bank.sol\":1923:1964  payable(initialAddress).transfer(1 ether) */\n      swap1\n      dup2\n      iszero\n      mul\n      swap1\n      mload(0x40)\n      0x00\n      mload(0x40)\n      dup1\n      dup4\n      sub\n      dup2\n      dup6\n      dup9\n      dup9\n      call\n      swap4\n      pop\n      pop\n      pop\n      pop\n      iszero\n      dup1\n      iszero\n      tag_76\n      jumpi\n      returndatacopy(0x00, 0x00, returndatasize)\n      revert(0x00, returndatasize)\n    tag_76:\n      pop\n        /* \"Bank.sol\":2009:2024  block.timestamp */\n      timestamp\n        /* \"Bank.sol\":1978:1990  interestDate */\n      0x03\n        /* \"Bank.sol\":1978:2006  interestDate[initialAddress] */\n      0x00\n        /* \"Bank.sol\":1991:2005  initialAddress */\n      dup5\n        /* \"Bank.sol\":1978:2006  interestDate[initialAddress] */\n      0xffffffffffffffffffffffffffffffffffffffff\n      and\n      0xffffffffffffffffffffffffffffffffffffffff\n      and\n      dup2\n      mstore\n      0x20\n      add\n      swap1\n      dup2\n      mstore\n      0x20\n      add\n      0x00\n      keccak256\n        /* \"Bank.sol\":1978:2024  interestDate[initialAddress] = block.timestamp */\n      dup2\n      swap1\n      sstore\n      pop\n        /* \"Bank.sol\":1636:2035  {... */\n      pop\n      pop\n        /* \"Bank.sol\":1632:1635  i++ */\n      dup1\n      dup1\n      0x01\n      add\n      swap2\n      pop\n      pop\n        /* \"Bank.sol\":1602:2035  for(uint i=0;i<clients.length;i++){... */\n      jump(tag_64)\n    tag_65:\n      pop\n        /* \"Bank.sol\":1542:2041  function sendInterest() public payable onlyManager{... */\n      jump\t// out\n        /* \"Bank.sol\":1044:1288  function joinAsClient() public payable returns(string memory){... */\n    tag_25:\n        /* \"Bank.sol\":1091:1104  string memory */\n      0x60\n        /* \"Bank.sol\":1151:1166  block.timestamp */\n      timestamp\n        /* \"Bank.sol\":1115:1127  interestDate */\n      0x03\n        /* \"Bank.sol\":1115:1148  interestDate[payable(msg.sender)] */\n      0x00\n        /* \"Bank.sol\":1136:1146  msg.sender */\n      caller\n        /* \"Bank.sol\":1115:1148  interestDate[payable(msg.sender)] */\n      0xffffffffffffffffffffffffffffffffffffffff\n      and\n      0xffffffffffffffffffffffffffffffffffffffff\n      and\n      dup2\n      mstore\n      0x20\n      add\n      swap1\n      dup2\n      mstore\n      0x20\n      add\n      0x00\n      keccak256\n        /* \"Bank.sol\":1115:1166  interestDate[payable(msg.sender)] = block.timestamp */\n      dup2\n      swap1\n      sstore\n      pop\n        /* \"Bank.sol\":1176:1183  clients */\n      0x00\n        /* \"Bank.sol\":1189:1261  client_account(clientCounter++, msg.sender, address(msg.sender).balance) */\n      mload(0x40)\n      dup1\n      0x60\n      add\n      0x40\n      mstore\n      dup1\n        /* \"Bank.sol\":1204:1217  clientCounter */\n      0x01\n      0x00\n        /* \"Bank.sol\":1204:1219  clientCounter++ */\n      dup2\n      sload\n      dup1\n      swap3\n      swap2\n      swap1\n      tag_78\n      swap1\n      tag_79\n      jump\t// in\n    tag_78:\n      swap2\n      swap1\n      pop\n      sstore\n        /* \"Bank.sol\":1189:1261  client_account(clientCounter++, msg.sender, address(msg.sender).balance) */\n      dup2\n      mstore\n      0x20\n      add\n        /* \"Bank.sol\":1221:1231  msg.sender */\n      caller\n        /* \"Bank.sol\":1189:1261  client_account(clientCounter++, msg.sender, address(msg.sender).balance) */\n      0xffffffffffffffffffffffffffffffffffffffff\n      and\n      dup2\n      mstore\n      0x20\n      add\n        /* \"Bank.sol\":1241:1251  msg.sender */\n      caller\n        /* \"Bank.sol\":1233:1260  address(msg.sender).balance */\n      0xffffffffffffffffffffffffffffffffffffffff\n      and\n      balance\n        /* \"Bank.sol\":1189:1261  client_account(clientCounter++, msg.sender, address(msg.sender).balance) */\n      dup2\n      mstore\n      pop\n        /* \"Bank.sol\":1176:1262  clients.push(client_account(clientCounter++, msg.sender, address(msg.sender).balance)) */\n      swap1\n      dup1\n      0x01\n      dup2\n      sload\n      add\n      dup1\n      dup3\n      sstore\n      dup1\n      swap2\n      pop\n      pop\n      0x01\n      swap1\n      sub\n      swap1\n      0x00\n      mstore\n      keccak256(0x00, 0x20)\n      swap1\n      0x03\n      mul\n      add\n      0x00\n      swap1\n      swap2\n      swap1\n      swap2\n      swap1\n      swap2\n      pop\n      0x00\n      dup3\n      add\n      mload\n      dup2\n      0x00\n      add\n      sstore\n      0x20\n      dup3\n      add\n      mload\n      dup2\n      0x01\n      add\n      exp(0x0100, 0x00)\n      dup2\n      sload\n      dup2\n      0xffffffffffffffffffffffffffffffffffffffff\n      mul\n      not\n      and\n      swap1\n      dup4\n      0xffffffffffffffffffffffffffffffffffffffff\n      and\n      mul\n      or\n      swap1\n      sstore\n      pop\n      0x40\n      dup3\n      add\n      mload\n      dup2\n      0x02\n      add\n      sstore\n      pop\n      pop\n        /* \"Bank.sol\":1272:1281  return \"\" */\n      mload(0x40)\n      dup1\n      0x20\n      add\n      0x40\n      mstore\n      dup1\n      0x00\n      dup2\n      mstore\n      pop\n      swap1\n      pop\n        /* \"Bank.sol\":1044:1288  function joinAsClient() public payable returns(string memory){... */\n      swap1\n      jump\t// out\n        /* \"Bank.sol\":1298:1402  function deposit() public payable onlyClients{... */\n    tag_29:\n        /* \"Bank.sol\":506:519  bool isclient */\n      0x00\n        /* \"Bank.sol\":522:527  false */\n      0x00\n        /* \"Bank.sol\":506:527  bool isclient = false */\n      swap1\n      pop\n        /* \"Bank.sol\":541:547  uint i */\n      0x00\n        /* \"Bank.sol\":548:549  0 */\n      0x00\n        /* \"Bank.sol\":541:549  uint i=0 */\n      swap1\n      pop\n        /* \"Bank.sol\":537:709  for(uint i=0;i<clients.length;i++){... */\n    tag_82:\n        /* \"Bank.sol\":552:559  clients */\n      0x00\n        /* \"Bank.sol\":552:566  clients.length */\n      dup1\n      sload\n      swap1\n      pop\n        /* \"Bank.sol\":550:551  i */\n      dup2\n        /* \"Bank.sol\":550:566  i<clients.length */\n      lt\n        /* \"Bank.sol\":537:709  for(uint i=0;i<clients.length;i++){... */\n      iszero\n      tag_83\n      jumpi\n        /* \"Bank.sol\":617:627  msg.sender */\n      caller\n        /* \"Bank.sol\":588:627  clients[i].client_address == msg.sender */\n      0xffffffffffffffffffffffffffffffffffffffff\n      and\n        /* \"Bank.sol\":588:595  clients */\n      0x00\n        /* \"Bank.sol\":596:597  i */\n      dup3\n        /* \"Bank.sol\":588:598  clients[i] */\n      dup2\n      sload\n      dup2\n      lt\n      tag_85\n      jumpi\n      tag_86\n      tag_47\n      jump\t// in\n    tag_86:\n    tag_85:\n      swap1\n      0x00\n      mstore\n      keccak256(0x00, 0x20)\n      swap1\n      0x03\n      mul\n      add\n        /* \"Bank.sol\":588:613  clients[i].client_address */\n      0x01\n      add\n      0x00\n      swap1\n      sload\n      swap1\n      0x0100\n      exp\n      swap1\n      div\n      0xffffffffffffffffffffffffffffffffffffffff\n      and\n        /* \"Bank.sol\":588:627  clients[i].client_address == msg.sender */\n      0xffffffffffffffffffffffffffffffffffffffff\n      and\n      sub\n        /* \"Bank.sol\":585:699  if(clients[i].client_address == msg.sender){... */\n      tag_88\n      jumpi\n        /* \"Bank.sol\":657:661  true */\n      0x01\n        /* \"Bank.sol\":646:661  isclient = true */\n      swap2\n      pop\n        /* \"Bank.sol\":679:684  break */\n      jump(tag_83)\n        /* \"Bank.sol\":585:699  if(clients[i].client_address == msg.sender){... */\n    tag_88:\n        /* \"Bank.sol\":567:570  i++ */\n      dup1\n      dup1\n      0x01\n      add\n      swap2\n      pop\n      pop\n        /* \"Bank.sol\":537:709  for(uint i=0;i<clients.length;i++){... */\n      jump(tag_82)\n    tag_83:\n      pop\n        /* \"Bank.sol\":726:734  isclient */\n      dup1\n        /* \"Bank.sol\":718:766  require(isclient, \"Only clients can call this!\") */\n      tag_89\n      jumpi\n      mload(0x40)\n      0x08c379a000000000000000000000000000000000000000000000000000000000\n      dup2\n      mstore\n      0x04\n      add\n      tag_90\n      swap1\n      tag_52\n      jump\t// in\n    tag_90:\n      mload(0x40)\n      dup1\n      swap2\n      sub\n      swap1\n      revert\n    tag_89:\n        /* \"Bank.sol\":1369:1373  this */\n      address\n        /* \"Bank.sol\":1353:1384  payable(address(this)).transfer */\n      0xffffffffffffffffffffffffffffffffffffffff\n      and\n        /* \"Bank.sol\":1353:1395  payable(address(this)).transfer(msg.value) */\n      0x08fc\n        /* \"Bank.sol\":1385:1394  msg.value */\n      callvalue\n        /* \"Bank.sol\":1353:1395  payable(address(this)).transfer(msg.value) */\n      swap1\n      dup2\n      iszero\n      mul\n      swap1\n      mload(0x40)\n      0x00\n      mload(0x40)\n      dup1\n      dup4\n      sub\n      dup2\n      dup6\n      dup9\n      dup9\n      call\n      swap4\n      pop\n      pop\n      pop\n      pop\n      iszero\n      dup1\n      iszero\n      tag_93\n      jumpi\n      returndatacopy(0x00, 0x00, returndatasize)\n      revert(0x00, returndatasize)\n    tag_93:\n      pop\n        /* \"Bank.sol\":496:784  {... */\n      pop\n        /* \"Bank.sol\":1298:1402  function deposit() public payable onlyClients{... */\n      jump\t// out\n        /* \"Bank.sol\":893:1035  function setManager(address managerAddress) public returns(string memory){... */\n    tag_34:\n        /* \"Bank.sol\":952:965  string memory */\n      0x60\n        /* \"Bank.sol\":994:1008  managerAddress */\n      dup2\n        /* \"Bank.sol\":976:983  manager */\n      0x02\n      0x00\n        /* \"Bank.sol\":976:1009  manager = payable(managerAddress) */\n      0x0100\n      exp\n      dup2\n      sload\n      dup2\n      0xffffffffffffffffffffffffffffffffffffffff\n      mul\n      not\n      and\n      swap1\n      dup4\n      0xffffffffffffffffffffffffffffffffffffffff\n      and\n      mul\n      or\n      swap1\n      sstore\n      pop\n        /* \"Bank.sol\":1019:1028  return \"\" */\n      mload(0x40)\n      dup1\n      0x20\n      add\n      0x40\n      mstore\n      dup1\n      0x00\n      dup2\n      mstore\n      pop\n      swap1\n      pop\n        /* \"Bank.sol\":893:1035  function setManager(address managerAddress) public returns(string memory){... */\n      swap2\n      swap1\n      pop\n      jump\t// out\n        /* \"Bank.sol\":296:340  mapping(address => uint) public interestDate */\n    tag_39:\n      mstore(0x20, 0x03)\n      dup1\n      0x00\n      mstore\n      keccak256(0x00, 0x40)\n      0x00\n      swap2\n      pop\n      swap1\n      pop\n      sload\n      dup2\n      jump\t// out\n        /* \"#utility.yul\":88:205   */\n    tag_96:\n        /* \"#utility.yul\":197:198   */\n      0x00\n        /* \"#utility.yul\":194:195   */\n      0x00\n        /* \"#utility.yul\":187:199   */\n      revert\n        /* \"#utility.yul\":334:411   */\n    tag_98:\n        /* \"#utility.yul\":371:378   */\n      0x00\n        /* \"#utility.yul\":400:405   */\n      dup2\n        /* \"#utility.yul\":389:405   */\n      swap1\n      pop\n        /* \"#utility.yul\":334:411   */\n      swap2\n      swap1\n      pop\n      jump\t// out\n        /* \"#utility.yul\":417:539   */\n    tag_99:\n        /* \"#utility.yul\":490:514   */\n      tag_125\n        /* \"#utility.yul\":508:513   */\n      dup2\n        /* \"#utility.yul\":490:514   */\n      tag_98\n      jump\t// in\n    tag_125:\n        /* \"#utility.yul\":483:488   */\n      dup2\n        /* \"#utility.yul\":480:515   */\n      eq\n        /* \"#utility.yul\":470:533   */\n      tag_126\n      jumpi\n        /* \"#utility.yul\":529:530   */\n      0x00\n        /* \"#utility.yul\":526:527   */\n      0x00\n        /* \"#utility.yul\":519:531   */\n      revert\n        /* \"#utility.yul\":470:533   */\n    tag_126:\n        /* \"#utility.yul\":417:539   */\n      pop\n      jump\t// out\n        /* \"#utility.yul\":545:684   */\n    tag_100:\n        /* \"#utility.yul\":591:596   */\n      0x00\n        /* \"#utility.yul\":629:635   */\n      dup2\n        /* \"#utility.yul\":616:636   */\n      calldataload\n        /* \"#utility.yul\":607:636   */\n      swap1\n      pop\n        /* \"#utility.yul\":645:678   */\n      tag_128\n        /* \"#utility.yul\":672:677   */\n      dup2\n        /* \"#utility.yul\":645:678   */\n      tag_99\n      jump\t// in\n    tag_128:\n        /* \"#utility.yul\":545:684   */\n      swap3\n      swap2\n      pop\n      pop\n      jump\t// out\n        /* \"#utility.yul\":690:1019   */\n    tag_15:\n        /* \"#utility.yul\":749:755   */\n      0x00\n        /* \"#utility.yul\":798:800   */\n      0x20\n        /* \"#utility.yul\":786:795   */\n      dup3\n        /* \"#utility.yul\":777:784   */\n      dup5\n        /* \"#utility.yul\":773:796   */\n      sub\n        /* \"#utility.yul\":769:801   */\n      slt\n        /* \"#utility.yul\":766:885   */\n      iszero\n      tag_130\n      jumpi\n        /* \"#utility.yul\":804:883   */\n      tag_131\n      tag_96\n      jump\t// in\n    tag_131:\n        /* \"#utility.yul\":766:885   */\n    tag_130:\n        /* \"#utility.yul\":924:925   */\n      0x00\n        /* \"#utility.yul\":949:1002   */\n      tag_132\n        /* \"#utility.yul\":994:1001   */\n      dup5\n        /* \"#utility.yul\":985:991   */\n      dup3\n        /* \"#utility.yul\":974:983   */\n      dup6\n        /* \"#utility.yul\":970:992   */\n      add\n        /* \"#utility.yul\":949:1002   */\n      tag_100\n      jump\t// in\n    tag_132:\n        /* \"#utility.yul\":939:1002   */\n      swap2\n      pop\n        /* \"#utility.yul\":895:1012   */\n      pop\n        /* \"#utility.yul\":690:1019   */\n      swap3\n      swap2\n      pop\n      pop\n      jump\t// out\n        /* \"#utility.yul\":1025:1143   */\n    tag_101:\n        /* \"#utility.yul\":1112:1136   */\n      tag_134\n        /* \"#utility.yul\":1130:1135   */\n      dup2\n        /* \"#utility.yul\":1112:1136   */\n      tag_98\n      jump\t// in\n    tag_134:\n        /* \"#utility.yul\":1107:1110   */\n      dup3\n        /* \"#utility.yul\":1100:1137   */\n      mstore\n        /* \"#utility.yul\":1025:1143   */\n      pop\n      pop\n      jump\t// out\n        /* \"#utility.yul\":1149:1371   */\n    tag_21:\n        /* \"#utility.yul\":1242:1246   */\n      0x00\n        /* \"#utility.yul\":1280:1282   */\n      0x20\n        /* \"#utility.yul\":1269:1278   */\n      dup3\n        /* \"#utility.yul\":1265:1283   */\n      add\n        /* \"#utility.yul\":1257:1283   */\n      swap1\n      pop\n        /* \"#utility.yul\":1293:1364   */\n      tag_136\n        /* \"#utility.yul\":1361:1362   */\n      0x00\n        /* \"#utility.yul\":1350:1359   */\n      dup4\n        /* \"#utility.yul\":1346:1363   */\n      add\n        /* \"#utility.yul\":1337:1343   */\n      dup5\n        /* \"#utility.yul\":1293:1364   */\n      tag_101\n      jump\t// in\n    tag_136:\n        /* \"#utility.yul\":1149:1371   */\n      swap3\n      swap2\n      pop\n      pop\n      jump\t// out\n        /* \"#utility.yul\":1377:1476   */\n    tag_102:\n        /* \"#utility.yul\":1429:1435   */\n      0x00\n        /* \"#utility.yul\":1463:1468   */\n      dup2\n        /* \"#utility.yul\":1457:1469   */\n      mload\n        /* \"#utility.yul\":1447:1469   */\n      swap1\n      pop\n        /* \"#utility.yul\":1377:1476   */\n      swap2\n      swap1\n      pop\n      jump\t// out\n        /* \"#utility.yul\":1482:1651   */\n    tag_103:\n        /* \"#utility.yul\":1566:1577   */\n      0x00\n        /* \"#utility.yul\":1600:1606   */\n      dup3\n        /* \"#utility.yul\":1595:1598   */\n      dup3\n        /* \"#utility.yul\":1588:1607   */\n      mstore\n        /* \"#utility.yul\":1640:1644   */\n      0x20\n        /* \"#utility.yul\":1635:1638   */\n      dup3\n        /* \"#utility.yul\":1631:1645   */\n      add\n        /* \"#utility.yul\":1616:1645   */\n      swap1\n      pop\n        /* \"#utility.yul\":1482:1651   */\n      swap3\n      swap2\n      pop\n      pop\n      jump\t// out\n        /* \"#utility.yul\":1657:1796   */\n    tag_104:\n        /* \"#utility.yul\":1746:1752   */\n      dup3\n        /* \"#utility.yul\":1741:1744   */\n      dup2\n        /* \"#utility.yul\":1736:1739   */\n      dup4\n        /* \"#utility.yul\":1730:1753   */\n      mcopy\n        /* \"#utility.yul\":1787:1788   */\n      0x00\n        /* \"#utility.yul\":1778:1784   */\n      dup4\n        /* \"#utility.yul\":1773:1776   */\n      dup4\n        /* \"#utility.yul\":1769:1785   */\n      add\n        /* \"#utility.yul\":1762:1789   */\n      mstore\n        /* \"#utility.yul\":1657:1796   */\n      pop\n      pop\n      pop\n      jump\t// out\n        /* \"#utility.yul\":1802:1904   */\n    tag_105:\n        /* \"#utility.yul\":1843:1849   */\n      0x00\n        /* \"#utility.yul\":1894:1896   */\n      0x1f\n        /* \"#utility.yul\":1890:1897   */\n      not\n        /* \"#utility.yul\":1885:1887   */\n      0x1f\n        /* \"#utility.yul\":1878:1883   */\n      dup4\n        /* \"#utility.yul\":1874:1888   */\n      add\n        /* \"#utility.yul\":1870:1898   */\n      and\n        /* \"#utility.yul\":1860:1898   */\n      swap1\n      pop\n        /* \"#utility.yul\":1802:1904   */\n      swap2\n      swap1\n      pop\n      jump\t// out\n        /* \"#utility.yul\":1910:2287   */\n    tag_106:\n        /* \"#utility.yul\":1998:2001   */\n      0x00\n        /* \"#utility.yul\":2026:2065   */\n      tag_142\n        /* \"#utility.yul\":2059:2064   */\n      dup3\n        /* \"#utility.yul\":2026:2065   */\n      tag_102\n      jump\t// in\n    tag_142:\n        /* \"#utility.yul\":2081:2152   */\n      tag_143\n        /* \"#utility.yul\":2145:2151   */\n      dup2\n        /* \"#utility.yul\":2140:2143   */\n      dup6\n        /* \"#utility.yul\":2081:2152   */\n      tag_103\n      jump\t// in\n    tag_143:\n        /* \"#utility.yul\":2074:2152   */\n      swap4\n      pop\n        /* \"#utility.yul\":2161:2226   */\n      tag_144\n        /* \"#utility.yul\":2219:2225   */\n      dup2\n        /* \"#utility.yul\":2214:2217   */\n      dup6\n        /* \"#utility.yul\":2207:2211   */\n      0x20\n        /* \"#utility.yul\":2200:2205   */\n      dup7\n        /* \"#utility.yul\":2196:2212   */\n      add\n        /* \"#utility.yul\":2161:2226   */\n      tag_104\n      jump\t// in\n    tag_144:\n        /* \"#utility.yul\":2251:2280   */\n      tag_145\n        /* \"#utility.yul\":2273:2279   */\n      dup2\n        /* \"#utility.yul\":2251:2280   */\n      tag_105\n      jump\t// in\n    tag_145:\n        /* \"#utility.yul\":2246:2249   */\n      dup5\n        /* \"#utility.yul\":2242:2281   */\n      add\n        /* \"#utility.yul\":2235:2281   */\n      swap2\n      pop\n        /* \"#utility.yul\":2002:2287   */\n      pop\n        /* \"#utility.yul\":1910:2287   */\n      swap3\n      swap2\n      pop\n      pop\n      jump\t// out\n        /* \"#utility.yul\":2293:2606   */\n    tag_27:\n        /* \"#utility.yul\":2406:2410   */\n      0x00\n        /* \"#utility.yul\":2444:2446   */\n      0x20\n        /* \"#utility.yul\":2433:2442   */\n      dup3\n        /* \"#utility.yul\":2429:2447   */\n      add\n        /* \"#utility.yul\":2421:2447   */\n      swap1\n      pop\n        /* \"#utility.yul\":2493:2502   */\n      dup2\n        /* \"#utility.yul\":2487:2491   */\n      dup2\n        /* \"#utility.yul\":2483:2503   */\n      sub\n        /* \"#utility.yul\":2479:2480   */\n      0x00\n        /* \"#utility.yul\":2468:2477   */\n      dup4\n        /* \"#utility.yul\":2464:2481   */\n      add\n        /* \"#utility.yul\":2457:2504   */\n      mstore\n        /* \"#utility.yul\":2521:2599   */\n      tag_147\n        /* \"#utility.yul\":2594:2598   */\n      dup2\n        /* \"#utility.yul\":2585:2591   */\n      dup5\n        /* \"#utility.yul\":2521:2599   */\n      tag_106\n      jump\t// in\n    tag_147:\n        /* \"#utility.yul\":2513:2599   */\n      swap1\n      pop\n        /* \"#utility.yul\":2293:2606   */\n      swap3\n      swap2\n      pop\n      pop\n      jump\t// out\n        /* \"#utility.yul\":2612:2738   */\n    tag_107:\n        /* \"#utility.yul\":2649:2656   */\n      0x00\n        /* \"#utility.yul\":2689:2731   */\n      0xffffffffffffffffffffffffffffffffffffffff\n        /* \"#utility.yul\":2682:2687   */\n      dup3\n        /* \"#utility.yul\":2678:2732   */\n      and\n        /* \"#utility.yul\":2667:2732   */\n      swap1\n      pop\n        /* \"#utility.yul\":2612:2738   */\n      swap2\n      swap1\n      pop\n      jump\t// out\n        /* \"#utility.yul\":2744:2840   */\n    tag_108:\n        /* \"#utility.yul\":2781:2788   */\n      0x00\n        /* \"#utility.yul\":2810:2834   */\n      tag_150\n        /* \"#utility.yul\":2828:2833   */\n      dup3\n        /* \"#utility.yul\":2810:2834   */\n      tag_107\n      jump\t// in\n    tag_150:\n        /* \"#utility.yul\":2799:2834   */\n      swap1\n      pop\n        /* \"#utility.yul\":2744:2840   */\n      swap2\n      swap1\n      pop\n      jump\t// out\n        /* \"#utility.yul\":2846:2968   */\n    tag_109:\n        /* \"#utility.yul\":2919:2943   */\n      tag_152\n        /* \"#utility.yul\":2937:2942   */\n      dup2\n        /* \"#utility.yul\":2919:2943   */\n      tag_108\n      jump\t// in\n    tag_152:\n        /* \"#utility.yul\":2912:2917   */\n      dup2\n        /* \"#utility.yul\":2909:2944   */\n      eq\n        /* \"#utility.yul\":2899:2962   */\n      tag_153\n      jumpi\n        /* \"#utility.yul\":2958:2959   */\n      0x00\n        /* \"#utility.yul\":2955:2956   */\n      0x00\n        /* \"#utility.yul\":2948:2960   */\n      revert\n        /* \"#utility.yul\":2899:2962   */\n    tag_153:\n        /* \"#utility.yul\":2846:2968   */\n      pop\n      jump\t// out\n        /* \"#utility.yul\":2974:3113   */\n    tag_110:\n        /* \"#utility.yul\":3020:3025   */\n      0x00\n        /* \"#utility.yul\":3058:3064   */\n      dup2\n        /* \"#utility.yul\":3045:3065   */\n      calldataload\n        /* \"#utility.yul\":3036:3065   */\n      swap1\n      pop\n        /* \"#utility.yul\":3074:3107   */\n      tag_155\n        /* \"#utility.yul\":3101:3106   */\n      dup2\n        /* \"#utility.yul\":3074:3107   */\n      tag_109\n      jump\t// in\n    tag_155:\n        /* \"#utility.yul\":2974:3113   */\n      swap3\n      swap2\n      pop\n      pop\n      jump\t// out\n        /* \"#utility.yul\":3119:3448   */\n    tag_33:\n        /* \"#utility.yul\":3178:3184   */\n      0x00\n        /* \"#utility.yul\":3227:3229   */\n      0x20\n        /* \"#utility.yul\":3215:3224   */\n      dup3\n        /* \"#utility.yul\":3206:3213   */\n      dup5\n        /* \"#utility.yul\":3202:3225   */\n      sub\n        /* \"#utility.yul\":3198:3230   */\n      slt\n        /* \"#utility.yul\":3195:3314   */\n      iszero\n      tag_157\n      jumpi\n        /* \"#utility.yul\":3233:3312   */\n      tag_158\n      tag_96\n      jump\t// in\n    tag_158:\n        /* \"#utility.yul\":3195:3314   */\n    tag_157:\n        /* \"#utility.yul\":3353:3354   */\n      0x00\n        /* \"#utility.yul\":3378:3431   */\n      tag_159\n        /* \"#utility.yul\":3423:3430   */\n      dup5\n        /* \"#utility.yul\":3414:3420   */\n      dup3\n        /* \"#utility.yul\":3403:3412   */\n      dup6\n        /* \"#utility.yul\":3399:3421   */\n      add\n        /* \"#utility.yul\":3378:3431   */\n      tag_110\n      jump\t// in\n    tag_159:\n        /* \"#utility.yul\":3368:3431   */\n      swap2\n      pop\n        /* \"#utility.yul\":3324:3441   */\n      pop\n        /* \"#utility.yul\":3119:3448   */\n      swap3\n      swap2\n      pop\n      pop\n      jump\t// out\n        /* \"#utility.yul\":3454:3634   */\n    tag_47:\n        /* \"#utility.yul\":3502:3579   */\n      0x4e487b7100000000000000000000000000000000000000000000000000000000\n        /* \"#utility.yul\":3499:3500   */\n      0x00\n        /* \"#utility.yul\":3492:3580   */\n      mstore\n        /* \"#utility.yul\":3599:3603   */\n      0x32\n        /* \"#utility.yul\":3596:3597   */\n      0x04\n        /* \"#utility.yul\":3589:3604   */\n      mstore\n        /* \"#utility.yul\":3623:3627   */\n      0x24\n        /* \"#utility.yul\":3620:3621   */\n      0x00\n        /* \"#utility.yul\":3613:3628   */\n      revert\n        /* \"#utility.yul\":3640:3817   */\n    tag_111:\n        /* \"#utility.yul\":3780:3809   */\n      0x4f6e6c7920636c69656e74732063616e2063616c6c2074686973210000000000\n        /* \"#utility.yul\":3776:3777   */\n      0x00\n        /* \"#utility.yul\":3768:3774   */\n      dup3\n        /* \"#utility.yul\":3764:3778   */\n      add\n        /* \"#utility.yul\":3757:3810   */\n      mstore\n        /* \"#utility.yul\":3640:3817   */\n      pop\n      jump\t// out\n        /* \"#utility.yul\":3823:4189   */\n    tag_112:\n        /* \"#utility.yul\":3965:3968   */\n      0x00\n        /* \"#utility.yul\":3986:4053   */\n      tag_163\n        /* \"#utility.yul\":4050:4052   */\n      0x1b\n        /* \"#utility.yul\":4045:4048   */\n      dup4\n        /* \"#utility.yul\":3986:4053   */\n      tag_103\n      jump\t// in\n    tag_163:\n        /* \"#utility.yul\":3979:4053   */\n      swap2\n      pop\n        /* \"#utility.yul\":4062:4155   */\n      tag_164\n        /* \"#utility.yul\":4151:4154   */\n      dup3\n        /* \"#utility.yul\":4062:4155   */\n      tag_111\n      jump\t// in\n    tag_164:\n        /* \"#utility.yul\":4180:4182   */\n      0x20\n        /* \"#utility.yul\":4175:4178   */\n      dup3\n        /* \"#utility.yul\":4171:4183   */\n      add\n        /* \"#utility.yul\":4164:4183   */\n      swap1\n      pop\n        /* \"#utility.yul\":3823:4189   */\n      swap2\n      swap1\n      pop\n      jump\t// out\n        /* \"#utility.yul\":4195:4614   */\n    tag_52:\n        /* \"#utility.yul\":4361:4365   */\n      0x00\n        /* \"#utility.yul\":4399:4401   */\n      0x20\n        /* \"#utility.yul\":4388:4397   */\n      dup3\n        /* \"#utility.yul\":4384:4402   */\n      add\n        /* \"#utility.yul\":4376:4402   */\n      swap1\n      pop\n        /* \"#utility.yul\":4448:4457   */\n      dup2\n        /* \"#utility.yul\":4442:4446   */\n      dup2\n        /* \"#utility.yul\":4438:4458   */\n      sub\n        /* \"#utility.yul\":4434:4435   */\n      0x00\n        /* \"#utility.yul\":4423:4432   */\n      dup4\n        /* \"#utility.yul\":4419:4436   */\n      add\n        /* \"#utility.yul\":4412:4459   */\n      mstore\n        /* \"#utility.yul\":4476:4607   */\n      tag_166\n        /* \"#utility.yul\":4602:4606   */\n      dup2\n        /* \"#utility.yul\":4476:4607   */\n      tag_112\n      jump\t// in\n    tag_166:\n        /* \"#utility.yul\":4468:4607   */\n      swap1\n      pop\n        /* \"#utility.yul\":4195:4614   */\n      swap2\n      swap1\n      pop\n      jump\t// out\n        /* \"#utility.yul\":4620:4800   */\n    tag_113:\n        /* \"#utility.yul\":4668:4745   */\n      0x4e487b7100000000000000000000000000000000000000000000000000000000\n        /* \"#utility.yul\":4665:4666   */\n      0x00\n        /* \"#utility.yul\":4658:4746   */\n      mstore\n        /* \"#utility.yul\":4765:4769   */\n      0x11\n        /* \"#utility.yul\":4762:4763   */\n      0x04\n        /* \"#utility.yul\":4755:4770   */\n      mstore\n        /* \"#utility.yul\":4789:4793   */\n      0x24\n        /* \"#utility.yul\":4786:4787   */\n      0x00\n        /* \"#utility.yul\":4779:4794   */\n      revert\n        /* \"#utility.yul\":4806:5216   */\n    tag_55:\n        /* \"#utility.yul\":4846:4853   */\n      0x00\n        /* \"#utility.yul\":4869:4889   */\n      tag_169\n        /* \"#utility.yul\":4887:4888   */\n      dup3\n        /* \"#utility.yul\":4869:4889   */\n      tag_98\n      jump\t// in\n    tag_169:\n        /* \"#utility.yul\":4864:4889   */\n      swap2\n      pop\n        /* \"#utility.yul\":4903:4923   */\n      tag_170\n        /* \"#utility.yul\":4921:4922   */\n      dup4\n        /* \"#utility.yul\":4903:4923   */\n      tag_98\n      jump\t// in\n    tag_170:\n        /* \"#utility.yul\":4898:4923   */\n      swap3\n      pop\n        /* \"#utility.yul\":4958:4959   */\n      dup3\n        /* \"#utility.yul\":4955:4956   */\n      dup3\n        /* \"#utility.yul\":4951:4960   */\n      mul\n        /* \"#utility.yul\":4980:5010   */\n      tag_171\n        /* \"#utility.yul\":4998:5009   */\n      dup2\n        /* \"#utility.yul\":4980:5010   */\n      tag_98\n      jump\t// in\n    tag_171:\n        /* \"#utility.yul\":4969:5010   */\n      swap2\n      pop\n        /* \"#utility.yul\":5159:5160   */\n      dup3\n        /* \"#utility.yul\":5150:5157   */\n      dup3\n        /* \"#utility.yul\":5146:5161   */\n      div\n        /* \"#utility.yul\":5143:5144   */\n      dup5\n        /* \"#utility.yul\":5140:5162   */\n      eq\n        /* \"#utility.yul\":5120:5121   */\n      dup4\n        /* \"#utility.yul\":5113:5122   */\n      iszero\n        /* \"#utility.yul\":5093:5176   */\n      or\n        /* \"#utility.yul\":5070:5209   */\n      tag_172\n      jumpi\n        /* \"#utility.yul\":5189:5207   */\n      tag_173\n      tag_113\n      jump\t// in\n    tag_173:\n        /* \"#utility.yul\":5070:5209   */\n    tag_172:\n        /* \"#utility.yul\":4854:5216   */\n      pop\n        /* \"#utility.yul\":4806:5216   */\n      swap3\n      swap2\n      pop\n      pop\n      jump\t// out\n        /* \"#utility.yul\":5222:5399   */\n    tag_114:\n        /* \"#utility.yul\":5362:5391   */\n      0x4f6e6c79206d616e616765722063616e2063616c6c2074686973210000000000\n        /* \"#utility.yul\":5358:5359   */\n      0x00\n        /* \"#utility.yul\":5350:5356   */\n      dup3\n        /* \"#utility.yul\":5346:5360   */\n      add\n        /* \"#utility.yul\":5339:5392   */\n      mstore\n        /* \"#utility.yul\":5222:5399   */\n      pop\n      jump\t// out\n        /* \"#utility.yul\":5405:5771   */\n    tag_115:\n        /* \"#utility.yul\":5547:5550   */\n      0x00\n        /* \"#utility.yul\":5568:5635   */\n      tag_176\n        /* \"#utility.yul\":5632:5634   */\n      0x1b\n        /* \"#utility.yul\":5627:5630   */\n      dup4\n        /* \"#utility.yul\":5568:5635   */\n      tag_103\n      jump\t// in\n    tag_176:\n        /* \"#utility.yul\":5561:5635   */\n      swap2\n      pop\n        /* \"#utility.yul\":5644:5737   */\n      tag_177\n        /* \"#utility.yul\":5733:5736   */\n      dup3\n        /* \"#utility.yul\":5644:5737   */\n      tag_114\n      jump\t// in\n    tag_177:\n        /* \"#utility.yul\":5762:5764   */\n      0x20\n        /* \"#utility.yul\":5757:5760   */\n      dup3\n        /* \"#utility.yul\":5753:5765   */\n      add\n        /* \"#utility.yul\":5746:5765   */\n      swap1\n      pop\n        /* \"#utility.yul\":5405:5771   */\n      swap2\n      swap1\n      pop\n      jump\t// out\n        /* \"#utility.yul\":5777:6196   */\n    tag_62:\n        /* \"#utility.yul\":5943:5947   */\n      0x00\n        /* \"#utility.yul\":5981:5983   */\n      0x20\n        /* \"#utility.yul\":5970:5979   */\n      dup3\n        /* \"#utility.yul\":5966:5984   */\n      add\n        /* \"#utility.yul\":5958:5984   */\n      swap1\n      pop\n        /* \"#utility.yul\":6030:6039   */\n      dup2\n        /* \"#utility.yul\":6024:6028   */\n      dup2\n        /* \"#utility.yul\":6020:6040   */\n      sub\n        /* \"#utility.yul\":6016:6017   */\n      0x00\n        /* \"#utility.yul\":6005:6014   */\n      dup4\n        /* \"#utility.yul\":6001:6018   */\n      add\n        /* \"#utility.yul\":5994:6041   */\n      mstore\n        /* \"#utility.yul\":6058:6189   */\n      tag_179\n        /* \"#utility.yul\":6184:6188   */\n      dup2\n        /* \"#utility.yul\":6058:6189   */\n      tag_115\n      jump\t// in\n    tag_179:\n        /* \"#utility.yul\":6050:6189   */\n      swap1\n      pop\n        /* \"#utility.yul\":5777:6196   */\n      swap2\n      swap1\n      pop\n      jump\t// out\n        /* \"#utility.yul\":6202:6393   */\n    tag_71:\n        /* \"#utility.yul\":6242:6245   */\n      0x00\n        /* \"#utility.yul\":6261:6281   */\n      tag_181\n        /* \"#utility.yul\":6279:6280   */\n      dup3\n        /* \"#utility.yul\":6261:6281   */\n      tag_98\n      jump\t// in\n    tag_181:\n        /* \"#utility.yul\":6256:6281   */\n      swap2\n      pop\n        /* \"#utility.yul\":6295:6315   */\n      tag_182\n        /* \"#utility.yul\":6313:6314   */\n      dup4\n        /* \"#utility.yul\":6295:6315   */\n      tag_98\n      jump\t// in\n    tag_182:\n        /* \"#utility.yul\":6290:6315   */\n      swap3\n      pop\n        /* \"#utility.yul\":6338:6339   */\n      dup3\n        /* \"#utility.yul\":6335:6336   */\n      dup3\n        /* \"#utility.yul\":6331:6340   */\n      add\n        /* \"#utility.yul\":6324:6340   */\n      swap1\n      pop\n        /* \"#utility.yul\":6359:6362   */\n      dup1\n        /* \"#utility.yul\":6356:6357   */\n      dup3\n        /* \"#utility.yul\":6353:6363   */\n      gt\n        /* \"#utility.yul\":6350:6386   */\n      iszero\n      tag_183\n      jumpi\n        /* \"#utility.yul\":6366:6384   */\n      tag_184\n      tag_113\n      jump\t// in\n    tag_184:\n        /* \"#utility.yul\":6350:6386   */\n    tag_183:\n        /* \"#utility.yul\":6202:6393   */\n      swap3\n      swap2\n      pop\n      pop\n      jump\t// out\n        /* \"#utility.yul\":6399:6622   */\n    tag_116:\n        /* \"#utility.yul\":6539:6573   */\n      0x49742773206a757374206265656e206c657373207468616e203130207365636f\n        /* \"#utility.yul\":6535:6536   */\n      0x00\n        /* \"#utility.yul\":6527:6533   */\n      dup3\n        /* \"#utility.yul\":6523:6537   */\n      add\n        /* \"#utility.yul\":6516:6574   */\n      mstore\n        /* \"#utility.yul\":6608:6614   */\n      0x6e64732100000000000000000000000000000000000000000000000000000000\n        /* \"#utility.yul\":6603:6605   */\n      0x20\n        /* \"#utility.yul\":6595:6601   */\n      dup3\n        /* \"#utility.yul\":6591:6606   */\n      add\n        /* \"#utility.yul\":6584:6615   */\n      mstore\n        /* \"#utility.yul\":6399:6622   */\n      pop\n      jump\t// out\n        /* \"#utility.yul\":6628:6994   */\n    tag_117:\n        /* \"#utility.yul\":6770:6773   */\n      0x00\n        /* \"#utility.yul\":6791:6858   */\n      tag_187\n        /* \"#utility.yul\":6855:6857   */\n      0x24\n        /* \"#utility.yul\":6850:6853   */\n      dup4\n        /* \"#utility.yul\":6791:6858   */\n      tag_103\n      jump\t// in\n    tag_187:\n        /* \"#utility.yul\":6784:6858   */\n      swap2\n      pop\n        /* \"#utility.yul\":6867:6960   */\n      tag_188\n        /* \"#utility.yul\":6956:6959   */\n      dup3\n        /* \"#utility.yul\":6867:6960   */\n      tag_116\n      jump\t// in\n    tag_188:\n        /* \"#utility.yul\":6985:6987   */\n      0x40\n        /* \"#utility.yul\":6980:6983   */\n      dup3\n        /* \"#utility.yul\":6976:6988   */\n      add\n        /* \"#utility.yul\":6969:6988   */\n      swap1\n      pop\n        /* \"#utility.yul\":6628:6994   */\n      swap2\n      swap1\n      pop\n      jump\t// out\n        /* \"#utility.yul\":7000:7419   */\n    tag_74:\n        /* \"#utility.yul\":7166:7170   */\n      0x00\n        /* \"#utility.yul\":7204:7206   */\n      0x20\n        /* \"#utility.yul\":7193:7202   */\n      dup3\n        /* \"#utility.yul\":7189:7207   */\n      add\n        /* \"#utility.yul\":7181:7207   */\n      swap1\n      pop\n        /* \"#utility.yul\":7253:7262   */\n      dup2\n        /* \"#utility.yul\":7247:7251   */\n      dup2\n        /* \"#utility.yul\":7243:7263   */\n      sub\n        /* \"#utility.yul\":7239:7240   */\n      0x00\n        /* \"#utility.yul\":7228:7237   */\n      dup4\n        /* \"#utility.yul\":7224:7241   */\n      add\n        /* \"#utility.yul\":7217:7264   */\n      mstore\n        /* \"#utility.yul\":7281:7412   */\n      tag_190\n        /* \"#utility.yul\":7407:7411   */\n      dup2\n        /* \"#utility.yul\":7281:7412   */\n      tag_117\n      jump\t// in\n    tag_190:\n        /* \"#utility.yul\":7273:7412   */\n      swap1\n      pop\n        /* \"#utility.yul\":7000:7419   */\n      swap2\n      swap1\n      pop\n      jump\t// out\n        /* \"#utility.yul\":7425:7501   */\n    tag_118:\n        /* \"#utility.yul\":7461:7468   */\n      0x00\n        /* \"#utility.yul\":7490:7495   */\n      dup2\n        /* \"#utility.yul\":7479:7495   */\n      swap1\n      pop\n        /* \"#utility.yul\":7425:7501   */\n      swap2\n      swap1\n      pop\n      jump\t// out\n        /* \"#utility.yul\":7507:7738   */\n    tag_79:\n        /* \"#utility.yul\":7545:7548   */\n      0x00\n        /* \"#utility.yul\":7568:7591   */\n      tag_193\n        /* \"#utility.yul\":7585:7590   */\n      dup3\n        /* \"#utility.yul\":7568:7591   */\n      tag_118\n      jump\t// in\n    tag_193:\n        /* \"#utility.yul\":7559:7591   */\n      swap2\n      pop\n        /* \"#utility.yul\":7613:7679   */\n      0x7fffffffffffffffffffffffffffffffffffffffffffffffffffffffffffffff\n        /* \"#utility.yul\":7606:7611   */\n      dup3\n        /* \"#utility.yul\":7603:7680   */\n      sub\n        /* \"#utility.yul\":7600:7703   */\n      tag_194\n      jumpi\n        /* \"#utility.yul\":7683:7701   */\n      tag_195\n      tag_113\n      jump\t// in\n    tag_195:\n        /* \"#utility.yul\":7600:7703   */\n    tag_194:\n        /* \"#utility.yul\":7730:7731   */\n      0x01\n        /* \"#utility.yul\":7723:7728   */\n      dup3\n        /* \"#utility.yul\":7719:7732   */\n      add\n        /* \"#utility.yul\":7712:7732   */\n      swap1\n      pop\n        /* \"#utility.yul\":7507:7738   */\n      swap2\n      swap1\n      pop\n      jump\t// out\n\n    auxdata: 0xa26469706673582212203130ead22e47e1edbb1cb7cf180ced0557c5c4d468deb1b1e8cacef402b418a464736f6c634300081e0033\n}\n",
				"bytecode": {
					"linkReferences": {},
					"object": "6080604052348015600e575f5ffd5b505f600181905550610be0806100235f395ff3fe608060405260043610610073575f3560e01c8063a40921741161004d578063a4092174146100ce578063d0e30db0146100ec578063d0ebdbe7146100f6578063d9dca6c5146101325761007a565b80632e1a7d4d1461007e5780636f9fb98a1461009a5780639e0a5d68146100c45761007a565b3661007a57005b5f5ffd5b610098600480360381019061009391906107c6565b61016e565b005b3480156100a5575f5ffd5b506100ae6102a9565b6040516100bb9190610800565b60405180910390f35b6100cc6102b0565b005b6100d66104c5565b6040516100e39190610889565b60405180910390f35b6100f46105fb565b005b348015610101575f5ffd5b5061011c60048036038101906101179190610903565b610722565b6040516101299190610889565b60405180910390f35b34801561013d575f5ffd5b5061015860048036038101906101539190610903565b61077a565b6040516101659190610800565b60405180910390f35b5f5f90505f5f90505b5f8054905081101561020d573373ffffffffffffffffffffffffffffffffffffffff165f82815481106101ad576101ac61092e565b5b905f5260205f2090600302016001015f9054906101000a900473ffffffffffffffffffffffffffffffffffffffff1673ffffffffffffffffffffffffffffffffffffffff1603610200576001915061020d565b8080600101915050610177565b508061024e576040517f08c379a0000000000000000000000000000000000000000000000000000000008152600401610245906109a5565b60405180910390fd5b3373ffffffffffffffffffffffffffffffffffffffff166108fc670de0b6b3a76400008461027c91906109f0565b90811502906040515f60405180830381858888f193505050501580156102a4573d5f5f3e3d5ffd5b505050565b5f47905090565b60025f9054906101000a900473ffffffffffffffffffffffffffffffffffffffff1673ffffffffffffffffffffffffffffffffffffffff163373ffffffffffffffffffffffffffffffffffffffff161461033f576040517f08c379a000000000000000000000000000000000000000000000000000000000815260040161033690610a7b565b60405180910390fd5b5f5f90505b5f805490508110156104c2575f5f82815481106103645761036361092e565b5b905f5260205f2090600302016001015f9054906101000a900473ffffffffffffffffffffffffffffffffffffffff1690505f60035f8373ffffffffffffffffffffffffffffffffffffffff1673ffffffffffffffffffffffffffffffffffffffff1681526020019081526020015f20549050600a816103e39190610a99565b421015610425576040517f08c379a000000000000000000000000000000000000000000000000000000000815260040161041c90610b3c565b60405180910390fd5b8173ffffffffffffffffffffffffffffffffffffffff166108fc670de0b6b3a764000090811502906040515f60405180830381858888f19350505050158015610470573d5f5f3e3d5ffd5b504260035f8473ffffffffffffffffffffffffffffffffffffffff1673ffffffffffffffffffffffffffffffffffffffff1681526020019081526020015f208190555050508080600101915050610344565b50565b60604260035f3373ffffffffffffffffffffffffffffffffffffffff1673ffffffffffffffffffffffffffffffffffffffff1681526020019081526020015f20819055505f604051806060016040528060015f81548092919061052790610b63565b9190505581526020013373ffffffffffffffffffffffffffffffffffffffff1681526020013373ffffffffffffffffffffffffffffffffffffffff1631815250908060018154018082558091505060019003905f5260205f2090600302015f909190919091505f820151815f01556020820151816001015f6101000a81548173ffffffffffffffffffffffffffffffffffffffff021916908373ffffffffffffffffffffffffffffffffffffffff16021790555060408201518160020155505060405180602001604052805f815250905090565b5f5f90505f5f90505b5f8054905081101561069a573373ffffffffffffffffffffffffffffffffffffffff165f828154811061063a5761063961092e565b5b905f5260205f2090600302016001015f9054906101000a900473ffffffffffffffffffffffffffffffffffffffff1673ffffffffffffffffffffffffffffffffffffffff160361068d576001915061069a565b8080600101915050610604565b50806106db576040517f08c379a00000000000000000000000000000000000000000000000000000000081526004016106d2906109a5565b60405180910390fd5b3073ffffffffffffffffffffffffffffffffffffffff166108fc3490811502906040515f60405180830381858888f1935050505015801561071e573d5f5f3e3d5ffd5b5050565b60608160025f6101000a81548173ffffffffffffffffffffffffffffffffffffffff021916908373ffffffffffffffffffffffffffffffffffffffff16021790555060405180602001604052805f8152509050919050565b6003602052805f5260405f205f915090505481565b5f5ffd5b5f819050919050565b6107a581610793565b81146107af575f5ffd5b50565b5f813590506107c08161079c565b92915050565b5f602082840312156107db576107da61078f565b5b5f6107e8848285016107b2565b91505092915050565b6107fa81610793565b82525050565b5f6020820190506108135f8301846107f1565b92915050565b5f81519050919050565b5f82825260208201905092915050565b8281835e5f83830152505050565b5f601f19601f8301169050919050565b5f61085b82610819565b6108658185610823565b9350610875818560208601610833565b61087e81610841565b840191505092915050565b5f6020820190508181035f8301526108a18184610851565b905092915050565b5f73ffffffffffffffffffffffffffffffffffffffff82169050919050565b5f6108d2826108a9565b9050919050565b6108e2816108c8565b81146108ec575f5ffd5b50565b5f813590506108fd816108d9565b92915050565b5f602082840312156109185761091761078f565b5b5f610925848285016108ef565b91505092915050565b7f4e487b71000000000000000000000000000000000000000000000000000000005f52603260045260245ffd5b7f4f6e6c7920636c69656e74732063616e2063616c6c20746869732100000000005f82015250565b5f61098f601b83610823565b915061099a8261095b565b602082019050919050565b5f6020820190508181035f8301526109bc81610983565b9050919050565b7f4e487b71000000000000000000000000000000000000000000000000000000005f52601160045260245ffd5b5f6109fa82610793565b9150610a0583610793565b9250828202610a1381610793565b91508282048414831517610a2a57610a296109c3565b5b5092915050565b7f4f6e6c79206d616e616765722063616e2063616c6c20746869732100000000005f82015250565b5f610a65601b83610823565b9150610a7082610a31565b602082019050919050565b5f6020820190508181035f830152610a9281610a59565b9050919050565b5f610aa382610793565b9150610aae83610793565b9250828201905080821115610ac657610ac56109c3565b5b92915050565b7f49742773206a757374206265656e206c657373207468616e203130207365636f5f8201527f6e64732100000000000000000000000000000000000000000000000000000000602082015250565b5f610b26602483610823565b9150610b3182610acc565b604082019050919050565b5f6020820190508181035f830152610b5381610b1a565b9050919050565b5f819050919050565b5f610b6d82610b5a565b91507f7fffffffffffffffffffffffffffffffffffffffffffffffffffffffffffffff8203610b9f57610b9e6109c3565b5b60018201905091905056fea26469706673582212203130ead22e47e1edbb1cb7cf180ced0557c5c4d468deb1b1e8cacef402b418a464736f6c634300081e0033",
					"opcodes": "PUSH1 0x80 PUSH1 0x40 MSTORE CALLVALUE DUP1 ISZERO PUSH1 0xE JUMPI PUSH0 PUSH0 REVERT JUMPDEST POP PUSH0 PUSH1 0x1 DUP2 SWAP1 SSTORE POP PUSH2 0xBE0 DUP1 PUSH2 0x23 PUSH0 CODECOPY PUSH0 RETURN INVALID PUSH1 0x80 PUSH1 0x40 MSTORE PUSH1 0x4 CALLDATASIZE LT PUSH2 0x73 JUMPI PUSH0 CALLDATALOAD PUSH1 0xE0 SHR DUP1 PUSH4 0xA4092174 GT PUSH2 0x4D JUMPI DUP1 PUSH4 0xA4092174 EQ PUSH2 0xCE JUMPI DUP1 PUSH4 0xD0E30DB0 EQ PUSH2 0xEC JUMPI DUP1 PUSH4 0xD0EBDBE7 EQ PUSH2 0xF6 JUMPI DUP1 PUSH4 0xD9DCA6C5 EQ PUSH2 0x132 JUMPI PUSH2 0x7A JUMP JUMPDEST DUP1 PUSH4 0x2E1A7D4D EQ PUSH2 0x7E JUMPI DUP1 PUSH4 0x6F9FB98A EQ PUSH2 0x9A JUMPI DUP1 PUSH4 0x9E0A5D68 EQ PUSH2 0xC4 JUMPI PUSH2 0x7A JUMP JUMPDEST CALLDATASIZE PUSH2 0x7A JUMPI STOP JUMPDEST PUSH0 PUSH0 REVERT JUMPDEST PUSH2 0x98 PUSH1 0x4 DUP1 CALLDATASIZE SUB DUP2 ADD SWAP1 PUSH2 0x93 SWAP2 SWAP1 PUSH2 0x7C6 JUMP JUMPDEST PUSH2 0x16E JUMP JUMPDEST STOP JUMPDEST CALLVALUE DUP1 ISZERO PUSH2 0xA5 JUMPI PUSH0 PUSH0 REVERT JUMPDEST POP PUSH2 0xAE PUSH2 0x2A9 JUMP JUMPDEST PUSH1 0x40 MLOAD PUSH2 0xBB SWAP2 SWAP1 PUSH2 0x800 JUMP JUMPDEST PUSH1 0x40 MLOAD DUP1 SWAP2 SUB SWAP1 RETURN JUMPDEST PUSH2 0xCC PUSH2 0x2B0 JUMP JUMPDEST STOP JUMPDEST PUSH2 0xD6 PUSH2 0x4C5 JUMP JUMPDEST PUSH1 0x40 MLOAD PUSH2 0xE3 SWAP2 SWAP1 PUSH2 0x889 JUMP JUMPDEST PUSH1 0x40 MLOAD DUP1 SWAP2 SUB SWAP1 RETURN JUMPDEST PUSH2 0xF4 PUSH2 0x5FB JUMP JUMPDEST STOP JUMPDEST CALLVALUE DUP1 ISZERO PUSH2 0x101 JUMPI PUSH0 PUSH0 REVERT JUMPDEST POP PUSH2 0x11C PUSH1 0x4 DUP1 CALLDATASIZE SUB DUP2 ADD SWAP1 PUSH2 0x117 SWAP2 SWAP1 PUSH2 0x903 JUMP JUMPDEST PUSH2 0x722 JUMP JUMPDEST PUSH1 0x40 MLOAD PUSH2 0x129 SWAP2 SWAP1 PUSH2 0x889 JUMP JUMPDEST PUSH1 0x40 MLOAD DUP1 SWAP2 SUB SWAP1 RETURN JUMPDEST CALLVALUE DUP1 ISZERO PUSH2 0x13D JUMPI PUSH0 PUSH0 REVERT JUMPDEST POP PUSH2 0x158 PUSH1 0x4 DUP1 CALLDATASIZE SUB DUP2 ADD SWAP1 PUSH2 0x153 SWAP2 SWAP1 PUSH2 0x903 JUMP JUMPDEST PUSH2 0x77A JUMP JUMPDEST PUSH1 0x40 MLOAD PUSH2 0x165 SWAP2 SWAP1 PUSH2 0x800 JUMP JUMPDEST PUSH1 0x40 MLOAD DUP1 SWAP2 SUB SWAP1 RETURN JUMPDEST PUSH0 PUSH0 SWAP1 POP PUSH0 PUSH0 SWAP1 POP JUMPDEST PUSH0 DUP1 SLOAD SWAP1 POP DUP2 LT ISZERO PUSH2 0x20D JUMPI CALLER PUSH20 0xFFFFFFFFFFFFFFFFFFFFFFFFFFFFFFFFFFFFFFFF AND PUSH0 DUP3 DUP2 SLOAD DUP2 LT PUSH2 0x1AD JUMPI PUSH2 0x1AC PUSH2 0x92E JUMP JUMPDEST JUMPDEST SWAP1 PUSH0 MSTORE PUSH1 0x20 PUSH0 KECCAK256 SWAP1 PUSH1 0x3 MUL ADD PUSH1 0x1 ADD PUSH0 SWAP1 SLOAD SWAP1 PUSH2 0x100 EXP SWAP1 DIV PUSH20 0xFFFFFFFFFFFFFFFFFFFFFFFFFFFFFFFFFFFFFFFF AND PUSH20 0xFFFFFFFFFFFFFFFFFFFFFFFFFFFFFFFFFFFFFFFF AND SUB PUSH2 0x200 JUMPI PUSH1 0x1 SWAP2 POP PUSH2 0x20D JUMP JUMPDEST DUP1 DUP1 PUSH1 0x1 ADD SWAP2 POP POP PUSH2 0x177 JUMP JUMPDEST POP DUP1 PUSH2 0x24E JUMPI PUSH1 0x40 MLOAD PUSH32 0x8C379A000000000000000000000000000000000000000000000000000000000 DUP2 MSTORE PUSH1 0x4 ADD PUSH2 0x245 SWAP1 PUSH2 0x9A5 JUMP JUMPDEST PUSH1 0x40 MLOAD DUP1 SWAP2 SUB SWAP1 REVERT JUMPDEST CALLER PUSH20 0xFFFFFFFFFFFFFFFFFFFFFFFFFFFFFFFFFFFFFFFF AND PUSH2 0x8FC PUSH8 0xDE0B6B3A7640000 DUP5 PUSH2 0x27C SWAP2 SWAP1 PUSH2 0x9F0 JUMP JUMPDEST SWAP1 DUP2 ISZERO MUL SWAP1 PUSH1 0x40 MLOAD PUSH0 PUSH1 0x40 MLOAD DUP1 DUP4 SUB DUP2 DUP6 DUP9 DUP9 CALL SWAP4 POP POP POP POP ISZERO DUP1 ISZERO PUSH2 0x2A4 JUMPI RETURNDATASIZE PUSH0 PUSH0 RETURNDATACOPY RETURNDATASIZE PUSH0 REVERT JUMPDEST POP POP POP JUMP JUMPDEST PUSH0 SELFBALANCE SWAP1 POP SWAP1 JUMP JUMPDEST PUSH1 0x2 PUSH0 SWAP1 SLOAD SWAP1 PUSH2 0x100 EXP SWAP1 DIV PUSH20 0xFFFFFFFFFFFFFFFFFFFFFFFFFFFFFFFFFFFFFFFF AND PUSH20 0xFFFFFFFFFFFFFFFFFFFFFFFFFFFFFFFFFFFFFFFF AND CALLER PUSH20 0xFFFFFFFFFFFFFFFFFFFFFFFFFFFFFFFFFFFFFFFF AND EQ PUSH2 0x33F JUMPI PUSH1 0x40 MLOAD PUSH32 0x8C379A000000000000000000000000000000000000000000000000000000000 DUP2 MSTORE PUSH1 0x4 ADD PUSH2 0x336 SWAP1 PUSH2 0xA7B JUMP JUMPDEST PUSH1 0x40 MLOAD DUP1 SWAP2 SUB SWAP1 REVERT JUMPDEST PUSH0 PUSH0 SWAP1 POP JUMPDEST PUSH0 DUP1 SLOAD SWAP1 POP DUP2 LT ISZERO PUSH2 0x4C2 JUMPI PUSH0 PUSH0 DUP3 DUP2 SLOAD DUP2 LT PUSH2 0x364 JUMPI PUSH2 0x363 PUSH2 0x92E JUMP JUMPDEST JUMPDEST SWAP1 PUSH0 MSTORE PUSH1 0x20 PUSH0 KECCAK256 SWAP1 PUSH1 0x3 MUL ADD PUSH1 0x1 ADD PUSH0 SWAP1 SLOAD SWAP1 PUSH2 0x100 EXP SWAP1 DIV PUSH20 0xFFFFFFFFFFFFFFFFFFFFFFFFFFFFFFFFFFFFFFFF AND SWAP1 POP PUSH0 PUSH1 0x3 PUSH0 DUP4 PUSH20 0xFFFFFFFFFFFFFFFFFFFFFFFFFFFFFFFFFFFFFFFF AND PUSH20 0xFFFFFFFFFFFFFFFFFFFFFFFFFFFFFFFFFFFFFFFF AND DUP2 MSTORE PUSH1 0x20 ADD SWAP1 DUP2 MSTORE PUSH1 0x20 ADD PUSH0 KECCAK256 SLOAD SWAP1 POP PUSH1 0xA DUP2 PUSH2 0x3E3 SWAP2 SWAP1 PUSH2 0xA99 JUMP JUMPDEST TIMESTAMP LT ISZERO PUSH2 0x425 JUMPI PUSH1 0x40 MLOAD PUSH32 0x8C379A000000000000000000000000000000000000000000000000000000000 DUP2 MSTORE PUSH1 0x4 ADD PUSH2 0x41C SWAP1 PUSH2 0xB3C JUMP JUMPDEST PUSH1 0x40 MLOAD DUP1 SWAP2 SUB SWAP1 REVERT JUMPDEST DUP2 PUSH20 0xFFFFFFFFFFFFFFFFFFFFFFFFFFFFFFFFFFFFFFFF AND PUSH2 0x8FC PUSH8 0xDE0B6B3A7640000 SWAP1 DUP2 ISZERO MUL SWAP1 PUSH1 0x40 MLOAD PUSH0 PUSH1 0x40 MLOAD DUP1 DUP4 SUB DUP2 DUP6 DUP9 DUP9 CALL SWAP4 POP POP POP POP ISZERO DUP1 ISZERO PUSH2 0x470 JUMPI RETURNDATASIZE PUSH0 PUSH0 RETURNDATACOPY RETURNDATASIZE PUSH0 REVERT JUMPDEST POP TIMESTAMP PUSH1 0x3 PUSH0 DUP5 PUSH20 0xFFFFFFFFFFFFFFFFFFFFFFFFFFFFFFFFFFFFFFFF AND PUSH20 0xFFFFFFFFFFFFFFFFFFFFFFFFFFFFFFFFFFFFFFFF AND DUP2 MSTORE PUSH1 0x20 ADD SWAP1 DUP2 MSTORE PUSH1 0x20 ADD PUSH0 KECCAK256 DUP2 SWAP1 SSTORE POP POP POP DUP1 DUP1 PUSH1 0x1 ADD SWAP2 POP POP PUSH2 0x344 JUMP JUMPDEST POP JUMP JUMPDEST PUSH1 0x60 TIMESTAMP PUSH1 0x3 PUSH0 CALLER PUSH20 0xFFFFFFFFFFFFFFFFFFFFFFFFFFFFFFFFFFFFFFFF AND PUSH20 0xFFFFFFFFFFFFFFFFFFFFFFFFFFFFFFFFFFFFFFFF AND DUP2 MSTORE PUSH1 0x20 ADD SWAP1 DUP2 MSTORE PUSH1 0x20 ADD PUSH0 KECCAK256 DUP2 SWAP1 SSTORE POP PUSH0 PUSH1 0x40 MLOAD DUP1 PUSH1 0x60 ADD PUSH1 0x40 MSTORE DUP1 PUSH1 0x1 PUSH0 DUP2 SLOAD DUP1 SWAP3 SWAP2 SWAP1 PUSH2 0x527 SWAP1 PUSH2 0xB63 JUMP JUMPDEST SWAP2 SWAP1 POP SSTORE DUP2 MSTORE PUSH1 0x20 ADD CALLER PUSH20 0xFFFFFFFFFFFFFFFFFFFFFFFFFFFFFFFFFFFFFFFF AND DUP2 MSTORE PUSH1 0x20 ADD CALLER PUSH20 0xFFFFFFFFFFFFFFFFFFFFFFFFFFFFFFFFFFFFFFFF AND BALANCE DUP2 MSTORE POP SWAP1 DUP1 PUSH1 0x1 DUP2 SLOAD ADD DUP1 DUP3 SSTORE DUP1 SWAP2 POP POP PUSH1 0x1 SWAP1 SUB SWAP1 PUSH0 MSTORE PUSH1 0x20 PUSH0 KECCAK256 SWAP1 PUSH1 0x3 MUL ADD PUSH0 SWAP1 SWAP2 SWAP1 SWAP2 SWAP1 SWAP2 POP PUSH0 DUP3 ADD MLOAD DUP2 PUSH0 ADD SSTORE PUSH1 0x20 DUP3 ADD MLOAD DUP2 PUSH1 0x1 ADD PUSH0 PUSH2 0x100 EXP DUP2 SLOAD DUP2 PUSH20 0xFFFFFFFFFFFFFFFFFFFFFFFFFFFFFFFFFFFFFFFF MUL NOT AND SWAP1 DUP4 PUSH20 0xFFFFFFFFFFFFFFFFFFFFFFFFFFFFFFFFFFFFFFFF AND MUL OR SWAP1 SSTORE POP PUSH1 0x40 DUP3 ADD MLOAD DUP2 PUSH1 0x2 ADD SSTORE POP POP PUSH1 0x40 MLOAD DUP1 PUSH1 0x20 ADD PUSH1 0x40 MSTORE DUP1 PUSH0 DUP2 MSTORE POP SWAP1 POP SWAP1 JUMP JUMPDEST PUSH0 PUSH0 SWAP1 POP PUSH0 PUSH0 SWAP1 POP JUMPDEST PUSH0 DUP1 SLOAD SWAP1 POP DUP2 LT ISZERO PUSH2 0x69A JUMPI CALLER PUSH20 0xFFFFFFFFFFFFFFFFFFFFFFFFFFFFFFFFFFFFFFFF AND PUSH0 DUP3 DUP2 SLOAD DUP2 LT PUSH2 0x63A JUMPI PUSH2 0x639 PUSH2 0x92E JUMP JUMPDEST JUMPDEST SWAP1 PUSH0 MSTORE PUSH1 0x20 PUSH0 KECCAK256 SWAP1 PUSH1 0x3 MUL ADD PUSH1 0x1 ADD PUSH0 SWAP1 SLOAD SWAP1 PUSH2 0x100 EXP SWAP1 DIV PUSH20 0xFFFFFFFFFFFFFFFFFFFFFFFFFFFFFFFFFFFFFFFF AND PUSH20 0xFFFFFFFFFFFFFFFFFFFFFFFFFFFFFFFFFFFFFFFF AND SUB PUSH2 0x68D JUMPI PUSH1 0x1 SWAP2 POP PUSH2 0x69A JUMP JUMPDEST DUP1 DUP1 PUSH1 0x1 ADD SWAP2 POP POP PUSH2 0x604 JUMP JUMPDEST POP DUP1 PUSH2 0x6DB JUMPI PUSH1 0x40 MLOAD PUSH32 0x8C379A000000000000000000000000000000000000000000000000000000000 DUP2 MSTORE PUSH1 0x4 ADD PUSH2 0x6D2 SWAP1 PUSH2 0x9A5 JUMP JUMPDEST PUSH1 0x40 MLOAD DUP1 SWAP2 SUB SWAP1 REVERT JUMPDEST ADDRESS PUSH20 0xFFFFFFFFFFFFFFFFFFFFFFFFFFFFFFFFFFFFFFFF AND PUSH2 0x8FC CALLVALUE SWAP1 DUP2 ISZERO MUL SWAP1 PUSH1 0x40 MLOAD PUSH0 PUSH1 0x40 MLOAD DUP1 DUP4 SUB DUP2 DUP6 DUP9 DUP9 CALL SWAP4 POP POP POP POP ISZERO DUP1 ISZERO PUSH2 0x71E JUMPI RETURNDATASIZE PUSH0 PUSH0 RETURNDATACOPY RETURNDATASIZE PUSH0 REVERT JUMPDEST POP POP JUMP JUMPDEST PUSH1 0x60 DUP2 PUSH1 0x2 PUSH0 PUSH2 0x100 EXP DUP2 SLOAD DUP2 PUSH20 0xFFFFFFFFFFFFFFFFFFFFFFFFFFFFFFFFFFFFFFFF MUL NOT AND SWAP1 DUP4 PUSH20 0xFFFFFFFFFFFFFFFFFFFFFFFFFFFFFFFFFFFFFFFF AND MUL OR SWAP1 SSTORE POP PUSH1 0x40 MLOAD DUP1 PUSH1 0x20 ADD PUSH1 0x40 MSTORE DUP1 PUSH0 DUP2 MSTORE POP SWAP1 POP SWAP2 SWAP1 POP JUMP JUMPDEST PUSH1 0x3 PUSH1 0x20 MSTORE DUP1 PUSH0 MSTORE PUSH1 0x40 PUSH0 KECCAK256 PUSH0 SWAP2 POP SWAP1 POP SLOAD DUP2 JUMP JUMPDEST PUSH0 PUSH0 REVERT JUMPDEST PUSH0 DUP2 SWAP1 POP SWAP2 SWAP1 POP JUMP JUMPDEST PUSH2 0x7A5 DUP2 PUSH2 0x793 JUMP JUMPDEST DUP2 EQ PUSH2 0x7AF JUMPI PUSH0 PUSH0 REVERT JUMPDEST POP JUMP JUMPDEST PUSH0 DUP2 CALLDATALOAD SWAP1 POP PUSH2 0x7C0 DUP2 PUSH2 0x79C JUMP JUMPDEST SWAP3 SWAP2 POP POP JUMP JUMPDEST PUSH0 PUSH1 0x20 DUP3 DUP5 SUB SLT ISZERO PUSH2 0x7DB JUMPI PUSH2 0x7DA PUSH2 0x78F JUMP JUMPDEST JUMPDEST PUSH0 PUSH2 0x7E8 DUP5 DUP3 DUP6 ADD PUSH2 0x7B2 JUMP JUMPDEST SWAP2 POP POP SWAP3 SWAP2 POP POP JUMP JUMPDEST PUSH2 0x7FA DUP2 PUSH2 0x793 JUMP JUMPDEST DUP3 MSTORE POP POP JUMP JUMPDEST PUSH0 PUSH1 0x20 DUP3 ADD SWAP1 POP PUSH2 0x813 PUSH0 DUP4 ADD DUP5 PUSH2 0x7F1 JUMP JUMPDEST SWAP3 SWAP2 POP POP JUMP JUMPDEST PUSH0 DUP2 MLOAD SWAP1 POP SWAP2 SWAP1 POP JUMP JUMPDEST PUSH0 DUP3 DUP3 MSTORE PUSH1 0x20 DUP3 ADD SWAP1 POP SWAP3 SWAP2 POP POP JUMP JUMPDEST DUP3 DUP2 DUP4 MCOPY PUSH0 DUP4 DUP4 ADD MSTORE POP POP POP JUMP JUMPDEST PUSH0 PUSH1 0x1F NOT PUSH1 0x1F DUP4 ADD AND SWAP1 POP SWAP2 SWAP1 POP JUMP JUMPDEST PUSH0 PUSH2 0x85B DUP3 PUSH2 0x819 JUMP JUMPDEST PUSH2 0x865 DUP2 DUP6 PUSH2 0x823 JUMP JUMPDEST SWAP4 POP PUSH2 0x875 DUP2 DUP6 PUSH1 0x20 DUP7 ADD PUSH2 0x833 JUMP JUMPDEST PUSH2 0x87E DUP2 PUSH2 0x841 JUMP JUMPDEST DUP5 ADD SWAP2 POP POP SWAP3 SWAP2 POP POP JUMP JUMPDEST PUSH0 PUSH1 0x20 DUP3 ADD SWAP1 POP DUP2 DUP2 SUB PUSH0 DUP4 ADD MSTORE PUSH2 0x8A1 DUP2 DUP5 PUSH2 0x851 JUMP JUMPDEST SWAP1 POP SWAP3 SWAP2 POP POP JUMP JUMPDEST PUSH0 PUSH20 0xFFFFFFFFFFFFFFFFFFFFFFFFFFFFFFFFFFFFFFFF DUP3 AND SWAP1 POP SWAP2 SWAP1 POP JUMP JUMPDEST PUSH0 PUSH2 0x8D2 DUP3 PUSH2 0x8A9 JUMP JUMPDEST SWAP1 POP SWAP2 SWAP1 POP JUMP JUMPDEST PUSH2 0x8E2 DUP2 PUSH2 0x8C8 JUMP JUMPDEST DUP2 EQ PUSH2 0x8EC JUMPI PUSH0 PUSH0 REVERT JUMPDEST POP JUMP JUMPDEST PUSH0 DUP2 CALLDATALOAD SWAP1 POP PUSH2 0x8FD DUP2 PUSH2 0x8D9 JUMP JUMPDEST SWAP3 SWAP2 POP POP JUMP JUMPDEST PUSH0 PUSH1 0x20 DUP3 DUP5 SUB SLT ISZERO PUSH2 0x918 JUMPI PUSH2 0x917 PUSH2 0x78F JUMP JUMPDEST JUMPDEST PUSH0 PUSH2 0x925 DUP5 DUP3 DUP6 ADD PUSH2 0x8EF JUMP JUMPDEST SWAP2 POP POP SWAP3 SWAP2 POP POP JUMP JUMPDEST PUSH32 0x4E487B7100000000000000000000000000000000000000000000000000000000 PUSH0 MSTORE PUSH1 0x32 PUSH1 0x4 MSTORE PUSH1 0x24 PUSH0 REVERT JUMPDEST PUSH32 0x4F6E6C7920636C69656E74732063616E2063616C6C2074686973210000000000 PUSH0 DUP3 ADD MSTORE POP JUMP JUMPDEST PUSH0 PUSH2 0x98F PUSH1 0x1B DUP4 PUSH2 0x823 JUMP JUMPDEST SWAP2 POP PUSH2 0x99A DUP3 PUSH2 0x95B JUMP JUMPDEST PUSH1 0x20 DUP3 ADD SWAP1 POP SWAP2 SWAP1 POP JUMP JUMPDEST PUSH0 PUSH1 0x20 DUP3 ADD SWAP1 POP DUP2 DUP2 SUB PUSH0 DUP4 ADD MSTORE PUSH2 0x9BC DUP2 PUSH2 0x983 JUMP JUMPDEST SWAP1 POP SWAP2 SWAP1 POP JUMP JUMPDEST PUSH32 0x4E487B7100000000000000000000000000000000000000000000000000000000 PUSH0 MSTORE PUSH1 0x11 PUSH1 0x4 MSTORE PUSH1 0x24 PUSH0 REVERT JUMPDEST PUSH0 PUSH2 0x9FA DUP3 PUSH2 0x793 JUMP JUMPDEST SWAP2 POP PUSH2 0xA05 DUP4 PUSH2 0x793 JUMP JUMPDEST SWAP3 POP DUP3 DUP3 MUL PUSH2 0xA13 DUP2 PUSH2 0x793 JUMP JUMPDEST SWAP2 POP DUP3 DUP3 DIV DUP5 EQ DUP4 ISZERO OR PUSH2 0xA2A JUMPI PUSH2 0xA29 PUSH2 0x9C3 JUMP JUMPDEST JUMPDEST POP SWAP3 SWAP2 POP POP JUMP JUMPDEST PUSH32 0x4F6E6C79206D616E616765722063616E2063616C6C2074686973210000000000 PUSH0 DUP3 ADD MSTORE POP JUMP JUMPDEST PUSH0 PUSH2 0xA65 PUSH1 0x1B DUP4 PUSH2 0x823 JUMP JUMPDEST SWAP2 POP PUSH2 0xA70 DUP3 PUSH2 0xA31 JUMP JUMPDEST PUSH1 0x20 DUP3 ADD SWAP1 POP SWAP2 SWAP1 POP JUMP JUMPDEST PUSH0 PUSH1 0x20 DUP3 ADD SWAP1 POP DUP2 DUP2 SUB PUSH0 DUP4 ADD MSTORE PUSH2 0xA92 DUP2 PUSH2 0xA59 JUMP JUMPDEST SWAP1 POP SWAP2 SWAP1 POP JUMP JUMPDEST PUSH0 PUSH2 0xAA3 DUP3 PUSH2 0x793 JUMP JUMPDEST SWAP2 POP PUSH2 0xAAE DUP4 PUSH2 0x793 JUMP JUMPDEST SWAP3 POP DUP3 DUP3 ADD SWAP1 POP DUP1 DUP3 GT ISZERO PUSH2 0xAC6 JUMPI PUSH2 0xAC5 PUSH2 0x9C3 JUMP JUMPDEST JUMPDEST SWAP3 SWAP2 POP POP JUMP JUMPDEST PUSH32 0x49742773206A757374206265656E206C657373207468616E203130207365636F PUSH0 DUP3 ADD MSTORE PUSH32 0x6E64732100000000000000000000000000000000000000000000000000000000 PUSH1 0x20 DUP3 ADD MSTORE POP JUMP JUMPDEST PUSH0 PUSH2 0xB26 PUSH1 0x24 DUP4 PUSH2 0x823 JUMP JUMPDEST SWAP2 POP PUSH2 0xB31 DUP3 PUSH2 0xACC JUMP JUMPDEST PUSH1 0x40 DUP3 ADD SWAP1 POP SWAP2 SWAP1 POP JUMP JUMPDEST PUSH0 PUSH1 0x20 DUP3 ADD SWAP1 POP DUP2 DUP2 SUB PUSH0 DUP4 ADD MSTORE PUSH2 0xB53 DUP2 PUSH2 0xB1A JUMP JUMPDEST SWAP1 POP SWAP2 SWAP1 POP JUMP JUMPDEST PUSH0 DUP2 SWAP1 POP SWAP2 SWAP1 POP JUMP JUMPDEST PUSH0 PUSH2 0xB6D DUP3 PUSH2 0xB5A JUMP JUMPDEST SWAP2 POP PUSH32 0x7FFFFFFFFFFFFFFFFFFFFFFFFFFFFFFFFFFFFFFFFFFFFFFFFFFFFFFFFFFFFFFF DUP3 SUB PUSH2 0xB9F JUMPI PUSH2 0xB9E PUSH2 0x9C3 JUMP JUMPDEST JUMPDEST PUSH1 0x1 DUP3 ADD SWAP1 POP SWAP2 SWAP1 POP JUMP INVALID LOG2 PUSH5 0x6970667358 0x22 SLT KECCAK256 BALANCE ADDRESS 0xEA 0xD2 0x2E SELFBALANCE RJUMPI 0xEDBB SHR 0xB7 0xCF XOR 0xC 0xED SDIV JUMPI 0xC5 0xC4 0xD4 PUSH9 0xDEB1B1E8CACEF402B4 XOR LOG4 PUSH5 0x736F6C6343 STOP ADDMOD 0x1E STOP CALLER "
				},
				"gasEstimates": {
					"creation": {
						"codeDepositCost": "608000",
						"executionCost": "5649",
						"totalCost": "613649"
					},
					"external": {
						"deposit()": "infinite",
						"getContractBalance()": "357",
						"interestDate(address)": "2868",
						"joinAsClient()": "infinite",
						"sendInterest()": "infinite",
						"setManager(address)": "infinite",
						"withdraw(uint256)": "infinite"
					}
				},
				"methodIdentifiers": {
					"deposit()": "d0e30db0",
					"getContractBalance()": "6f9fb98a",
					"interestDate(address)": "d9dca6c5",
					"joinAsClient()": "a4092174",
					"sendInterest()": "9e0a5d68",
					"setManager(address)": "d0ebdbe7",
					"withdraw(uint256)": "2e1a7d4d"
				}
			},
			"storageLayout": {
				"storage": [
					{
						"astId": 12,
						"contract": "Bank.sol:Bank",
						"label": "clients",
						"offset": 0,
						"slot": "0",
						"type": "t_array(t_struct(client_account)8_storage)dyn_storage"
					},
					{
						"astId": 14,
						"contract": "Bank.sol:Bank",
						"label": "clientCounter",
						"offset": 0,
						"slot": "1",
						"type": "t_int256"
					},
					{
						"astId": 16,
						"contract": "Bank.sol:Bank",
						"label": "manager",
						"offset": 0,
						"slot": "2",
						"type": "t_address_payable"
					},
					{
						"astId": 20,
						"contract": "Bank.sol:Bank",
						"label": "interestDate",
						"offset": 0,
						"slot": "3",
						"type": "t_mapping(t_address,t_uint256)"
					}
				],
				"types": {
					"t_address": {
						"encoding": "inplace",
						"label": "address",
						"numberOfBytes": "20"
					},
					"t_address_payable": {
						"encoding": "inplace",
						"label": "address payable",
						"numberOfBytes": "20"
					},
					"t_array(t_struct(client_account)8_storage)dyn_storage": {
						"base": "t_struct(client_account)8_storage",
						"encoding": "dynamic_array",
						"label": "struct Bank.client_account[]",
						"numberOfBytes": "32"
					},
					"t_int256": {
						"encoding": "inplace",
						"label": "int256",
						"numberOfBytes": "32"
					},
					"t_mapping(t_address,t_uint256)": {
						"encoding": "mapping",
						"key": "t_address",
						"label": "mapping(address => uint256)",
						"numberOfBytes": "32",
						"value": "t_uint256"
					},
					"t_struct(client_account)8_storage": {
						"encoding": "inplace",
						"label": "struct Bank.client_account",
						"members": [
							{
								"astId": 3,
								"contract": "Bank.sol:Bank",
								"label": "client_id",
								"offset": 0,
								"slot": "0",
								"type": "t_int256"
							},
							{
								"astId": 5,
								"contract": "Bank.sol:Bank",
								"label": "client_address",
								"offset": 0,
								"slot": "1",
								"type": "t_address"
							},
							{
								"astId": 7,
								"contract": "Bank.sol:Bank",
								"label": "client_balance_in_ether",
								"offset": 0,
								"slot": "2",
								"type": "t_uint256"
							}
						],
						"numberOfBytes": "96"
					},
					"t_uint256": {
						"encoding": "inplace",
						"label": "uint256",
						"numberOfBytes": "32"
					}
				}
			},
			"userdoc": {
				"kind": "user",
				"methods": {},
				"version": 1
			}
		}
	}
}