{
	"Prime.sol": {
		"Prime": {
			"abi": [
				{
					"inputs": [
						{
							"internalType": "int256",
							"name": "_number",
							"type": "int256"
						}
					],
					"stateMutability": "nonpayable",
					"type": "constructor"
				},
				{
					"inputs": [],
					"name": "isPrime",
					"outputs": [
						{
							"internalType": "string",
							"name": "",
							"type": "string"
						}
					],
					"stateMutability": "view",
					"type": "function"
				}
			],
			"devdoc": {
				"kind": "dev",
				"methods": {},
				"version": 1
			},
			"evm": {
				"assembly": "    /* \"Prime.sol\":58:487  contract Prime {... */\n  mstore(0x40, 0x80)\n    /* \"Prime.sol\":133:225  constructor(int _number) {... */\n  callvalue\n  dup1\n  iszero\n  tag_1\n  jumpi\n  revert(0x00, 0x00)\ntag_1:\n  pop\n  mload(0x40)\n  sub(codesize, bytecodeSize)\n  dup1\n  bytecodeSize\n  dup4\n  codecopy\n  dup2\n  dup2\n  add\n  0x40\n  mstore\n  dup2\n  add\n  swap1\n  tag_2\n  swap2\n  swap1\n  tag_3\n  jump\t// in\ntag_2:\n    /* \"Prime.sol\":186:193  _number */\n  dup1\n    /* \"Prime.sol\":177:183  number */\n  0x00\n    /* \"Prime.sol\":177:193  number = _number */\n  dup2\n  swap1\n  sstore\n  pop\n    /* \"Prime.sol\":209:218  isPrime() */\n  tag_6\n    /* \"Prime.sol\":209:216  isPrime */\n  shl(0x20, tag_7)\n    /* \"Prime.sol\":209:218  isPrime() */\n  0x20\n  shr\n  jump\t// in\ntag_6:\n    /* \"Prime.sol\":203:206  ans */\n  0x01\n    /* \"Prime.sol\":203:218  ans = isPrime() */\n  swap1\n  dup2\n  tag_8\n  swap2\n  swap1\n  tag_9\n  jump\t// in\ntag_8:\n  pop\n    /* \"Prime.sol\":133:225  constructor(int _number) {... */\n  pop\n    /* \"Prime.sol\":58:487  contract Prime {... */\n  jump(tag_10)\n    /* \"Prime.sol\":231:485  function isPrime() public view returns (string memory){... */\ntag_7:\n    /* \"Prime.sol\":271:284  string memory */\n  0x60\n    /* \"Prime.sol\":308:309  1 */\n  0x01\n    /* \"Prime.sol\":299:305  number */\n  sload(0x00)\n    /* \"Prime.sol\":299:309  number < 1 */\n  slt\n    /* \"Prime.sol\":296:337  if(number < 1)... */\n  iszero\n  tag_12\n  jumpi\n    /* \"Prime.sol\":319:337  return \"Not Prime\" */\n  mload(0x40)\n  dup1\n  0x40\n  add\n  0x40\n  mstore\n  dup1\n  0x09\n  dup2\n  mstore\n  0x20\n  add\n  0x4e6f74205072696d650000000000000000000000000000000000000000000000\n  dup2\n  mstore\n  pop\n  swap1\n  pop\n  jump(tag_11)\n    /* \"Prime.sol\":296:337  if(number < 1)... */\ntag_12:\n    /* \"Prime.sol\":353:358  int i */\n  0x00\n    /* \"Prime.sol\":359:360  2 */\n  0x02\n    /* \"Prime.sol\":353:360  int i=2 */\n  swap1\n  pop\n    /* \"Prime.sol\":348:454  for (int i=2; i < number; ++i){... */\ntag_13:\n    /* \"Prime.sol\":366:372  number */\n  sload(0x00)\n    /* \"Prime.sol\":362:363  i */\n  dup2\n    /* \"Prime.sol\":362:372  i < number */\n  slt\n    /* \"Prime.sol\":348:454  for (int i=2; i < number; ++i){... */\n  iszero\n  tag_14\n  jumpi\n    /* \"Prime.sol\":410:411  0 */\n  0x00\n    /* \"Prime.sol\":405:406  i */\n  dup2\n    /* \"Prime.sol\":396:402  number */\n  sload(0x00)\n    /* \"Prime.sol\":396:406  number % i */\n  tag_16\n  swap2\n  swap1\n  tag_17\n  jump\t// in\ntag_16:\n    /* \"Prime.sol\":396:411  number % i == 0 */\n  sub\n    /* \"Prime.sol\":393:443  if(number % i == 0)... */\n  tag_18\n  jumpi\n    /* \"Prime.sol\":425:443  return \"Not Prime\" */\n  mload(0x40)\n  dup1\n  0x40\n  add\n  0x40\n  mstore\n  dup1\n  0x09\n  dup2\n  mstore\n  0x20\n  add\n  0x4e6f74205072696d650000000000000000000000000000000000000000000000\n  dup2\n  mstore\n  pop\n  swap2\n  pop\n  pop\n  jump(tag_11)\n    /* \"Prime.sol\":393:443  if(number % i == 0)... */\ntag_18:\n    /* \"Prime.sol\":374:377  ++i */\n  dup1\n  0x01\n  add\n  swap1\n  pop\n    /* \"Prime.sol\":348:454  for (int i=2; i < number; ++i){... */\n  jump(tag_13)\ntag_14:\n  pop\n    /* \"Prime.sol\":464:478  return \"Prime\" */\n  mload(0x40)\n  dup1\n  0x40\n  add\n  0x40\n  mstore\n  dup1\n  0x05\n  dup2\n  mstore\n  0x20\n  add\n  0x5072696d65000000000000000000000000000000000000000000000000000000\n  dup2\n  mstore\n  pop\n  swap1\n  pop\n    /* \"Prime.sol\":231:485  function isPrime() public view returns (string memory){... */\ntag_11:\n  swap1\n  jump\t// out\n    /* \"#utility.yul\":88:205   */\ntag_20:\n    /* \"#utility.yul\":197:198   */\n  0x00\n    /* \"#utility.yul\":194:195   */\n  0x00\n    /* \"#utility.yul\":187:199   */\n  revert\n    /* \"#utility.yul\":334:410   */\ntag_22:\n    /* \"#utility.yul\":370:377   */\n  0x00\n    /* \"#utility.yul\":399:404   */\n  dup2\n    /* \"#utility.yul\":388:404   */\n  swap1\n  pop\n    /* \"#utility.yul\":334:410   */\n  swap2\n  swap1\n  pop\n  jump\t// out\n    /* \"#utility.yul\":416:536   */\ntag_23:\n    /* \"#utility.yul\":488:511   */\n  tag_52\n    /* \"#utility.yul\":505:510   */\n  dup2\n    /* \"#utility.yul\":488:511   */\n  tag_22\n  jump\t// in\ntag_52:\n    /* \"#utility.yul\":481:486   */\n  dup2\n    /* \"#utility.yul\":478:512   */\n  eq\n    /* \"#utility.yul\":468:530   */\n  tag_53\n  jumpi\n    /* \"#utility.yul\":526:527   */\n  0x00\n    /* \"#utility.yul\":523:524   */\n  0x00\n    /* \"#utility.yul\":516:528   */\n  revert\n    /* \"#utility.yul\":468:530   */\ntag_53:\n    /* \"#utility.yul\":416:536   */\n  pop\n  jump\t// out\n    /* \"#utility.yul\":542:683   */\ntag_24:\n    /* \"#utility.yul\":598:603   */\n  0x00\n    /* \"#utility.yul\":629:635   */\n  dup2\n    /* \"#utility.yul\":623:636   */\n  mload\n    /* \"#utility.yul\":614:636   */\n  swap1\n  pop\n    /* \"#utility.yul\":645:677   */\n  tag_55\n    /* \"#utility.yul\":671:676   */\n  dup2\n    /* \"#utility.yul\":645:677   */\n  tag_23\n  jump\t// in\ntag_55:\n    /* \"#utility.yul\":542:683   */\n  swap3\n  swap2\n  pop\n  pop\n  jump\t// out\n    /* \"#utility.yul\":689:1038   */\ntag_3:\n    /* \"#utility.yul\":758:764   */\n  0x00\n    /* \"#utility.yul\":807:809   */\n  0x20\n    /* \"#utility.yul\":795:804   */\n  dup3\n    /* \"#utility.yul\":786:793   */\n  dup5\n    /* \"#utility.yul\":782:805   */\n  sub\n    /* \"#utility.yul\":778:810   */\n  slt\n    /* \"#utility.yul\":775:894   */\n  iszero\n  tag_57\n  jumpi\n    /* \"#utility.yul\":813:892   */\n  tag_58\n  tag_20\n  jump\t// in\ntag_58:\n    /* \"#utility.yul\":775:894   */\ntag_57:\n    /* \"#utility.yul\":933:934   */\n  0x00\n    /* \"#utility.yul\":958:1021   */\n  tag_59\n    /* \"#utility.yul\":1013:1020   */\n  dup5\n    /* \"#utility.yul\":1004:1010   */\n  dup3\n    /* \"#utility.yul\":993:1002   */\n  dup6\n    /* \"#utility.yul\":989:1011   */\n  add\n    /* \"#utility.yul\":958:1021   */\n  tag_24\n  jump\t// in\ntag_59:\n    /* \"#utility.yul\":948:1021   */\n  swap2\n  pop\n    /* \"#utility.yul\":904:1031   */\n  pop\n    /* \"#utility.yul\":689:1038   */\n  swap3\n  swap2\n  pop\n  pop\n  jump\t// out\n    /* \"#utility.yul\":1044:1143   */\ntag_25:\n    /* \"#utility.yul\":1096:1102   */\n  0x00\n    /* \"#utility.yul\":1130:1135   */\n  dup2\n    /* \"#utility.yul\":1124:1136   */\n  mload\n    /* \"#utility.yul\":1114:1136   */\n  swap1\n  pop\n    /* \"#utility.yul\":1044:1143   */\n  swap2\n  swap1\n  pop\n  jump\t// out\n    /* \"#utility.yul\":1149:1329   */\ntag_26:\n    /* \"#utility.yul\":1197:1274   */\n  0x4e487b7100000000000000000000000000000000000000000000000000000000\n    /* \"#utility.yul\":1194:1195   */\n  0x00\n    /* \"#utility.yul\":1187:1275   */\n  mstore\n    /* \"#utility.yul\":1294:1298   */\n  0x41\n    /* \"#utility.yul\":1291:1292   */\n  0x04\n    /* \"#utility.yul\":1284:1299   */\n  mstore\n    /* \"#utility.yul\":1318:1322   */\n  0x24\n    /* \"#utility.yul\":1315:1316   */\n  0x00\n    /* \"#utility.yul\":1308:1323   */\n  revert\n    /* \"#utility.yul\":1335:1515   */\ntag_27:\n    /* \"#utility.yul\":1383:1460   */\n  0x4e487b7100000000000000000000000000000000000000000000000000000000\n    /* \"#utility.yul\":1380:1381   */\n  0x00\n    /* \"#utility.yul\":1373:1461   */\n  mstore\n    /* \"#utility.yul\":1480:1484   */\n  0x22\n    /* \"#utility.yul\":1477:1478   */\n  0x04\n    /* \"#utility.yul\":1470:1485   */\n  mstore\n    /* \"#utility.yul\":1504:1508   */\n  0x24\n    /* \"#utility.yul\":1501:1502   */\n  0x00\n    /* \"#utility.yul\":1494:1509   */\n  revert\n    /* \"#utility.yul\":1521:1841   */\ntag_28:\n    /* \"#utility.yul\":1565:1571   */\n  0x00\n    /* \"#utility.yul\":1602:1603   */\n  0x02\n    /* \"#utility.yul\":1596:1600   */\n  dup3\n    /* \"#utility.yul\":1592:1604   */\n  div\n    /* \"#utility.yul\":1582:1604   */\n  swap1\n  pop\n    /* \"#utility.yul\":1649:1650   */\n  0x01\n    /* \"#utility.yul\":1643:1647   */\n  dup3\n    /* \"#utility.yul\":1639:1651   */\n  and\n    /* \"#utility.yul\":1670:1688   */\n  dup1\n    /* \"#utility.yul\":1660:1741   */\n  tag_64\n  jumpi\n    /* \"#utility.yul\":1726:1730   */\n  0x7f\n    /* \"#utility.yul\":1718:1724   */\n  dup3\n    /* \"#utility.yul\":1714:1731   */\n  and\n    /* \"#utility.yul\":1704:1731   */\n  swap2\n  pop\n    /* \"#utility.yul\":1660:1741   */\ntag_64:\n    /* \"#utility.yul\":1788:1790   */\n  0x20\n    /* \"#utility.yul\":1780:1786   */\n  dup3\n    /* \"#utility.yul\":1777:1791   */\n  lt\n    /* \"#utility.yul\":1757:1775   */\n  dup2\n    /* \"#utility.yul\":1754:1792   */\n  sub\n    /* \"#utility.yul\":1751:1835   */\n  tag_65\n  jumpi\n    /* \"#utility.yul\":1807:1825   */\n  tag_66\n  tag_27\n  jump\t// in\ntag_66:\n    /* \"#utility.yul\":1751:1835   */\ntag_65:\n    /* \"#utility.yul\":1572:1841   */\n  pop\n    /* \"#utility.yul\":1521:1841   */\n  swap2\n  swap1\n  pop\n  jump\t// out\n    /* \"#utility.yul\":1847:1988   */\ntag_29:\n    /* \"#utility.yul\":1896:1900   */\n  0x00\n    /* \"#utility.yul\":1919:1922   */\n  dup2\n    /* \"#utility.yul\":1911:1922   */\n  swap1\n  pop\n    /* \"#utility.yul\":1942:1945   */\n  dup2\n    /* \"#utility.yul\":1939:1940   */\n  0x00\n    /* \"#utility.yul\":1932:1946   */\n  mstore\n    /* \"#utility.yul\":1976:1980   */\n  0x20\n    /* \"#utility.yul\":1973:1974   */\n  0x00\n    /* \"#utility.yul\":1963:1981   */\n  keccak256\n    /* \"#utility.yul\":1955:1981   */\n  swap1\n  pop\n    /* \"#utility.yul\":1847:1988   */\n  swap2\n  swap1\n  pop\n  jump\t// out\n    /* \"#utility.yul\":1994:2087   */\ntag_30:\n    /* \"#utility.yul\":2031:2037   */\n  0x00\n    /* \"#utility.yul\":2078:2080   */\n  0x20\n    /* \"#utility.yul\":2073:2075   */\n  0x1f\n    /* \"#utility.yul\":2066:2071   */\n  dup4\n    /* \"#utility.yul\":2062:2076   */\n  add\n    /* \"#utility.yul\":2058:2081   */\n  div\n    /* \"#utility.yul\":2048:2081   */\n  swap1\n  pop\n    /* \"#utility.yul\":1994:2087   */\n  swap2\n  swap1\n  pop\n  jump\t// out\n    /* \"#utility.yul\":2093:2200   */\ntag_31:\n    /* \"#utility.yul\":2137:2145   */\n  0x00\n    /* \"#utility.yul\":2187:2192   */\n  dup3\n    /* \"#utility.yul\":2181:2185   */\n  dup3\n    /* \"#utility.yul\":2177:2193   */\n  shl\n    /* \"#utility.yul\":2156:2193   */\n  swap1\n  pop\n    /* \"#utility.yul\":2093:2200   */\n  swap3\n  swap2\n  pop\n  pop\n  jump\t// out\n    /* \"#utility.yul\":2206:2599   */\ntag_32:\n    /* \"#utility.yul\":2275:2281   */\n  0x00\n    /* \"#utility.yul\":2325:2326   */\n  0x08\n    /* \"#utility.yul\":2313:2323   */\n  dup4\n    /* \"#utility.yul\":2309:2327   */\n  mul\n    /* \"#utility.yul\":2348:2445   */\n  tag_71\n    /* \"#utility.yul\":2378:2444   */\n  0xffffffffffffffffffffffffffffffffffffffffffffffffffffffffffffffff\n    /* \"#utility.yul\":2367:2376   */\n  dup3\n    /* \"#utility.yul\":2348:2445   */\n  tag_31\n  jump\t// in\ntag_71:\n    /* \"#utility.yul\":2466:2505   */\n  tag_72\n    /* \"#utility.yul\":2496:2504   */\n  dup7\n    /* \"#utility.yul\":2485:2494   */\n  dup4\n    /* \"#utility.yul\":2466:2505   */\n  tag_31\n  jump\t// in\ntag_72:\n    /* \"#utility.yul\":2454:2505   */\n  swap6\n  pop\n    /* \"#utility.yul\":2538:2542   */\n  dup1\n    /* \"#utility.yul\":2534:2543   */\n  not\n    /* \"#utility.yul\":2527:2532   */\n  dup5\n    /* \"#utility.yul\":2523:2544   */\n  and\n    /* \"#utility.yul\":2514:2544   */\n  swap4\n  pop\n    /* \"#utility.yul\":2587:2591   */\n  dup1\n    /* \"#utility.yul\":2577:2585   */\n  dup7\n    /* \"#utility.yul\":2573:2592   */\n  and\n    /* \"#utility.yul\":2566:2571   */\n  dup5\n    /* \"#utility.yul\":2563:2593   */\n  or\n    /* \"#utility.yul\":2553:2593   */\n  swap3\n  pop\n    /* \"#utility.yul\":2282:2599   */\n  pop\n  pop\n    /* \"#utility.yul\":2206:2599   */\n  swap4\n  swap3\n  pop\n  pop\n  pop\n  jump\t// out\n    /* \"#utility.yul\":2605:2682   */\ntag_33:\n    /* \"#utility.yul\":2642:2649   */\n  0x00\n    /* \"#utility.yul\":2671:2676   */\n  dup2\n    /* \"#utility.yul\":2660:2676   */\n  swap1\n  pop\n    /* \"#utility.yul\":2605:2682   */\n  swap2\n  swap1\n  pop\n  jump\t// out\n    /* \"#utility.yul\":2688:2748   */\ntag_34:\n    /* \"#utility.yul\":2716:2719   */\n  0x00\n    /* \"#utility.yul\":2737:2742   */\n  dup2\n    /* \"#utility.yul\":2730:2742   */\n  swap1\n  pop\n    /* \"#utility.yul\":2688:2748   */\n  swap2\n  swap1\n  pop\n  jump\t// out\n    /* \"#utility.yul\":2754:2896   */\ntag_35:\n    /* \"#utility.yul\":2804:2813   */\n  0x00\n    /* \"#utility.yul\":2837:2890   */\n  tag_76\n    /* \"#utility.yul\":2855:2889   */\n  tag_77\n    /* \"#utility.yul\":2864:2888   */\n  tag_78\n    /* \"#utility.yul\":2882:2887   */\n  dup5\n    /* \"#utility.yul\":2864:2888   */\n  tag_33\n  jump\t// in\ntag_78:\n    /* \"#utility.yul\":2855:2889   */\n  tag_34\n  jump\t// in\ntag_77:\n    /* \"#utility.yul\":2837:2890   */\n  tag_33\n  jump\t// in\ntag_76:\n    /* \"#utility.yul\":2824:2890   */\n  swap1\n  pop\n    /* \"#utility.yul\":2754:2896   */\n  swap2\n  swap1\n  pop\n  jump\t// out\n    /* \"#utility.yul\":2902:2977   */\ntag_36:\n    /* \"#utility.yul\":2945:2948   */\n  0x00\n    /* \"#utility.yul\":2966:2971   */\n  dup2\n    /* \"#utility.yul\":2959:2971   */\n  swap1\n  pop\n    /* \"#utility.yul\":2902:2977   */\n  swap2\n  swap1\n  pop\n  jump\t// out\n    /* \"#utility.yul\":2983:3252   */\ntag_37:\n    /* \"#utility.yul\":3093:3132   */\n  tag_81\n    /* \"#utility.yul\":3124:3131   */\n  dup4\n    /* \"#utility.yul\":3093:3132   */\n  tag_35\n  jump\t// in\ntag_81:\n    /* \"#utility.yul\":3154:3245   */\n  tag_82\n    /* \"#utility.yul\":3203:3244   */\n  tag_83\n    /* \"#utility.yul\":3227:3243   */\n  dup3\n    /* \"#utility.yul\":3203:3244   */\n  tag_36\n  jump\t// in\ntag_83:\n    /* \"#utility.yul\":3195:3201   */\n  dup5\n    /* \"#utility.yul\":3188:3192   */\n  dup5\n    /* \"#utility.yul\":3182:3193   */\n  sload\n    /* \"#utility.yul\":3154:3245   */\n  tag_32\n  jump\t// in\ntag_82:\n    /* \"#utility.yul\":3148:3152   */\n  dup3\n    /* \"#utility.yul\":3141:3246   */\n  sstore\n    /* \"#utility.yul\":3059:3252   */\n  pop\n    /* \"#utility.yul\":2983:3252   */\n  pop\n  pop\n  pop\n  jump\t// out\n    /* \"#utility.yul\":3258:3331   */\ntag_38:\n    /* \"#utility.yul\":3303:3306   */\n  0x00\n    /* \"#utility.yul\":3324:3325   */\n  0x00\n    /* \"#utility.yul\":3317:3325   */\n  swap1\n  pop\n    /* \"#utility.yul\":3258:3331   */\n  swap1\n  jump\t// out\n    /* \"#utility.yul\":3337:3526   */\ntag_39:\n    /* \"#utility.yul\":3414:3446   */\n  tag_86\n  tag_38\n  jump\t// in\ntag_86:\n    /* \"#utility.yul\":3455:3520   */\n  tag_87\n    /* \"#utility.yul\":3513:3519   */\n  dup2\n    /* \"#utility.yul\":3505:3511   */\n  dup5\n    /* \"#utility.yul\":3499:3503   */\n  dup5\n    /* \"#utility.yul\":3455:3520   */\n  tag_37\n  jump\t// in\ntag_87:\n    /* \"#utility.yul\":3390:3526   */\n  pop\n    /* \"#utility.yul\":3337:3526   */\n  pop\n  pop\n  jump\t// out\n    /* \"#utility.yul\":3532:3718   */\ntag_40:\n    /* \"#utility.yul\":3592:3712   */\ntag_89:\n    /* \"#utility.yul\":3609:3612   */\n  dup2\n    /* \"#utility.yul\":3602:3607   */\n  dup2\n    /* \"#utility.yul\":3599:3613   */\n  lt\n    /* \"#utility.yul\":3592:3712   */\n  iszero\n  tag_91\n  jumpi\n    /* \"#utility.yul\":3663:3702   */\n  tag_92\n    /* \"#utility.yul\":3700:3701   */\n  0x00\n    /* \"#utility.yul\":3693:3698   */\n  dup3\n    /* \"#utility.yul\":3663:3702   */\n  tag_39\n  jump\t// in\ntag_92:\n    /* \"#utility.yul\":3636:3637   */\n  0x01\n    /* \"#utility.yul\":3629:3634   */\n  dup2\n    /* \"#utility.yul\":3625:3638   */\n  add\n    /* \"#utility.yul\":3616:3638   */\n  swap1\n  pop\n    /* \"#utility.yul\":3592:3712   */\n  jump(tag_89)\ntag_91:\n    /* \"#utility.yul\":3532:3718   */\n  pop\n  pop\n  jump\t// out\n    /* \"#utility.yul\":3724:4267   */\ntag_41:\n    /* \"#utility.yul\":3825:3827   */\n  0x1f\n    /* \"#utility.yul\":3820:3823   */\n  dup3\n    /* \"#utility.yul\":3817:3828   */\n  gt\n    /* \"#utility.yul\":3814:4260   */\n  iszero\n  tag_94\n  jumpi\n    /* \"#utility.yul\":3859:3897   */\n  tag_95\n    /* \"#utility.yul\":3891:3896   */\n  dup2\n    /* \"#utility.yul\":3859:3897   */\n  tag_29\n  jump\t// in\ntag_95:\n    /* \"#utility.yul\":3943:3972   */\n  tag_96\n    /* \"#utility.yul\":3961:3971   */\n  dup5\n    /* \"#utility.yul\":3943:3972   */\n  tag_30\n  jump\t// in\ntag_96:\n    /* \"#utility.yul\":3933:3941   */\n  dup2\n    /* \"#utility.yul\":3929:3973   */\n  add\n    /* \"#utility.yul\":4126:4128   */\n  0x20\n    /* \"#utility.yul\":4114:4124   */\n  dup6\n    /* \"#utility.yul\":4111:4129   */\n  lt\n    /* \"#utility.yul\":4108:4157   */\n  iszero\n  tag_97\n  jumpi\n    /* \"#utility.yul\":4147:4155   */\n  dup2\n    /* \"#utility.yul\":4132:4155   */\n  swap1\n  pop\n    /* \"#utility.yul\":4108:4157   */\ntag_97:\n    /* \"#utility.yul\":4170:4250   */\n  tag_98\n    /* \"#utility.yul\":4226:4248   */\n  tag_99\n    /* \"#utility.yul\":4244:4247   */\n  dup6\n    /* \"#utility.yul\":4226:4248   */\n  tag_30\n  jump\t// in\ntag_99:\n    /* \"#utility.yul\":4216:4224   */\n  dup4\n    /* \"#utility.yul\":4212:4249   */\n  add\n    /* \"#utility.yul\":4199:4210   */\n  dup3\n    /* \"#utility.yul\":4170:4250   */\n  tag_40\n  jump\t// in\ntag_98:\n    /* \"#utility.yul\":3829:4260   */\n  pop\n  pop\n    /* \"#utility.yul\":3814:4260   */\ntag_94:\n    /* \"#utility.yul\":3724:4267   */\n  pop\n  pop\n  pop\n  jump\t// out\n    /* \"#utility.yul\":4273:4390   */\ntag_42:\n    /* \"#utility.yul\":4327:4335   */\n  0x00\n    /* \"#utility.yul\":4377:4382   */\n  dup3\n    /* \"#utility.yul\":4371:4375   */\n  dup3\n    /* \"#utility.yul\":4367:4383   */\n  shr\n    /* \"#utility.yul\":4346:4383   */\n  swap1\n  pop\n    /* \"#utility.yul\":4273:4390   */\n  swap3\n  swap2\n  pop\n  pop\n  jump\t// out\n    /* \"#utility.yul\":4396:4565   */\ntag_43:\n    /* \"#utility.yul\":4440:4446   */\n  0x00\n    /* \"#utility.yul\":4473:4524   */\n  tag_102\n    /* \"#utility.yul\":4521:4522   */\n  0x00\n    /* \"#utility.yul\":4517:4523   */\n  not\n    /* \"#utility.yul\":4509:4514   */\n  dup5\n    /* \"#utility.yul\":4506:4507   */\n  0x08\n    /* \"#utility.yul\":4502:4515   */\n  mul\n    /* \"#utility.yul\":4473:4524   */\n  tag_42\n  jump\t// in\ntag_102:\n    /* \"#utility.yul\":4469:4525   */\n  not\n    /* \"#utility.yul\":4554:4558   */\n  dup1\n    /* \"#utility.yul\":4548:4552   */\n  dup4\n    /* \"#utility.yul\":4544:4559   */\n  and\n    /* \"#utility.yul\":4534:4559   */\n  swap2\n  pop\n    /* \"#utility.yul\":4447:4565   */\n  pop\n    /* \"#utility.yul\":4396:4565   */\n  swap3\n  swap2\n  pop\n  pop\n  jump\t// out\n    /* \"#utility.yul\":4570:4865   */\ntag_44:\n    /* \"#utility.yul\":4646:4650   */\n  0x00\n    /* \"#utility.yul\":4792:4821   */\n  tag_104\n    /* \"#utility.yul\":4817:4820   */\n  dup4\n    /* \"#utility.yul\":4811:4815   */\n  dup4\n    /* \"#utility.yul\":4792:4821   */\n  tag_43\n  jump\t// in\ntag_104:\n    /* \"#utility.yul\":4784:4821   */\n  swap2\n  pop\n    /* \"#utility.yul\":4854:4857   */\n  dup3\n    /* \"#utility.yul\":4851:4852   */\n  0x02\n    /* \"#utility.yul\":4847:4858   */\n  mul\n    /* \"#utility.yul\":4841:4845   */\n  dup3\n    /* \"#utility.yul\":4838:4859   */\n  or\n    /* \"#utility.yul\":4830:4859   */\n  swap1\n  pop\n    /* \"#utility.yul\":4570:4865   */\n  swap3\n  swap2\n  pop\n  pop\n  jump\t// out\n    /* \"#utility.yul\":4870:6265   */\ntag_9:\n    /* \"#utility.yul\":4987:5024   */\n  tag_106\n    /* \"#utility.yul\":5020:5023   */\n  dup3\n    /* \"#utility.yul\":4987:5024   */\n  tag_25\n  jump\t// in\ntag_106:\n    /* \"#utility.yul\":5089:5107   */\n  0xffffffffffffffff\n    /* \"#utility.yul\":5081:5087   */\n  dup2\n    /* \"#utility.yul\":5078:5108   */\n  gt\n    /* \"#utility.yul\":5075:5131   */\n  iszero\n  tag_107\n  jumpi\n    /* \"#utility.yul\":5111:5129   */\n  tag_108\n  tag_26\n  jump\t// in\ntag_108:\n    /* \"#utility.yul\":5075:5131   */\ntag_107:\n    /* \"#utility.yul\":5155:5193   */\n  tag_109\n    /* \"#utility.yul\":5187:5191   */\n  dup3\n    /* \"#utility.yul\":5181:5192   */\n  sload\n    /* \"#utility.yul\":5155:5193   */\n  tag_28\n  jump\t// in\ntag_109:\n    /* \"#utility.yul\":5240:5307   */\n  tag_110\n    /* \"#utility.yul\":5300:5306   */\n  dup3\n    /* \"#utility.yul\":5292:5298   */\n  dup3\n    /* \"#utility.yul\":5286:5290   */\n  dup6\n    /* \"#utility.yul\":5240:5307   */\n  tag_41\n  jump\t// in\ntag_110:\n    /* \"#utility.yul\":5334:5335   */\n  0x00\n    /* \"#utility.yul\":5358:5362   */\n  0x20\n    /* \"#utility.yul\":5345:5362   */\n  swap1\n  pop\n    /* \"#utility.yul\":5390:5392   */\n  0x1f\n    /* \"#utility.yul\":5382:5388   */\n  dup4\n    /* \"#utility.yul\":5379:5393   */\n  gt\n    /* \"#utility.yul\":5407:5408   */\n  0x01\n    /* \"#utility.yul\":5402:6020   */\n  dup2\n  eq\n  tag_112\n  jumpi\n    /* \"#utility.yul\":6064:6065   */\n  0x00\n    /* \"#utility.yul\":6081:6087   */\n  dup5\n    /* \"#utility.yul\":6078:6155   */\n  iszero\n  tag_113\n  jumpi\n    /* \"#utility.yul\":6130:6139   */\n  dup3\n    /* \"#utility.yul\":6125:6128   */\n  dup8\n    /* \"#utility.yul\":6121:6140   */\n  add\n    /* \"#utility.yul\":6115:6141   */\n  mload\n    /* \"#utility.yul\":6106:6141   */\n  swap1\n  pop\n    /* \"#utility.yul\":6078:6155   */\ntag_113:\n    /* \"#utility.yul\":6181:6248   */\n  tag_114\n    /* \"#utility.yul\":6241:6247   */\n  dup6\n    /* \"#utility.yul\":6234:6239   */\n  dup3\n    /* \"#utility.yul\":6181:6248   */\n  tag_44\n  jump\t// in\ntag_114:\n    /* \"#utility.yul\":6175:6179   */\n  dup7\n    /* \"#utility.yul\":6168:6249   */\n  sstore\n    /* \"#utility.yul\":6037:6259   */\n  pop\n    /* \"#utility.yul\":5372:6259   */\n  jump(tag_111)\n    /* \"#utility.yul\":5402:6020   */\ntag_112:\n    /* \"#utility.yul\":5454:5458   */\n  0x1f\n    /* \"#utility.yul\":5450:5459   */\n  not\n    /* \"#utility.yul\":5442:5448   */\n  dup5\n    /* \"#utility.yul\":5438:5460   */\n  and\n    /* \"#utility.yul\":5488:5525   */\n  tag_115\n    /* \"#utility.yul\":5520:5524   */\n  dup7\n    /* \"#utility.yul\":5488:5525   */\n  tag_29\n  jump\t// in\ntag_115:\n    /* \"#utility.yul\":5547:5548   */\n  0x00\n    /* \"#utility.yul\":5561:5769   */\ntag_116:\n    /* \"#utility.yul\":5575:5582   */\n  dup3\n    /* \"#utility.yul\":5572:5573   */\n  dup2\n    /* \"#utility.yul\":5569:5583   */\n  lt\n    /* \"#utility.yul\":5561:5769   */\n  iszero\n  tag_118\n  jumpi\n    /* \"#utility.yul\":5654:5663   */\n  dup5\n    /* \"#utility.yul\":5649:5652   */\n  dup10\n    /* \"#utility.yul\":5645:5664   */\n  add\n    /* \"#utility.yul\":5639:5665   */\n  mload\n    /* \"#utility.yul\":5631:5637   */\n  dup3\n    /* \"#utility.yul\":5624:5666   */\n  sstore\n    /* \"#utility.yul\":5705:5706   */\n  0x01\n    /* \"#utility.yul\":5697:5703   */\n  dup3\n    /* \"#utility.yul\":5693:5707   */\n  add\n    /* \"#utility.yul\":5683:5707   */\n  swap2\n  pop\n    /* \"#utility.yul\":5752:5754   */\n  0x20\n    /* \"#utility.yul\":5741:5750   */\n  dup6\n    /* \"#utility.yul\":5737:5755   */\n  add\n    /* \"#utility.yul\":5724:5755   */\n  swap5\n  pop\n    /* \"#utility.yul\":5598:5602   */\n  0x20\n    /* \"#utility.yul\":5595:5596   */\n  dup2\n    /* \"#utility.yul\":5591:5603   */\n  add\n    /* \"#utility.yul\":5586:5603   */\n  swap1\n  pop\n    /* \"#utility.yul\":5561:5769   */\n  jump(tag_116)\ntag_118:\n    /* \"#utility.yul\":5797:5803   */\n  dup7\n    /* \"#utility.yul\":5788:5795   */\n  dup4\n    /* \"#utility.yul\":5785:5804   */\n  lt\n    /* \"#utility.yul\":5782:5961   */\n  iszero\n  tag_119\n  jumpi\n    /* \"#utility.yul\":5855:5864   */\n  dup5\n    /* \"#utility.yul\":5850:5853   */\n  dup10\n    /* \"#utility.yul\":5846:5865   */\n  add\n    /* \"#utility.yul\":5840:5866   */\n  mload\n    /* \"#utility.yul\":5898:5946   */\n  tag_120\n    /* \"#utility.yul\":5940:5944   */\n  0x1f\n    /* \"#utility.yul\":5932:5938   */\n  dup10\n    /* \"#utility.yul\":5928:5945   */\n  and\n    /* \"#utility.yul\":5917:5926   */\n  dup3\n    /* \"#utility.yul\":5898:5946   */\n  tag_43\n  jump\t// in\ntag_120:\n    /* \"#utility.yul\":5890:5896   */\n  dup4\n    /* \"#utility.yul\":5883:5947   */\n  sstore\n    /* \"#utility.yul\":5805:5961   */\n  pop\n    /* \"#utility.yul\":5782:5961   */\ntag_119:\n    /* \"#utility.yul\":6007:6008   */\n  0x01\n    /* \"#utility.yul\":6003:6004   */\n  0x02\n    /* \"#utility.yul\":5995:6001   */\n  dup9\n    /* \"#utility.yul\":5991:6005   */\n  mul\n    /* \"#utility.yul\":5987:6009   */\n  add\n    /* \"#utility.yul\":5981:5985   */\n  dup9\n    /* \"#utility.yul\":5974:6010   */\n  sstore\n    /* \"#utility.yul\":5409:6020   */\n  pop\n  pop\n  pop\n    /* \"#utility.yul\":5372:6259   */\ntag_111:\n  pop\n    /* \"#utility.yul\":4962:6265   */\n  pop\n  pop\n  pop\n    /* \"#utility.yul\":4870:6265   */\n  pop\n  pop\n  jump\t// out\n    /* \"#utility.yul\":6271:6451   */\ntag_45:\n    /* \"#utility.yul\":6319:6396   */\n  0x4e487b7100000000000000000000000000000000000000000000000000000000\n    /* \"#utility.yul\":6316:6317   */\n  0x00\n    /* \"#utility.yul\":6309:6397   */\n  mstore\n    /* \"#utility.yul\":6416:6420   */\n  0x12\n    /* \"#utility.yul\":6413:6414   */\n  0x04\n    /* \"#utility.yul\":6406:6421   */\n  mstore\n    /* \"#utility.yul\":6440:6444   */\n  0x24\n    /* \"#utility.yul\":6437:6438   */\n  0x00\n    /* \"#utility.yul\":6430:6445   */\n  revert\n    /* \"#utility.yul\":6457:6631   */\ntag_17:\n    /* \"#utility.yul\":6488:6489   */\n  0x00\n    /* \"#utility.yul\":6505:6524   */\n  tag_123\n    /* \"#utility.yul\":6522:6523   */\n  dup3\n    /* \"#utility.yul\":6505:6524   */\n  tag_22\n  jump\t// in\ntag_123:\n    /* \"#utility.yul\":6500:6524   */\n  swap2\n  pop\n    /* \"#utility.yul\":6538:6557   */\n  tag_124\n    /* \"#utility.yul\":6555:6556   */\n  dup4\n    /* \"#utility.yul\":6538:6557   */\n  tag_22\n  jump\t// in\ntag_124:\n    /* \"#utility.yul\":6533:6557   */\n  swap3\n  pop\n    /* \"#utility.yul\":6576:6577   */\n  dup3\n    /* \"#utility.yul\":6566:6601   */\n  tag_125\n  jumpi\n    /* \"#utility.yul\":6581:6599   */\n  tag_126\n  tag_45\n  jump\t// in\ntag_126:\n    /* \"#utility.yul\":6566:6601   */\ntag_125:\n    /* \"#utility.yul\":6623:6624   */\n  dup3\n    /* \"#utility.yul\":6620:6621   */\n  dup3\n    /* \"#utility.yul\":6615:6625   */\n  smod\n    /* \"#utility.yul\":6610:6625   */\n  swap1\n  pop\n    /* \"#utility.yul\":6457:6631   */\n  swap3\n  swap2\n  pop\n  pop\n  jump\t// out\n    /* \"Prime.sol\":58:487  contract Prime {... */\ntag_10:\n  dataSize(sub_0)\n  dup1\n  dataOffset(sub_0)\n  0x00\n  codecopy\n  0x00\n  return\nstop\n\nsub_0: assembly {\n        /* \"Prime.sol\":58:487  contract Prime {... */\n      mstore(0x40, 0x80)\n      callvalue\n      dup1\n      iszero\n      tag_1\n      jumpi\n      revert(0x00, 0x00)\n    tag_1:\n      pop\n      jumpi(tag_2, lt(calldatasize, 0x04))\n      shr(0xe0, calldataload(0x00))\n      dup1\n      0x5d8d4505\n      eq\n      tag_3\n      jumpi\n    tag_2:\n      revert(0x00, 0x00)\n        /* \"Prime.sol\":231:485  function isPrime() public view returns (string memory){... */\n    tag_3:\n      tag_4\n      tag_5\n      jump\t// in\n    tag_4:\n      mload(0x40)\n      tag_6\n      swap2\n      swap1\n      tag_7\n      jump\t// in\n    tag_6:\n      mload(0x40)\n      dup1\n      swap2\n      sub\n      swap1\n      return\n    tag_5:\n        /* \"Prime.sol\":271:284  string memory */\n      0x60\n        /* \"Prime.sol\":308:309  1 */\n      0x01\n        /* \"Prime.sol\":299:305  number */\n      sload(0x00)\n        /* \"Prime.sol\":299:309  number < 1 */\n      slt\n        /* \"Prime.sol\":296:337  if(number < 1)... */\n      iszero\n      tag_9\n      jumpi\n        /* \"Prime.sol\":319:337  return \"Not Prime\" */\n      mload(0x40)\n      dup1\n      0x40\n      add\n      0x40\n      mstore\n      dup1\n      0x09\n      dup2\n      mstore\n      0x20\n      add\n      0x4e6f74205072696d650000000000000000000000000000000000000000000000\n      dup2\n      mstore\n      pop\n      swap1\n      pop\n      jump(tag_8)\n        /* \"Prime.sol\":296:337  if(number < 1)... */\n    tag_9:\n        /* \"Prime.sol\":353:358  int i */\n      0x00\n        /* \"Prime.sol\":359:360  2 */\n      0x02\n        /* \"Prime.sol\":353:360  int i=2 */\n      swap1\n      pop\n        /* \"Prime.sol\":348:454  for (int i=2; i < number; ++i){... */\n    tag_10:\n        /* \"Prime.sol\":366:372  number */\n      sload(0x00)\n        /* \"Prime.sol\":362:363  i */\n      dup2\n        /* \"Prime.sol\":362:372  i < number */\n      slt\n        /* \"Prime.sol\":348:454  for (int i=2; i < number; ++i){... */\n      iszero\n      tag_11\n      jumpi\n        /* \"Prime.sol\":410:411  0 */\n      0x00\n        /* \"Prime.sol\":405:406  i */\n      dup2\n        /* \"Prime.sol\":396:402  number */\n      sload(0x00)\n        /* \"Prime.sol\":396:406  number % i */\n      tag_13\n      swap2\n      swap1\n      tag_14\n      jump\t// in\n    tag_13:\n        /* \"Prime.sol\":396:411  number % i == 0 */\n      sub\n        /* \"Prime.sol\":393:443  if(number % i == 0)... */\n      tag_15\n      jumpi\n        /* \"Prime.sol\":425:443  return \"Not Prime\" */\n      mload(0x40)\n      dup1\n      0x40\n      add\n      0x40\n      mstore\n      dup1\n      0x09\n      dup2\n      mstore\n      0x20\n      add\n      0x4e6f74205072696d650000000000000000000000000000000000000000000000\n      dup2\n      mstore\n      pop\n      swap2\n      pop\n      pop\n      jump(tag_8)\n        /* \"Prime.sol\":393:443  if(number % i == 0)... */\n    tag_15:\n        /* \"Prime.sol\":374:377  ++i */\n      dup1\n      0x01\n      add\n      swap1\n      pop\n        /* \"Prime.sol\":348:454  for (int i=2; i < number; ++i){... */\n      jump(tag_10)\n    tag_11:\n      pop\n        /* \"Prime.sol\":464:478  return \"Prime\" */\n      mload(0x40)\n      dup1\n      0x40\n      add\n      0x40\n      mstore\n      dup1\n      0x05\n      dup2\n      mstore\n      0x20\n      add\n      0x5072696d65000000000000000000000000000000000000000000000000000000\n      dup2\n      mstore\n      pop\n      swap1\n      pop\n        /* \"Prime.sol\":231:485  function isPrime() public view returns (string memory){... */\n    tag_8:\n      swap1\n      jump\t// out\n        /* \"#utility.yul\":7:106   */\n    tag_16:\n        /* \"#utility.yul\":59:65   */\n      0x00\n        /* \"#utility.yul\":93:98   */\n      dup2\n        /* \"#utility.yul\":87:99   */\n      mload\n        /* \"#utility.yul\":77:99   */\n      swap1\n      pop\n        /* \"#utility.yul\":7:106   */\n      swap2\n      swap1\n      pop\n      jump\t// out\n        /* \"#utility.yul\":112:281   */\n    tag_17:\n        /* \"#utility.yul\":196:207   */\n      0x00\n        /* \"#utility.yul\":230:236   */\n      dup3\n        /* \"#utility.yul\":225:228   */\n      dup3\n        /* \"#utility.yul\":218:237   */\n      mstore\n        /* \"#utility.yul\":270:274   */\n      0x20\n        /* \"#utility.yul\":265:268   */\n      dup3\n        /* \"#utility.yul\":261:275   */\n      add\n        /* \"#utility.yul\":246:275   */\n      swap1\n      pop\n        /* \"#utility.yul\":112:281   */\n      swap3\n      swap2\n      pop\n      pop\n      jump\t// out\n        /* \"#utility.yul\":287:426   */\n    tag_18:\n        /* \"#utility.yul\":376:382   */\n      dup3\n        /* \"#utility.yul\":371:374   */\n      dup2\n        /* \"#utility.yul\":366:369   */\n      dup4\n        /* \"#utility.yul\":360:383   */\n      mcopy\n        /* \"#utility.yul\":417:418   */\n      0x00\n        /* \"#utility.yul\":408:414   */\n      dup4\n        /* \"#utility.yul\":403:406   */\n      dup4\n        /* \"#utility.yul\":399:415   */\n      add\n        /* \"#utility.yul\":392:419   */\n      mstore\n        /* \"#utility.yul\":287:426   */\n      pop\n      pop\n      pop\n      jump\t// out\n        /* \"#utility.yul\":432:534   */\n    tag_19:\n        /* \"#utility.yul\":473:479   */\n      0x00\n        /* \"#utility.yul\":524:526   */\n      0x1f\n        /* \"#utility.yul\":520:527   */\n      not\n        /* \"#utility.yul\":515:517   */\n      0x1f\n        /* \"#utility.yul\":508:513   */\n      dup4\n        /* \"#utility.yul\":504:518   */\n      add\n        /* \"#utility.yul\":500:528   */\n      and\n        /* \"#utility.yul\":490:528   */\n      swap1\n      pop\n        /* \"#utility.yul\":432:534   */\n      swap2\n      swap1\n      pop\n      jump\t// out\n        /* \"#utility.yul\":540:917   */\n    tag_20:\n        /* \"#utility.yul\":628:631   */\n      0x00\n        /* \"#utility.yul\":656:695   */\n      tag_29\n        /* \"#utility.yul\":689:694   */\n      dup3\n        /* \"#utility.yul\":656:695   */\n      tag_16\n      jump\t// in\n    tag_29:\n        /* \"#utility.yul\":711:782   */\n      tag_30\n        /* \"#utility.yul\":775:781   */\n      dup2\n        /* \"#utility.yul\":770:773   */\n      dup6\n        /* \"#utility.yul\":711:782   */\n      tag_17\n      jump\t// in\n    tag_30:\n        /* \"#utility.yul\":704:782   */\n      swap4\n      pop\n        /* \"#utility.yul\":791:856   */\n      tag_31\n        /* \"#utility.yul\":849:855   */\n      dup2\n        /* \"#utility.yul\":844:847   */\n      dup6\n        /* \"#utility.yul\":837:841   */\n      0x20\n        /* \"#utility.yul\":830:835   */\n      dup7\n        /* \"#utility.yul\":826:842   */\n      add\n        /* \"#utility.yul\":791:856   */\n      tag_18\n      jump\t// in\n    tag_31:\n        /* \"#utility.yul\":881:910   */\n      tag_32\n        /* \"#utility.yul\":903:909   */\n      dup2\n        /* \"#utility.yul\":881:910   */\n      tag_19\n      jump\t// in\n    tag_32:\n        /* \"#utility.yul\":876:879   */\n      dup5\n        /* \"#utility.yul\":872:911   */\n      add\n        /* \"#utility.yul\":865:911   */\n      swap2\n      pop\n        /* \"#utility.yul\":632:917   */\n      pop\n        /* \"#utility.yul\":540:917   */\n      swap3\n      swap2\n      pop\n      pop\n      jump\t// out\n        /* \"#utility.yul\":923:1236   */\n    tag_7:\n        /* \"#utility.yul\":1036:1040   */\n      0x00\n        /* \"#utility.yul\":1074:1076   */\n      0x20\n        /* \"#utility.yul\":1063:1072   */\n      dup3\n        /* \"#utility.yul\":1059:1077   */\n      add\n        /* \"#utility.yul\":1051:1077   */\n      swap1\n      pop\n        /* \"#utility.yul\":1123:1132   */\n      dup2\n        /* \"#utility.yul\":1117:1121   */\n      dup2\n        /* \"#utility.yul\":1113:1133   */\n      sub\n        /* \"#utility.yul\":1109:1110   */\n      0x00\n        /* \"#utility.yul\":1098:1107   */\n      dup4\n        /* \"#utility.yul\":1094:1111   */\n      add\n        /* \"#utility.yul\":1087:1134   */\n      mstore\n        /* \"#utility.yul\":1151:1229   */\n      tag_34\n        /* \"#utility.yul\":1224:1228   */\n      dup2\n        /* \"#utility.yul\":1215:1221   */\n      dup5\n        /* \"#utility.yul\":1151:1229   */\n      tag_20\n      jump\t// in\n    tag_34:\n        /* \"#utility.yul\":1143:1229   */\n      swap1\n      pop\n        /* \"#utility.yul\":923:1236   */\n      swap3\n      swap2\n      pop\n      pop\n      jump\t// out\n        /* \"#utility.yul\":1242:1318   */\n    tag_21:\n        /* \"#utility.yul\":1278:1285   */\n      0x00\n        /* \"#utility.yul\":1307:1312   */\n      dup2\n        /* \"#utility.yul\":1296:1312   */\n      swap1\n      pop\n        /* \"#utility.yul\":1242:1318   */\n      swap2\n      swap1\n      pop\n      jump\t// out\n        /* \"#utility.yul\":1324:1504   */\n    tag_22:\n        /* \"#utility.yul\":1372:1449   */\n      0x4e487b7100000000000000000000000000000000000000000000000000000000\n        /* \"#utility.yul\":1369:1370   */\n      0x00\n        /* \"#utility.yul\":1362:1450   */\n      mstore\n        /* \"#utility.yul\":1469:1473   */\n      0x12\n        /* \"#utility.yul\":1466:1467   */\n      0x04\n        /* \"#utility.yul\":1459:1474   */\n      mstore\n        /* \"#utility.yul\":1493:1497   */\n      0x24\n        /* \"#utility.yul\":1490:1491   */\n      0x00\n        /* \"#utility.yul\":1483:1498   */\n      revert\n        /* \"#utility.yul\":1510:1684   */\n    tag_14:\n        /* \"#utility.yul\":1541:1542   */\n      0x00\n        /* \"#utility.yul\":1558:1577   */\n      tag_38\n        /* \"#utility.yul\":1575:1576   */\n      dup3\n        /* \"#utility.yul\":1558:1577   */\n      tag_21\n      jump\t// in\n    tag_38:\n        /* \"#utility.yul\":1553:1577   */\n      swap2\n      pop\n        /* \"#utility.yul\":1591:1610   */\n      tag_39\n        /* \"#utility.yul\":1608:1609   */\n      dup4\n        /* \"#utility.yul\":1591:1610   */\n      tag_21\n      jump\t// in\n    tag_39:\n        /* \"#utility.yul\":1586:1610   */\n      swap3\n      pop\n        /* \"#utility.yul\":1629:1630   */\n      dup3\n        /* \"#utility.yul\":1619:1654   */\n      tag_40\n      jumpi\n        /* \"#utility.yul\":1634:1652   */\n      tag_41\n      tag_22\n      jump\t// in\n    tag_41:\n        /* \"#utility.yul\":1619:1654   */\n    tag_40:\n        /* \"#utility.yul\":1676:1677   */\n      dup3\n        /* \"#utility.yul\":1673:1674   */\n      dup3\n        /* \"#utility.yul\":1668:1678   */\n      smod\n        /* \"#utility.yul\":1663:1678   */\n      swap1\n      pop\n        /* \"#utility.yul\":1510:1684   */\n      swap3\n      swap2\n      pop\n      pop\n      jump\t// out\n\n    auxdata: 0xa2646970667358221220df0c7e29a58debd3289c011ca88bb4fbbf2b46e8c8638bfdffcf0f24aa314a3464736f6c634300081e0033\n}\n",
				"bytecode": {
					"linkReferences": {},
					"object": "608060405234801561000f575f5ffd5b5060405161078b38038061078b83398181016040528101906100319190610182565b805f8190555061004561005a60201b60201c565b6001908161005391906103ea565b5050610516565b606060015f5412156100a3576040518060400160405280600981526020017f4e6f74205072696d6500000000000000000000000000000000000000000000008152509050610148565b5f600290505b5f5481121561010e575f815f546100c091906104e6565b03610103576040518060400160405280600981526020017f4e6f74205072696d650000000000000000000000000000000000000000000000815250915050610148565b8060010190506100a9565b506040518060400160405280600581526020017f5072696d6500000000000000000000000000000000000000000000000000000081525090505b90565b5f5ffd5b5f819050919050565b6101618161014f565b811461016b575f5ffd5b50565b5f8151905061017c81610158565b92915050565b5f602082840312156101975761019661014b565b5b5f6101a48482850161016e565b91505092915050565b5f81519050919050565b7f4e487b71000000000000000000000000000000000000000000000000000000005f52604160045260245ffd5b7f4e487b71000000000000000000000000000000000000000000000000000000005f52602260045260245ffd5b5f600282049050600182168061022857607f821691505b60208210810361023b5761023a6101e4565b5b50919050565b5f819050815f5260205f209050919050565b5f6020601f8301049050919050565b5f82821b905092915050565b5f6008830261029d7fffffffffffffffffffffffffffffffffffffffffffffffffffffffffffffffff82610262565b6102a78683610262565b95508019841693508086168417925050509392505050565b5f819050919050565b5f819050919050565b5f6102eb6102e66102e1846102bf565b6102c8565b6102bf565b9050919050565b5f819050919050565b610304836102d1565b610318610310826102f2565b84845461026e565b825550505050565b5f5f905090565b61032f610320565b61033a8184846102fb565b505050565b5b8181101561035d576103525f82610327565b600181019050610340565b5050565b601f8211156103a25761037381610241565b61037c84610253565b8101602085101561038b578190505b61039f61039785610253565b83018261033f565b50505b505050565b5f82821c905092915050565b5f6103c25f19846008026103a7565b1980831691505092915050565b5f6103da83836103b3565b9150826002028217905092915050565b6103f3826101ad565b67ffffffffffffffff81111561040c5761040b6101b7565b5b6104168254610211565b610421828285610361565b5f60209050601f831160018114610452575f8415610440578287015190505b61044a85826103cf565b8655506104b1565b601f19841661046086610241565b5f5b8281101561048757848901518255600182019150602085019450602081019050610462565b868310156104a457848901516104a0601f8916826103b3565b8355505b6001600288020188555050505b505050505050565b7f4e487b71000000000000000000000000000000000000000000000000000000005f52601260045260245ffd5b5f6104f08261014f565b91506104fb8361014f565b92508261050b5761050a6104b9565b5b828207905092915050565b610268806105235f395ff3fe608060405234801561000f575f5ffd5b5060043610610029575f3560e01c80635d8d45051461002d575b5f5ffd5b61003561004b565b60405161004291906101ac565b60405180910390f35b606060015f541215610094576040518060400160405280600981526020017f4e6f74205072696d6500000000000000000000000000000000000000000000008152509050610139565b5f600290505b5f548112156100ff575f815f546100b19190610202565b036100f4576040518060400160405280600981526020017f4e6f74205072696d650000000000000000000000000000000000000000000000815250915050610139565b80600101905061009a565b506040518060400160405280600581526020017f5072696d6500000000000000000000000000000000000000000000000000000081525090505b90565b5f81519050919050565b5f82825260208201905092915050565b8281835e5f83830152505050565b5f601f19601f8301169050919050565b5f61017e8261013c565b6101888185610146565b9350610198818560208601610156565b6101a181610164565b840191505092915050565b5f6020820190508181035f8301526101c48184610174565b905092915050565b5f819050919050565b7f4e487b71000000000000000000000000000000000000000000000000000000005f52601260045260245ffd5b5f61020c826101cc565b9150610217836101cc565b925082610227576102266101d5565b5b82820790509291505056fea2646970667358221220df0c7e29a58debd3289c011ca88bb4fbbf2b46e8c8638bfdffcf0f24aa314a3464736f6c634300081e0033",
					"opcodes": "PUSH1 0x80 PUSH1 0x40 MSTORE CALLVALUE DUP1 ISZERO PUSH2 0xF JUMPI PUSH0 PUSH0 REVERT JUMPDEST POP PUSH1 0x40 MLOAD PUSH2 0x78B CODESIZE SUB DUP1 PUSH2 0x78B DUP4 CODECOPY DUP2 DUP2 ADD PUSH1 0x40 MSTORE DUP2 ADD SWAP1 PUSH2 0x31 SWAP2 SWAP1 PUSH2 0x182 JUMP JUMPDEST DUP1 PUSH0 DUP2 SWAP1 SSTORE POP PUSH2 0x45 PUSH2 0x5A PUSH1 0x20 SHL PUSH1 0x20 SHR JUMP JUMPDEST PUSH1 0x1 SWAP1 DUP2 PUSH2 0x53 SWAP2 SWAP1 PUSH2 0x3EA JUMP JUMPDEST POP POP PUSH2 0x516 JUMP JUMPDEST PUSH1 0x60 PUSH1 0x1 PUSH0 SLOAD SLT ISZERO PUSH2 0xA3 JUMPI PUSH1 0x40 MLOAD DUP1 PUSH1 0x40 ADD PUSH1 0x40 MSTORE DUP1 PUSH1 0x9 DUP2 MSTORE PUSH1 0x20 ADD PUSH32 0x4E6F74205072696D650000000000000000000000000000000000000000000000 DUP2 MSTORE POP SWAP1 POP PUSH2 0x148 JUMP JUMPDEST PUSH0 PUSH1 0x2 SWAP1 POP JUMPDEST PUSH0 SLOAD DUP2 SLT ISZERO PUSH2 0x10E JUMPI PUSH0 DUP2 PUSH0 SLOAD PUSH2 0xC0 SWAP2 SWAP1 PUSH2 0x4E6 JUMP JUMPDEST SUB PUSH2 0x103 JUMPI PUSH1 0x40 MLOAD DUP1 PUSH1 0x40 ADD PUSH1 0x40 MSTORE DUP1 PUSH1 0x9 DUP2 MSTORE PUSH1 0x20 ADD PUSH32 0x4E6F74205072696D650000000000000000000000000000000000000000000000 DUP2 MSTORE POP SWAP2 POP POP PUSH2 0x148 JUMP JUMPDEST DUP1 PUSH1 0x1 ADD SWAP1 POP PUSH2 0xA9 JUMP JUMPDEST POP PUSH1 0x40 MLOAD DUP1 PUSH1 0x40 ADD PUSH1 0x40 MSTORE DUP1 PUSH1 0x5 DUP2 MSTORE PUSH1 0x20 ADD PUSH32 0x5072696D65000000000000000000000000000000000000000000000000000000 DUP2 MSTORE POP SWAP1 POP JUMPDEST SWAP1 JUMP JUMPDEST PUSH0 PUSH0 REVERT JUMPDEST PUSH0 DUP2 SWAP1 POP SWAP2 SWAP1 POP JUMP JUMPDEST PUSH2 0x161 DUP2 PUSH2 0x14F JUMP JUMPDEST DUP2 EQ PUSH2 0x16B JUMPI PUSH0 PUSH0 REVERT JUMPDEST POP JUMP JUMPDEST PUSH0 DUP2 MLOAD SWAP1 POP PUSH2 0x17C DUP2 PUSH2 0x158 JUMP JUMPDEST SWAP3 SWAP2 POP POP JUMP JUMPDEST PUSH0 PUSH1 0x20 DUP3 DUP5 SUB SLT ISZERO PUSH2 0x197 JUMPI PUSH2 0x196 PUSH2 0x14B JUMP JUMPDEST JUMPDEST PUSH0 PUSH2 0x1A4 DUP5 DUP3 DUP6 ADD PUSH2 0x16E JUMP JUMPDEST SWAP2 POP POP SWAP3 SWAP2 POP POP JUMP JUMPDEST PUSH0 DUP2 MLOAD SWAP1 POP SWAP2 SWAP1 POP JUMP JUMPDEST PUSH32 0x4E487B7100000000000000000000000000000000000000000000000000000000 PUSH0 MSTORE PUSH1 0x41 PUSH1 0x4 MSTORE PUSH1 0x24 PUSH0 REVERT JUMPDEST PUSH32 0x4E487B7100000000000000000000000000000000000000000000000000000000 PUSH0 MSTORE PUSH1 0x22 PUSH1 0x4 MSTORE PUSH1 0x24 PUSH0 REVERT JUMPDEST PUSH0 PUSH1 0x2 DUP3 DIV SWAP1 POP PUSH1 0x1 DUP3 AND DUP1 PUSH2 0x228 JUMPI PUSH1 0x7F DUP3 AND SWAP2 POP JUMPDEST PUSH1 0x20 DUP3 LT DUP2 SUB PUSH2 0x23B JUMPI PUSH2 0x23A PUSH2 0x1E4 JUMP JUMPDEST JUMPDEST POP SWAP2 SWAP1 POP JUMP JUMPDEST PUSH0 DUP2 SWAP1 POP DUP2 PUSH0 MSTORE PUSH1 0x20 PUSH0 KECCAK256 SWAP1 POP SWAP2 SWAP1 POP JUMP JUMPDEST PUSH0 PUSH1 0x20 PUSH1 0x1F DUP4 ADD DIV SWAP1 POP SWAP2 SWAP1 POP JUMP JUMPDEST PUSH0 DUP3 DUP3 SHL SWAP1 POP SWAP3 SWAP2 POP POP JUMP JUMPDEST PUSH0 PUSH1 0x8 DUP4 MUL PUSH2 0x29D PUSH32 0xFFFFFFFFFFFFFFFFFFFFFFFFFFFFFFFFFFFFFFFFFFFFFFFFFFFFFFFFFFFFFFFF DUP3 PUSH2 0x262 JUMP JUMPDEST PUSH2 0x2A7 DUP7 DUP4 PUSH2 0x262 JUMP JUMPDEST SWAP6 POP DUP1 NOT DUP5 AND SWAP4 POP DUP1 DUP7 AND DUP5 OR SWAP3 POP POP POP SWAP4 SWAP3 POP POP POP JUMP JUMPDEST PUSH0 DUP2 SWAP1 POP SWAP2 SWAP1 POP JUMP JUMPDEST PUSH0 DUP2 SWAP1 POP SWAP2 SWAP1 POP JUMP JUMPDEST PUSH0 PUSH2 0x2EB PUSH2 0x2E6 PUSH2 0x2E1 DUP5 PUSH2 0x2BF JUMP JUMPDEST PUSH2 0x2C8 JUMP JUMPDEST PUSH2 0x2BF JUMP JUMPDEST SWAP1 POP SWAP2 SWAP1 POP JUMP JUMPDEST PUSH0 DUP2 SWAP1 POP SWAP2 SWAP1 POP JUMP JUMPDEST PUSH2 0x304 DUP4 PUSH2 0x2D1 JUMP JUMPDEST PUSH2 0x318 PUSH2 0x310 DUP3 PUSH2 0x2F2 JUMP JUMPDEST DUP5 DUP5 SLOAD PUSH2 0x26E JUMP JUMPDEST DUP3 SSTORE POP POP POP POP JUMP JUMPDEST PUSH0 PUSH0 SWAP1 POP SWAP1 JUMP JUMPDEST PUSH2 0x32F PUSH2 0x320 JUMP JUMPDEST PUSH2 0x33A DUP2 DUP5 DUP5 PUSH2 0x2FB JUMP JUMPDEST POP POP POP JUMP JUMPDEST JUMPDEST DUP2 DUP2 LT ISZERO PUSH2 0x35D JUMPI PUSH2 0x352 PUSH0 DUP3 PUSH2 0x327 JUMP JUMPDEST PUSH1 0x1 DUP2 ADD SWAP1 POP PUSH2 0x340 JUMP JUMPDEST POP POP JUMP JUMPDEST PUSH1 0x1F DUP3 GT ISZERO PUSH2 0x3A2 JUMPI PUSH2 0x373 DUP2 PUSH2 0x241 JUMP JUMPDEST PUSH2 0x37C DUP5 PUSH2 0x253 JUMP JUMPDEST DUP2 ADD PUSH1 0x20 DUP6 LT ISZERO PUSH2 0x38B JUMPI DUP2 SWAP1 POP JUMPDEST PUSH2 0x39F PUSH2 0x397 DUP6 PUSH2 0x253 JUMP JUMPDEST DUP4 ADD DUP3 PUSH2 0x33F JUMP JUMPDEST POP POP JUMPDEST POP POP POP JUMP JUMPDEST PUSH0 DUP3 DUP3 SHR SWAP1 POP SWAP3 SWAP2 POP POP JUMP JUMPDEST PUSH0 PUSH2 0x3C2 PUSH0 NOT DUP5 PUSH1 0x8 MUL PUSH2 0x3A7 JUMP JUMPDEST NOT DUP1 DUP4 AND SWAP2 POP POP SWAP3 SWAP2 POP POP JUMP JUMPDEST PUSH0 PUSH2 0x3DA DUP4 DUP4 PUSH2 0x3B3 JUMP JUMPDEST SWAP2 POP DUP3 PUSH1 0x2 MUL DUP3 OR SWAP1 POP SWAP3 SWAP2 POP POP JUMP JUMPDEST PUSH2 0x3F3 DUP3 PUSH2 0x1AD JUMP JUMPDEST PUSH8 0xFFFFFFFFFFFFFFFF DUP2 GT ISZERO PUSH2 0x40C JUMPI PUSH2 0x40B PUSH2 0x1B7 JUMP JUMPDEST JUMPDEST PUSH2 0x416 DUP3 SLOAD PUSH2 0x211 JUMP JUMPDEST PUSH2 0x421 DUP3 DUP3 DUP6 PUSH2 0x361 JUMP JUMPDEST PUSH0 PUSH1 0x20 SWAP1 POP PUSH1 0x1F DUP4 GT PUSH1 0x1 DUP2 EQ PUSH2 0x452 JUMPI PUSH0 DUP5 ISZERO PUSH2 0x440 JUMPI DUP3 DUP8 ADD MLOAD SWAP1 POP JUMPDEST PUSH2 0x44A DUP6 DUP3 PUSH2 0x3CF JUMP JUMPDEST DUP7 SSTORE POP PUSH2 0x4B1 JUMP JUMPDEST PUSH1 0x1F NOT DUP5 AND PUSH2 0x460 DUP7 PUSH2 0x241 JUMP JUMPDEST PUSH0 JUMPDEST DUP3 DUP2 LT ISZERO PUSH2 0x487 JUMPI DUP5 DUP10 ADD MLOAD DUP3 SSTORE PUSH1 0x1 DUP3 ADD SWAP2 POP PUSH1 0x20 DUP6 ADD SWAP5 POP PUSH1 0x20 DUP2 ADD SWAP1 POP PUSH2 0x462 JUMP JUMPDEST DUP7 DUP4 LT ISZERO PUSH2 0x4A4 JUMPI DUP5 DUP10 ADD MLOAD PUSH2 0x4A0 PUSH1 0x1F DUP10 AND DUP3 PUSH2 0x3B3 JUMP JUMPDEST DUP4 SSTORE POP JUMPDEST PUSH1 0x1 PUSH1 0x2 DUP9 MUL ADD DUP9 SSTORE POP POP POP JUMPDEST POP POP POP POP POP POP JUMP JUMPDEST PUSH32 0x4E487B7100000000000000000000000000000000000000000000000000000000 PUSH0 MSTORE PUSH1 0x12 PUSH1 0x4 MSTORE PUSH1 0x24 PUSH0 REVERT JUMPDEST PUSH0 PUSH2 0x4F0 DUP3 PUSH2 0x14F JUMP JUMPDEST SWAP2 POP PUSH2 0x4FB DUP4 PUSH2 0x14F JUMP JUMPDEST SWAP3 POP DUP3 PUSH2 0x50B JUMPI PUSH2 0x50A PUSH2 0x4B9 JUMP JUMPDEST JUMPDEST DUP3 DUP3 SMOD SWAP1 POP SWAP3 SWAP2 POP POP JUMP JUMPDEST PUSH2 0x268 DUP1 PUSH2 0x523 PUSH0 CODECOPY PUSH0 RETURN INVALID PUSH1 0x80 PUSH1 0x40 MSTORE CALLVALUE DUP1 ISZERO PUSH2 0xF JUMPI PUSH0 PUSH0 REVERT JUMPDEST POP PUSH1 0x4 CALLDATASIZE LT PUSH2 0x29 JUMPI PUSH0 CALLDATALOAD PUSH1 0xE0 SHR DUP1 PUSH4 0x5D8D4505 EQ PUSH2 0x2D JUMPI JUMPDEST PUSH0 PUSH0 REVERT JUMPDEST PUSH2 0x35 PUSH2 0x4B JUMP JUMPDEST PUSH1 0x40 MLOAD PUSH2 0x42 SWAP2 SWAP1 PUSH2 0x1AC JUMP JUMPDEST PUSH1 0x40 MLOAD DUP1 SWAP2 SUB SWAP1 RETURN JUMPDEST PUSH1 0x60 PUSH1 0x1 PUSH0 SLOAD SLT ISZERO PUSH2 0x94 JUMPI PUSH1 0x40 MLOAD DUP1 PUSH1 0x40 ADD PUSH1 0x40 MSTORE DUP1 PUSH1 0x9 DUP2 MSTORE PUSH1 0x20 ADD PUSH32 0x4E6F74205072696D650000000000000000000000000000000000000000000000 DUP2 MSTORE POP SWAP1 POP PUSH2 0x139 JUMP JUMPDEST PUSH0 PUSH1 0x2 SWAP1 POP JUMPDEST PUSH0 SLOAD DUP2 SLT ISZERO PUSH2 0xFF JUMPI PUSH0 DUP2 PUSH0 SLOAD PUSH2 0xB1 SWAP2 SWAP1 PUSH2 0x202 JUMP JUMPDEST SUB PUSH2 0xF4 JUMPI PUSH1 0x40 MLOAD DUP1 PUSH1 0x40 ADD PUSH1 0x40 MSTORE DUP1 PUSH1 0x9 DUP2 MSTORE PUSH1 0x20 ADD PUSH32 0x4E6F74205072696D650000000000000000000000000000000000000000000000 DUP2 MSTORE POP SWAP2 POP POP PUSH2 0x139 JUMP JUMPDEST DUP1 PUSH1 0x1 ADD SWAP1 POP PUSH2 0x9A JUMP JUMPDEST POP PUSH1 0x40 MLOAD DUP1 PUSH1 0x40 ADD PUSH1 0x40 MSTORE DUP1 PUSH1 0x5 DUP2 MSTORE PUSH1 0x20 ADD PUSH32 0x5072696D65000000000000000000000000000000000000000000000000000000 DUP2 MSTORE POP SWAP1 POP JUMPDEST SWAP1 JUMP JUMPDEST PUSH0 DUP2 MLOAD SWAP1 POP SWAP2 SWAP1 POP JUMP JUMPDEST PUSH0 DUP3 DUP3 MSTORE PUSH1 0x20 DUP3 ADD SWAP1 POP SWAP3 SWAP2 POP POP JUMP JUMPDEST DUP3 DUP2 DUP4 MCOPY PUSH0 DUP4 DUP4 ADD MSTORE POP POP POP JUMP JUMPDEST PUSH0 PUSH1 0x1F NOT PUSH1 0x1F DUP4 ADD AND SWAP1 POP SWAP2 SWAP1 POP JUMP JUMPDEST PUSH0 PUSH2 0x17E DUP3 PUSH2 0x13C JUMP JUMPDEST PUSH2 0x188 DUP2 DUP6 PUSH2 0x146 JUMP JUMPDEST SWAP4 POP PUSH2 0x198 DUP2 DUP6 PUSH1 0x20 DUP7 ADD PUSH2 0x156 JUMP JUMPDEST PUSH2 0x1A1 DUP2 PUSH2 0x164 JUMP JUMPDEST DUP5 ADD SWAP2 POP POP SWAP3 SWAP2 POP POP JUMP JUMPDEST PUSH0 PUSH1 0x20 DUP3 ADD SWAP1 POP DUP2 DUP2 SUB PUSH0 DUP4 ADD MSTORE PUSH2 0x1C4 DUP2 DUP5 PUSH2 0x174 JUMP JUMPDEST SWAP1 POP SWAP3 SWAP2 POP POP JUMP JUMPDEST PUSH0 DUP2 SWAP1 POP SWAP2 SWAP1 POP JUMP JUMPDEST PUSH32 0x4E487B7100000000000000000000000000000000000000000000000000000000 PUSH0 MSTORE PUSH1 0x12 PUSH1 0x4 MSTORE PUSH1 0x24 PUSH0 REVERT JUMPDEST PUSH0 PUSH2 0x20C DUP3 PUSH2 0x1CC JUMP JUMPDEST SWAP2 POP PUSH2 0x217 DUP4 PUSH2 0x1CC JUMP JUMPDEST SWAP3 POP DUP3 PUSH2 0x227 JUMPI PUSH2 0x226 PUSH2 0x1D5 JUMP JUMPDEST JUMPDEST DUP3 DUP3 SMOD SWAP1 POP SWAP3 SWAP2 POP POP JUMP INVALID LOG2 PUSH5 0x6970667358 0x22 SLT KECCAK256 0xDF 0xC PUSH31 0x29A58DEBD3289C011CA88BB4FBBF2B46E8C8638BFDFFCF0F24AA314A346473 PUSH16 0x6C634300081E00330000000000000000 "
				},
				"gasEstimates": {
					"creation": {
						"codeDepositCost": "123200",
						"executionCost": "infinite",
						"totalCost": "infinite"
					},
					"external": {
						"isPrime()": "infinite"
					}
				},
				"methodIdentifiers": {
					"isPrime()": "5d8d4505"
				}
			},
			"storageLayout": {
				"storage": [
					{
						"astId": 3,
						"contract": "Prime.sol:Prime",
						"label": "number",
						"offset": 0,
						"slot": "0",
						"type": "t_int256"
					},
					{
						"astId": 5,
						"contract": "Prime.sol:Prime",
						"label": "ans",
						"offset": 0,
						"slot": "1",
						"type": "t_string_storage"
					}
				],
				"types": {
					"t_int256": {
						"encoding": "inplace",
						"label": "int256",
						"numberOfBytes": "32"
					},
					"t_string_storage": {
						"encoding": "bytes",
						"label": "string",
						"numberOfBytes": "32"
					}
				}
			},
			"userdoc": {
				"kind": "user",
				"methods": {},
				"version": 1
			}
		}
	}
}